{
  "_format": "hh-sol-artifact-1",
  "contractName": "Governance",
  "sourceName": "contracts/Governance.sol",
  "abi": [
    {
      "inputs": [
        {
          "internalType": "address",
          "name": "_usdcToken",
          "type": "address"
        },
        {
          "internalType": "address",
          "name": "_membershipContract",
          "type": "address"
        },
        {
          "internalType": "address",
          "name": "_treasuryContract",
          "type": "address"
        },
        {
          "internalType": "uint256",
          "name": "_proposalThreshold",
          "type": "uint256"
        },
        {
          "internalType": "address",
          "name": "initialOwner",
          "type": "address"
        }
      ],
      "stateMutability": "nonpayable",
      "type": "constructor"
    },
    {
      "inputs": [
        {
          "internalType": "address",
          "name": "owner",
          "type": "address"
        }
      ],
      "name": "OwnableInvalidOwner",
      "type": "error"
    },
    {
      "inputs": [
        {
          "internalType": "address",
          "name": "account",
          "type": "address"
        }
      ],
      "name": "OwnableUnauthorizedAccount",
      "type": "error"
    },
    {
      "anonymous": false,
      "inputs": [
        {
          "indexed": true,
          "internalType": "address",
          "name": "previousOwner",
          "type": "address"
        },
        {
          "indexed": true,
          "internalType": "address",
          "name": "newOwner",
          "type": "address"
        }
      ],
      "name": "OwnershipTransferred",
      "type": "event"
    },
    {
      "anonymous": false,
      "inputs": [
        {
          "indexed": false,
          "internalType": "uint256",
          "name": "proposalId",
          "type": "uint256"
        },
        {
          "indexed": false,
          "internalType": "address",
          "name": "proposer",
          "type": "address"
        },
        {
          "indexed": false,
          "internalType": "string",
          "name": "title",
          "type": "string"
        },
        {
          "indexed": false,
          "internalType": "uint256",
          "name": "amount",
          "type": "uint256"
        }
      ],
      "name": "ProposalCreated",
      "type": "event"
    },
    {
      "anonymous": false,
      "inputs": [
        {
          "indexed": false,
          "internalType": "uint256",
          "name": "proposalId",
          "type": "uint256"
        }
      ],
      "name": "ProposalExecuted",
      "type": "event"
    },
    {
      "anonymous": false,
      "inputs": [
        {
          "indexed": false,
          "internalType": "uint256",
          "name": "newThreshold",
          "type": "uint256"
        }
      ],
      "name": "ProposalThresholdUpdated",
      "type": "event"
    },
    {
      "anonymous": false,
      "inputs": [
        {
          "indexed": false,
          "internalType": "uint256",
          "name": "proposalId",
          "type": "uint256"
        },
        {
          "indexed": false,
          "internalType": "address",
          "name": "voter",
          "type": "address"
        },
        {
          "indexed": false,
          "internalType": "bool",
          "name": "support",
          "type": "bool"
        }
      ],
      "name": "Voted",
      "type": "event"
    },
    {
      "inputs": [
        {
          "internalType": "string",
          "name": "_title",
          "type": "string"
        },
        {
          "internalType": "string",
          "name": "_description",
          "type": "string"
        },
        {
          "internalType": "uint256",
          "name": "_amount",
          "type": "uint256"
        },
        {
          "internalType": "address",
          "name": "_recipient",
          "type": "address"
        },
        {
          "internalType": "uint256",
          "name": "_votingPeriod",
          "type": "uint256"
        }
      ],
      "name": "createProposal",
      "outputs": [
        {
          "internalType": "uint256",
          "name": "",
          "type": "uint256"
        }
      ],
      "stateMutability": "nonpayable",
      "type": "function"
    },
    {
      "inputs": [
        {
          "internalType": "uint256",
          "name": "_proposalId",
          "type": "uint256"
        }
      ],
      "name": "finalizeProposal",
      "outputs": [],
      "stateMutability": "nonpayable",
      "type": "function"
    },
    {
      "inputs": [
        {
          "internalType": "uint256",
          "name": "_proposalId",
          "type": "uint256"
        }
      ],
      "name": "getProposal",
      "outputs": [
        {
          "components": [
            {
              "internalType": "uint256",
              "name": "id",
              "type": "uint256"
            },
            {
              "internalType": "address",
              "name": "proposer",
              "type": "address"
            },
            {
              "internalType": "string",
              "name": "title",
              "type": "string"
            },
            {
              "internalType": "string",
              "name": "description",
              "type": "string"
            },
            {
              "internalType": "uint256",
              "name": "amount",
              "type": "uint256"
            },
            {
              "internalType": "address",
              "name": "recipient",
              "type": "address"
            },
            {
              "internalType": "uint256",
              "name": "yesVotes",
              "type": "uint256"
            },
            {
              "internalType": "uint256",
              "name": "noVotes",
              "type": "uint256"
            },
            {
              "internalType": "enum Governance.ProposalStatus",
              "name": "status",
              "type": "uint8"
            },
            {
              "internalType": "uint256",
              "name": "startTime",
              "type": "uint256"
            },
            {
              "internalType": "uint256",
              "name": "endTime",
              "type": "uint256"
            }
          ],
          "internalType": "struct Governance.ProposalView",
          "name": "",
          "type": "tuple"
        }
      ],
      "stateMutability": "view",
      "type": "function"
    },
    {
      "inputs": [],
      "name": "getProposalCount",
      "outputs": [
        {
          "internalType": "uint256",
          "name": "",
          "type": "uint256"
        }
      ],
      "stateMutability": "view",
      "type": "function"
    },
    {
      "inputs": [
        {
          "internalType": "uint256",
          "name": "_proposalId",
          "type": "uint256"
        },
        {
          "internalType": "address",
          "name": "_voter",
          "type": "address"
        }
      ],
      "name": "hasVoted",
      "outputs": [
        {
          "internalType": "bool",
          "name": "",
          "type": "bool"
        }
      ],
      "stateMutability": "view",
      "type": "function"
    },
    {
      "inputs": [],
      "name": "membershipContract",
      "outputs": [
        {
          "internalType": "address",
          "name": "",
          "type": "address"
        }
      ],
      "stateMutability": "view",
      "type": "function"
    },
    {
      "inputs": [],
      "name": "owner",
      "outputs": [
        {
          "internalType": "address",
          "name": "",
          "type": "address"
        }
      ],
      "stateMutability": "view",
      "type": "function"
    },
    {
      "inputs": [],
      "name": "proposalThreshold",
      "outputs": [
        {
          "internalType": "uint256",
          "name": "",
          "type": "uint256"
        }
      ],
      "stateMutability": "view",
      "type": "function"
    },
    {
      "inputs": [
        {
          "internalType": "uint256",
          "name": "",
          "type": "uint256"
        }
      ],
      "name": "proposals",
      "outputs": [
        {
          "internalType": "uint256",
          "name": "id",
          "type": "uint256"
        },
        {
          "internalType": "address",
          "name": "proposer",
          "type": "address"
        },
        {
          "internalType": "string",
          "name": "title",
          "type": "string"
        },
        {
          "internalType": "string",
          "name": "description",
          "type": "string"
        },
        {
          "internalType": "uint256",
          "name": "amount",
          "type": "uint256"
        },
        {
          "internalType": "address",
          "name": "recipient",
          "type": "address"
        },
        {
          "internalType": "uint256",
          "name": "yesVotes",
          "type": "uint256"
        },
        {
          "internalType": "uint256",
          "name": "noVotes",
          "type": "uint256"
        },
        {
          "internalType": "enum Governance.ProposalStatus",
          "name": "status",
          "type": "uint8"
        },
        {
          "internalType": "uint256",
          "name": "startTime",
          "type": "uint256"
        },
        {
          "internalType": "uint256",
          "name": "endTime",
          "type": "uint256"
        }
      ],
      "stateMutability": "view",
      "type": "function"
    },
    {
      "inputs": [],
      "name": "renounceOwnership",
      "outputs": [],
      "stateMutability": "nonpayable",
      "type": "function"
    },
    {
      "inputs": [
        {
          "internalType": "address",
          "name": "newOwner",
          "type": "address"
        }
      ],
      "name": "transferOwnership",
      "outputs": [],
      "stateMutability": "nonpayable",
      "type": "function"
    },
    {
      "inputs": [],
      "name": "treasuryContract",
      "outputs": [
        {
          "internalType": "address",
          "name": "",
          "type": "address"
        }
      ],
      "stateMutability": "view",
      "type": "function"
    },
    {
      "inputs": [
        {
          "internalType": "uint256",
          "name": "_newThreshold",
          "type": "uint256"
        }
      ],
      "name": "updateProposalThreshold",
      "outputs": [],
      "stateMutability": "nonpayable",
      "type": "function"
    },
    {
      "inputs": [],
      "name": "usdcToken",
      "outputs": [
        {
          "internalType": "address",
          "name": "",
          "type": "address"
        }
      ],
      "stateMutability": "view",
      "type": "function"
    },
    {
      "inputs": [
        {
          "internalType": "uint256",
          "name": "_proposalId",
          "type": "uint256"
        },
        {
          "internalType": "bool",
          "name": "_support",
          "type": "bool"
        }
      ],
      "name": "vote",
      "outputs": [],
      "stateMutability": "nonpayable",
      "type": "function"
    }
  ],
  "bytecode": "0x60806040523480156200001157600080fd5b506040516200273a3803806200273a8339818101604052810190620000379190620002fd565b80600073ffffffffffffffffffffffffffffffffffffffff168173ffffffffffffffffffffffffffffffffffffffff1603620000ad5760006040517f1e4fbdf7000000000000000000000000000000000000000000000000000000008152600401620000a4919062000396565b60405180910390fd5b620000be816200019460201b60201c565b5084600160006101000a81548173ffffffffffffffffffffffffffffffffffffffff021916908373ffffffffffffffffffffffffffffffffffffffff16021790555083600260006101000a81548173ffffffffffffffffffffffffffffffffffffffff021916908373ffffffffffffffffffffffffffffffffffffffff16021790555082600360006101000a81548173ffffffffffffffffffffffffffffffffffffffff021916908373ffffffffffffffffffffffffffffffffffffffff160217905550816004819055505050505050620003b3565b60008060009054906101000a900473ffffffffffffffffffffffffffffffffffffffff169050816000806101000a81548173ffffffffffffffffffffffffffffffffffffffff021916908373ffffffffffffffffffffffffffffffffffffffff1602179055508173ffffffffffffffffffffffffffffffffffffffff168173ffffffffffffffffffffffffffffffffffffffff167f8be0079c531659141344cd1fd0a4f28419497f9722a3daafe3b4186f6b6457e060405160405180910390a35050565b600080fd5b600073ffffffffffffffffffffffffffffffffffffffff82169050919050565b60006200028a826200025d565b9050919050565b6200029c816200027d565b8114620002a857600080fd5b50565b600081519050620002bc8162000291565b92915050565b6000819050919050565b620002d781620002c2565b8114620002e357600080fd5b50565b600081519050620002f781620002cc565b92915050565b600080600080600060a086880312156200031c576200031b62000258565b5b60006200032c88828901620002ab565b95505060206200033f88828901620002ab565b94505060406200035288828901620002ab565b93505060606200036588828901620002e6565b92505060806200037888828901620002ab565b9150509295509295909350565b62000390816200027d565b82525050565b6000602082019050620003ad600083018462000385565b92915050565b61237780620003c36000396000f3fe608060405234801561001057600080fd5b50600436106100f55760003560e01c806357ad627911610097578063c08cc02d11610066578063c08cc02d1461026c578063c7f758a81461028a578063c9d27afe146102ba578063f2fde38b146102d6576100f5565b806357ad62791461020a578063715018a6146102265780638da5cb5b14610230578063b58131b01461024e576100f5565b80631eff4322116100d35780631eff43221461017057806343859632146101a057806351ec8d1e146101d05780635652077c146101ee576100f5565b8063013cf08b146100fa57806311eac8551461013457806318da001114610152575b600080fd5b610114600480360381019061010f9190611442565b6102f2565b60405161012b9b9a999897969594939291906115c6565b60405180910390f35b61013c6104a9565b604051610149919061167f565b60405180910390f35b61015a6104cf565b604051610167919061167f565b60405180910390f35b61018a600480360381019061018591906117fb565b6104f5565b60405161019791906118ae565b60405180910390f35b6101ba60048036038101906101b591906118c9565b610759565b6040516101c79190611924565b60405180910390f35b6101d86107c4565b6040516101e5919061167f565b60405180910390f35b61020860048036038101906102039190611442565b6107ea565b005b610224600480360381019061021f9190611442565b610913565b005b61022e61095c565b005b610238610970565b604051610245919061167f565b60405180910390f35b610256610999565b60405161026391906118ae565b60405180910390f35b61027461099f565b60405161028191906118ae565b60405180910390f35b6102a4600480360381019061029f9190611442565b6109a9565b6040516102b19190611aac565b60405180910390f35b6102d460048036038101906102cf9190611afa565b610c2a565b005b6102f060048036038101906102eb9190611b3a565b610fb2565b005b60066020528060005260406000206000915090508060000154908060010160009054906101000a900473ffffffffffffffffffffffffffffffffffffffff169080600201805461034190611b96565b80601f016020809104026020016040519081016040528092919081815260200182805461036d90611b96565b80156103ba5780601f1061038f576101008083540402835291602001916103ba565b820191906000526020600020905b81548152906001019060200180831161039d57829003601f168201915b5050505050908060030180546103cf90611b96565b80601f01602080910402602001604051908101604052809291908181526020018280546103fb90611b96565b80156104485780601f1061041d57610100808354040283529160200191610448565b820191906000526020600020905b81548152906001019060200180831161042b57829003601f168201915b5050505050908060040154908060050160009054906101000a900473ffffffffffffffffffffffffffffffffffffffff16908060060154908060070154908060080160009054906101000a900460ff169080600901549080600a015490508b565b600160009054906101000a900473ffffffffffffffffffffffffffffffffffffffff1681565b600360009054906101000a900473ffffffffffffffffffffffffffffffffffffffff1681565b6000600260009054906101000a900473ffffffffffffffffffffffffffffffffffffffff1673ffffffffffffffffffffffffffffffffffffffff1663a230c524336040518263ffffffff1660e01b8152600401610552919061167f565b602060405180830381865afa15801561056f573d6000803e3d6000fd5b505050506040513d601f19601f820116820180604052508101906105939190611bdc565b6105d2576040517f08c379a00000000000000000000000000000000000000000000000000000000081526004016105c990611c55565b60405180910390fd5b600560008154809291906105e590611ca4565b9190505550600060055490506000600660008381526020019081526020016000209050818160000181905550338160010160006101000a81548173ffffffffffffffffffffffffffffffffffffffff021916908373ffffffffffffffffffffffffffffffffffffffff160217905550878160020190816106659190611e98565b50868160030190816106779190611e98565b50858160040181905550848160050160006101000a81548173ffffffffffffffffffffffffffffffffffffffff021916908373ffffffffffffffffffffffffffffffffffffffff16021790555060008160080160006101000a81548160ff021916908360038111156106ec576106eb61154f565b5b021790555042816009018190555083426107069190611f6a565b81600a01819055507f98120a6aaa04295520ab4e01c6c1235dd316e822cc9ff31db7b3f197366d18bd82338a896040516107439493929190611f9e565b60405180910390a1819250505095945050505050565b600060066000848152602001908152602001600020600b0160008373ffffffffffffffffffffffffffffffffffffffff1673ffffffffffffffffffffffffffffffffffffffff16815260200190815260200160002060009054906101000a900460ff16905092915050565b600260009054906101000a900473ffffffffffffffffffffffffffffffffffffffff1681565b60006006600083815260200190815260200160002090506000816000015411610848576040517f08c379a000000000000000000000000000000000000000000000000000000000815260040161083f90612036565b60405180910390fd5b6000600381111561085c5761085b61154f565b5b8160080160009054906101000a900460ff1660038111156108805761087f61154f565b5b146108c0576040517f08c379a00000000000000000000000000000000000000000000000000000000081526004016108b7906120a2565b60405180910390fd5b80600a01544211610906576040517f08c379a00000000000000000000000000000000000000000000000000000000081526004016108fd9061210e565b60405180910390fd5b61090f82611038565b5050565b61091b61120d565b806004819055507f75176781f69c55e26fee85d480452b0b9038b9428704bb7b232fc1c638bbf8038160405161095191906118ae565b60405180910390a150565b61096461120d565b61096e6000611294565b565b60008060009054906101000a900473ffffffffffffffffffffffffffffffffffffffff16905090565b60045481565b6000600554905090565b6109b1611360565b60006006600084815260200190815260200160002090506000816000015411610a0f576040517f08c379a0000000000000000000000000000000000000000000000000000000008152600401610a0690612036565b60405180910390fd5b604051806101600160405280826000015481526020018260010160009054906101000a900473ffffffffffffffffffffffffffffffffffffffff1673ffffffffffffffffffffffffffffffffffffffff168152602001826002018054610a7490611b96565b80601f0160208091040260200160405190810160405280929190818152602001828054610aa090611b96565b8015610aed5780601f10610ac257610100808354040283529160200191610aed565b820191906000526020600020905b815481529060010190602001808311610ad057829003601f168201915b50505050508152602001826003018054610b0690611b96565b80601f0160208091040260200160405190810160405280929190818152602001828054610b3290611b96565b8015610b7f5780601f10610b5457610100808354040283529160200191610b7f565b820191906000526020600020905b815481529060010190602001808311610b6257829003601f168201915b50505050508152602001826004015481526020018260050160009054906101000a900473ffffffffffffffffffffffffffffffffffffffff1673ffffffffffffffffffffffffffffffffffffffff16815260200182600601548152602001826007015481526020018260080160009054906101000a900460ff166003811115610c0b57610c0a61154f565b5b81526020018260090154815260200182600a0154815250915050919050565b600260009054906101000a900473ffffffffffffffffffffffffffffffffffffffff1673ffffffffffffffffffffffffffffffffffffffff1663a230c524336040518263ffffffff1660e01b8152600401610c85919061167f565b602060405180830381865afa158015610ca2573d6000803e3d6000fd5b505050506040513d601f19601f82011682018060405250810190610cc69190611bdc565b610d05576040517f08c379a0000000000000000000000000000000000000000000000000000000008152600401610cfc90611c55565b60405180910390fd5b60006006600084815260200190815260200160002090506000816000015411610d63576040517f08c379a0000000000000000000000000000000000000000000000000000000008152600401610d5a90612036565b60405180910390fd5b60006003811115610d7757610d7661154f565b5b8160080160009054906101000a900460ff166003811115610d9b57610d9a61154f565b5b14610ddb576040517f08c379a0000000000000000000000000000000000000000000000000000000008152600401610dd2906120a2565b60405180910390fd5b80600a0154421115610e22576040517f08c379a0000000000000000000000000000000000000000000000000000000008152600401610e199061217a565b60405180910390fd5b80600b0160003373ffffffffffffffffffffffffffffffffffffffff1673ffffffffffffffffffffffffffffffffffffffff16815260200190815260200160002060009054906101000a900460ff1615610eb1576040517f08c379a0000000000000000000000000000000000000000000000000000000008152600401610ea8906121e6565b60405180910390fd5b600181600b0160003373ffffffffffffffffffffffffffffffffffffffff1673ffffffffffffffffffffffffffffffffffffffff16815260200190815260200160002060006101000a81548160ff0219169083151502179055508115610f3057806006016000815480929190610f2690611ca4565b9190505550610f4b565b806007016000815480929190610f4590611ca4565b91905055505b7ff2913dbe661ee2acc4a046d8fbcdc792373bda34c41c6086484b5345e5785e5f833384604051610f7e93929190612206565b60405180910390a180600a0154421180610f9e5750600454816006015410155b15610fad57610fac83611038565b5b505050565b610fba61120d565b600073ffffffffffffffffffffffffffffffffffffffff168173ffffffffffffffffffffffffffffffffffffffff160361102c5760006040517f1e4fbdf7000000000000000000000000000000000000000000000000000000008152600401611023919061167f565b60405180910390fd5b61103581611294565b50565b60006006600083815260200190815260200160002090508060070154816006015411801561106c5750600454816006015410155b156111db5760018160080160006101000a81548160ff021916908360038111156110995761109861154f565b5b02179055506000600360009054906101000a900473ffffffffffffffffffffffffffffffffffffffff1690508073ffffffffffffffffffffffffffffffffffffffff166317560f298360050160009054906101000a900473ffffffffffffffffffffffffffffffffffffffff168460040154856002016040518463ffffffff1660e01b815260040161112d939291906122c1565b6020604051808303816000875af115801561114c573d6000803e3d6000fd5b505050506040513d601f19601f820116820180604052508101906111709190612314565b5060038260080160006101000a81548160ff021916908360038111156111995761119861154f565b5b02179055507f712ae1383f79ac853f8d882153778e0260ef8f03b504e2866e0593e04d2b291f836040516111cd91906118ae565b60405180910390a150611209565b60028160080160006101000a81548160ff021916908360038111156112035761120261154f565b5b02179055505b5050565b611215611358565b73ffffffffffffffffffffffffffffffffffffffff16611233610970565b73ffffffffffffffffffffffffffffffffffffffff161461129257611256611358565b6040517f118cdaa7000000000000000000000000000000000000000000000000000000008152600401611289919061167f565b60405180910390fd5b565b60008060009054906101000a900473ffffffffffffffffffffffffffffffffffffffff169050816000806101000a81548173ffffffffffffffffffffffffffffffffffffffff021916908373ffffffffffffffffffffffffffffffffffffffff1602179055508173ffffffffffffffffffffffffffffffffffffffff168173ffffffffffffffffffffffffffffffffffffffff167f8be0079c531659141344cd1fd0a4f28419497f9722a3daafe3b4186f6b6457e060405160405180910390a35050565b600033905090565b60405180610160016040528060008152602001600073ffffffffffffffffffffffffffffffffffffffff168152602001606081526020016060815260200160008152602001600073ffffffffffffffffffffffffffffffffffffffff1681526020016000815260200160008152602001600060038111156113e4576113e361154f565b5b815260200160008152602001600081525090565b6000604051905090565b600080fd5b600080fd5b6000819050919050565b61141f8161140c565b811461142a57600080fd5b50565b60008135905061143c81611416565b92915050565b60006020828403121561145857611457611402565b5b60006114668482850161142d565b91505092915050565b6114788161140c565b82525050565b600073ffffffffffffffffffffffffffffffffffffffff82169050919050565b60006114a98261147e565b9050919050565b6114b98161149e565b82525050565b600081519050919050565b600082825260208201905092915050565b60005b838110156114f95780820151818401526020810190506114de565b60008484015250505050565b6000601f19601f8301169050919050565b6000611521826114bf565b61152b81856114ca565b935061153b8185602086016114db565b61154481611505565b840191505092915050565b7f4e487b7100000000000000000000000000000000000000000000000000000000600052602160045260246000fd5b6004811061158f5761158e61154f565b5b50565b60008190506115a08261157e565b919050565b60006115b082611592565b9050919050565b6115c0816115a5565b82525050565b6000610160820190506115dc600083018e61146f565b6115e9602083018d6114b0565b81810360408301526115fb818c611516565b9050818103606083015261160f818b611516565b905061161e608083018a61146f565b61162b60a08301896114b0565b61163860c083018861146f565b61164560e083018761146f565b6116536101008301866115b7565b61166161012083018561146f565b61166f61014083018461146f565b9c9b505050505050505050505050565b600060208201905061169460008301846114b0565b92915050565b600080fd5b600080fd5b7f4e487b7100000000000000000000000000000000000000000000000000000000600052604160045260246000fd5b6116dc82611505565b810181811067ffffffffffffffff821117156116fb576116fa6116a4565b5b80604052505050565b600061170e6113f8565b905061171a82826116d3565b919050565b600067ffffffffffffffff82111561173a576117396116a4565b5b61174382611505565b9050602081019050919050565b82818337600083830152505050565b600061177261176d8461171f565b611704565b90508281526020810184848401111561178e5761178d61169f565b5b611799848285611750565b509392505050565b600082601f8301126117b6576117b561169a565b5b81356117c684826020860161175f565b91505092915050565b6117d88161149e565b81146117e357600080fd5b50565b6000813590506117f5816117cf565b92915050565b600080600080600060a0868803121561181757611816611402565b5b600086013567ffffffffffffffff81111561183557611834611407565b5b611841888289016117a1565b955050602086013567ffffffffffffffff81111561186257611861611407565b5b61186e888289016117a1565b945050604061187f8882890161142d565b9350506060611890888289016117e6565b92505060806118a18882890161142d565b9150509295509295909350565b60006020820190506118c3600083018461146f565b92915050565b600080604083850312156118e0576118df611402565b5b60006118ee8582860161142d565b92505060206118ff858286016117e6565b9150509250929050565b60008115159050919050565b61191e81611909565b82525050565b60006020820190506119396000830184611915565b92915050565b6119488161140c565b82525050565b6119578161149e565b82525050565b600082825260208201905092915050565b6000611979826114bf565b611983818561195d565b93506119938185602086016114db565b61199c81611505565b840191505092915050565b6119b0816115a5565b82525050565b6000610160830160008301516119cf600086018261193f565b5060208301516119e2602086018261194e565b50604083015184820360408601526119fa828261196e565b91505060608301518482036060860152611a14828261196e565b9150506080830151611a29608086018261193f565b5060a0830151611a3c60a086018261194e565b5060c0830151611a4f60c086018261193f565b5060e0830151611a6260e086018261193f565b50610100830151611a776101008601826119a7565b50610120830151611a8c61012086018261193f565b50610140830151611aa161014086018261193f565b508091505092915050565b60006020820190508181036000830152611ac681846119b6565b905092915050565b611ad781611909565b8114611ae257600080fd5b50565b600081359050611af481611ace565b92915050565b60008060408385031215611b1157611b10611402565b5b6000611b1f8582860161142d565b9250506020611b3085828601611ae5565b9150509250929050565b600060208284031215611b5057611b4f611402565b5b6000611b5e848285016117e6565b91505092915050565b7f4e487b7100000000000000000000000000000000000000000000000000000000600052602260045260246000fd5b60006002820490506001821680611bae57607f821691505b602082108103611bc157611bc0611b67565b5b50919050565b600081519050611bd681611ace565b92915050565b600060208284031215611bf257611bf1611402565b5b6000611c0084828501611bc7565b91505092915050565b7f4e6f7420612044414f206d656d62657200000000000000000000000000000000600082015250565b6000611c3f6010836114ca565b9150611c4a82611c09565b602082019050919050565b60006020820190508181036000830152611c6e81611c32565b9050919050565b7f4e487b7100000000000000000000000000000000000000000000000000000000600052601160045260246000fd5b6000611caf8261140c565b91507fffffffffffffffffffffffffffffffffffffffffffffffffffffffffffffffff8203611ce157611ce0611c75565b5b600182019050919050565b60008190508160005260206000209050919050565b60006020601f8301049050919050565b600082821b905092915050565b600060088302611d4e7fffffffffffffffffffffffffffffffffffffffffffffffffffffffffffffffff82611d11565b611d588683611d11565b95508019841693508086168417925050509392505050565b6000819050919050565b6000611d95611d90611d8b8461140c565b611d70565b61140c565b9050919050565b6000819050919050565b611daf83611d7a565b611dc3611dbb82611d9c565b848454611d1e565b825550505050565b600090565b611dd8611dcb565b611de3818484611da6565b505050565b5b81811015611e0757611dfc600082611dd0565b600181019050611de9565b5050565b601f821115611e4c57611e1d81611cec565b611e2684611d01565b81016020851015611e35578190505b611e49611e4185611d01565b830182611de8565b50505b505050565b600082821c905092915050565b6000611e6f60001984600802611e51565b1980831691505092915050565b6000611e888383611e5e565b9150826002028217905092915050565b611ea1826114bf565b67ffffffffffffffff811115611eba57611eb96116a4565b5b611ec48254611b96565b611ecf828285611e0b565b600060209050601f831160018114611f025760008415611ef0578287015190505b611efa8582611e7c565b865550611f62565b601f198416611f1086611cec565b60005b82811015611f3857848901518255600182019150602085019450602081019050611f13565b86831015611f555784890151611f51601f891682611e5e565b8355505b6001600288020188555050505b505050505050565b6000611f758261140c565b9150611f808361140c565b9250828201905080821115611f9857611f97611c75565b5b92915050565b6000608082019050611fb3600083018761146f565b611fc060208301866114b0565b8181036040830152611fd28185611516565b9050611fe1606083018461146f565b95945050505050565b7f50726f706f73616c20646f65736e277420657869737400000000000000000000600082015250565b60006120206016836114ca565b915061202b82611fea565b602082019050919050565b6000602082019050818103600083015261204f81612013565b9050919050565b7f50726f706f73616c206e6f742061637469766500000000000000000000000000600082015250565b600061208c6013836114ca565b915061209782612056565b602082019050919050565b600060208201905081810360008301526120bb8161207f565b9050919050565b7f566f74696e6720706572696f64206e6f7420656e646564000000000000000000600082015250565b60006120f86017836114ca565b9150612103826120c2565b602082019050919050565b60006020820190508181036000830152612127816120eb565b9050919050565b7f566f74696e6720706572696f6420656e64656400000000000000000000000000600082015250565b60006121646013836114ca565b915061216f8261212e565b602082019050919050565b6000602082019050818103600083015261219381612157565b9050919050565b7f416c726561647920766f74656400000000000000000000000000000000000000600082015250565b60006121d0600d836114ca565b91506121db8261219a565b602082019050919050565b600060208201905081810360008301526121ff816121c3565b9050919050565b600060608201905061221b600083018661146f565b61222860208301856114b0565b6122356040830184611915565b949350505050565b6000815461224a81611b96565b61225481866114ca565b9450600182166000811461226f5760018114612285576122b8565b60ff1983168652811515602002860193506122b8565b61228e85611cec565b60005b838110156122b057815481890152600182019150602081019050612291565b808801955050505b50505092915050565b60006060820190506122d660008301866114b0565b6122e3602083018561146f565b81810360408301526122f5818461223d565b9050949350505050565b60008151905061230e81611416565b92915050565b60006020828403121561232a57612329611402565b5b6000612338848285016122ff565b9150509291505056fea2646970667358221220ba5e9dd8f16773108042aa8c81b9f7d4b8a5c8444cccd83c3dcec06d7cb06e5f64736f6c63430008140033",
  "linkReferences": {},
  "deployedLinkReferences": {}
}