{
  "_format": "hh-sol-artifact-1",
  "contractName": "NFTMembership",
  "sourceName": "contracts/NFTMembership.sol",
  "abi": [
    {
      "inputs": [
        {
          "internalType": "string",
          "name": "_daoName",
          "type": "string"
        },
        {
          "internalType": "string",
          "name": "_tokenName",
          "type": "string"
        },
        {
          "internalType": "uint256",
          "name": "_membershipFee",
          "type": "uint256"
        },
        {
          "internalType": "address",
          "name": "_usdcToken",
          "type": "address"
        },
        {
          "internalType": "address",
          "name": "initialOwner",
          "type": "address"
        }
      ],
      "stateMutability": "nonpayable",
      "type": "constructor"
    },
    {
      "inputs": [],
      "name": "ERC721EnumerableForbiddenBatchMint",
      "type": "error"
    },
    {
      "inputs": [
        {
          "internalType": "address",
          "name": "sender",
          "type": "address"
        },
        {
          "internalType": "uint256",
          "name": "tokenId",
          "type": "uint256"
        },
        {
          "internalType": "address",
          "name": "owner",
          "type": "address"
        }
      ],
      "name": "ERC721IncorrectOwner",
      "type": "error"
    },
    {
      "inputs": [
        {
          "internalType": "address",
          "name": "operator",
          "type": "address"
        },
        {
          "internalType": "uint256",
          "name": "tokenId",
          "type": "uint256"
        }
      ],
      "name": "ERC721InsufficientApproval",
      "type": "error"
    },
    {
      "inputs": [
        {
          "internalType": "address",
          "name": "approver",
          "type": "address"
        }
      ],
      "name": "ERC721InvalidApprover",
      "type": "error"
    },
    {
      "inputs": [
        {
          "internalType": "address",
          "name": "operator",
          "type": "address"
        }
      ],
      "name": "ERC721InvalidOperator",
      "type": "error"
    },
    {
      "inputs": [
        {
          "internalType": "address",
          "name": "owner",
          "type": "address"
        }
      ],
      "name": "ERC721InvalidOwner",
      "type": "error"
    },
    {
      "inputs": [
        {
          "internalType": "address",
          "name": "receiver",
          "type": "address"
        }
      ],
      "name": "ERC721InvalidReceiver",
      "type": "error"
    },
    {
      "inputs": [
        {
          "internalType": "address",
          "name": "sender",
          "type": "address"
        }
      ],
      "name": "ERC721InvalidSender",
      "type": "error"
    },
    {
      "inputs": [
        {
          "internalType": "uint256",
          "name": "tokenId",
          "type": "uint256"
        }
      ],
      "name": "ERC721NonexistentToken",
      "type": "error"
    },
    {
      "inputs": [
        {
          "internalType": "address",
          "name": "owner",
          "type": "address"
        },
        {
          "internalType": "uint256",
          "name": "index",
          "type": "uint256"
        }
      ],
      "name": "ERC721OutOfBoundsIndex",
      "type": "error"
    },
    {
      "inputs": [
        {
          "internalType": "address",
          "name": "owner",
          "type": "address"
        }
      ],
      "name": "OwnableInvalidOwner",
      "type": "error"
    },
    {
      "inputs": [
        {
          "internalType": "address",
          "name": "account",
          "type": "address"
        }
      ],
      "name": "OwnableUnauthorizedAccount",
      "type": "error"
    },
    {
      "anonymous": false,
      "inputs": [
        {
          "indexed": true,
          "internalType": "address",
          "name": "owner",
          "type": "address"
        },
        {
          "indexed": true,
          "internalType": "address",
          "name": "approved",
          "type": "address"
        },
        {
          "indexed": true,
          "internalType": "uint256",
          "name": "tokenId",
          "type": "uint256"
        }
      ],
      "name": "Approval",
      "type": "event"
    },
    {
      "anonymous": false,
      "inputs": [
        {
          "indexed": true,
          "internalType": "address",
          "name": "owner",
          "type": "address"
        },
        {
          "indexed": true,
          "internalType": "address",
          "name": "operator",
          "type": "address"
        },
        {
          "indexed": false,
          "internalType": "bool",
          "name": "approved",
          "type": "bool"
        }
      ],
      "name": "ApprovalForAll",
      "type": "event"
    },
    {
      "anonymous": false,
      "inputs": [
        {
          "indexed": false,
          "internalType": "address",
          "name": "member",
          "type": "address"
        },
        {
          "indexed": false,
          "internalType": "uint256",
          "name": "tokenId",
          "type": "uint256"
        }
      ],
      "name": "MemberAdded",
      "type": "event"
    },
    {
      "anonymous": false,
      "inputs": [
        {
          "indexed": false,
          "internalType": "uint256",
          "name": "newFee",
          "type": "uint256"
        }
      ],
      "name": "MembershipFeeUpdated",
      "type": "event"
    },
    {
      "anonymous": false,
      "inputs": [
        {
          "indexed": true,
          "internalType": "address",
          "name": "previousOwner",
          "type": "address"
        },
        {
          "indexed": true,
          "internalType": "address",
          "name": "newOwner",
          "type": "address"
        }
      ],
      "name": "OwnershipTransferred",
      "type": "event"
    },
    {
      "anonymous": false,
      "inputs": [
        {
          "indexed": true,
          "internalType": "address",
          "name": "from",
          "type": "address"
        },
        {
          "indexed": true,
          "internalType": "address",
          "name": "to",
          "type": "address"
        },
        {
          "indexed": true,
          "internalType": "uint256",
          "name": "tokenId",
          "type": "uint256"
        }
      ],
      "name": "Transfer",
      "type": "event"
    },
    {
      "inputs": [
        {
          "internalType": "address",
          "name": "to",
          "type": "address"
        },
        {
          "internalType": "uint256",
          "name": "tokenId",
          "type": "uint256"
        }
      ],
      "name": "approve",
      "outputs": [],
      "stateMutability": "nonpayable",
      "type": "function"
    },
    {
      "inputs": [
        {
          "internalType": "address",
          "name": "owner",
          "type": "address"
        }
      ],
      "name": "balanceOf",
      "outputs": [
        {
          "internalType": "uint256",
          "name": "",
          "type": "uint256"
        }
      ],
      "stateMutability": "view",
      "type": "function"
    },
    {
      "inputs": [],
      "name": "daoName",
      "outputs": [
        {
          "internalType": "string",
          "name": "",
          "type": "string"
        }
      ],
      "stateMutability": "view",
      "type": "function"
    },
    {
      "inputs": [
        {
          "internalType": "uint256",
          "name": "tokenId",
          "type": "uint256"
        }
      ],
      "name": "getApproved",
      "outputs": [
        {
          "internalType": "address",
          "name": "",
          "type": "address"
        }
      ],
      "stateMutability": "view",
      "type": "function"
    },
    {
      "inputs": [],
      "name": "getMemberCount",
      "outputs": [
        {
          "internalType": "uint256",
          "name": "",
          "type": "uint256"
        }
      ],
      "stateMutability": "view",
      "type": "function"
    },
    {
      "inputs": [
        {
          "internalType": "address",
          "name": "owner",
          "type": "address"
        },
        {
          "internalType": "address",
          "name": "operator",
          "type": "address"
        }
      ],
      "name": "isApprovedForAll",
      "outputs": [
        {
          "internalType": "bool",
          "name": "",
          "type": "bool"
        }
      ],
      "stateMutability": "view",
      "type": "function"
    },
    {
      "inputs": [
        {
          "internalType": "address",
          "name": "_address",
          "type": "address"
        }
      ],
      "name": "isMember",
      "outputs": [
        {
          "internalType": "bool",
          "name": "",
          "type": "bool"
        }
      ],
      "stateMutability": "view",
      "type": "function"
    },
    {
      "inputs": [],
      "name": "joinDAO",
      "outputs": [],
      "stateMutability": "nonpayable",
      "type": "function"
    },
    {
      "inputs": [
        {
          "internalType": "address",
          "name": "",
          "type": "address"
        }
      ],
      "name": "memberTokens",
      "outputs": [
        {
          "internalType": "uint256",
          "name": "",
          "type": "uint256"
        }
      ],
      "stateMutability": "view",
      "type": "function"
    },
    {
      "inputs": [
        {
          "internalType": "address",
          "name": "",
          "type": "address"
        }
      ],
      "name": "members",
      "outputs": [
        {
          "internalType": "bool",
          "name": "",
          "type": "bool"
        }
      ],
      "stateMutability": "view",
      "type": "function"
    },
    {
      "inputs": [],
      "name": "membershipFee",
      "outputs": [
        {
          "internalType": "uint256",
          "name": "",
          "type": "uint256"
        }
      ],
      "stateMutability": "view",
      "type": "function"
    },
    {
      "inputs": [],
      "name": "name",
      "outputs": [
        {
          "internalType": "string",
          "name": "",
          "type": "string"
        }
      ],
      "stateMutability": "view",
      "type": "function"
    },
    {
      "inputs": [],
      "name": "owner",
      "outputs": [
        {
          "internalType": "address",
          "name": "",
          "type": "address"
        }
      ],
      "stateMutability": "view",
      "type": "function"
    },
    {
      "inputs": [
        {
          "internalType": "uint256",
          "name": "tokenId",
          "type": "uint256"
        }
      ],
      "name": "ownerOf",
      "outputs": [
        {
          "internalType": "address",
          "name": "",
          "type": "address"
        }
      ],
      "stateMutability": "view",
      "type": "function"
    },
    {
      "inputs": [],
      "name": "renounceOwnership",
      "outputs": [],
      "stateMutability": "nonpayable",
      "type": "function"
    },
    {
      "inputs": [
        {
          "internalType": "address",
          "name": "from",
          "type": "address"
        },
        {
          "internalType": "address",
          "name": "to",
          "type": "address"
        },
        {
          "internalType": "uint256",
          "name": "tokenId",
          "type": "uint256"
        }
      ],
      "name": "safeTransferFrom",
      "outputs": [],
      "stateMutability": "nonpayable",
      "type": "function"
    },
    {
      "inputs": [
        {
          "internalType": "address",
          "name": "from",
          "type": "address"
        },
        {
          "internalType": "address",
          "name": "to",
          "type": "address"
        },
        {
          "internalType": "uint256",
          "name": "tokenId",
          "type": "uint256"
        },
        {
          "internalType": "bytes",
          "name": "data",
          "type": "bytes"
        }
      ],
      "name": "safeTransferFrom",
      "outputs": [],
      "stateMutability": "nonpayable",
      "type": "function"
    },
    {
      "inputs": [
        {
          "internalType": "address",
          "name": "operator",
          "type": "address"
        },
        {
          "internalType": "bool",
          "name": "approved",
          "type": "bool"
        }
      ],
      "name": "setApprovalForAll",
      "outputs": [],
      "stateMutability": "nonpayable",
      "type": "function"
    },
    {
      "inputs": [
        {
          "internalType": "bytes4",
          "name": "interfaceId",
          "type": "bytes4"
        }
      ],
      "name": "supportsInterface",
      "outputs": [
        {
          "internalType": "bool",
          "name": "",
          "type": "bool"
        }
      ],
      "stateMutability": "view",
      "type": "function"
    },
    {
      "inputs": [],
      "name": "symbol",
      "outputs": [
        {
          "internalType": "string",
          "name": "",
          "type": "string"
        }
      ],
      "stateMutability": "view",
      "type": "function"
    },
    {
      "inputs": [
        {
          "internalType": "uint256",
          "name": "index",
          "type": "uint256"
        }
      ],
      "name": "tokenByIndex",
      "outputs": [
        {
          "internalType": "uint256",
          "name": "",
          "type": "uint256"
        }
      ],
      "stateMutability": "view",
      "type": "function"
    },
    {
      "inputs": [
        {
          "internalType": "address",
          "name": "owner",
          "type": "address"
        },
        {
          "internalType": "uint256",
          "name": "index",
          "type": "uint256"
        }
      ],
      "name": "tokenOfOwnerByIndex",
      "outputs": [
        {
          "internalType": "uint256",
          "name": "",
          "type": "uint256"
        }
      ],
      "stateMutability": "view",
      "type": "function"
    },
    {
      "inputs": [
        {
          "internalType": "uint256",
          "name": "tokenId",
          "type": "uint256"
        }
      ],
      "name": "tokenURI",
      "outputs": [
        {
          "internalType": "string",
          "name": "",
          "type": "string"
        }
      ],
      "stateMutability": "view",
      "type": "function"
    },
    {
      "inputs": [],
      "name": "totalSupply",
      "outputs": [
        {
          "internalType": "uint256",
          "name": "",
          "type": "uint256"
        }
      ],
      "stateMutability": "view",
      "type": "function"
    },
    {
      "inputs": [
        {
          "internalType": "address",
          "name": "from",
          "type": "address"
        },
        {
          "internalType": "address",
          "name": "to",
          "type": "address"
        },
        {
          "internalType": "uint256",
          "name": "tokenId",
          "type": "uint256"
        }
      ],
      "name": "transferFrom",
      "outputs": [],
      "stateMutability": "nonpayable",
      "type": "function"
    },
    {
      "inputs": [
        {
          "internalType": "address",
          "name": "newOwner",
          "type": "address"
        }
      ],
      "name": "transferOwnership",
      "outputs": [],
      "stateMutability": "nonpayable",
      "type": "function"
    },
    {
      "inputs": [
        {
          "internalType": "uint256",
          "name": "_newFee",
          "type": "uint256"
        }
      ],
      "name": "updateMembershipFee",
      "outputs": [],
      "stateMutability": "nonpayable",
      "type": "function"
    },
    {
      "inputs": [],
      "name": "usdcToken",
      "outputs": [
        {
          "internalType": "address",
          "name": "",
          "type": "address"
        }
      ],
      "stateMutability": "view",
      "type": "function"
    }
  ],
  "bytecode": "0x60806040523480156200001157600080fd5b50604051620039433803806200394383398181016040528101906200003791906200046e565b8084856040516020016200004c9190620005d1565b60405160208183030381529060405281600090816200006c91906200082d565b5080600190816200007e91906200082d565b505050600073ffffffffffffffffffffffffffffffffffffffff168173ffffffffffffffffffffffffffffffffffffffff1603620000f65760006040517f1e4fbdf7000000000000000000000000000000000000000000000000000000008152600401620000ed919062000925565b60405180910390fd5b62000107816200017560201b60201c565b5084600e90816200011991906200082d565b5082600c8190555081600d60006101000a81548173ffffffffffffffffffffffffffffffffffffffff021916908373ffffffffffffffffffffffffffffffffffffffff1602179055506000600b81905550505050505062000942565b6000600a60009054906101000a900473ffffffffffffffffffffffffffffffffffffffff16905081600a60006101000a81548173ffffffffffffffffffffffffffffffffffffffff021916908373ffffffffffffffffffffffffffffffffffffffff1602179055508173ffffffffffffffffffffffffffffffffffffffff168173ffffffffffffffffffffffffffffffffffffffff167f8be0079c531659141344cd1fd0a4f28419497f9722a3daafe3b4186f6b6457e060405160405180910390a35050565b6000604051905090565b600080fd5b600080fd5b600080fd5b600080fd5b6000601f19601f8301169050919050565b7f4e487b7100000000000000000000000000000000000000000000000000000000600052604160045260246000fd5b620002a48262000259565b810181811067ffffffffffffffff82111715620002c657620002c56200026a565b5b80604052505050565b6000620002db6200023b565b9050620002e9828262000299565b919050565b600067ffffffffffffffff8211156200030c576200030b6200026a565b5b620003178262000259565b9050602081019050919050565b60005b838110156200034457808201518184015260208101905062000327565b60008484015250505050565b6000620003676200036184620002ee565b620002cf565b90508281526020810184848401111562000386576200038562000254565b5b6200039384828562000324565b509392505050565b600082601f830112620003b357620003b26200024f565b5b8151620003c584826020860162000350565b91505092915050565b6000819050919050565b620003e381620003ce565b8114620003ef57600080fd5b50565b6000815190506200040381620003d8565b92915050565b600073ffffffffffffffffffffffffffffffffffffffff82169050919050565b6000620004368262000409565b9050919050565b620004488162000429565b81146200045457600080fd5b50565b60008151905062000468816200043d565b92915050565b600080600080600060a086880312156200048d576200048c62000245565b5b600086015167ffffffffffffffff811115620004ae57620004ad6200024a565b5b620004bc888289016200039b565b955050602086015167ffffffffffffffff811115620004e057620004df6200024a565b5b620004ee888289016200039b565b94505060406200050188828901620003f2565b9350506060620005148882890162000457565b9250506080620005278882890162000457565b9150509295509295909350565b600081519050919050565b600081905092915050565b6000620005578262000534565b6200056381856200053f565b93506200057581856020860162000324565b80840191505092915050565b7f4e46540000000000000000000000000000000000000000000000000000000000600082015250565b6000620005b96003836200053f565b9150620005c68262000581565b600382019050919050565b6000620005df82846200054a565b9150620005ec82620005aa565b915081905092915050565b7f4e487b7100000000000000000000000000000000000000000000000000000000600052602260045260246000fd5b600060028204905060018216806200063f57607f821691505b602082108103620006555762000654620005f7565b5b50919050565b60008190508160005260206000209050919050565b60006020601f8301049050919050565b600082821b905092915050565b600060088302620006bf7fffffffffffffffffffffffffffffffffffffffffffffffffffffffffffffffff8262000680565b620006cb868362000680565b95508019841693508086168417925050509392505050565b6000819050919050565b60006200070e620007086200070284620003ce565b620006e3565b620003ce565b9050919050565b6000819050919050565b6200072a83620006ed565b62000742620007398262000715565b8484546200068d565b825550505050565b600090565b620007596200074a565b620007668184846200071f565b505050565b5b818110156200078e57620007826000826200074f565b6001810190506200076c565b5050565b601f821115620007dd57620007a7816200065b565b620007b28462000670565b81016020851015620007c2578190505b620007da620007d18562000670565b8301826200076b565b50505b505050565b600082821c905092915050565b60006200080260001984600802620007e2565b1980831691505092915050565b60006200081d8383620007ef565b9150826002028217905092915050565b620008388262000534565b67ffffffffffffffff8111156200085457620008536200026a565b5b62000860825462000626565b6200086d82828562000792565b600060209050601f831160018114620008a5576000841562000890578287015190505b6200089c85826200080f565b8655506200090c565b601f198416620008b5866200065b565b60005b82811015620008df57848901518255600182019150602085019450602081019050620008b8565b86831015620008ff5784890151620008fb601f891682620007ef565b8355505b6001600288020188555050505b505050505050565b6200091f8162000429565b82525050565b60006020820190506200093c600083018462000914565b92915050565b612ff180620009526000396000f3fe608060405234801561001057600080fd5b50600436106101c45760003560e01c806370a08231116100f9578063a5c7900e11610097578063c87b56dd11610071578063c87b56dd1461051b578063e985e9c51461054b578063f2fde38b1461057b578063f63d13d714610597576101c4565b8063a5c7900e146104b1578063b88d4fde146104e1578063c713a289146104fd576101c4565b806395d89b41116100d357806395d89b4114610429578063997072f714610447578063a22cb46514610465578063a230c52414610481576101c4565b806370a08231146103d1578063715018a6146104015780638da5cb5b1461040b576101c4565b806323b872dd1161016657806342842e0e1161014057806342842e0e1461033757806348976936146103535780634f6ccce7146103715780636352211e146103a1576101c4565b806323b872dd146102cf5780632f745c59146102eb578063409b64f91461031b576101c4565b806308ae4b0c116101a257806308ae4b0c14610247578063095ea7b31461027757806311eac8551461029357806318160ddd146102b1576101c4565b806301ffc9a7146101c957806306fdde03146101f9578063081812fc14610217575b600080fd5b6101e360048036038101906101de91906125e1565b6105a1565b6040516101f09190612629565b60405180910390f35b61020161061b565b60405161020e91906126d4565b60405180910390f35b610231600480360381019061022c919061272c565b6106ad565b60405161023e919061279a565b60405180910390f35b610261600480360381019061025c91906127e1565b6106c9565b60405161026e9190612629565b60405180910390f35b610291600480360381019061028c919061280e565b6106e9565b005b61029b6106ff565b6040516102a8919061279a565b60405180910390f35b6102b9610725565b6040516102c6919061285d565b60405180910390f35b6102e960048036038101906102e49190612878565b610732565b005b6103056004803603810190610300919061280e565b610834565b604051610312919061285d565b60405180910390f35b6103356004803603810190610330919061272c565b6108dd565b005b610351600480360381019061034c9190612878565b610926565b005b61035b610946565b60405161036891906126d4565b60405180910390f35b61038b6004803603810190610386919061272c565b6109d4565b604051610398919061285d565b60405180910390f35b6103bb60048036038101906103b6919061272c565b610a4a565b6040516103c8919061279a565b60405180910390f35b6103eb60048036038101906103e691906127e1565b610a5c565b6040516103f8919061285d565b60405180910390f35b610409610b16565b005b610413610b2a565b604051610420919061279a565b60405180910390f35b610431610b54565b60405161043e91906126d4565b60405180910390f35b61044f610be6565b60405161045c919061285d565b60405180910390f35b61047f600480360381019061047a91906128f7565b610bf0565b005b61049b600480360381019061049691906127e1565b610c06565b6040516104a89190612629565b60405180910390f35b6104cb60048036038101906104c691906127e1565b610c5c565b6040516104d8919061285d565b60405180910390f35b6104fb60048036038101906104f69190612a6c565b610c74565b005b610505610c99565b604051610512919061285d565b60405180910390f35b6105356004803603810190610530919061272c565b610c9f565b60405161054291906126d4565b60405180910390f35b61056560048036038101906105609190612aef565b610d08565b6040516105729190612629565b60405180910390f35b610595600480360381019061059091906127e1565b610d9c565b005b61059f610e22565b005b60007f780e9d63000000000000000000000000000000000000000000000000000000007bffffffffffffffffffffffffffffffffffffffffffffffffffffffff1916827bffffffffffffffffffffffffffffffffffffffffffffffffffffffff191614806106145750610613826110a0565b5b9050919050565b60606000805461062a90612b5e565b80601f016020809104026020016040519081016040528092919081815260200182805461065690612b5e565b80156106a35780601f10610678576101008083540402835291602001916106a3565b820191906000526020600020905b81548152906001019060200180831161068657829003601f168201915b5050505050905090565b60006106b882611182565b506106c28261120a565b9050919050565b600f6020528060005260406000206000915054906101000a900460ff1681565b6106fb82826106f6611247565b61124f565b5050565b600d60009054906101000a900473ffffffffffffffffffffffffffffffffffffffff1681565b6000600880549050905090565b600073ffffffffffffffffffffffffffffffffffffffff168273ffffffffffffffffffffffffffffffffffffffff16036107a45760006040517f64a0ae9200000000000000000000000000000000000000000000000000000000815260040161079b919061279a565b60405180910390fd5b60006107b883836107b3611247565b611261565b90508373ffffffffffffffffffffffffffffffffffffffff168173ffffffffffffffffffffffffffffffffffffffff161461082e578382826040517f64283d7b00000000000000000000000000000000000000000000000000000000815260040161082593929190612b8f565b60405180910390fd5b50505050565b600061083f83610a5c565b82106108845782826040517fa57d13dc00000000000000000000000000000000000000000000000000000000815260040161087b929190612bc6565b60405180910390fd5b600660008473ffffffffffffffffffffffffffffffffffffffff1673ffffffffffffffffffffffffffffffffffffffff168152602001908152602001600020600083815260200190815260200160002054905092915050565b6108e561141f565b80600c819055507f18351338521e832910dc0e4285e62c03492bb32d8e625843c15f1e9356bf32508160405161091b919061285d565b60405180910390a150565b61094183838360405180602001604052806000815250610c74565b505050565b600e805461095390612b5e565b80601f016020809104026020016040519081016040528092919081815260200182805461097f90612b5e565b80156109cc5780601f106109a1576101008083540402835291602001916109cc565b820191906000526020600020905b8154815290600101906020018083116109af57829003601f168201915b505050505081565b60006109de610725565b8210610a24576000826040517fa57d13dc000000000000000000000000000000000000000000000000000000008152600401610a1b929190612bc6565b60405180910390fd5b60088281548110610a3857610a37612bef565b5b90600052602060002001549050919050565b6000610a5582611182565b9050919050565b60008073ffffffffffffffffffffffffffffffffffffffff168273ffffffffffffffffffffffffffffffffffffffff1603610acf5760006040517f89c62b64000000000000000000000000000000000000000000000000000000008152600401610ac6919061279a565b60405180910390fd5b600360008373ffffffffffffffffffffffffffffffffffffffff1673ffffffffffffffffffffffffffffffffffffffff168152602001908152602001600020549050919050565b610b1e61141f565b610b2860006114a6565b565b6000600a60009054906101000a900473ffffffffffffffffffffffffffffffffffffffff16905090565b606060018054610b6390612b5e565b80601f0160208091040260200160405190810160405280929190818152602001828054610b8f90612b5e565b8015610bdc5780601f10610bb157610100808354040283529160200191610bdc565b820191906000526020600020905b815481529060010190602001808311610bbf57829003601f168201915b5050505050905090565b6000600b54905090565b610c02610bfb611247565b838361156c565b5050565b6000600f60008373ffffffffffffffffffffffffffffffffffffffff1673ffffffffffffffffffffffffffffffffffffffff16815260200190815260200160002060009054906101000a900460ff169050919050565b60106020528060005260406000206000915090505481565b610c7f848484610732565b610c93610c8a611247565b858585856116db565b50505050565b600c5481565b6060610caa82611182565b506000610cb561188c565b90506000815111610cd55760405180602001604052806000815250610d00565b80610cdf846118a3565b604051602001610cf0929190612c5a565b6040516020818303038152906040525b915050919050565b6000600560008473ffffffffffffffffffffffffffffffffffffffff1673ffffffffffffffffffffffffffffffffffffffff16815260200190815260200160002060008373ffffffffffffffffffffffffffffffffffffffff1673ffffffffffffffffffffffffffffffffffffffff16815260200190815260200160002060009054906101000a900460ff16905092915050565b610da461141f565b600073ffffffffffffffffffffffffffffffffffffffff168173ffffffffffffffffffffffffffffffffffffffff1603610e165760006040517f1e4fbdf7000000000000000000000000000000000000000000000000000000008152600401610e0d919061279a565b60405180910390fd5b610e1f816114a6565b50565b600f60003373ffffffffffffffffffffffffffffffffffffffff1673ffffffffffffffffffffffffffffffffffffffff16815260200190815260200160002060009054906101000a900460ff1615610eaf576040517f08c379a0000000000000000000000000000000000000000000000000000000008152600401610ea690612cca565b60405180910390fd5b6000600d60009054906101000a900473ffffffffffffffffffffffffffffffffffffffff1690508073ffffffffffffffffffffffffffffffffffffffff166323b872dd33610efb610b2a565b600c546040518463ffffffff1660e01b8152600401610f1c93929190612cea565b6020604051808303816000875af1158015610f3b573d6000803e3d6000fd5b505050506040513d601f19601f82011682018060405250810190610f5f9190612d36565b610f9e576040517f08c379a0000000000000000000000000000000000000000000000000000000008152600401610f9590612daf565b60405180910390fd5b600b6000815480929190610fb190612dfe565b91905055506000600b549050610fc73382611971565b6001600f60003373ffffffffffffffffffffffffffffffffffffffff1673ffffffffffffffffffffffffffffffffffffffff16815260200190815260200160002060006101000a81548160ff02191690831515021790555080601060003373ffffffffffffffffffffffffffffffffffffffff1673ffffffffffffffffffffffffffffffffffffffff168152602001908152602001600020819055507fede8eed4383e9241982619b94dd83e488b274cced0fd07b8c0092a393defd52f3382604051611094929190612bc6565b60405180910390a15050565b60007f80ac58cd000000000000000000000000000000000000000000000000000000007bffffffffffffffffffffffffffffffffffffffffffffffffffffffff1916827bffffffffffffffffffffffffffffffffffffffffffffffffffffffff1916148061116b57507f5b5e139f000000000000000000000000000000000000000000000000000000007bffffffffffffffffffffffffffffffffffffffffffffffffffffffff1916827bffffffffffffffffffffffffffffffffffffffffffffffffffffffff1916145b8061117b575061117a82611a6a565b5b9050919050565b60008061118e83611ad4565b9050600073ffffffffffffffffffffffffffffffffffffffff168173ffffffffffffffffffffffffffffffffffffffff160361120157826040517f7e2732890000000000000000000000000000000000000000000000000000000081526004016111f8919061285d565b60405180910390fd5b80915050919050565b60006004600083815260200190815260200160002060009054906101000a900473ffffffffffffffffffffffffffffffffffffffff169050919050565b600033905090565b61125c8383836001611b11565b505050565b60008061126f858585611cd6565b9050600073ffffffffffffffffffffffffffffffffffffffff168173ffffffffffffffffffffffffffffffffffffffff1614611343576000600f60008373ffffffffffffffffffffffffffffffffffffffff1673ffffffffffffffffffffffffffffffffffffffff16815260200190815260200160002060006101000a81548160ff0219169083151502179055506000601060008373ffffffffffffffffffffffffffffffffffffffff1673ffffffffffffffffffffffffffffffffffffffff168152602001908152602001600020819055505b600073ffffffffffffffffffffffffffffffffffffffff168573ffffffffffffffffffffffffffffffffffffffff1614611414576001600f60008773ffffffffffffffffffffffffffffffffffffffff1673ffffffffffffffffffffffffffffffffffffffff16815260200190815260200160002060006101000a81548160ff02191690831515021790555083601060008773ffffffffffffffffffffffffffffffffffffffff1673ffffffffffffffffffffffffffffffffffffffff168152602001908152602001600020819055505b809150509392505050565b611427611247565b73ffffffffffffffffffffffffffffffffffffffff16611445610b2a565b73ffffffffffffffffffffffffffffffffffffffff16146114a457611468611247565b6040517f118cdaa700000000000000000000000000000000000000000000000000000000815260040161149b919061279a565b60405180910390fd5b565b6000600a60009054906101000a900473ffffffffffffffffffffffffffffffffffffffff16905081600a60006101000a81548173ffffffffffffffffffffffffffffffffffffffff021916908373ffffffffffffffffffffffffffffffffffffffff1602179055508173ffffffffffffffffffffffffffffffffffffffff168173ffffffffffffffffffffffffffffffffffffffff167f8be0079c531659141344cd1fd0a4f28419497f9722a3daafe3b4186f6b6457e060405160405180910390a35050565b600073ffffffffffffffffffffffffffffffffffffffff168273ffffffffffffffffffffffffffffffffffffffff16036115dd57816040517f5b08ba180000000000000000000000000000000000000000000000000000000081526004016115d4919061279a565b60405180910390fd5b80600560008573ffffffffffffffffffffffffffffffffffffffff1673ffffffffffffffffffffffffffffffffffffffff16815260200190815260200160002060008473ffffffffffffffffffffffffffffffffffffffff1673ffffffffffffffffffffffffffffffffffffffff16815260200190815260200160002060006101000a81548160ff0219169083151502179055508173ffffffffffffffffffffffffffffffffffffffff168373ffffffffffffffffffffffffffffffffffffffff167f17307eab39ab6107e8899845ad3d59bd9653f200f220920489ca2b5937696c31836040516116ce9190612629565b60405180910390a3505050565b60008373ffffffffffffffffffffffffffffffffffffffff163b1115611885578273ffffffffffffffffffffffffffffffffffffffff1663150b7a02868685856040518563ffffffff1660e01b815260040161173a9493929190612e9b565b6020604051808303816000875af192505050801561177657506040513d601f19601f820116820180604052508101906117739190612efc565b60015b6117fa573d80600081146117a6576040519150601f19603f3d011682016040523d82523d6000602084013e6117ab565b606091505b5060008151036117f257836040517f64a0ae920000000000000000000000000000000000000000000000000000000081526004016117e9919061279a565b60405180910390fd5b805181602001fd5b63150b7a0260e01b7bffffffffffffffffffffffffffffffffffffffffffffffffffffffff1916817bffffffffffffffffffffffffffffffffffffffffffffffffffffffff19161461188357836040517f64a0ae9200000000000000000000000000000000000000000000000000000000815260040161187a919061279a565b60405180910390fd5b505b5050505050565b606060405180602001604052806000815250905090565b6060600060016118b284611df3565b01905060008167ffffffffffffffff8111156118d1576118d0612941565b5b6040519080825280601f01601f1916602001820160405280156119035781602001600182028036833780820191505090505b509050600082602001820190505b600115611966578080600190039150507f3031323334353637383961626364656600000000000000000000000000000000600a86061a8153600a858161195a57611959612f29565b5b04945060008503611911575b819350505050919050565b600073ffffffffffffffffffffffffffffffffffffffff168273ffffffffffffffffffffffffffffffffffffffff16036119e35760006040517f64a0ae920000000000000000000000000000000000000000000000000000000081526004016119da919061279a565b60405180910390fd5b60006119f183836000611261565b9050600073ffffffffffffffffffffffffffffffffffffffff168173ffffffffffffffffffffffffffffffffffffffff1614611a655760006040517f73c6ac6e000000000000000000000000000000000000000000000000000000008152600401611a5c919061279a565b60405180910390fd5b505050565b60007f01ffc9a7000000000000000000000000000000000000000000000000000000007bffffffffffffffffffffffffffffffffffffffffffffffffffffffff1916827bffffffffffffffffffffffffffffffffffffffffffffffffffffffff1916149050919050565b60006002600083815260200190815260200160002060009054906101000a900473ffffffffffffffffffffffffffffffffffffffff169050919050565b8080611b4a5750600073ffffffffffffffffffffffffffffffffffffffff168273ffffffffffffffffffffffffffffffffffffffff1614155b15611c7e576000611b5a84611182565b9050600073ffffffffffffffffffffffffffffffffffffffff168373ffffffffffffffffffffffffffffffffffffffff1614158015611bc557508273ffffffffffffffffffffffffffffffffffffffff168173ffffffffffffffffffffffffffffffffffffffff1614155b8015611bd85750611bd68184610d08565b155b15611c1a57826040517fa9fbf51f000000000000000000000000000000000000000000000000000000008152600401611c11919061279a565b60405180910390fd5b8115611c7c57838573ffffffffffffffffffffffffffffffffffffffff168273ffffffffffffffffffffffffffffffffffffffff167f8c5be1e5ebec7d5bd14f71427d1e84f3dd0314c0f7b2291e5b200ac8c7c3b92560405160405180910390a45b505b836004600085815260200190815260200160002060006101000a81548173ffffffffffffffffffffffffffffffffffffffff021916908373ffffffffffffffffffffffffffffffffffffffff16021790555050505050565b600080611ce4858585611f46565b9050600073ffffffffffffffffffffffffffffffffffffffff168173ffffffffffffffffffffffffffffffffffffffff1603611d2857611d2384612160565b611d67565b8473ffffffffffffffffffffffffffffffffffffffff168173ffffffffffffffffffffffffffffffffffffffff1614611d6657611d6581856121a9565b5b5b600073ffffffffffffffffffffffffffffffffffffffff168573ffffffffffffffffffffffffffffffffffffffff1603611da957611da484612294565b611de8565b8473ffffffffffffffffffffffffffffffffffffffff168173ffffffffffffffffffffffffffffffffffffffff1614611de757611de68585612365565b5b5b809150509392505050565b600080600090507a184f03e93ff9f4daa797ed6e38ed64bf6a1f0100000000000000008310611e51577a184f03e93ff9f4daa797ed6e38ed64bf6a1f0100000000000000008381611e4757611e46612f29565b5b0492506040810190505b6d04ee2d6d415b85acef81000000008310611e8e576d04ee2d6d415b85acef81000000008381611e8457611e83612f29565b5b0492506020810190505b662386f26fc100008310611ebd57662386f26fc100008381611eb357611eb2612f29565b5b0492506010810190505b6305f5e1008310611ee6576305f5e1008381611edc57611edb612f29565b5b0492506008810190505b6127108310611f0b576127108381611f0157611f00612f29565b5b0492506004810190505b60648310611f2e5760648381611f2457611f23612f29565b5b0492506002810190505b600a8310611f3d576001810190505b80915050919050565b600080611f5284611ad4565b9050600073ffffffffffffffffffffffffffffffffffffffff168373ffffffffffffffffffffffffffffffffffffffff1614611f9457611f938184866123f0565b5b600073ffffffffffffffffffffffffffffffffffffffff168173ffffffffffffffffffffffffffffffffffffffff161461202557611fd6600085600080611b11565b6001600360008373ffffffffffffffffffffffffffffffffffffffff1673ffffffffffffffffffffffffffffffffffffffff168152602001908152602001600020600082825403925050819055505b600073ffffffffffffffffffffffffffffffffffffffff168573ffffffffffffffffffffffffffffffffffffffff16146120a8576001600360008773ffffffffffffffffffffffffffffffffffffffff1673ffffffffffffffffffffffffffffffffffffffff168152602001908152602001600020600082825401925050819055505b846002600086815260200190815260200160002060006101000a81548173ffffffffffffffffffffffffffffffffffffffff021916908373ffffffffffffffffffffffffffffffffffffffff160217905550838573ffffffffffffffffffffffffffffffffffffffff168273ffffffffffffffffffffffffffffffffffffffff167fddf252ad1be2c89b69c2b068fc378daa952ba7f163c4a11628f55a4df523b3ef60405160405180910390a4809150509392505050565b6008805490506009600083815260200190815260200160002081905550600881908060018154018082558091505060019003906000526020600020016000909190919091505550565b60006121b483610a5c565b90506000600760008481526020019081526020016000205490506000600660008673ffffffffffffffffffffffffffffffffffffffff1673ffffffffffffffffffffffffffffffffffffffff16815260200190815260200160002090508282146122605760008160008581526020019081526020016000205490508082600085815260200190815260200160002081905550826007600083815260200190815260200160002081905550505b6007600085815260200190815260200160002060009055806000848152602001908152602001600020600090555050505050565b600060016008805490506122a89190612f58565b90506000600960008481526020019081526020016000205490506000600883815481106122d8576122d7612bef565b5b9060005260206000200154905080600883815481106122fa576122f9612bef565b5b90600052602060002001819055508160096000838152602001908152602001600020819055506009600085815260200190815260200160002060009055600880548061234957612348612f8c565b5b6001900381819060005260206000200160009055905550505050565b6000600161237284610a5c565b61237c9190612f58565b905081600660008573ffffffffffffffffffffffffffffffffffffffff1673ffffffffffffffffffffffffffffffffffffffff168152602001908152602001600020600083815260200190815260200160002081905550806007600084815260200190815260200160002081905550505050565b6123fb8383836124b4565b6124af57600073ffffffffffffffffffffffffffffffffffffffff168373ffffffffffffffffffffffffffffffffffffffff160361247057806040517f7e273289000000000000000000000000000000000000000000000000000000008152600401612467919061285d565b60405180910390fd5b81816040517f177e802f0000000000000000000000000000000000000000000000000000000081526004016124a6929190612bc6565b60405180910390fd5b505050565b60008073ffffffffffffffffffffffffffffffffffffffff168373ffffffffffffffffffffffffffffffffffffffff161415801561256c57508273ffffffffffffffffffffffffffffffffffffffff168473ffffffffffffffffffffffffffffffffffffffff16148061252d575061252c8484610d08565b5b8061256b57508273ffffffffffffffffffffffffffffffffffffffff166125538361120a565b73ffffffffffffffffffffffffffffffffffffffff16145b5b90509392505050565b6000604051905090565b600080fd5b600080fd5b60007fffffffff0000000000000000000000000000000000000000000000000000000082169050919050565b6125be81612589565b81146125c957600080fd5b50565b6000813590506125db816125b5565b92915050565b6000602082840312156125f7576125f661257f565b5b6000612605848285016125cc565b91505092915050565b60008115159050919050565b6126238161260e565b82525050565b600060208201905061263e600083018461261a565b92915050565b600081519050919050565b600082825260208201905092915050565b60005b8381101561267e578082015181840152602081019050612663565b60008484015250505050565b6000601f19601f8301169050919050565b60006126a682612644565b6126b0818561264f565b93506126c0818560208601612660565b6126c98161268a565b840191505092915050565b600060208201905081810360008301526126ee818461269b565b905092915050565b6000819050919050565b612709816126f6565b811461271457600080fd5b50565b60008135905061272681612700565b92915050565b6000602082840312156127425761274161257f565b5b600061275084828501612717565b91505092915050565b600073ffffffffffffffffffffffffffffffffffffffff82169050919050565b600061278482612759565b9050919050565b61279481612779565b82525050565b60006020820190506127af600083018461278b565b92915050565b6127be81612779565b81146127c957600080fd5b50565b6000813590506127db816127b5565b92915050565b6000602082840312156127f7576127f661257f565b5b6000612805848285016127cc565b91505092915050565b600080604083850312156128255761282461257f565b5b6000612833858286016127cc565b925050602061284485828601612717565b9150509250929050565b612857816126f6565b82525050565b6000602082019050612872600083018461284e565b92915050565b6000806000606084860312156128915761289061257f565b5b600061289f868287016127cc565b93505060206128b0868287016127cc565b92505060406128c186828701612717565b9150509250925092565b6128d48161260e565b81146128df57600080fd5b50565b6000813590506128f1816128cb565b92915050565b6000806040838503121561290e5761290d61257f565b5b600061291c858286016127cc565b925050602061292d858286016128e2565b9150509250929050565b600080fd5b600080fd5b7f4e487b7100000000000000000000000000000000000000000000000000000000600052604160045260246000fd5b6129798261268a565b810181811067ffffffffffffffff8211171561299857612997612941565b5b80604052505050565b60006129ab612575565b90506129b78282612970565b919050565b600067ffffffffffffffff8211156129d7576129d6612941565b5b6129e08261268a565b9050602081019050919050565b82818337600083830152505050565b6000612a0f612a0a846129bc565b6129a1565b905082815260208101848484011115612a2b57612a2a61293c565b5b612a368482856129ed565b509392505050565b600082601f830112612a5357612a52612937565b5b8135612a638482602086016129fc565b91505092915050565b60008060008060808587031215612a8657612a8561257f565b5b6000612a94878288016127cc565b9450506020612aa5878288016127cc565b9350506040612ab687828801612717565b925050606085013567ffffffffffffffff811115612ad757612ad6612584565b5b612ae387828801612a3e565b91505092959194509250565b60008060408385031215612b0657612b0561257f565b5b6000612b14858286016127cc565b9250506020612b25858286016127cc565b9150509250929050565b7f4e487b7100000000000000000000000000000000000000000000000000000000600052602260045260246000fd5b60006002820490506001821680612b7657607f821691505b602082108103612b8957612b88612b2f565b5b50919050565b6000606082019050612ba4600083018661278b565b612bb1602083018561284e565b612bbe604083018461278b565b949350505050565b6000604082019050612bdb600083018561278b565b612be8602083018461284e565b9392505050565b7f4e487b7100000000000000000000000000000000000000000000000000000000600052603260045260246000fd5b600081905092915050565b6000612c3482612644565b612c3e8185612c1e565b9350612c4e818560208601612660565b80840191505092915050565b6000612c668285612c29565b9150612c728284612c29565b91508190509392505050565b7f416c72656164792061206d656d62657200000000000000000000000000000000600082015250565b6000612cb460108361264f565b9150612cbf82612c7e565b602082019050919050565b60006020820190508181036000830152612ce381612ca7565b9050919050565b6000606082019050612cff600083018661278b565b612d0c602083018561278b565b612d19604083018461284e565b949350505050565b600081519050612d30816128cb565b92915050565b600060208284031215612d4c57612d4b61257f565b5b6000612d5a84828501612d21565b91505092915050565b7f55534443207472616e73666572206661696c6564000000000000000000000000600082015250565b6000612d9960148361264f565b9150612da482612d63565b602082019050919050565b60006020820190508181036000830152612dc881612d8c565b9050919050565b7f4e487b7100000000000000000000000000000000000000000000000000000000600052601160045260246000fd5b6000612e09826126f6565b91507fffffffffffffffffffffffffffffffffffffffffffffffffffffffffffffffff8203612e3b57612e3a612dcf565b5b600182019050919050565b600081519050919050565b600082825260208201905092915050565b6000612e6d82612e46565b612e778185612e51565b9350612e87818560208601612660565b612e908161268a565b840191505092915050565b6000608082019050612eb0600083018761278b565b612ebd602083018661278b565b612eca604083018561284e565b8181036060830152612edc8184612e62565b905095945050505050565b600081519050612ef6816125b5565b92915050565b600060208284031215612f1257612f1161257f565b5b6000612f2084828501612ee7565b91505092915050565b7f4e487b7100000000000000000000000000000000000000000000000000000000600052601260045260246000fd5b6000612f63826126f6565b9150612f6e836126f6565b9250828203905081811115612f8657612f85612dcf565b5b92915050565b7f4e487b7100000000000000000000000000000000000000000000000000000000600052603160045260246000fdfea2646970667358221220c6f0ab79e0322083e78912713a5e50a0e9a435d2a8403ecbe801d0fc3450fca564736f6c63430008140033",
  "linkReferences": {},
  "deployedLinkReferences": {}
}