{
  "_format": "hh-sol-artifact-1",
  "contractName": "Treasury",
  "sourceName": "contracts/Treasury.sol",
  "abi": [
    {
      "inputs": [
        {
          "internalType": "address",
          "name": "_usdcToken",
          "type": "address"
        },
        {
          "internalType": "address",
          "name": "_membershipContract",
          "type": "address"
        },
        {
          "internalType": "address",
          "name": "initialOwner",
          "type": "address"
        }
      ],
      "stateMutability": "nonpayable",
      "type": "constructor"
    },
    {
      "inputs": [
        {
          "internalType": "address",
          "name": "owner",
          "type": "address"
        }
      ],
      "name": "OwnableInvalidOwner",
      "type": "error"
    },
    {
      "inputs": [
        {
          "internalType": "address",
          "name": "account",
          "type": "address"
        }
      ],
      "name": "OwnableUnauthorizedAccount",
      "type": "error"
    },
    {
      "anonymous": false,
      "inputs": [
        {
          "indexed": false,
          "internalType": "address",
          "name": "from",
          "type": "address"
        },
        {
          "indexed": false,
          "internalType": "uint256",
          "name": "amount",
          "type": "uint256"
        }
      ],
      "name": "FundsReceived",
      "type": "event"
    },
    {
      "anonymous": false,
      "inputs": [
        {
          "indexed": false,
          "internalType": "address",
          "name": "governanceContract",
          "type": "address"
        }
      ],
      "name": "GovernanceContractSet",
      "type": "event"
    },
    {
      "anonymous": false,
      "inputs": [
        {
          "indexed": true,
          "internalType": "address",
          "name": "previousOwner",
          "type": "address"
        },
        {
          "indexed": true,
          "internalType": "address",
          "name": "newOwner",
          "type": "address"
        }
      ],
      "name": "OwnershipTransferred",
      "type": "event"
    },
    {
      "anonymous": false,
      "inputs": [
        {
          "indexed": false,
          "internalType": "uint256",
          "name": "paymentId",
          "type": "uint256"
        },
        {
          "indexed": false,
          "internalType": "address",
          "name": "recipient",
          "type": "address"
        },
        {
          "indexed": false,
          "internalType": "uint256",
          "name": "amount",
          "type": "uint256"
        },
        {
          "indexed": false,
          "internalType": "string",
          "name": "description",
          "type": "string"
        }
      ],
      "name": "PaymentExecuted",
      "type": "event"
    },
    {
      "inputs": [
        {
          "internalType": "address",
          "name": "_recipient",
          "type": "address"
        },
        {
          "internalType": "uint256",
          "name": "_amount",
          "type": "uint256"
        },
        {
          "internalType": "string",
          "name": "_description",
          "type": "string"
        }
      ],
      "name": "createPayment",
      "outputs": [
        {
          "internalType": "uint256",
          "name": "",
          "type": "uint256"
        }
      ],
      "stateMutability": "nonpayable",
      "type": "function"
    },
    {
      "inputs": [
        {
          "internalType": "uint256",
          "name": "_amount",
          "type": "uint256"
        }
      ],
      "name": "depositFunds",
      "outputs": [],
      "stateMutability": "nonpayable",
      "type": "function"
    },
    {
      "inputs": [
        {
          "internalType": "uint256",
          "name": "_paymentId",
          "type": "uint256"
        }
      ],
      "name": "executePayment",
      "outputs": [],
      "stateMutability": "nonpayable",
      "type": "function"
    },
    {
      "inputs": [],
      "name": "getAllPayments",
      "outputs": [
        {
          "components": [
            {
              "internalType": "address",
              "name": "recipient",
              "type": "address"
            },
            {
              "internalType": "uint256",
              "name": "amount",
              "type": "uint256"
            },
            {
              "internalType": "string",
              "name": "description",
              "type": "string"
            },
            {
              "internalType": "bool",
              "name": "executed",
              "type": "bool"
            }
          ],
          "internalType": "struct Treasury.Payment[]",
          "name": "",
          "type": "tuple[]"
        }
      ],
      "stateMutability": "view",
      "type": "function"
    },
    {
      "inputs": [],
      "name": "getBalance",
      "outputs": [
        {
          "internalType": "uint256",
          "name": "",
          "type": "uint256"
        }
      ],
      "stateMutability": "view",
      "type": "function"
    },
    {
      "inputs": [],
      "name": "governanceContract",
      "outputs": [
        {
          "internalType": "address",
          "name": "",
          "type": "address"
        }
      ],
      "stateMutability": "view",
      "type": "function"
    },
    {
      "inputs": [],
      "name": "membershipContract",
      "outputs": [
        {
          "internalType": "address",
          "name": "",
          "type": "address"
        }
      ],
      "stateMutability": "view",
      "type": "function"
    },
    {
      "inputs": [],
      "name": "owner",
      "outputs": [
        {
          "internalType": "address",
          "name": "",
          "type": "address"
        }
      ],
      "stateMutability": "view",
      "type": "function"
    },
    {
      "inputs": [
        {
          "internalType": "uint256",
          "name": "",
          "type": "uint256"
        }
      ],
      "name": "payments",
      "outputs": [
        {
          "internalType": "address",
          "name": "recipient",
          "type": "address"
        },
        {
          "internalType": "uint256",
          "name": "amount",
          "type": "uint256"
        },
        {
          "internalType": "string",
          "name": "description",
          "type": "string"
        },
        {
          "internalType": "bool",
          "name": "executed",
          "type": "bool"
        }
      ],
      "stateMutability": "view",
      "type": "function"
    },
    {
      "inputs": [],
      "name": "renounceOwnership",
      "outputs": [],
      "stateMutability": "nonpayable",
      "type": "function"
    },
    {
      "inputs": [
        {
          "internalType": "address",
          "name": "_governanceContract",
          "type": "address"
        }
      ],
      "name": "setGovernanceContract",
      "outputs": [],
      "stateMutability": "nonpayable",
      "type": "function"
    },
    {
      "inputs": [
        {
          "internalType": "address",
          "name": "newOwner",
          "type": "address"
        }
      ],
      "name": "transferOwnership",
      "outputs": [],
      "stateMutability": "nonpayable",
      "type": "function"
    },
    {
      "inputs": [],
      "name": "usdcToken",
      "outputs": [
        {
          "internalType": "address",
          "name": "",
          "type": "address"
        }
      ],
      "stateMutability": "view",
      "type": "function"
    }
  ],
  "bytecode": "0x60806040523480156200001157600080fd5b506040516200210438038062002104833981810160405281019062000037919062000278565b80600073ffffffffffffffffffffffffffffffffffffffff168173ffffffffffffffffffffffffffffffffffffffff1603620000ad5760006040517f1e4fbdf7000000000000000000000000000000000000000000000000000000008152600401620000a49190620002e5565b60405180910390fd5b620000be816200014a60201b60201c565b5082600160006101000a81548173ffffffffffffffffffffffffffffffffffffffff021916908373ffffffffffffffffffffffffffffffffffffffff16021790555081600260006101000a81548173ffffffffffffffffffffffffffffffffffffffff021916908373ffffffffffffffffffffffffffffffffffffffff16021790555050505062000302565b60008060009054906101000a900473ffffffffffffffffffffffffffffffffffffffff169050816000806101000a81548173ffffffffffffffffffffffffffffffffffffffff021916908373ffffffffffffffffffffffffffffffffffffffff1602179055508173ffffffffffffffffffffffffffffffffffffffff168173ffffffffffffffffffffffffffffffffffffffff167f8be0079c531659141344cd1fd0a4f28419497f9722a3daafe3b4186f6b6457e060405160405180910390a35050565b600080fd5b600073ffffffffffffffffffffffffffffffffffffffff82169050919050565b6000620002408262000213565b9050919050565b620002528162000233565b81146200025e57600080fd5b50565b600081519050620002728162000247565b92915050565b6000806000606084860312156200029457620002936200020e565b5b6000620002a48682870162000261565b9350506020620002b78682870162000261565b9250506040620002ca8682870162000261565b9150509250925092565b620002df8162000233565b82525050565b6000602082019050620002fc6000830184620002d4565b92915050565b611df280620003126000396000f3fe608060405234801561001057600080fd5b50600436106100cf5760003560e01c806351ec8d1e1161008c5780638da5cb5b116100665780638da5cb5b146101ef578063b172b2221461020d578063f2fde38b1461022b578063f8defa3c14610247576100cf565b806351ec8d1e14610194578063715018a6146101b257806387d81789146101bc576100cf565b80631129753f146100d457806311eac855146100f057806312065fe01461010e578063162a0cf81461012c57806317560f29146101485780633b76594d14610178575b600080fd5b6100ee60048036038101906100e9919061108d565b610265565b005b6100f8610357565b60405161010591906110c9565b60405180910390f35b61011661037d565b60405161012391906110fd565b60405180910390f35b61014660048036038101906101419190611144565b610420565b005b610162600480360381019061015d91906112b7565b6107c5565b60405161016f91906110fd565b60405180910390f35b610192600480360381019061018d9190611144565b61095a565b005b61019c610b58565b6040516101a991906110c9565b60405180910390f35b6101ba610b7e565b005b6101d660048036038101906101d19190611144565b610b92565b6040516101e694939291906113c0565b60405180910390f35b6101f7610c87565b60405161020491906110c9565b60405180910390f35b610215610cb0565b60405161022291906110c9565b60405180910390f35b6102456004803603810190610240919061108d565b610cd6565b005b61024f610d5c565b60405161025c91906115a8565b60405180910390f35b61026d610ec8565b600073ffffffffffffffffffffffffffffffffffffffff168173ffffffffffffffffffffffffffffffffffffffff16036102dc576040517f08c379a00000000000000000000000000000000000000000000000000000000081526004016102d39061163c565b60405180910390fd5b80600360006101000a81548173ffffffffffffffffffffffffffffffffffffffff021916908373ffffffffffffffffffffffffffffffffffffffff1602179055507f2bf79e6c54fa8159bd63e520bd2627b8c9f7bba4561d8844d1f0eeb9f5684f738160405161034c91906110c9565b60405180910390a150565b600160009054906101000a900473ffffffffffffffffffffffffffffffffffffffff1681565b6000600160009054906101000a900473ffffffffffffffffffffffffffffffffffffffff1673ffffffffffffffffffffffffffffffffffffffff166370a08231306040518263ffffffff1660e01b81526004016103da91906110c9565b602060405180830381865afa1580156103f7573d6000803e3d6000fd5b505050506040513d601f19601f8201168201806040525081019061041b9190611671565b905090565b600360009054906101000a900473ffffffffffffffffffffffffffffffffffffffff1673ffffffffffffffffffffffffffffffffffffffff163373ffffffffffffffffffffffffffffffffffffffff16146104b0576040517f08c379a00000000000000000000000000000000000000000000000000000000081526004016104a7906116ea565b60405180910390fd5b60048054905081106104f7576040517f08c379a00000000000000000000000000000000000000000000000000000000081526004016104ee90611756565b60405180910390fd5b60006004828154811061050d5761050c611776565b5b906000526020600020906004020190508060030160009054906101000a900460ff161561056f576040517f08c379a0000000000000000000000000000000000000000000000000000000008152600401610566906117f1565b60405180910390fd5b6000600160009054906101000a900473ffffffffffffffffffffffffffffffffffffffff16905081600101548173ffffffffffffffffffffffffffffffffffffffff166370a08231306040518263ffffffff1660e01b81526004016105d491906110c9565b602060405180830381865afa1580156105f1573d6000803e3d6000fd5b505050506040513d601f19601f820116820180604052508101906106159190611671565b1015610656576040517f08c379a000000000000000000000000000000000000000000000000000000000815260040161064d9061185d565b60405180910390fd5b60018260030160006101000a81548160ff0219169083151502179055508073ffffffffffffffffffffffffffffffffffffffff1663a9059cbb8360000160009054906101000a900473ffffffffffffffffffffffffffffffffffffffff1684600101546040518363ffffffff1660e01b81526004016106d692919061187d565b6020604051808303816000875af11580156106f5573d6000803e3d6000fd5b505050506040513d601f19601f8201168201806040525081019061071991906118d2565b610758576040517f08c379a000000000000000000000000000000000000000000000000000000000815260040161074f9061194b565b60405180910390fd5b7f6953fabd5ab3b7899f327aa5434ec569ed61e749fa6815574aee51d67b344202838360000160009054906101000a900473ffffffffffffffffffffffffffffffffffffffff168460010154856002016040516107b89493929190611a64565b60405180910390a1505050565b6000600360009054906101000a900473ffffffffffffffffffffffffffffffffffffffff1673ffffffffffffffffffffffffffffffffffffffff163373ffffffffffffffffffffffffffffffffffffffff1614610857576040517f08c379a000000000000000000000000000000000000000000000000000000000815260040161084e906116ea565b60405180910390fd5b60006004805490509050600460405180608001604052808773ffffffffffffffffffffffffffffffffffffffff16815260200186815260200185815260200160001515815250908060018154018082558091505060019003906000526020600020906004020160009091909190915060008201518160000160006101000a81548173ffffffffffffffffffffffffffffffffffffffff021916908373ffffffffffffffffffffffffffffffffffffffff16021790555060208201518160010155604082015181600201908161092c9190611c47565b5060608201518160030160006101000a81548160ff0219169083151502179055505050809150509392505050565b600260009054906101000a900473ffffffffffffffffffffffffffffffffffffffff1673ffffffffffffffffffffffffffffffffffffffff1663a230c524336040518263ffffffff1660e01b81526004016109b591906110c9565b602060405180830381865afa1580156109d2573d6000803e3d6000fd5b505050506040513d601f19601f820116820180604052508101906109f691906118d2565b610a35576040517f08c379a0000000000000000000000000000000000000000000000000000000008152600401610a2c90611d65565b60405180910390fd5b6000600160009054906101000a900473ffffffffffffffffffffffffffffffffffffffff1690508073ffffffffffffffffffffffffffffffffffffffff166323b872dd3330856040518463ffffffff1660e01b8152600401610a9993929190611d85565b6020604051808303816000875af1158015610ab8573d6000803e3d6000fd5b505050506040513d601f19601f82011682018060405250810190610adc91906118d2565b610b1b576040517f08c379a0000000000000000000000000000000000000000000000000000000008152600401610b129061194b565b60405180910390fd5b7f8e47b87b0ef542cdfa1659c551d88bad38aa7f452d2bbb349ab7530dfec8be8f3383604051610b4c92919061187d565b60405180910390a15050565b600260009054906101000a900473ffffffffffffffffffffffffffffffffffffffff1681565b610b86610ec8565b610b906000610f4f565b565b60048181548110610ba257600080fd5b90600052602060002090600402016000915090508060000160009054906101000a900473ffffffffffffffffffffffffffffffffffffffff1690806001015490806002018054610bf19061199a565b80601f0160208091040260200160405190810160405280929190818152602001828054610c1d9061199a565b8015610c6a5780601f10610c3f57610100808354040283529160200191610c6a565b820191906000526020600020905b815481529060010190602001808311610c4d57829003601f168201915b5050505050908060030160009054906101000a900460ff16905084565b60008060009054906101000a900473ffffffffffffffffffffffffffffffffffffffff16905090565b600360009054906101000a900473ffffffffffffffffffffffffffffffffffffffff1681565b610cde610ec8565b600073ffffffffffffffffffffffffffffffffffffffff168173ffffffffffffffffffffffffffffffffffffffff1603610d505760006040517f1e4fbdf7000000000000000000000000000000000000000000000000000000008152600401610d4791906110c9565b60405180910390fd5b610d5981610f4f565b50565b60606004805480602002602001604051908101604052809291908181526020016000905b82821015610ebf57838290600052602060002090600402016040518060800160405290816000820160009054906101000a900473ffffffffffffffffffffffffffffffffffffffff1673ffffffffffffffffffffffffffffffffffffffff1673ffffffffffffffffffffffffffffffffffffffff16815260200160018201548152602001600282018054610e139061199a565b80601f0160208091040260200160405190810160405280929190818152602001828054610e3f9061199a565b8015610e8c5780601f10610e6157610100808354040283529160200191610e8c565b820191906000526020600020905b815481529060010190602001808311610e6f57829003601f168201915b505050505081526020016003820160009054906101000a900460ff16151515158152505081526020019060010190610d80565b50505050905090565b610ed0611013565b73ffffffffffffffffffffffffffffffffffffffff16610eee610c87565b73ffffffffffffffffffffffffffffffffffffffff1614610f4d57610f11611013565b6040517f118cdaa7000000000000000000000000000000000000000000000000000000008152600401610f4491906110c9565b60405180910390fd5b565b60008060009054906101000a900473ffffffffffffffffffffffffffffffffffffffff169050816000806101000a81548173ffffffffffffffffffffffffffffffffffffffff021916908373ffffffffffffffffffffffffffffffffffffffff1602179055508173ffffffffffffffffffffffffffffffffffffffff168173ffffffffffffffffffffffffffffffffffffffff167f8be0079c531659141344cd1fd0a4f28419497f9722a3daafe3b4186f6b6457e060405160405180910390a35050565b600033905090565b6000604051905090565b600080fd5b600080fd5b600073ffffffffffffffffffffffffffffffffffffffff82169050919050565b600061105a8261102f565b9050919050565b61106a8161104f565b811461107557600080fd5b50565b60008135905061108781611061565b92915050565b6000602082840312156110a3576110a2611025565b5b60006110b184828501611078565b91505092915050565b6110c38161104f565b82525050565b60006020820190506110de60008301846110ba565b92915050565b6000819050919050565b6110f7816110e4565b82525050565b600060208201905061111260008301846110ee565b92915050565b611121816110e4565b811461112c57600080fd5b50565b60008135905061113e81611118565b92915050565b60006020828403121561115a57611159611025565b5b60006111688482850161112f565b91505092915050565b600080fd5b600080fd5b6000601f19601f8301169050919050565b7f4e487b7100000000000000000000000000000000000000000000000000000000600052604160045260246000fd5b6111c48261117b565b810181811067ffffffffffffffff821117156111e3576111e261118c565b5b80604052505050565b60006111f661101b565b905061120282826111bb565b919050565b600067ffffffffffffffff8211156112225761122161118c565b5b61122b8261117b565b9050602081019050919050565b82818337600083830152505050565b600061125a61125584611207565b6111ec565b90508281526020810184848401111561127657611275611176565b5b611281848285611238565b509392505050565b600082601f83011261129e5761129d611171565b5b81356112ae848260208601611247565b91505092915050565b6000806000606084860312156112d0576112cf611025565b5b60006112de86828701611078565b93505060206112ef8682870161112f565b925050604084013567ffffffffffffffff8111156113105761130f61102a565b5b61131c86828701611289565b9150509250925092565b600081519050919050565b600082825260208201905092915050565b60005b83811015611360578082015181840152602081019050611345565b60008484015250505050565b600061137782611326565b6113818185611331565b9350611391818560208601611342565b61139a8161117b565b840191505092915050565b60008115159050919050565b6113ba816113a5565b82525050565b60006080820190506113d560008301876110ba565b6113e260208301866110ee565b81810360408301526113f4818561136c565b905061140360608301846113b1565b95945050505050565b600081519050919050565b600082825260208201905092915050565b6000819050602082019050919050565b6114418161104f565b82525050565b611450816110e4565b82525050565b600082825260208201905092915050565b600061147282611326565b61147c8185611456565b935061148c818560208601611342565b6114958161117b565b840191505092915050565b6114a9816113a5565b82525050565b60006080830160008301516114c76000860182611438565b5060208301516114da6020860182611447565b50604083015184820360408601526114f28282611467565b915050606083015161150760608601826114a0565b508091505092915050565b600061151e83836114af565b905092915050565b6000602082019050919050565b600061153e8261140c565b6115488185611417565b93508360208202850161155a85611428565b8060005b8581101561159657848403895281516115778582611512565b945061158283611526565b925060208a0199505060018101905061155e565b50829750879550505050505092915050565b600060208201905081810360008301526115c28184611533565b905092915050565b7f496e76616c696420676f7665726e616e636520636f6e7472616374206164647260008201527f6573730000000000000000000000000000000000000000000000000000000000602082015250565b6000611626602383611331565b9150611631826115ca565b604082019050919050565b6000602082019050818103600083015261165581611619565b9050919050565b60008151905061166b81611118565b92915050565b60006020828403121561168757611686611025565b5b60006116958482850161165c565b91505092915050565b7f4f6e6c7920676f7665726e616e63652063616e2063616c6c0000000000000000600082015250565b60006116d4601883611331565b91506116df8261169e565b602082019050919050565b60006020820190508181036000830152611703816116c7565b9050919050565b7f496e76616c6964207061796d656e742049440000000000000000000000000000600082015250565b6000611740601283611331565b915061174b8261170a565b602082019050919050565b6000602082019050818103600083015261176f81611733565b9050919050565b7f4e487b7100000000000000000000000000000000000000000000000000000000600052603260045260246000fd5b7f5061796d656e7420616c72656164792065786563757465640000000000000000600082015250565b60006117db601883611331565b91506117e6826117a5565b602082019050919050565b6000602082019050818103600083015261180a816117ce565b9050919050565b7f496e73756666696369656e742074726561737572792066756e64730000000000600082015250565b6000611847601b83611331565b915061185282611811565b602082019050919050565b600060208201905081810360008301526118768161183a565b9050919050565b600060408201905061189260008301856110ba565b61189f60208301846110ee565b9392505050565b6118af816113a5565b81146118ba57600080fd5b50565b6000815190506118cc816118a6565b92915050565b6000602082840312156118e8576118e7611025565b5b60006118f6848285016118bd565b91505092915050565b7f55534443207472616e73666572206661696c6564000000000000000000000000600082015250565b6000611935601483611331565b9150611940826118ff565b602082019050919050565b6000602082019050818103600083015261196481611928565b9050919050565b7f4e487b7100000000000000000000000000000000000000000000000000000000600052602260045260246000fd5b600060028204905060018216806119b257607f821691505b6020821081036119c5576119c461196b565b5b50919050565b60008190508160005260206000209050919050565b600081546119ed8161199a565b6119f78186611331565b94506001821660008114611a125760018114611a2857611a5b565b60ff198316865281151560200286019350611a5b565b611a31856119cb565b60005b83811015611a5357815481890152600182019150602081019050611a34565b808801955050505b50505092915050565b6000608082019050611a7960008301876110ee565b611a8660208301866110ba565b611a9360408301856110ee565b8181036060830152611aa581846119e0565b905095945050505050565b60006020601f8301049050919050565b600082821b905092915050565b600060088302611afd7fffffffffffffffffffffffffffffffffffffffffffffffffffffffffffffffff82611ac0565b611b078683611ac0565b95508019841693508086168417925050509392505050565b6000819050919050565b6000611b44611b3f611b3a846110e4565b611b1f565b6110e4565b9050919050565b6000819050919050565b611b5e83611b29565b611b72611b6a82611b4b565b848454611acd565b825550505050565b600090565b611b87611b7a565b611b92818484611b55565b505050565b5b81811015611bb657611bab600082611b7f565b600181019050611b98565b5050565b601f821115611bfb57611bcc816119cb565b611bd584611ab0565b81016020851015611be4578190505b611bf8611bf085611ab0565b830182611b97565b50505b505050565b600082821c905092915050565b6000611c1e60001984600802611c00565b1980831691505092915050565b6000611c378383611c0d565b9150826002028217905092915050565b611c5082611326565b67ffffffffffffffff811115611c6957611c6861118c565b5b611c73825461199a565b611c7e828285611bba565b600060209050601f831160018114611cb15760008415611c9f578287015190505b611ca98582611c2b565b865550611d11565b601f198416611cbf866119cb565b60005b82811015611ce757848901518255600182019150602085019450602081019050611cc2565b86831015611d045784890151611d00601f891682611c0d565b8355505b6001600288020188555050505b505050505050565b7f4e6f7420612044414f206d656d62657200000000000000000000000000000000600082015250565b6000611d4f601083611331565b9150611d5a82611d19565b602082019050919050565b60006020820190508181036000830152611d7e81611d42565b9050919050565b6000606082019050611d9a60008301866110ba565b611da760208301856110ba565b611db460408301846110ee565b94935050505056fea2646970667358221220b2392255f27ef480046d8165c1f2750198371d0e9506c97c5e3a602553d86d5464736f6c63430008140033",
  "linkReferences": {},
  "deployedLinkReferences": {}
}