{
	"data": {
		"bytecode": {
			"linkReferences": {},
			"object": "6080604052348015600f57600080fd5b50604051615143380380615143833981016040819052602c9160a9565b6001600160a01b03811660855760405162461bcd60e51b815260206004820152601460248201527f496e76616c696420555344432061646472657373000000000000000000000000604482015260640160405180910390fd5b600380546001600160a01b0319166001600160a01b039290921691909117905560d7565b60006020828403121560ba57600080fd5b81516001600160a01b038116811460d057600080fd5b9392505050565b61505d806100e66000396000f3fe608060405234801561001057600080fd5b506004361061007d5760003560e01c8063b8418f331161005b578063b8418f33146100f2578063ccbbd26014610107578063e0b124ce1461012d578063e6dac3df1461014e57600080fd5b806311eac855146100825780635a29426c146100b25780635d91c109146100d2575b600080fd5b600354610095906001600160a01b031681565b6040516001600160a01b0390911681526020015b60405180910390f35b6100c56100c036600461077f565b610161565b6040516100a991906107e8565b6100e56100e0366004610890565b6102a1565b6040516100a991906108b2565b61010561010036600461077f565b61030d565b005b61011a61011536600461077f565b610430565b6040516100a997969594939291906108f5565b61014061013b366004610948565b610509565b6040519081526020016100a9565b61014061015c366004610988565b61053a565b6040805160e08101825260008082526060602083018190529282018190529181018290526080810182905260a0810182905260c0810191909152600082815260016020818152604092839020835160e08101909452805484529182018054918401916101cc90610a4f565b80601f01602080910402602001604051908101604052809291908181526020018280546101f890610a4f565b80156102455780601f1061021a57610100808354040283529160200191610245565b820191906000526020600020905b81548152906001019060200180831161022857829003601f168201915b505050918352505060028201546001600160a01b0390811660208301526003830154811660408301526004830154811660608301526005909201549182166080820152600160a01b90910460ff16151560a09091015292915050565b6001600160a01b03811660009081526002602090815260409182902080548351818402810184019094528084526060939283018282801561030157602002820191906000526020600020905b8154815260200190600101908083116102ed575b50505050509050919050565b6000818152600160205260409020600201546001600160a01b0316331461036f5760405162461bcd60e51b81526020600482015260116024820152702737ba103a3432902220a79037bbb732b960791b60448201526064015b60405180910390fd5b600081815260016020526040902060050154600160a01b900460ff166103d75760405162461bcd60e51b815260206004820152601760248201527f44414f20616c72656164792064656163746976617465640000000000000000006044820152606401610366565b60008181526001602052604090819020600501805460ff60a01b19169055517f408c5b54d83131cd34c1aad59cbfd85961ab6639d4411757e874fb1705f78ef5906104259083815260200190565b60405180910390a150565b60016020819052600091825260409091208054918101805461045190610a4f565b80601f016020809104026020016040519081016040528092919081815260200182805461047d90610a4f565b80156104ca5780601f1061049f576101008083540402835291602001916104ca565b820191906000526020600020905b8154815290600101906020018083116104ad57829003601f168201915b5050505060028301546003840154600485015460059095015493946001600160a01b03928316949183169350821691811690600160a01b900460ff1687565b6002602052816000526040600020818154811061052557600080fd5b90600052602060002001600091509150505481565b6000805460010180825560405182908690610559908290602001610a89565b60408051601f1981840301815290829052600354909188916001600160a01b031690339061058690610758565b610594959493929190610ab8565b604051809103906000f0801580156105b0573d6000803e3d6000fd5b5090506000600360009054906101000a90046001600160a01b031682336040516105d990610765565b6001600160a01b03938416815291831660208301529091166040820152606001604051809103906000f080158015610615573d6000803e3d6000fd5b5090506000600360009054906101000a90046001600160a01b03168383883360405161064090610772565b6001600160a01b039586168152938516602085015291841660408401526060830152909116608082015260a001604051809103906000f080158015610689573d6000803e3d6000fd5b50604051631129753f60e01b81526001600160a01b03808316600483015291925090831690631129753f90602401600060405180830381600087803b1580156106d157600080fd5b505af11580156106e5573d6000803e3d6000fd5b505033600081815260026020908152604080832080546001810182559084529190922001889055517feb2bc12827d15509675400364db7043363e7092b09e9a82b0b7735b089f5e5f79350610744925087918c91889088908890610b05565b60405180910390a150919695505050505050565b611d1480610b5283390190565b6111ab8061286683390190565b61161780613a1183390190565b60006020828403121561079157600080fd5b5035919050565b60005b838110156107b357818101518382015260200161079b565b50506000910152565b600081518084526107d4816020860160208601610798565b601f01601f19169290920160200192915050565b60208152815160208201526000602083015160e0604084015261080f6101008401826107bc565b60408501516001600160a01b0390811660608681019190915286015181166080808701919091528601511660a08581019190915285015190915061085e60c08501826001600160a01b03169052565b5060c084015180151560e0850152509392505050565b80356001600160a01b038116811461088b57600080fd5b919050565b6000602082840312156108a257600080fd5b6108ab82610874565b9392505050565b602080825282518282018190526000918401906040840190835b818110156108ea5783518352602093840193909201916001016108cc565b509095945050505050565b87815260e06020820152600061090e60e08301896107bc565b6001600160a01b0397881660408401529587166060830152509285166080840152931660a082015291151560c09092019190915292915050565b6000806040838503121561095b57600080fd5b61096483610874565b946020939093013593505050565b634e487b7160e01b600052604160045260246000fd5b60008060006060848603121561099d57600080fd5b833567ffffffffffffffff8111156109b457600080fd5b8401601f810186136109c557600080fd5b803567ffffffffffffffff8111156109df576109df610972565b604051601f8201601f19908116603f0116810167ffffffffffffffff81118282101715610a0e57610a0e610972565b604052818152828201602001881015610a2657600080fd5b816020840160208301376000602092820183015297908601359650604090950135949350505050565b600181811c90821680610a6357607f821691505b602082108103610a8357634e487b7160e01b600052602260045260246000fd5b50919050565b60008251610a9b818460208701610798565b6a0204d656d626572736869760ac1b920191825250600b01919050565b60a081526000610acb60a08301886107bc565b8281036020840152610add81886107bc565b604084019690965250506001600160a01b039283166060820152911660809091015292915050565b86815260c060208201526000610b1e60c08301886107bc565b6001600160a01b039687166040840152948616606083015250918416608083015290921660a0909201919091529291505056fe608060405234801561001057600080fd5b50604051611d14380380611d1483398101604081905261002f91610212565b80848560405160200161004291906102a6565b60408051601f19818403018152919052600061005e8382610356565b50600161006b8282610356565b5050506001600160a01b03811661009c57604051631e4fbdf760e01b81526000600482015260240160405180910390fd5b6100a5816100e1565b50600e6100b28682610356565b5050600c91909155600d80546001600160a01b0319166001600160a01b03909216919091179055506104149050565b600a80546001600160a01b038381166001600160a01b0319831681179093556040519116919082907f8be0079c531659141344cd1fd0a4f28419497f9722a3daafe3b4186f6b6457e090600090a35050565b634e487b7160e01b600052604160045260246000fd5b60005b8381101561016457818101518382015260200161014c565b50506000910152565b600082601f83011261017e57600080fd5b81516001600160401b0381111561019757610197610133565b604051601f8201601f19908116603f011681016001600160401b03811182821017156101c5576101c5610133565b6040528181528382016020018510156101dd57600080fd5b6101ee826020830160208701610149565b949350505050565b80516001600160a01b038116811461020d57600080fd5b919050565b600080600080600060a0868803121561022a57600080fd5b85516001600160401b0381111561024057600080fd5b61024c8882890161016d565b602088015190965090506001600160401b0381111561026a57600080fd5b6102768882890161016d565b9450506040860151925061028c606087016101f6565b915061029a608087016101f6565b90509295509295909350565b600082516102b8818460208701610149565b6213919560ea1b920191825250600301919050565b600181811c908216806102e157607f821691505b60208210810361030157634e487b7160e01b600052602260045260246000fd5b50919050565b601f82111561035157806000526020600020601f840160051c8101602085101561032e5750805b601f840160051c820191505b8181101561034e576000815560010161033a565b50505b505050565b81516001600160401b0381111561036f5761036f610133565b6103838161037d84546102cd565b84610307565b6020601f8211600181146103b7576000831561039f5750848201515b600019600385901b1c1916600184901b17845561034e565b600084815260208120601f198516915b828110156103e757878501518255602094850194600190920191016103c7565b50848210156104055786840151600019600387901b60f8161c191681555b50505050600190811b01905550565b6118f1806104236000396000f3fe608060405234801561001057600080fd5b50600436106101c45760003560e01c806370a08231116100f9578063a5c7900e11610097578063c87b56dd11610071578063c87b56dd146103bf578063e985e9c5146103d2578063f2fde38b146103e5578063f63d13d7146103f857600080fd5b8063a5c7900e14610383578063b88d4fde146103a3578063c713a289146103b657600080fd5b806395d89b41116100d357806395d89b4114610334578063997072f71461033c578063a22cb46514610344578063a230c5241461035757600080fd5b806370a0823114610308578063715018a61461031b5780638da5cb5b1461032357600080fd5b806323b872dd1161016657806342842e0e1161014057806342842e0e146102c757806348976936146102da5780634f6ccce7146102e25780636352211e146102f557600080fd5b806323b872dd1461028e5780632f745c59146102a1578063409b64f9146102b457600080fd5b806308ae4b0c116101a257806308ae4b0c14610231578063095ea7b31461025457806311eac8551461026957806318160ddd1461027c57600080fd5b806301ffc9a7146101c957806306fdde03146101f1578063081812fc14610206575b600080fd5b6101dc6101d73660046114e5565b610400565b60405190151581526020015b60405180910390f35b6101f961042b565b6040516101e89190611552565b610219610214366004611565565b6104bd565b6040516001600160a01b0390911681526020016101e8565b6101dc61023f36600461159a565b600f6020526000908152604090205460ff1681565b6102676102623660046115b5565b6104e6565b005b600d54610219906001600160a01b031681565b6008545b6040519081526020016101e8565b61026761029c3660046115df565b6104f5565b6102806102af3660046115b5565b610585565b6102676102c2366004611565565b6105ea565b6102676102d53660046115df565b61062d565b6101f961064d565b6102806102f0366004611565565b6106db565b610219610303366004611565565b610734565b61028061031636600461159a565b61073f565b610267610787565b600a546001600160a01b0316610219565b6101f961079b565b6102806107aa565b61026761035236600461162a565b6107ba565b6101dc61036536600461159a565b6001600160a01b03166000908152600f602052604090205460ff1690565b61028061039136600461159a565b60106020526000908152604090205481565b6102676103b1366004611677565b6107c5565b610280600c5481565b6101f96103cd366004611565565b6107dd565b6101dc6103e036600461175b565b610852565b6102676103f336600461159a565b610880565b6102676108be565b60006001600160e01b0319821663780e9d6360e01b1480610425575061042582610a7a565b92915050565b60606000805461043a9061178e565b80601f01602080910402602001604051908101604052809291908181526020018280546104669061178e565b80156104b35780601f10610488576101008083540402835291602001916104b3565b820191906000526020600020905b81548152906001019060200180831161049657829003601f168201915b5050505050905090565b60006104c882610aca565b506000828152600460205260409020546001600160a01b0316610425565b6104f1828233610b03565b5050565b6001600160a01b03821661052457604051633250574960e11b8152600060048201526024015b60405180910390fd5b6000610531838333610b10565b9050836001600160a01b0316816001600160a01b03161461057f576040516364283d7b60e01b81526001600160a01b038086166004830152602482018490528216604482015260640161051b565b50505050565b60006105908361073f565b82106105c15760405163295f44f760e21b81526001600160a01b03841660048201526024810183905260440161051b565b506001600160a01b03919091166000908152600660209081526040808320938352929052205490565b6105f2610ba3565b600c8190556040518181527f18351338521e832910dc0e4285e62c03492bb32d8e625843c15f1e9356bf32509060200160405180910390a150565b610648838383604051806020016040528060008152506107c5565b505050565b600e805461065a9061178e565b80601f01602080910402602001604051908101604052809291908181526020018280546106869061178e565b80156106d35780601f106106a8576101008083540402835291602001916106d3565b820191906000526020600020905b8154815290600101906020018083116106b657829003601f168201915b505050505081565b60006106e660085490565b821061070f5760405163295f44f760e21b8152600060048201526024810183905260440161051b565b60088281548110610722576107226117c8565b90600052602060002001549050919050565b600061042582610aca565b60006001600160a01b03821661076b576040516322718ad960e21b81526000600482015260240161051b565b506001600160a01b031660009081526003602052604090205490565b61078f610ba3565b6107996000610bd0565b565b60606001805461043a9061178e565b60006107b5600b5490565b905090565b6104f1338383610c22565b6107d08484846104f5565b61057f3385858585610cc1565b60606107e882610aca565b50600061080060408051602081019091526000815290565b90506000815111610820576040518060200160405280600081525061084b565b8061082a84610dec565b60405160200161083b9291906117de565b6040516020818303038152906040525b9392505050565b6001600160a01b03918216600090815260056020908152604080832093909416825291909152205460ff1690565b610888610ba3565b6001600160a01b0381166108b257604051631e4fbdf760e01b81526000600482015260240161051b565b6108bb81610bd0565b50565b336000908152600f602052604090205460ff16156109115760405162461bcd60e51b815260206004820152601060248201526f20b63932b0b23c90309036b2b6b132b960811b604482015260640161051b565b600d546001600160a01b0316806323b872dd33610936600a546001600160a01b031690565b600c546040516001600160e01b031960e086901b1681526001600160a01b03938416600482015292909116602483015260448201526064016020604051808303816000875af115801561098d573d6000803e3d6000fd5b505050506040513d601f19601f820116820180604052508101906109b1919061180d565b6109f45760405162461bcd60e51b81526020600482015260146024820152731554d110c81d1c985b9cd9995c8819985a5b195960621b604482015260640161051b565b610a02600b80546001019055565b6000610a0d600b5490565b9050610a193382610e7f565b336000818152600f60209081526040808320805460ff191660011790556010825291829020849055815192835282018390527fede8eed4383e9241982619b94dd83e488b274cced0fd07b8c0092a393defd52f910160405180910390a15050565b60006001600160e01b031982166380ac58cd60e01b1480610aab57506001600160e01b03198216635b5e139f60e01b145b8061042557506301ffc9a760e01b6001600160e01b0319831614610425565b6000818152600260205260408120546001600160a01b03168061042557604051637e27328960e01b81526004810184905260240161051b565b6106488383836001610ee4565b600080610b1e858585610fea565b90506001600160a01b03811615610b5b576001600160a01b0381166000908152600f60209081526040808320805460ff1916905560109091528120555b6001600160a01b03851615610b9b576001600160a01b0385166000908152600f60209081526040808320805460ff19166001179055601090915290208490555b949350505050565b600a546001600160a01b031633146107995760405163118cdaa760e01b815233600482015260240161051b565b600a80546001600160a01b038381166001600160a01b0319831681179093556040519116919082907f8be0079c531659141344cd1fd0a4f28419497f9722a3daafe3b4186f6b6457e090600090a35050565b6001600160a01b038216610c5457604051630b61174360e31b81526001600160a01b038316600482015260240161051b565b6001600160a01b03838116600081815260056020908152604080832094871680845294825291829020805460ff191686151590811790915591519182527f17307eab39ab6107e8899845ad3d59bd9653f200f220920489ca2b5937696c31910160405180910390a3505050565b6001600160a01b0383163b15610de557604051630a85bd0160e11b81526001600160a01b0384169063150b7a0290610d0390889088908790879060040161182a565b6020604051808303816000875af1925050508015610d3e575060408051601f3d908101601f19168201909252610d3b91810190611867565b60015b610da7573d808015610d6c576040519150601f19603f3d011682016040523d82523d6000602084013e610d71565b606091505b508051600003610d9f57604051633250574960e11b81526001600160a01b038516600482015260240161051b565b805181602001fd5b6001600160e01b03198116630a85bd0160e11b14610de357604051633250574960e11b81526001600160a01b038516600482015260240161051b565b505b5050505050565b60606000610df9836110b7565b600101905060008167ffffffffffffffff811115610e1957610e19611661565b6040519080825280601f01601f191660200182016040528015610e43576020820181803683370190505b5090508181016020015b600019016f181899199a1a9b1b9c1cb0b131b232b360811b600a86061a8153600a8504945084610e4d57509392505050565b6001600160a01b038216610ea957604051633250574960e11b81526000600482015260240161051b565b6000610eb783836000610b10565b90506001600160a01b03811615610648576040516339e3563760e11b81526000600482015260240161051b565b8080610ef857506001600160a01b03821615155b15610fba576000610f0884610aca565b90506001600160a01b03831615801590610f345750826001600160a01b0316816001600160a01b031614155b8015610f475750610f458184610852565b155b15610f705760405163a9fbf51f60e01b81526001600160a01b038416600482015260240161051b565b8115610fb85783856001600160a01b0316826001600160a01b03167f8c5be1e5ebec7d5bd14f71427d1e84f3dd0314c0f7b2291e5b200ac8c7c3b92560405160405180910390a45b505b5050600090815260046020526040902080546001600160a01b0319166001600160a01b0392909216919091179055565b600080610ff885858561118f565b90506001600160a01b0381166110555761105084600880546000838152600960205260408120829055600182018355919091527ff3f7a9fe364faab93b216da50a3214154f22a0a2b415b23a84c8169e8b636ee30155565b611078565b846001600160a01b0316816001600160a01b031614611078576110788185611288565b6001600160a01b0385166110945761108f84611309565b610b9b565b846001600160a01b0316816001600160a01b031614610b9b57610b9b85856113b8565b60008072184f03e93ff9f4daa797ed6e38ed64bf6a1f0160401b83106110f65772184f03e93ff9f4daa797ed6e38ed64bf6a1f0160401b830492506040015b6d04ee2d6d415b85acef81000000008310611122576d04ee2d6d415b85acef8100000000830492506020015b662386f26fc10000831061114057662386f26fc10000830492506010015b6305f5e1008310611158576305f5e100830492506008015b612710831061116c57612710830492506004015b6064831061117e576064830492506002015b600a83106104255760010192915050565b6000828152600260205260408120546001600160a01b03908116908316156111bc576111bc818486611408565b6001600160a01b038116156111fa576111d9600085600080610ee4565b6001600160a01b038116600090815260036020526040902080546000190190555b6001600160a01b03851615611229576001600160a01b0385166000908152600360205260409020805460010190555b60008481526002602052604080822080546001600160a01b0319166001600160a01b0389811691821790925591518793918516917fddf252ad1be2c89b69c2b068fc378daa952ba7f163c4a11628f55a4df523b3ef91a4949350505050565b60006112938361073f565b6000838152600760209081526040808320546001600160a01b03881684526006909252909120919250908183146112ea57600083815260208281526040808320548584528184208190558352600790915290208290555b6000938452600760209081526040808620869055938552525081205550565b60085460009061131b90600190611884565b60008381526009602052604081205460088054939450909284908110611343576113436117c8565b906000526020600020015490508060088381548110611364576113646117c8565b600091825260208083209091019290925582815260099091526040808220849055858252812055600880548061139c5761139c6118a5565b6001900381819060005260206000200160009055905550505050565b600060016113c58461073f565b6113cf9190611884565b6001600160a01b039093166000908152600660209081526040808320868452825280832085905593825260079052919091209190915550565b61141383838361146c565b610648576001600160a01b03831661144157604051637e27328960e01b81526004810182905260240161051b565b60405163177e802f60e01b81526001600160a01b03831660048201526024810182905260440161051b565b60006001600160a01b03831615801590610b9b5750826001600160a01b0316846001600160a01b031614806114a657506114a68484610852565b80610b9b5750506000908152600460205260409020546001600160a01b03908116911614919050565b6001600160e01b0319811681146108bb57600080fd5b6000602082840312156114f757600080fd5b813561084b816114cf565b60005b8381101561151d578181015183820152602001611505565b50506000910152565b6000815180845261153e816020860160208601611502565b601f01601f19169290920160200192915050565b60208152600061084b6020830184611526565b60006020828403121561157757600080fd5b5035919050565b80356001600160a01b038116811461159557600080fd5b919050565b6000602082840312156115ac57600080fd5b61084b8261157e565b600080604083850312156115c857600080fd5b6115d18361157e565b946020939093013593505050565b6000806000606084860312156115f457600080fd5b6115fd8461157e565b925061160b6020850161157e565b929592945050506040919091013590565b80151581146108bb57600080fd5b6000806040838503121561163d57600080fd5b6116468361157e565b915060208301356116568161161c565b809150509250929050565b634e487b7160e01b600052604160045260246000fd5b6000806000806080858703121561168d57600080fd5b6116968561157e565b93506116a46020860161157e565b925060408501359150606085013567ffffffffffffffff8111156116c757600080fd5b8501601f810187136116d857600080fd5b803567ffffffffffffffff8111156116f2576116f2611661565b604051601f8201601f19908116603f0116810167ffffffffffffffff8111828210171561172157611721611661565b60405281815282820160200189101561173957600080fd5b8160208401602083013760006020838301015280935050505092959194509250565b6000806040838503121561176e57600080fd5b6117778361157e565b91506117856020840161157e565b90509250929050565b600181811c908216806117a257607f821691505b6020821081036117c257634e487b7160e01b600052602260045260246000fd5b50919050565b634e487b7160e01b600052603260045260246000fd5b600083516117f0818460208801611502565b835190830190611804818360208801611502565b01949350505050565b60006020828403121561181f57600080fd5b815161084b8161161c565b6001600160a01b038581168252841660208201526040810183905260806060820181905260009061185d90830184611526565b9695505050505050565b60006020828403121561187957600080fd5b815161084b816114cf565b8181038181111561042557634e487b7160e01b600052601160045260246000fd5b634e487b7160e01b600052603160045260246000fdfea2646970667358221220eb205df56d27b1dfb0a7c054c81b28c9ff7250ceeb72f968ad49731ba7c8c57a64736f6c634300081a0033608060405234801561001057600080fd5b506040516111ab3803806111ab83398101604081905261002f91610106565b806001600160a01b03811661005e57604051631e4fbdf760e01b81526000600482015260240160405180910390fd5b6100678161009a565b5050600180546001600160a01b039384166001600160a01b03199182161790915560028054929093169116179055610149565b600080546001600160a01b038381166001600160a01b0319831681178455604051919092169283917f8be0079c531659141344cd1fd0a4f28419497f9722a3daafe3b4186f6b6457e09190a35050565b80516001600160a01b038116811461010157600080fd5b919050565b60008060006060848603121561011b57600080fd5b610124846100ea565b9250610132602085016100ea565b9150610140604085016100ea565b90509250925092565b611053806101586000396000f3fe608060405234801561001057600080fd5b50600436106100cf5760003560e01c806351ec8d1e1161008c5780638da5cb5b116100665780638da5cb5b146101a6578063b172b222146101b7578063f2fde38b146101ca578063f8defa3c146101dd57600080fd5b806351ec8d1e14610168578063715018a61461017b57806387d817891461018357600080fd5b80631129753f146100d457806311eac855146100e957806312065fe014610119578063162a0cf81461012f57806317560f29146101425780633b76594d14610155575b600080fd5b6100e76100e2366004610b98565b6101f2565b005b6001546100fc906001600160a01b031681565b6040516001600160a01b0390911681526020015b60405180910390f35b61012161024e565b604051908152602001610110565b6100e761013d366004610bba565b6102c0565b610121610150366004610be9565b6105c3565b6100e7610163366004610bba565b610710565b6002546100fc906001600160a01b031681565b6100e76108b8565b610196610191366004610bba565b6108cc565b6040516101109493929190610d02565b6000546001600160a01b03166100fc565b6003546100fc906001600160a01b031681565b6100e76101d8366004610b98565b61099e565b6101e56109dc565b6040516101109190610d3c565b6101fa610aff565b600380546001600160a01b0319166001600160a01b0383169081179091556040519081527f2bf79e6c54fa8159bd63e520bd2627b8c9f7bba4561d8844d1f0eeb9f5684f739060200160405180910390a150565b6001546040516370a0823160e01b81523060048201526000916001600160a01b0316906370a0823190602401602060405180830381865afa158015610297573d6000803e3d6000fd5b505050506040513d601f19601f820116820180604052508101906102bb9190610dd7565b905090565b6003546001600160a01b0316331461031a5760405162461bcd60e51b815260206004820152601860248201527713db9b1e4819dbdd995c9b985b98d94818d85b8818d85b1b60421b60448201526064015b60405180910390fd5b60045481106103605760405162461bcd60e51b8152602060048201526012602482015271125b9d985b1a59081c185e5b595b9d08125160721b6044820152606401610311565b60006004828154811061037557610375610df0565b60009182526020909120600490910201600381015490915060ff16156103dd5760405162461bcd60e51b815260206004820152601860248201527f5061796d656e7420616c726561647920657865637574656400000000000000006044820152606401610311565b60018054908201546040516370a0823160e01b81523060048201526001600160a01b039092169182906370a0823190602401602060405180830381865afa15801561042c573d6000803e3d6000fd5b505050506040513d601f19601f820116820180604052508101906104509190610dd7565b101561049e5760405162461bcd60e51b815260206004820152601b60248201527f496e73756666696369656e742074726561737572792066756e647300000000006044820152606401610311565b60038201805460ff1916600190811790915582549083015460405163a9059cbb60e01b81526001600160a01b03928316600482015260248101919091529082169063a9059cbb906044016020604051808303816000875af1158015610507573d6000803e3d6000fd5b505050506040513d601f19601f8201168201806040525081019061052b9190610e06565b61056e5760405162461bcd60e51b81526020600482015260146024820152731554d110c81d1c985b9cd9995c8819985a5b195960621b6044820152606401610311565b815460018301546040517f6953fabd5ab3b7899f327aa5434ec569ed61e749fa6815574aee51d67b344202926105b69287926001600160a01b03909216916002880190610e62565b60405180910390a1505050565b6003546000906001600160a01b0316331461061b5760405162461bcd60e51b815260206004820152601860248201527713db9b1e4819dbdd995c9b985b98d94818d85b8818d85b1b60421b6044820152606401610311565b60048054604080516080810182526001600160a01b0388811682526020820188815292820187815260006060840181905260018601875586905282517f8a35acfbc15ff81a39ae7d344fd709f28e8600b4aa8c65c6b64bfe7fe36bd19b96860296870180546001600160a01b0319169190931617825592517f8a35acfbc15ff81a39ae7d344fd709f28e8600b4aa8c65c6b64bfe7fe36bd19c8601559151929390927f8a35acfbc15ff81a39ae7d344fd709f28e8600b4aa8c65c6b64bfe7fe36bd19d909101906106ec9082610f5e565b50606091909101516003909101805460ff1916911515919091179055949350505050565b60025460405163288c314960e21b81523360048201526001600160a01b039091169063a230c52490602401602060405180830381865afa158015610758573d6000803e3d6000fd5b505050506040513d601f19601f8201168201806040525081019061077c9190610e06565b6107bb5760405162461bcd60e51b815260206004820152601060248201526f2737ba1030902220a79036b2b6b132b960811b6044820152606401610311565b6001546040516323b872dd60e01b8152336004820152306024820152604481018390526001600160a01b039091169081906323b872dd906064016020604051808303816000875af1158015610814573d6000803e3d6000fd5b505050506040513d601f19601f820116820180604052508101906108389190610e06565b61087b5760405162461bcd60e51b81526020600482015260146024820152731554d110c81d1c985b9cd9995c8819985a5b195960621b6044820152606401610311565b60408051338152602081018490527f8e47b87b0ef542cdfa1659c551d88bad38aa7f452d2bbb349ab7530dfec8be8f910160405180910390a15050565b6108c0610aff565b6108ca6000610b2c565b565b600481815481106108dc57600080fd5b60009182526020909120600490910201805460018201546002830180546001600160a01b03909316945090929161091290610e28565b80601f016020809104026020016040519081016040528092919081815260200182805461093e90610e28565b801561098b5780601f106109605761010080835404028352916020019161098b565b820191906000526020600020905b81548152906001019060200180831161096e57829003601f168201915b5050506003909301549192505060ff1684565b6109a6610aff565b6001600160a01b0381166109d057604051631e4fbdf760e01b815260006004820152602401610311565b6109d981610b2c565b50565b60606004805480602002602001604051908101604052809291908181526020016000905b82821015610af6576000848152602090819020604080516080810182526004860290920180546001600160a01b0316835260018101549383019390935260028301805492939291840191610a5390610e28565b80601f0160208091040260200160405190810160405280929190818152602001828054610a7f90610e28565b8015610acc5780601f10610aa157610100808354040283529160200191610acc565b820191906000526020600020905b815481529060010190602001808311610aaf57829003601f168201915b50505091835250506003919091015460ff1615156020918201529082526001929092019101610a00565b50505050905090565b6000546001600160a01b031633146108ca5760405163118cdaa760e01b8152336004820152602401610311565b600080546001600160a01b038381166001600160a01b0319831681178455604051919092169283917f8be0079c531659141344cd1fd0a4f28419497f9722a3daafe3b4186f6b6457e09190a35050565b80356001600160a01b0381168114610b9357600080fd5b919050565b600060208284031215610baa57600080fd5b610bb382610b7c565b9392505050565b600060208284031215610bcc57600080fd5b5035919050565b634e487b7160e01b600052604160045260246000fd5b600080600060608486031215610bfe57600080fd5b610c0784610b7c565b925060208401359150604084013567ffffffffffffffff811115610c2a57600080fd5b8401601f81018613610c3b57600080fd5b803567ffffffffffffffff811115610c5557610c55610bd3565b604051601f8201601f19908116603f0116810167ffffffffffffffff81118282101715610c8457610c84610bd3565b604052818152828201602001881015610c9c57600080fd5b816020840160208301376000602083830101528093505050509250925092565b6000815180845260005b81811015610ce257602081850181015186830182015201610cc6565b506000602082860101526020601f19601f83011685010191505092915050565b60018060a01b0385168152836020820152608060408201526000610d296080830185610cbc565b9050821515606083015295945050505050565b6000602082016020835280845180835260408501915060408160051b86010192506020860160005b82811015610dcb57603f19878603018452815160018060a01b03815116865260208101516020870152604081015160806040880152610da66080880182610cbc565b6060928301511515979092019690965294506020938401939190910190600101610d64565b50929695505050505050565b600060208284031215610de957600080fd5b5051919050565b634e487b7160e01b600052603260045260246000fd5b600060208284031215610e1857600080fd5b81518015158114610bb357600080fd5b600181811c90821680610e3c57607f821691505b602082108103610e5c57634e487b7160e01b600052602260045260246000fd5b50919050565b8481526001600160a01b0384166020820152604081018390526080606082015281546000908190610e9281610e28565b8060808601526001821660008114610eb15760018114610ecd57610f01565b60ff19831660a087015260a082151560051b8701019350610f01565b86600052602060002060005b83811015610ef857815488820160a00152600190910190602001610ed9565b870160a0019450505b509198975050505050505050565b601f821115610f5957806000526020600020601f840160051c81016020851015610f365750805b601f840160051c820191505b81811015610f565760008155600101610f42565b50505b505050565b815167ffffffffffffffff811115610f7857610f78610bd3565b610f8c81610f868454610e28565b84610f0f565b6020601f821160018114610fc05760008315610fa85750848201515b600019600385901b1c1916600184901b178455610f56565b600084815260208120601f198516915b82811015610ff05787850151825560209485019460019092019101610fd0565b508482101561100e5786840151600019600387901b60f8161c191681555b50505050600190811b0190555056fea2646970667358221220b16c57a3f9de97220122f58f5bed7d087d1715684df109a9a0a25f7b1446cf4f64736f6c634300081a0033608060405234801561001057600080fd5b5060405161161738038061161783398101604081905261002f9161011a565b806001600160a01b03811661005e57604051631e4fbdf760e01b81526000600482015260240160405180910390fd5b610067816100ae565b5050600180546001600160a01b03199081166001600160a01b0396871617909155600280548216948616949094179093556003805490931691909316179055600455610178565b600080546001600160a01b038381166001600160a01b0319831681178455604051919092169283917f8be0079c531659141344cd1fd0a4f28419497f9722a3daafe3b4186f6b6457e09190a35050565b80516001600160a01b038116811461011557600080fd5b919050565b600080600080600060a0868803121561013257600080fd5b61013b866100fe565b9450610149602087016100fe565b9350610157604087016100fe565b92506060860151915061016c608087016100fe565b90509295509295909350565b611490806101876000396000f3fe608060405234801561001057600080fd5b50600436106100f55760003560e01c806357ad627911610097578063c08cc02d11610066578063c08cc02d1461020c578063c7f758a814610214578063c9d27afe14610234578063f2fde38b1461024757600080fd5b806357ad6279146101d7578063715018a6146101ea5780638da5cb5b146101f2578063b58131b01461020357600080fd5b80631eff4322116100d35780631eff43221461016b578063438596321461018c57806351ec8d1e146101af5780635652077c146101c257600080fd5b8063013cf08b146100fa57806311eac8551461012d57806318da001114610158575b600080fd5b61010d610108366004610dbe565b61025a565b6040516101249b9a99989796959493929190610e55565b60405180910390f35b600154610140906001600160a01b031681565b6040516001600160a01b039091168152602001610124565b600354610140906001600160a01b031681565b61017e610179366004610f9f565b6103d8565b604051908152602001610124565b61019f61019a36600461102a565b610575565b6040519015158152602001610124565b600254610140906001600160a01b031681565b6101d56101d0366004610dbe565b6105a5565b005b6101d56101e5366004610dbe565b61068f565b6101d56106d2565b6000546001600160a01b0316610140565b61017e60045481565b60055461017e565b610227610222366004610dbe565b6106e6565b6040516101249190611056565b6101d5610242366004611138565b6108d2565b6101d5610255366004611168565b610b64565b60066020526000908152604090208054600182015460028301805492936001600160a01b039092169261028c9061118a565b80601f01602080910402602001604051908101604052809291908181526020018280546102b89061118a565b80156103055780601f106102da57610100808354040283529160200191610305565b820191906000526020600020905b8154815290600101906020018083116102e857829003601f168201915b50505050509080600301805461031a9061118a565b80601f01602080910402602001604051908101604052809291908181526020018280546103469061118a565b80156103935780601f1061036857610100808354040283529160200191610393565b820191906000526020600020905b81548152906001019060200180831161037657829003601f168201915b505050600484015460058501546006860154600787015460088801546009890154600a90990154979894976001600160a01b0390941696509194509260ff909116918b565b60025460405163288c314960e21b81523360048201526000916001600160a01b03169063a230c52490602401602060405180830381865afa158015610421573d6000803e3d6000fd5b505050506040513d601f19601f8201168201806040525081019061044591906111c4565b6104895760405162461bcd60e51b815260206004820152601060248201526f2737ba1030902220a79036b2b6b132b960811b60448201526064015b60405180910390fd5b60058054906000610499836111f7565b909155505060055460008181526006602052604090208181556001810180546001600160a01b03191633179055600281016104d4898261125e565b50600381016104e3888261125e565b50600481018690556005810180546001600160a01b0319166001600160a01b03871617905560088101805460ff19169055426009820181905561052790859061131d565b600a8201556040517f98120a6aaa04295520ab4e01c6c1235dd316e822cc9ff31db7b3f197366d18bd9061056290849033908c908b90611330565b60405180910390a1509695505050505050565b60008281526006602090815260408083206001600160a01b0385168452600b0190915290205460ff165b92915050565b600081815260066020526040902080546105d15760405162461bcd60e51b81526004016104809061136b565b6000600882015460ff1660038111156105ec576105ec610e1d565b1461062f5760405162461bcd60e51b815260206004820152601360248201527250726f706f73616c206e6f742061637469766560681b6044820152606401610480565b80600a015442116106825760405162461bcd60e51b815260206004820152601760248201527f566f74696e6720706572696f64206e6f7420656e6465640000000000000000006044820152606401610480565b61068b82610ba2565b5050565b610697610cc4565b60048190556040518181527f75176781f69c55e26fee85d480452b0b9038b9428704bb7b232fc1c638bbf8039060200160405180910390a150565b6106da610cc4565b6106e46000610cf1565b565b6106ee610d41565b6000828152600660205260409020805461071a5760405162461bcd60e51b81526004016104809061136b565b60408051610160810182528254815260018301546001600160a01b0316602082015260028301805491928301916107509061118a565b80601f016020809104026020016040519081016040528092919081815260200182805461077c9061118a565b80156107c95780601f1061079e576101008083540402835291602001916107c9565b820191906000526020600020905b8154815290600101906020018083116107ac57829003601f168201915b505050505081526020018260030180546107e29061118a565b80601f016020809104026020016040519081016040528092919081815260200182805461080e9061118a565b801561085b5780601f106108305761010080835404028352916020019161085b565b820191906000526020600020905b81548152906001019060200180831161083e57829003601f168201915b50505091835250506004830154602082015260058301546001600160a01b031660408201526006830154606082015260078301546080820152600883015460a09091019060ff1660038111156108b3576108b3610e1d565b81526020018260090154815260200182600a0154815250915050919050565b60025460405163288c314960e21b81523360048201526001600160a01b039091169063a230c52490602401602060405180830381865afa15801561091a573d6000803e3d6000fd5b505050506040513d601f19601f8201168201806040525081019061093e91906111c4565b61097d5760405162461bcd60e51b815260206004820152601060248201526f2737ba1030902220a79036b2b6b132b960811b6044820152606401610480565b600082815260066020526040902080546109a95760405162461bcd60e51b81526004016104809061136b565b6000600882015460ff1660038111156109c4576109c4610e1d565b14610a075760405162461bcd60e51b815260206004820152601360248201527250726f706f73616c206e6f742061637469766560681b6044820152606401610480565b80600a0154421115610a515760405162461bcd60e51b8152602060048201526013602482015272159bdd1a5b99c81c195c9a5bd908195b991959606a1b6044820152606401610480565b336000908152600b8201602052604090205460ff1615610aa35760405162461bcd60e51b815260206004820152600d60248201526c105b1c9958591e481d9bdd1959609a1b6044820152606401610480565b336000908152600b820160205260409020805460ff191660011790558115610ae157600681018054906000610ad7836111f7565b9190505550610af9565b600781018054906000610af3836111f7565b91905055505b604080518481523360208201528315158183015290517ff2913dbe661ee2acc4a046d8fbcdc792373bda34c41c6086484b5345e5785e5f9181900360600190a180600a0154421180610b515750600454816006015410155b15610b5f57610b5f83610ba2565b505050565b610b6c610cc4565b6001600160a01b038116610b9657604051631e4fbdf760e01b815260006004820152602401610480565b610b9f81610cf1565b50565b60008181526006602081905260409091206007810154918101549091108015610bd15750600454816006015410155b15610cb35760088101805460ff1916600117905560035460058201546004808401546040516317560f2960e01b81526001600160a01b039485169485946317560f2994610c2894929091169260028901910161139b565b6020604051808303816000875af1158015610c47573d6000803e3d6000fd5b505050506040513d601f19601f82011682018060405250810190610c6b9190611441565b5060088201805460ff191660031790556040518381527f712ae1383f79ac853f8d882153778e0260ef8f03b504e2866e0593e04d2b291f9060200160405180910390a1505050565b600801805460ff1916600217905550565b6000546001600160a01b031633146106e45760405163118cdaa760e01b8152336004820152602401610480565b600080546001600160a01b038381166001600160a01b0319831681178455604051919092169283917f8be0079c531659141344cd1fd0a4f28419497f9722a3daafe3b4186f6b6457e09190a35050565b6040518061016001604052806000815260200160006001600160a01b0316815260200160608152602001606081526020016000815260200160006001600160a01b03168152602001600081526020016000815260200160006003811115610daa57610daa610e1d565b815260200160008152602001600081525090565b600060208284031215610dd057600080fd5b5035919050565b6000815180845260005b81811015610dfd57602081850181015186830182015201610de1565b506000602082860101526020601f19601f83011685010191505092915050565b634e487b7160e01b600052602160045260246000fd5b60048110610e5157634e487b7160e01b600052602160045260246000fd5b9052565b8b81526001600160a01b038b16602082015261016060408201819052600090610e809083018c610dd7565b8281036060840152610e92818c610dd7565b91505088608083015260018060a01b03881660a08301528660c08301528560e0830152610ec3610100830186610e33565b61012082019390935261014001529998505050505050505050565b634e487b7160e01b600052604160045260246000fd5b600082601f830112610f0557600080fd5b813567ffffffffffffffff811115610f1f57610f1f610ede565b604051601f8201601f19908116603f0116810167ffffffffffffffff81118282101715610f4e57610f4e610ede565b604052818152838201602001851015610f6657600080fd5b816020850160208301376000918101602001919091529392505050565b80356001600160a01b0381168114610f9a57600080fd5b919050565b600080600080600060a08688031215610fb757600080fd5b853567ffffffffffffffff811115610fce57600080fd5b610fda88828901610ef4565b955050602086013567ffffffffffffffff811115610ff757600080fd5b61100388828901610ef4565b9450506040860135925061101960608701610f83565b949793965091946080013592915050565b6000806040838503121561103d57600080fd5b8235915061104d60208401610f83565b90509250929050565b60208152815160208201526000602083015161107d60408401826001600160a01b03169052565b5060408301516101606060840152611099610180840182610dd7565b90506060840151601f198483030160808501526110b68282610dd7565b915050608084015160a084015260a08401516110dd60c08501826001600160a01b03169052565b5060c084015160e084015260e0840151610100840152610100840151611107610120850182610e33565b506101208401516101408401526101408401516101608401528091505092915050565b8015158114610b9f57600080fd5b6000806040838503121561114b57600080fd5b82359150602083013561115d8161112a565b809150509250929050565b60006020828403121561117a57600080fd5b61118382610f83565b9392505050565b600181811c9082168061119e57607f821691505b6020821081036111be57634e487b7160e01b600052602260045260246000fd5b50919050565b6000602082840312156111d657600080fd5b81516111838161112a565b634e487b7160e01b600052601160045260246000fd5b600060018201611209576112096111e1565b5060010190565b601f821115610b5f57806000526020600020601f840160051c810160208510156112375750805b601f840160051c820191505b818110156112575760008155600101611243565b5050505050565b815167ffffffffffffffff81111561127857611278610ede565b61128c81611286845461118a565b84611210565b6020601f8211600181146112c057600083156112a85750848201515b600019600385901b1c1916600184901b178455611257565b600084815260208120601f198516915b828110156112f057878501518255602094850194600190920191016112d0565b508482101561130e5786840151600019600387901b60f8161c191681555b50505050600190811b01905550565b8082018082111561059f5761059f6111e1565b8481526001600160a01b038416602082015260806040820181905260009061135a90830185610dd7565b905082606083015295945050505050565b602080825260169082015275141c9bdc1bdcd85b08191bd95cdb89dd08195e1a5cdd60521b604082015260600190565b6001600160a01b03841681526020810183905260606040820152815460009081906113c58161118a565b80606086015260018216600081146113e4576001811461140057611434565b60ff1983166080870152608082151560051b8701019350611434565b86600052602060002060005b8381101561142b5781548882016080015260019091019060200161140c565b87016080019450505b5091979650505050505050565b60006020828403121561145357600080fd5b505191905056fea2646970667358221220d378dea57a94fc75c8d612cdd20f9493697ad63db87dbb92b98f62c20f0cdccc64736f6c634300081a0033a2646970667358221220505c9e0d2efeda8d4af955f12e6ceaffc8bb89056e0f99b06314bc3ec119567964736f6c634300081a0033",
			"opcodes": "PUSH1 0x80 PUSH1 0x40 MSTORE CALLVALUE DUP1 ISZERO PUSH1 0xF JUMPI PUSH1 0x0 DUP1 REVERT JUMPDEST POP PUSH1 0x40 MLOAD PUSH2 0x5143 CODESIZE SUB DUP1 PUSH2 0x5143 DUP4 CODECOPY DUP2 ADD PUSH1 0x40 DUP2 SWAP1 MSTORE PUSH1 0x2C SWAP2 PUSH1 0xA9 JUMP JUMPDEST PUSH1 0x1 PUSH1 0x1 PUSH1 0xA0 SHL SUB DUP2 AND PUSH1 0x85 JUMPI PUSH1 0x40 MLOAD PUSH3 0x461BCD PUSH1 0xE5 SHL DUP2 MSTORE PUSH1 0x20 PUSH1 0x4 DUP3 ADD MSTORE PUSH1 0x14 PUSH1 0x24 DUP3 ADD MSTORE PUSH32 0x496E76616C696420555344432061646472657373000000000000000000000000 PUSH1 0x44 DUP3 ADD MSTORE PUSH1 0x64 ADD PUSH1 0x40 MLOAD DUP1 SWAP2 SUB SWAP1 REVERT JUMPDEST PUSH1 0x3 DUP1 SLOAD PUSH1 0x1 PUSH1 0x1 PUSH1 0xA0 SHL SUB NOT AND PUSH1 0x1 PUSH1 0x1 PUSH1 0xA0 SHL SUB SWAP3 SWAP1 SWAP3 AND SWAP2 SWAP1 SWAP2 OR SWAP1 SSTORE PUSH1 0xD7 JUMP JUMPDEST PUSH1 0x0 PUSH1 0x20 DUP3 DUP5 SUB SLT ISZERO PUSH1 0xBA JUMPI PUSH1 0x0 DUP1 REVERT JUMPDEST DUP2 MLOAD PUSH1 0x1 PUSH1 0x1 PUSH1 0xA0 SHL SUB DUP2 AND DUP2 EQ PUSH1 0xD0 JUMPI PUSH1 0x0 DUP1 REVERT JUMPDEST SWAP4 SWAP3 POP POP POP JUMP JUMPDEST PUSH2 0x505D DUP1 PUSH2 0xE6 PUSH1 0x0 CODECOPY PUSH1 0x0 RETURN INVALID PUSH1 0x80 PUSH1 0x40 MSTORE CALLVALUE DUP1 ISZERO PUSH2 0x10 JUMPI PUSH1 0x0 DUP1 REVERT JUMPDEST POP PUSH1 0x4 CALLDATASIZE LT PUSH2 0x7D JUMPI PUSH1 0x0 CALLDATALOAD PUSH1 0xE0 SHR DUP1 PUSH4 0xB8418F33 GT PUSH2 0x5B JUMPI DUP1 PUSH4 0xB8418F33 EQ PUSH2 0xF2 JUMPI DUP1 PUSH4 0xCCBBD260 EQ PUSH2 0x107 JUMPI DUP1 PUSH4 0xE0B124CE EQ PUSH2 0x12D JUMPI DUP1 PUSH4 0xE6DAC3DF EQ PUSH2 0x14E JUMPI PUSH1 0x0 DUP1 REVERT JUMPDEST DUP1 PUSH4 0x11EAC855 EQ PUSH2 0x82 JUMPI DUP1 PUSH4 0x5A29426C EQ PUSH2 0xB2 JUMPI DUP1 PUSH4 0x5D91C109 EQ PUSH2 0xD2 JUMPI JUMPDEST PUSH1 0x0 DUP1 REVERT JUMPDEST PUSH1 0x3 SLOAD PUSH2 0x95 SWAP1 PUSH1 0x1 PUSH1 0x1 PUSH1 0xA0 SHL SUB AND DUP2 JUMP JUMPDEST PUSH1 0x40 MLOAD PUSH1 0x1 PUSH1 0x1 PUSH1 0xA0 SHL SUB SWAP1 SWAP2 AND DUP2 MSTORE PUSH1 0x20 ADD JUMPDEST PUSH1 0x40 MLOAD DUP1 SWAP2 SUB SWAP1 RETURN JUMPDEST PUSH2 0xC5 PUSH2 0xC0 CALLDATASIZE PUSH1 0x4 PUSH2 0x77F JUMP JUMPDEST PUSH2 0x161 JUMP JUMPDEST PUSH1 0x40 MLOAD PUSH2 0xA9 SWAP2 SWAP1 PUSH2 0x7E8 JUMP JUMPDEST PUSH2 0xE5 PUSH2 0xE0 CALLDATASIZE PUSH1 0x4 PUSH2 0x890 JUMP JUMPDEST PUSH2 0x2A1 JUMP JUMPDEST PUSH1 0x40 MLOAD PUSH2 0xA9 SWAP2 SWAP1 PUSH2 0x8B2 JUMP JUMPDEST PUSH2 0x105 PUSH2 0x100 CALLDATASIZE PUSH1 0x4 PUSH2 0x77F JUMP JUMPDEST PUSH2 0x30D JUMP JUMPDEST STOP JUMPDEST PUSH2 0x11A PUSH2 0x115 CALLDATASIZE PUSH1 0x4 PUSH2 0x77F JUMP JUMPDEST PUSH2 0x430 JUMP JUMPDEST PUSH1 0x40 MLOAD PUSH2 0xA9 SWAP8 SWAP7 SWAP6 SWAP5 SWAP4 SWAP3 SWAP2 SWAP1 PUSH2 0x8F5 JUMP JUMPDEST PUSH2 0x140 PUSH2 0x13B CALLDATASIZE PUSH1 0x4 PUSH2 0x948 JUMP JUMPDEST PUSH2 0x509 JUMP JUMPDEST PUSH1 0x40 MLOAD SWAP1 DUP2 MSTORE PUSH1 0x20 ADD PUSH2 0xA9 JUMP JUMPDEST PUSH2 0x140 PUSH2 0x15C CALLDATASIZE PUSH1 0x4 PUSH2 0x988 JUMP JUMPDEST PUSH2 0x53A JUMP JUMPDEST PUSH1 0x40 DUP1 MLOAD PUSH1 0xE0 DUP2 ADD DUP3 MSTORE PUSH1 0x0 DUP1 DUP3 MSTORE PUSH1 0x60 PUSH1 0x20 DUP4 ADD DUP2 SWAP1 MSTORE SWAP3 DUP3 ADD DUP2 SWAP1 MSTORE SWAP2 DUP2 ADD DUP3 SWAP1 MSTORE PUSH1 0x80 DUP2 ADD DUP3 SWAP1 MSTORE PUSH1 0xA0 DUP2 ADD DUP3 SWAP1 MSTORE PUSH1 0xC0 DUP2 ADD SWAP2 SWAP1 SWAP2 MSTORE PUSH1 0x0 DUP3 DUP2 MSTORE PUSH1 0x1 PUSH1 0x20 DUP2 DUP2 MSTORE PUSH1 0x40 SWAP3 DUP4 SWAP1 KECCAK256 DUP4 MLOAD PUSH1 0xE0 DUP2 ADD SWAP1 SWAP5 MSTORE DUP1 SLOAD DUP5 MSTORE SWAP2 DUP3 ADD DUP1 SLOAD SWAP2 DUP5 ADD SWAP2 PUSH2 0x1CC SWAP1 PUSH2 0xA4F JUMP JUMPDEST DUP1 PUSH1 0x1F ADD PUSH1 0x20 DUP1 SWAP2 DIV MUL PUSH1 0x20 ADD PUSH1 0x40 MLOAD SWAP1 DUP2 ADD PUSH1 0x40 MSTORE DUP1 SWAP3 SWAP2 SWAP1 DUP2 DUP2 MSTORE PUSH1 0x20 ADD DUP3 DUP1 SLOAD PUSH2 0x1F8 SWAP1 PUSH2 0xA4F JUMP JUMPDEST DUP1 ISZERO PUSH2 0x245 JUMPI DUP1 PUSH1 0x1F LT PUSH2 0x21A JUMPI PUSH2 0x100 DUP1 DUP4 SLOAD DIV MUL DUP4 MSTORE SWAP2 PUSH1 0x20 ADD SWAP2 PUSH2 0x245 JUMP JUMPDEST DUP3 ADD SWAP2 SWAP1 PUSH1 0x0 MSTORE PUSH1 0x20 PUSH1 0x0 KECCAK256 SWAP1 JUMPDEST DUP2 SLOAD DUP2 MSTORE SWAP1 PUSH1 0x1 ADD SWAP1 PUSH1 0x20 ADD DUP1 DUP4 GT PUSH2 0x228 JUMPI DUP3 SWAP1 SUB PUSH1 0x1F AND DUP3 ADD SWAP2 JUMPDEST POP POP POP SWAP2 DUP4 MSTORE POP POP PUSH1 0x2 DUP3 ADD SLOAD PUSH1 0x1 PUSH1 0x1 PUSH1 0xA0 SHL SUB SWAP1 DUP2 AND PUSH1 0x20 DUP4 ADD MSTORE PUSH1 0x3 DUP4 ADD SLOAD DUP2 AND PUSH1 0x40 DUP4 ADD MSTORE PUSH1 0x4 DUP4 ADD SLOAD DUP2 AND PUSH1 0x60 DUP4 ADD MSTORE PUSH1 0x5 SWAP1 SWAP3 ADD SLOAD SWAP2 DUP3 AND PUSH1 0x80 DUP3 ADD MSTORE PUSH1 0x1 PUSH1 0xA0 SHL SWAP1 SWAP2 DIV PUSH1 0xFF AND ISZERO ISZERO PUSH1 0xA0 SWAP1 SWAP2 ADD MSTORE SWAP3 SWAP2 POP POP JUMP JUMPDEST PUSH1 0x1 PUSH1 0x1 PUSH1 0xA0 SHL SUB DUP2 AND PUSH1 0x0 SWAP1 DUP2 MSTORE PUSH1 0x2 PUSH1 0x20 SWAP1 DUP2 MSTORE PUSH1 0x40 SWAP2 DUP3 SWAP1 KECCAK256 DUP1 SLOAD DUP4 MLOAD DUP2 DUP5 MUL DUP2 ADD DUP5 ADD SWAP1 SWAP5 MSTORE DUP1 DUP5 MSTORE PUSH1 0x60 SWAP4 SWAP3 DUP4 ADD DUP3 DUP3 DUP1 ISZERO PUSH2 0x301 JUMPI PUSH1 0x20 MUL DUP3 ADD SWAP2 SWAP1 PUSH1 0x0 MSTORE PUSH1 0x20 PUSH1 0x0 KECCAK256 SWAP1 JUMPDEST DUP2 SLOAD DUP2 MSTORE PUSH1 0x20 ADD SWAP1 PUSH1 0x1 ADD SWAP1 DUP1 DUP4 GT PUSH2 0x2ED JUMPI JUMPDEST POP POP POP POP POP SWAP1 POP SWAP2 SWAP1 POP JUMP JUMPDEST PUSH1 0x0 DUP2 DUP2 MSTORE PUSH1 0x1 PUSH1 0x20 MSTORE PUSH1 0x40 SWAP1 KECCAK256 PUSH1 0x2 ADD SLOAD PUSH1 0x1 PUSH1 0x1 PUSH1 0xA0 SHL SUB AND CALLER EQ PUSH2 0x36F JUMPI PUSH1 0x40 MLOAD PUSH3 0x461BCD PUSH1 0xE5 SHL DUP2 MSTORE PUSH1 0x20 PUSH1 0x4 DUP3 ADD MSTORE PUSH1 0x11 PUSH1 0x24 DUP3 ADD MSTORE PUSH17 0x2737BA103A3432902220A79037BBB732B9 PUSH1 0x79 SHL PUSH1 0x44 DUP3 ADD MSTORE PUSH1 0x64 ADD JUMPDEST PUSH1 0x40 MLOAD DUP1 SWAP2 SUB SWAP1 REVERT JUMPDEST PUSH1 0x0 DUP2 DUP2 MSTORE PUSH1 0x1 PUSH1 0x20 MSTORE PUSH1 0x40 SWAP1 KECCAK256 PUSH1 0x5 ADD SLOAD PUSH1 0x1 PUSH1 0xA0 SHL SWAP1 DIV PUSH1 0xFF AND PUSH2 0x3D7 JUMPI PUSH1 0x40 MLOAD PUSH3 0x461BCD PUSH1 0xE5 SHL DUP2 MSTORE PUSH1 0x20 PUSH1 0x4 DUP3 ADD MSTORE PUSH1 0x17 PUSH1 0x24 DUP3 ADD MSTORE PUSH32 0x44414F20616C7265616479206465616374697661746564000000000000000000 PUSH1 0x44 DUP3 ADD MSTORE PUSH1 0x64 ADD PUSH2 0x366 JUMP JUMPDEST PUSH1 0x0 DUP2 DUP2 MSTORE PUSH1 0x1 PUSH1 0x20 MSTORE PUSH1 0x40 SWAP1 DUP2 SWAP1 KECCAK256 PUSH1 0x5 ADD DUP1 SLOAD PUSH1 0xFF PUSH1 0xA0 SHL NOT AND SWAP1 SSTORE MLOAD PUSH32 0x408C5B54D83131CD34C1AAD59CBFD85961AB6639D4411757E874FB1705F78EF5 SWAP1 PUSH2 0x425 SWAP1 DUP4 DUP2 MSTORE PUSH1 0x20 ADD SWAP1 JUMP JUMPDEST PUSH1 0x40 MLOAD DUP1 SWAP2 SUB SWAP1 LOG1 POP JUMP JUMPDEST PUSH1 0x1 PUSH1 0x20 DUP2 SWAP1 MSTORE PUSH1 0x0 SWAP2 DUP3 MSTORE PUSH1 0x40 SWAP1 SWAP2 KECCAK256 DUP1 SLOAD SWAP2 DUP2 ADD DUP1 SLOAD PUSH2 0x451 SWAP1 PUSH2 0xA4F JUMP JUMPDEST DUP1 PUSH1 0x1F ADD PUSH1 0x20 DUP1 SWAP2 DIV MUL PUSH1 0x20 ADD PUSH1 0x40 MLOAD SWAP1 DUP2 ADD PUSH1 0x40 MSTORE DUP1 SWAP3 SWAP2 SWAP1 DUP2 DUP2 MSTORE PUSH1 0x20 ADD DUP3 DUP1 SLOAD PUSH2 0x47D SWAP1 PUSH2 0xA4F JUMP JUMPDEST DUP1 ISZERO PUSH2 0x4CA JUMPI DUP1 PUSH1 0x1F LT PUSH2 0x49F JUMPI PUSH2 0x100 DUP1 DUP4 SLOAD DIV MUL DUP4 MSTORE SWAP2 PUSH1 0x20 ADD SWAP2 PUSH2 0x4CA JUMP JUMPDEST DUP3 ADD SWAP2 SWAP1 PUSH1 0x0 MSTORE PUSH1 0x20 PUSH1 0x0 KECCAK256 SWAP1 JUMPDEST DUP2 SLOAD DUP2 MSTORE SWAP1 PUSH1 0x1 ADD SWAP1 PUSH1 0x20 ADD DUP1 DUP4 GT PUSH2 0x4AD JUMPI DUP3 SWAP1 SUB PUSH1 0x1F AND DUP3 ADD SWAP2 JUMPDEST POP POP POP POP PUSH1 0x2 DUP4 ADD SLOAD PUSH1 0x3 DUP5 ADD SLOAD PUSH1 0x4 DUP6 ADD SLOAD PUSH1 0x5 SWAP1 SWAP6 ADD SLOAD SWAP4 SWAP5 PUSH1 0x1 PUSH1 0x1 PUSH1 0xA0 SHL SUB SWAP3 DUP4 AND SWAP5 SWAP2 DUP4 AND SWAP4 POP DUP3 AND SWAP2 DUP2 AND SWAP1 PUSH1 0x1 PUSH1 0xA0 SHL SWAP1 DIV PUSH1 0xFF AND DUP8 JUMP JUMPDEST PUSH1 0x2 PUSH1 0x20 MSTORE DUP2 PUSH1 0x0 MSTORE PUSH1 0x40 PUSH1 0x0 KECCAK256 DUP2 DUP2 SLOAD DUP2 LT PUSH2 0x525 JUMPI PUSH1 0x0 DUP1 REVERT JUMPDEST SWAP1 PUSH1 0x0 MSTORE PUSH1 0x20 PUSH1 0x0 KECCAK256 ADD PUSH1 0x0 SWAP2 POP SWAP2 POP POP SLOAD DUP2 JUMP JUMPDEST PUSH1 0x0 DUP1 SLOAD PUSH1 0x1 ADD DUP1 DUP3 SSTORE PUSH1 0x40 MLOAD DUP3 SWAP1 DUP7 SWAP1 PUSH2 0x559 SWAP1 DUP3 SWAP1 PUSH1 0x20 ADD PUSH2 0xA89 JUMP JUMPDEST PUSH1 0x40 DUP1 MLOAD PUSH1 0x1F NOT DUP2 DUP5 SUB ADD DUP2 MSTORE SWAP1 DUP3 SWAP1 MSTORE PUSH1 0x3 SLOAD SWAP1 SWAP2 DUP9 SWAP2 PUSH1 0x1 PUSH1 0x1 PUSH1 0xA0 SHL SUB AND SWAP1 CALLER SWAP1 PUSH2 0x586 SWAP1 PUSH2 0x758 JUMP JUMPDEST PUSH2 0x594 SWAP6 SWAP5 SWAP4 SWAP3 SWAP2 SWAP1 PUSH2 0xAB8 JUMP JUMPDEST PUSH1 0x40 MLOAD DUP1 SWAP2 SUB SWAP1 PUSH1 0x0 CREATE DUP1 ISZERO DUP1 ISZERO PUSH2 0x5B0 JUMPI RETURNDATASIZE PUSH1 0x0 DUP1 RETURNDATACOPY RETURNDATASIZE PUSH1 0x0 REVERT JUMPDEST POP SWAP1 POP PUSH1 0x0 PUSH1 0x3 PUSH1 0x0 SWAP1 SLOAD SWAP1 PUSH2 0x100 EXP SWAP1 DIV PUSH1 0x1 PUSH1 0x1 PUSH1 0xA0 SHL SUB AND DUP3 CALLER PUSH1 0x40 MLOAD PUSH2 0x5D9 SWAP1 PUSH2 0x765 JUMP JUMPDEST PUSH1 0x1 PUSH1 0x1 PUSH1 0xA0 SHL SUB SWAP4 DUP5 AND DUP2 MSTORE SWAP2 DUP4 AND PUSH1 0x20 DUP4 ADD MSTORE SWAP1 SWAP2 AND PUSH1 0x40 DUP3 ADD MSTORE PUSH1 0x60 ADD PUSH1 0x40 MLOAD DUP1 SWAP2 SUB SWAP1 PUSH1 0x0 CREATE DUP1 ISZERO DUP1 ISZERO PUSH2 0x615 JUMPI RETURNDATASIZE PUSH1 0x0 DUP1 RETURNDATACOPY RETURNDATASIZE PUSH1 0x0 REVERT JUMPDEST POP SWAP1 POP PUSH1 0x0 PUSH1 0x3 PUSH1 0x0 SWAP1 SLOAD SWAP1 PUSH2 0x100 EXP SWAP1 DIV PUSH1 0x1 PUSH1 0x1 PUSH1 0xA0 SHL SUB AND DUP4 DUP4 DUP9 CALLER PUSH1 0x40 MLOAD PUSH2 0x640 SWAP1 PUSH2 0x772 JUMP JUMPDEST PUSH1 0x1 PUSH1 0x1 PUSH1 0xA0 SHL SUB SWAP6 DUP7 AND DUP2 MSTORE SWAP4 DUP6 AND PUSH1 0x20 DUP6 ADD MSTORE SWAP2 DUP5 AND PUSH1 0x40 DUP5 ADD MSTORE PUSH1 0x60 DUP4 ADD MSTORE SWAP1 SWAP2 AND PUSH1 0x80 DUP3 ADD MSTORE PUSH1 0xA0 ADD PUSH1 0x40 MLOAD DUP1 SWAP2 SUB SWAP1 PUSH1 0x0 CREATE DUP1 ISZERO DUP1 ISZERO PUSH2 0x689 JUMPI RETURNDATASIZE PUSH1 0x0 DUP1 RETURNDATACOPY RETURNDATASIZE PUSH1 0x0 REVERT JUMPDEST POP PUSH1 0x40 MLOAD PUSH4 0x1129753F PUSH1 0xE0 SHL DUP2 MSTORE PUSH1 0x1 PUSH1 0x1 PUSH1 0xA0 SHL SUB DUP1 DUP4 AND PUSH1 0x4 DUP4 ADD MSTORE SWAP2 SWAP3 POP SWAP1 DUP4 AND SWAP1 PUSH4 0x1129753F SWAP1 PUSH1 0x24 ADD PUSH1 0x0 PUSH1 0x40 MLOAD DUP1 DUP4 SUB DUP2 PUSH1 0x0 DUP8 DUP1 EXTCODESIZE ISZERO DUP1 ISZERO PUSH2 0x6D1 JUMPI PUSH1 0x0 DUP1 REVERT JUMPDEST POP GAS CALL ISZERO DUP1 ISZERO PUSH2 0x6E5 JUMPI RETURNDATASIZE PUSH1 0x0 DUP1 RETURNDATACOPY RETURNDATASIZE PUSH1 0x0 REVERT JUMPDEST POP POP CALLER PUSH1 0x0 DUP2 DUP2 MSTORE PUSH1 0x2 PUSH1 0x20 SWAP1 DUP2 MSTORE PUSH1 0x40 DUP1 DUP4 KECCAK256 DUP1 SLOAD PUSH1 0x1 DUP2 ADD DUP3 SSTORE SWAP1 DUP5 MSTORE SWAP2 SWAP1 SWAP3 KECCAK256 ADD DUP9 SWAP1 SSTORE MLOAD PUSH32 0xEB2BC12827D15509675400364DB7043363E7092B09E9A82B0B7735B089F5E5F7 SWAP4 POP PUSH2 0x744 SWAP3 POP DUP8 SWAP2 DUP13 SWAP2 DUP9 SWAP1 DUP9 SWAP1 DUP9 SWAP1 PUSH2 0xB05 JUMP JUMPDEST PUSH1 0x40 MLOAD DUP1 SWAP2 SUB SWAP1 LOG1 POP SWAP2 SWAP7 SWAP6 POP POP POP POP POP POP JUMP JUMPDEST PUSH2 0x1D14 DUP1 PUSH2 0xB52 DUP4 CODECOPY ADD SWAP1 JUMP JUMPDEST PUSH2 0x11AB DUP1 PUSH2 0x2866 DUP4 CODECOPY ADD SWAP1 JUMP JUMPDEST PUSH2 0x1617 DUP1 PUSH2 0x3A11 DUP4 CODECOPY ADD SWAP1 JUMP JUMPDEST PUSH1 0x0 PUSH1 0x20 DUP3 DUP5 SUB SLT ISZERO PUSH2 0x791 JUMPI PUSH1 0x0 DUP1 REVERT JUMPDEST POP CALLDATALOAD SWAP2 SWAP1 POP JUMP JUMPDEST PUSH1 0x0 JUMPDEST DUP4 DUP2 LT ISZERO PUSH2 0x7B3 JUMPI DUP2 DUP2 ADD MLOAD DUP4 DUP3 ADD MSTORE PUSH1 0x20 ADD PUSH2 0x79B JUMP JUMPDEST POP POP PUSH1 0x0 SWAP2 ADD MSTORE JUMP JUMPDEST PUSH1 0x0 DUP2 MLOAD DUP1 DUP5 MSTORE PUSH2 0x7D4 DUP2 PUSH1 0x20 DUP7 ADD PUSH1 0x20 DUP7 ADD PUSH2 0x798 JUMP JUMPDEST PUSH1 0x1F ADD PUSH1 0x1F NOT AND SWAP3 SWAP1 SWAP3 ADD PUSH1 0x20 ADD SWAP3 SWAP2 POP POP JUMP JUMPDEST PUSH1 0x20 DUP2 MSTORE DUP2 MLOAD PUSH1 0x20 DUP3 ADD MSTORE PUSH1 0x0 PUSH1 0x20 DUP4 ADD MLOAD PUSH1 0xE0 PUSH1 0x40 DUP5 ADD MSTORE PUSH2 0x80F PUSH2 0x100 DUP5 ADD DUP3 PUSH2 0x7BC JUMP JUMPDEST PUSH1 0x40 DUP6 ADD MLOAD PUSH1 0x1 PUSH1 0x1 PUSH1 0xA0 SHL SUB SWAP1 DUP2 AND PUSH1 0x60 DUP7 DUP2 ADD SWAP2 SWAP1 SWAP2 MSTORE DUP7 ADD MLOAD DUP2 AND PUSH1 0x80 DUP1 DUP8 ADD SWAP2 SWAP1 SWAP2 MSTORE DUP7 ADD MLOAD AND PUSH1 0xA0 DUP6 DUP2 ADD SWAP2 SWAP1 SWAP2 MSTORE DUP6 ADD MLOAD SWAP1 SWAP2 POP PUSH2 0x85E PUSH1 0xC0 DUP6 ADD DUP3 PUSH1 0x1 PUSH1 0x1 PUSH1 0xA0 SHL SUB AND SWAP1 MSTORE JUMP JUMPDEST POP PUSH1 0xC0 DUP5 ADD MLOAD DUP1 ISZERO ISZERO PUSH1 0xE0 DUP6 ADD MSTORE POP SWAP4 SWAP3 POP POP POP JUMP JUMPDEST DUP1 CALLDATALOAD PUSH1 0x1 PUSH1 0x1 PUSH1 0xA0 SHL SUB DUP2 AND DUP2 EQ PUSH2 0x88B JUMPI PUSH1 0x0 DUP1 REVERT JUMPDEST SWAP2 SWAP1 POP JUMP JUMPDEST PUSH1 0x0 PUSH1 0x20 DUP3 DUP5 SUB SLT ISZERO PUSH2 0x8A2 JUMPI PUSH1 0x0 DUP1 REVERT JUMPDEST PUSH2 0x8AB DUP3 PUSH2 0x874 JUMP JUMPDEST SWAP4 SWAP3 POP POP POP JUMP JUMPDEST PUSH1 0x20 DUP1 DUP3 MSTORE DUP3 MLOAD DUP3 DUP3 ADD DUP2 SWAP1 MSTORE PUSH1 0x0 SWAP2 DUP5 ADD SWAP1 PUSH1 0x40 DUP5 ADD SWAP1 DUP4 JUMPDEST DUP2 DUP2 LT ISZERO PUSH2 0x8EA JUMPI DUP4 MLOAD DUP4 MSTORE PUSH1 0x20 SWAP4 DUP5 ADD SWAP4 SWAP1 SWAP3 ADD SWAP2 PUSH1 0x1 ADD PUSH2 0x8CC JUMP JUMPDEST POP SWAP1 SWAP6 SWAP5 POP POP POP POP POP JUMP JUMPDEST DUP8 DUP2 MSTORE PUSH1 0xE0 PUSH1 0x20 DUP3 ADD MSTORE PUSH1 0x0 PUSH2 0x90E PUSH1 0xE0 DUP4 ADD DUP10 PUSH2 0x7BC JUMP JUMPDEST PUSH1 0x1 PUSH1 0x1 PUSH1 0xA0 SHL SUB SWAP8 DUP9 AND PUSH1 0x40 DUP5 ADD MSTORE SWAP6 DUP8 AND PUSH1 0x60 DUP4 ADD MSTORE POP SWAP3 DUP6 AND PUSH1 0x80 DUP5 ADD MSTORE SWAP4 AND PUSH1 0xA0 DUP3 ADD MSTORE SWAP2 ISZERO ISZERO PUSH1 0xC0 SWAP1 SWAP3 ADD SWAP2 SWAP1 SWAP2 MSTORE SWAP3 SWAP2 POP POP JUMP JUMPDEST PUSH1 0x0 DUP1 PUSH1 0x40 DUP4 DUP6 SUB SLT ISZERO PUSH2 0x95B JUMPI PUSH1 0x0 DUP1 REVERT JUMPDEST PUSH2 0x964 DUP4 PUSH2 0x874 JUMP JUMPDEST SWAP5 PUSH1 0x20 SWAP4 SWAP1 SWAP4 ADD CALLDATALOAD SWAP4 POP POP POP JUMP JUMPDEST PUSH4 0x4E487B71 PUSH1 0xE0 SHL PUSH1 0x0 MSTORE PUSH1 0x41 PUSH1 0x4 MSTORE PUSH1 0x24 PUSH1 0x0 REVERT JUMPDEST PUSH1 0x0 DUP1 PUSH1 0x0 PUSH1 0x60 DUP5 DUP7 SUB SLT ISZERO PUSH2 0x99D JUMPI PUSH1 0x0 DUP1 REVERT JUMPDEST DUP4 CALLDATALOAD PUSH8 0xFFFFFFFFFFFFFFFF DUP2 GT ISZERO PUSH2 0x9B4 JUMPI PUSH1 0x0 DUP1 REVERT JUMPDEST DUP5 ADD PUSH1 0x1F DUP2 ADD DUP7 SGT PUSH2 0x9C5 JUMPI PUSH1 0x0 DUP1 REVERT JUMPDEST DUP1 CALLDATALOAD PUSH8 0xFFFFFFFFFFFFFFFF DUP2 GT ISZERO PUSH2 0x9DF JUMPI PUSH2 0x9DF PUSH2 0x972 JUMP JUMPDEST PUSH1 0x40 MLOAD PUSH1 0x1F DUP3 ADD PUSH1 0x1F NOT SWAP1 DUP2 AND PUSH1 0x3F ADD AND DUP2 ADD PUSH8 0xFFFFFFFFFFFFFFFF DUP2 GT DUP3 DUP3 LT OR ISZERO PUSH2 0xA0E JUMPI PUSH2 0xA0E PUSH2 0x972 JUMP JUMPDEST PUSH1 0x40 MSTORE DUP2 DUP2 MSTORE DUP3 DUP3 ADD PUSH1 0x20 ADD DUP9 LT ISZERO PUSH2 0xA26 JUMPI PUSH1 0x0 DUP1 REVERT JUMPDEST DUP2 PUSH1 0x20 DUP5 ADD PUSH1 0x20 DUP4 ADD CALLDATACOPY PUSH1 0x0 PUSH1 0x20 SWAP3 DUP3 ADD DUP4 ADD MSTORE SWAP8 SWAP1 DUP7 ADD CALLDATALOAD SWAP7 POP PUSH1 0x40 SWAP1 SWAP6 ADD CALLDATALOAD SWAP5 SWAP4 POP POP POP POP JUMP JUMPDEST PUSH1 0x1 DUP2 DUP2 SHR SWAP1 DUP3 AND DUP1 PUSH2 0xA63 JUMPI PUSH1 0x7F DUP3 AND SWAP2 POP JUMPDEST PUSH1 0x20 DUP3 LT DUP2 SUB PUSH2 0xA83 JUMPI PUSH4 0x4E487B71 PUSH1 0xE0 SHL PUSH1 0x0 MSTORE PUSH1 0x22 PUSH1 0x4 MSTORE PUSH1 0x24 PUSH1 0x0 REVERT JUMPDEST POP SWAP2 SWAP1 POP JUMP JUMPDEST PUSH1 0x0 DUP3 MLOAD PUSH2 0xA9B DUP2 DUP5 PUSH1 0x20 DUP8 ADD PUSH2 0x798 JUMP JUMPDEST PUSH11 0x204D656D6265727368697 PUSH1 0xAC SHL SWAP3 ADD SWAP2 DUP3 MSTORE POP PUSH1 0xB ADD SWAP2 SWAP1 POP JUMP JUMPDEST PUSH1 0xA0 DUP2 MSTORE PUSH1 0x0 PUSH2 0xACB PUSH1 0xA0 DUP4 ADD DUP9 PUSH2 0x7BC JUMP JUMPDEST DUP3 DUP2 SUB PUSH1 0x20 DUP5 ADD MSTORE PUSH2 0xADD DUP2 DUP9 PUSH2 0x7BC JUMP JUMPDEST PUSH1 0x40 DUP5 ADD SWAP7 SWAP1 SWAP7 MSTORE POP POP PUSH1 0x1 PUSH1 0x1 PUSH1 0xA0 SHL SUB SWAP3 DUP4 AND PUSH1 0x60 DUP3 ADD MSTORE SWAP2 AND PUSH1 0x80 SWAP1 SWAP2 ADD MSTORE SWAP3 SWAP2 POP POP JUMP JUMPDEST DUP7 DUP2 MSTORE PUSH1 0xC0 PUSH1 0x20 DUP3 ADD MSTORE PUSH1 0x0 PUSH2 0xB1E PUSH1 0xC0 DUP4 ADD DUP9 PUSH2 0x7BC JUMP JUMPDEST PUSH1 0x1 PUSH1 0x1 PUSH1 0xA0 SHL SUB SWAP7 DUP8 AND PUSH1 0x40 DUP5 ADD MSTORE SWAP5 DUP7 AND PUSH1 0x60 DUP4 ADD MSTORE POP SWAP2 DUP5 AND PUSH1 0x80 DUP4 ADD MSTORE SWAP1 SWAP3 AND PUSH1 0xA0 SWAP1 SWAP3 ADD SWAP2 SWAP1 SWAP2 MSTORE SWAP3 SWAP2 POP POP JUMP INVALID PUSH1 0x80 PUSH1 0x40 MSTORE CALLVALUE DUP1 ISZERO PUSH2 0x10 JUMPI PUSH1 0x0 DUP1 REVERT JUMPDEST POP PUSH1 0x40 MLOAD PUSH2 0x1D14 CODESIZE SUB DUP1 PUSH2 0x1D14 DUP4 CODECOPY DUP2 ADD PUSH1 0x40 DUP2 SWAP1 MSTORE PUSH2 0x2F SWAP2 PUSH2 0x212 JUMP JUMPDEST DUP1 DUP5 DUP6 PUSH1 0x40 MLOAD PUSH1 0x20 ADD PUSH2 0x42 SWAP2 SWAP1 PUSH2 0x2A6 JUMP JUMPDEST PUSH1 0x40 DUP1 MLOAD PUSH1 0x1F NOT DUP2 DUP5 SUB ADD DUP2 MSTORE SWAP2 SWAP1 MSTORE PUSH1 0x0 PUSH2 0x5E DUP4 DUP3 PUSH2 0x356 JUMP JUMPDEST POP PUSH1 0x1 PUSH2 0x6B DUP3 DUP3 PUSH2 0x356 JUMP JUMPDEST POP POP POP PUSH1 0x1 PUSH1 0x1 PUSH1 0xA0 SHL SUB DUP2 AND PUSH2 0x9C JUMPI PUSH1 0x40 MLOAD PUSH4 0x1E4FBDF7 PUSH1 0xE0 SHL DUP2 MSTORE PUSH1 0x0 PUSH1 0x4 DUP3 ADD MSTORE PUSH1 0x24 ADD PUSH1 0x40 MLOAD DUP1 SWAP2 SUB SWAP1 REVERT JUMPDEST PUSH2 0xA5 DUP2 PUSH2 0xE1 JUMP JUMPDEST POP PUSH1 0xE PUSH2 0xB2 DUP7 DUP3 PUSH2 0x356 JUMP JUMPDEST POP POP PUSH1 0xC SWAP2 SWAP1 SWAP2 SSTORE PUSH1 0xD DUP1 SLOAD PUSH1 0x1 PUSH1 0x1 PUSH1 0xA0 SHL SUB NOT AND PUSH1 0x1 PUSH1 0x1 PUSH1 0xA0 SHL SUB SWAP1 SWAP3 AND SWAP2 SWAP1 SWAP2 OR SWAP1 SSTORE POP PUSH2 0x414 SWAP1 POP JUMP JUMPDEST PUSH1 0xA DUP1 SLOAD PUSH1 0x1 PUSH1 0x1 PUSH1 0xA0 SHL SUB DUP4 DUP2 AND PUSH1 0x1 PUSH1 0x1 PUSH1 0xA0 SHL SUB NOT DUP4 AND DUP2 OR SWAP1 SWAP4 SSTORE PUSH1 0x40 MLOAD SWAP2 AND SWAP2 SWAP1 DUP3 SWAP1 PUSH32 0x8BE0079C531659141344CD1FD0A4F28419497F9722A3DAAFE3B4186F6B6457E0 SWAP1 PUSH1 0x0 SWAP1 LOG3 POP POP JUMP JUMPDEST PUSH4 0x4E487B71 PUSH1 0xE0 SHL PUSH1 0x0 MSTORE PUSH1 0x41 PUSH1 0x4 MSTORE PUSH1 0x24 PUSH1 0x0 REVERT JUMPDEST PUSH1 0x0 JUMPDEST DUP4 DUP2 LT ISZERO PUSH2 0x164 JUMPI DUP2 DUP2 ADD MLOAD DUP4 DUP3 ADD MSTORE PUSH1 0x20 ADD PUSH2 0x14C JUMP JUMPDEST POP POP PUSH1 0x0 SWAP2 ADD MSTORE JUMP JUMPDEST PUSH1 0x0 DUP3 PUSH1 0x1F DUP4 ADD SLT PUSH2 0x17E JUMPI PUSH1 0x0 DUP1 REVERT JUMPDEST DUP2 MLOAD PUSH1 0x1 PUSH1 0x1 PUSH1 0x40 SHL SUB DUP2 GT ISZERO PUSH2 0x197 JUMPI PUSH2 0x197 PUSH2 0x133 JUMP JUMPDEST PUSH1 0x40 MLOAD PUSH1 0x1F DUP3 ADD PUSH1 0x1F NOT SWAP1 DUP2 AND PUSH1 0x3F ADD AND DUP2 ADD PUSH1 0x1 PUSH1 0x1 PUSH1 0x40 SHL SUB DUP2 GT DUP3 DUP3 LT OR ISZERO PUSH2 0x1C5 JUMPI PUSH2 0x1C5 PUSH2 0x133 JUMP JUMPDEST PUSH1 0x40 MSTORE DUP2 DUP2 MSTORE DUP4 DUP3 ADD PUSH1 0x20 ADD DUP6 LT ISZERO PUSH2 0x1DD JUMPI PUSH1 0x0 DUP1 REVERT JUMPDEST PUSH2 0x1EE DUP3 PUSH1 0x20 DUP4 ADD PUSH1 0x20 DUP8 ADD PUSH2 0x149 JUMP JUMPDEST SWAP5 SWAP4 POP POP POP POP JUMP JUMPDEST DUP1 MLOAD PUSH1 0x1 PUSH1 0x1 PUSH1 0xA0 SHL SUB DUP2 AND DUP2 EQ PUSH2 0x20D JUMPI PUSH1 0x0 DUP1 REVERT JUMPDEST SWAP2 SWAP1 POP JUMP JUMPDEST PUSH1 0x0 DUP1 PUSH1 0x0 DUP1 PUSH1 0x0 PUSH1 0xA0 DUP7 DUP9 SUB SLT ISZERO PUSH2 0x22A JUMPI PUSH1 0x0 DUP1 REVERT JUMPDEST DUP6 MLOAD PUSH1 0x1 PUSH1 0x1 PUSH1 0x40 SHL SUB DUP2 GT ISZERO PUSH2 0x240 JUMPI PUSH1 0x0 DUP1 REVERT JUMPDEST PUSH2 0x24C DUP9 DUP3 DUP10 ADD PUSH2 0x16D JUMP JUMPDEST PUSH1 0x20 DUP9 ADD MLOAD SWAP1 SWAP7 POP SWAP1 POP PUSH1 0x1 PUSH1 0x1 PUSH1 0x40 SHL SUB DUP2 GT ISZERO PUSH2 0x26A JUMPI PUSH1 0x0 DUP1 REVERT JUMPDEST PUSH2 0x276 DUP9 DUP3 DUP10 ADD PUSH2 0x16D JUMP JUMPDEST SWAP5 POP POP PUSH1 0x40 DUP7 ADD MLOAD SWAP3 POP PUSH2 0x28C PUSH1 0x60 DUP8 ADD PUSH2 0x1F6 JUMP JUMPDEST SWAP2 POP PUSH2 0x29A PUSH1 0x80 DUP8 ADD PUSH2 0x1F6 JUMP JUMPDEST SWAP1 POP SWAP3 SWAP6 POP SWAP3 SWAP6 SWAP1 SWAP4 POP JUMP JUMPDEST PUSH1 0x0 DUP3 MLOAD PUSH2 0x2B8 DUP2 DUP5 PUSH1 0x20 DUP8 ADD PUSH2 0x149 JUMP JUMPDEST PUSH3 0x139195 PUSH1 0xEA SHL SWAP3 ADD SWAP2 DUP3 MSTORE POP PUSH1 0x3 ADD SWAP2 SWAP1 POP JUMP JUMPDEST PUSH1 0x1 DUP2 DUP2 SHR SWAP1 DUP3 AND DUP1 PUSH2 0x2E1 JUMPI PUSH1 0x7F DUP3 AND SWAP2 POP JUMPDEST PUSH1 0x20 DUP3 LT DUP2 SUB PUSH2 0x301 JUMPI PUSH4 0x4E487B71 PUSH1 0xE0 SHL PUSH1 0x0 MSTORE PUSH1 0x22 PUSH1 0x4 MSTORE PUSH1 0x24 PUSH1 0x0 REVERT JUMPDEST POP SWAP2 SWAP1 POP JUMP JUMPDEST PUSH1 0x1F DUP3 GT ISZERO PUSH2 0x351 JUMPI DUP1 PUSH1 0x0 MSTORE PUSH1 0x20 PUSH1 0x0 KECCAK256 PUSH1 0x1F DUP5 ADD PUSH1 0x5 SHR DUP2 ADD PUSH1 0x20 DUP6 LT ISZERO PUSH2 0x32E JUMPI POP DUP1 JUMPDEST PUSH1 0x1F DUP5 ADD PUSH1 0x5 SHR DUP3 ADD SWAP2 POP JUMPDEST DUP2 DUP2 LT ISZERO PUSH2 0x34E JUMPI PUSH1 0x0 DUP2 SSTORE PUSH1 0x1 ADD PUSH2 0x33A JUMP JUMPDEST POP POP JUMPDEST POP POP POP JUMP JUMPDEST DUP2 MLOAD PUSH1 0x1 PUSH1 0x1 PUSH1 0x40 SHL SUB DUP2 GT ISZERO PUSH2 0x36F JUMPI PUSH2 0x36F PUSH2 0x133 JUMP JUMPDEST PUSH2 0x383 DUP2 PUSH2 0x37D DUP5 SLOAD PUSH2 0x2CD JUMP JUMPDEST DUP5 PUSH2 0x307 JUMP JUMPDEST PUSH1 0x20 PUSH1 0x1F DUP3 GT PUSH1 0x1 DUP2 EQ PUSH2 0x3B7 JUMPI PUSH1 0x0 DUP4 ISZERO PUSH2 0x39F JUMPI POP DUP5 DUP3 ADD MLOAD JUMPDEST PUSH1 0x0 NOT PUSH1 0x3 DUP6 SWAP1 SHL SHR NOT AND PUSH1 0x1 DUP5 SWAP1 SHL OR DUP5 SSTORE PUSH2 0x34E JUMP JUMPDEST PUSH1 0x0 DUP5 DUP2 MSTORE PUSH1 0x20 DUP2 KECCAK256 PUSH1 0x1F NOT DUP6 AND SWAP2 JUMPDEST DUP3 DUP2 LT ISZERO PUSH2 0x3E7 JUMPI DUP8 DUP6 ADD MLOAD DUP3 SSTORE PUSH1 0x20 SWAP5 DUP6 ADD SWAP5 PUSH1 0x1 SWAP1 SWAP3 ADD SWAP2 ADD PUSH2 0x3C7 JUMP JUMPDEST POP DUP5 DUP3 LT ISZERO PUSH2 0x405 JUMPI DUP7 DUP5 ADD MLOAD PUSH1 0x0 NOT PUSH1 0x3 DUP8 SWAP1 SHL PUSH1 0xF8 AND SHR NOT AND DUP2 SSTORE JUMPDEST POP POP POP POP PUSH1 0x1 SWAP1 DUP2 SHL ADD SWAP1 SSTORE POP JUMP JUMPDEST PUSH2 0x18F1 DUP1 PUSH2 0x423 PUSH1 0x0 CODECOPY PUSH1 0x0 RETURN INVALID PUSH1 0x80 PUSH1 0x40 MSTORE CALLVALUE DUP1 ISZERO PUSH2 0x10 JUMPI PUSH1 0x0 DUP1 REVERT JUMPDEST POP PUSH1 0x4 CALLDATASIZE LT PUSH2 0x1C4 JUMPI PUSH1 0x0 CALLDATALOAD PUSH1 0xE0 SHR DUP1 PUSH4 0x70A08231 GT PUSH2 0xF9 JUMPI DUP1 PUSH4 0xA5C7900E GT PUSH2 0x97 JUMPI DUP1 PUSH4 0xC87B56DD GT PUSH2 0x71 JUMPI DUP1 PUSH4 0xC87B56DD EQ PUSH2 0x3BF JUMPI DUP1 PUSH4 0xE985E9C5 EQ PUSH2 0x3D2 JUMPI DUP1 PUSH4 0xF2FDE38B EQ PUSH2 0x3E5 JUMPI DUP1 PUSH4 0xF63D13D7 EQ PUSH2 0x3F8 JUMPI PUSH1 0x0 DUP1 REVERT JUMPDEST DUP1 PUSH4 0xA5C7900E EQ PUSH2 0x383 JUMPI DUP1 PUSH4 0xB88D4FDE EQ PUSH2 0x3A3 JUMPI DUP1 PUSH4 0xC713A289 EQ PUSH2 0x3B6 JUMPI PUSH1 0x0 DUP1 REVERT JUMPDEST DUP1 PUSH4 0x95D89B41 GT PUSH2 0xD3 JUMPI DUP1 PUSH4 0x95D89B41 EQ PUSH2 0x334 JUMPI DUP1 PUSH4 0x997072F7 EQ PUSH2 0x33C JUMPI DUP1 PUSH4 0xA22CB465 EQ PUSH2 0x344 JUMPI DUP1 PUSH4 0xA230C524 EQ PUSH2 0x357 JUMPI PUSH1 0x0 DUP1 REVERT JUMPDEST DUP1 PUSH4 0x70A08231 EQ PUSH2 0x308 JUMPI DUP1 PUSH4 0x715018A6 EQ PUSH2 0x31B JUMPI DUP1 PUSH4 0x8DA5CB5B EQ PUSH2 0x323 JUMPI PUSH1 0x0 DUP1 REVERT JUMPDEST DUP1 PUSH4 0x23B872DD GT PUSH2 0x166 JUMPI DUP1 PUSH4 0x42842E0E GT PUSH2 0x140 JUMPI DUP1 PUSH4 0x42842E0E EQ PUSH2 0x2C7 JUMPI DUP1 PUSH4 0x48976936 EQ PUSH2 0x2DA JUMPI DUP1 PUSH4 0x4F6CCCE7 EQ PUSH2 0x2E2 JUMPI DUP1 PUSH4 0x6352211E EQ PUSH2 0x2F5 JUMPI PUSH1 0x0 DUP1 REVERT JUMPDEST DUP1 PUSH4 0x23B872DD EQ PUSH2 0x28E JUMPI DUP1 PUSH4 0x2F745C59 EQ PUSH2 0x2A1 JUMPI DUP1 PUSH4 0x409B64F9 EQ PUSH2 0x2B4 JUMPI PUSH1 0x0 DUP1 REVERT JUMPDEST DUP1 PUSH4 0x8AE4B0C GT PUSH2 0x1A2 JUMPI DUP1 PUSH4 0x8AE4B0C EQ PUSH2 0x231 JUMPI DUP1 PUSH4 0x95EA7B3 EQ PUSH2 0x254 JUMPI DUP1 PUSH4 0x11EAC855 EQ PUSH2 0x269 JUMPI DUP1 PUSH4 0x18160DDD EQ PUSH2 0x27C JUMPI PUSH1 0x0 DUP1 REVERT JUMPDEST DUP1 PUSH4 0x1FFC9A7 EQ PUSH2 0x1C9 JUMPI DUP1 PUSH4 0x6FDDE03 EQ PUSH2 0x1F1 JUMPI DUP1 PUSH4 0x81812FC EQ PUSH2 0x206 JUMPI JUMPDEST PUSH1 0x0 DUP1 REVERT JUMPDEST PUSH2 0x1DC PUSH2 0x1D7 CALLDATASIZE PUSH1 0x4 PUSH2 0x14E5 JUMP JUMPDEST PUSH2 0x400 JUMP JUMPDEST PUSH1 0x40 MLOAD SWAP1 ISZERO ISZERO DUP2 MSTORE PUSH1 0x20 ADD JUMPDEST PUSH1 0x40 MLOAD DUP1 SWAP2 SUB SWAP1 RETURN JUMPDEST PUSH2 0x1F9 PUSH2 0x42B JUMP JUMPDEST PUSH1 0x40 MLOAD PUSH2 0x1E8 SWAP2 SWAP1 PUSH2 0x1552 JUMP JUMPDEST PUSH2 0x219 PUSH2 0x214 CALLDATASIZE PUSH1 0x4 PUSH2 0x1565 JUMP JUMPDEST PUSH2 0x4BD JUMP JUMPDEST PUSH1 0x40 MLOAD PUSH1 0x1 PUSH1 0x1 PUSH1 0xA0 SHL SUB SWAP1 SWAP2 AND DUP2 MSTORE PUSH1 0x20 ADD PUSH2 0x1E8 JUMP JUMPDEST PUSH2 0x1DC PUSH2 0x23F CALLDATASIZE PUSH1 0x4 PUSH2 0x159A JUMP JUMPDEST PUSH1 0xF PUSH1 0x20 MSTORE PUSH1 0x0 SWAP1 DUP2 MSTORE PUSH1 0x40 SWAP1 KECCAK256 SLOAD PUSH1 0xFF AND DUP2 JUMP JUMPDEST PUSH2 0x267 PUSH2 0x262 CALLDATASIZE PUSH1 0x4 PUSH2 0x15B5 JUMP JUMPDEST PUSH2 0x4E6 JUMP JUMPDEST STOP JUMPDEST PUSH1 0xD SLOAD PUSH2 0x219 SWAP1 PUSH1 0x1 PUSH1 0x1 PUSH1 0xA0 SHL SUB AND DUP2 JUMP JUMPDEST PUSH1 0x8 SLOAD JUMPDEST PUSH1 0x40 MLOAD SWAP1 DUP2 MSTORE PUSH1 0x20 ADD PUSH2 0x1E8 JUMP JUMPDEST PUSH2 0x267 PUSH2 0x29C CALLDATASIZE PUSH1 0x4 PUSH2 0x15DF JUMP JUMPDEST PUSH2 0x4F5 JUMP JUMPDEST PUSH2 0x280 PUSH2 0x2AF CALLDATASIZE PUSH1 0x4 PUSH2 0x15B5 JUMP JUMPDEST PUSH2 0x585 JUMP JUMPDEST PUSH2 0x267 PUSH2 0x2C2 CALLDATASIZE PUSH1 0x4 PUSH2 0x1565 JUMP JUMPDEST PUSH2 0x5EA JUMP JUMPDEST PUSH2 0x267 PUSH2 0x2D5 CALLDATASIZE PUSH1 0x4 PUSH2 0x15DF JUMP JUMPDEST PUSH2 0x62D JUMP JUMPDEST PUSH2 0x1F9 PUSH2 0x64D JUMP JUMPDEST PUSH2 0x280 PUSH2 0x2F0 CALLDATASIZE PUSH1 0x4 PUSH2 0x1565 JUMP JUMPDEST PUSH2 0x6DB JUMP JUMPDEST PUSH2 0x219 PUSH2 0x303 CALLDATASIZE PUSH1 0x4 PUSH2 0x1565 JUMP JUMPDEST PUSH2 0x734 JUMP JUMPDEST PUSH2 0x280 PUSH2 0x316 CALLDATASIZE PUSH1 0x4 PUSH2 0x159A JUMP JUMPDEST PUSH2 0x73F JUMP JUMPDEST PUSH2 0x267 PUSH2 0x787 JUMP JUMPDEST PUSH1 0xA SLOAD PUSH1 0x1 PUSH1 0x1 PUSH1 0xA0 SHL SUB AND PUSH2 0x219 JUMP JUMPDEST PUSH2 0x1F9 PUSH2 0x79B JUMP JUMPDEST PUSH2 0x280 PUSH2 0x7AA JUMP JUMPDEST PUSH2 0x267 PUSH2 0x352 CALLDATASIZE PUSH1 0x4 PUSH2 0x162A JUMP JUMPDEST PUSH2 0x7BA JUMP JUMPDEST PUSH2 0x1DC PUSH2 0x365 CALLDATASIZE PUSH1 0x4 PUSH2 0x159A JUMP JUMPDEST PUSH1 0x1 PUSH1 0x1 PUSH1 0xA0 SHL SUB AND PUSH1 0x0 SWAP1 DUP2 MSTORE PUSH1 0xF PUSH1 0x20 MSTORE PUSH1 0x40 SWAP1 KECCAK256 SLOAD PUSH1 0xFF AND SWAP1 JUMP JUMPDEST PUSH2 0x280 PUSH2 0x391 CALLDATASIZE PUSH1 0x4 PUSH2 0x159A JUMP JUMPDEST PUSH1 0x10 PUSH1 0x20 MSTORE PUSH1 0x0 SWAP1 DUP2 MSTORE PUSH1 0x40 SWAP1 KECCAK256 SLOAD DUP2 JUMP JUMPDEST PUSH2 0x267 PUSH2 0x3B1 CALLDATASIZE PUSH1 0x4 PUSH2 0x1677 JUMP JUMPDEST PUSH2 0x7C5 JUMP JUMPDEST PUSH2 0x280 PUSH1 0xC SLOAD DUP2 JUMP JUMPDEST PUSH2 0x1F9 PUSH2 0x3CD CALLDATASIZE PUSH1 0x4 PUSH2 0x1565 JUMP JUMPDEST PUSH2 0x7DD JUMP JUMPDEST PUSH2 0x1DC PUSH2 0x3E0 CALLDATASIZE PUSH1 0x4 PUSH2 0x175B JUMP JUMPDEST PUSH2 0x852 JUMP JUMPDEST PUSH2 0x267 PUSH2 0x3F3 CALLDATASIZE PUSH1 0x4 PUSH2 0x159A JUMP JUMPDEST PUSH2 0x880 JUMP JUMPDEST PUSH2 0x267 PUSH2 0x8BE JUMP JUMPDEST PUSH1 0x0 PUSH1 0x1 PUSH1 0x1 PUSH1 0xE0 SHL SUB NOT DUP3 AND PUSH4 0x780E9D63 PUSH1 0xE0 SHL EQ DUP1 PUSH2 0x425 JUMPI POP PUSH2 0x425 DUP3 PUSH2 0xA7A JUMP JUMPDEST SWAP3 SWAP2 POP POP JUMP JUMPDEST PUSH1 0x60 PUSH1 0x0 DUP1 SLOAD PUSH2 0x43A SWAP1 PUSH2 0x178E JUMP JUMPDEST DUP1 PUSH1 0x1F ADD PUSH1 0x20 DUP1 SWAP2 DIV MUL PUSH1 0x20 ADD PUSH1 0x40 MLOAD SWAP1 DUP2 ADD PUSH1 0x40 MSTORE DUP1 SWAP3 SWAP2 SWAP1 DUP2 DUP2 MSTORE PUSH1 0x20 ADD DUP3 DUP1 SLOAD PUSH2 0x466 SWAP1 PUSH2 0x178E JUMP JUMPDEST DUP1 ISZERO PUSH2 0x4B3 JUMPI DUP1 PUSH1 0x1F LT PUSH2 0x488 JUMPI PUSH2 0x100 DUP1 DUP4 SLOAD DIV MUL DUP4 MSTORE SWAP2 PUSH1 0x20 ADD SWAP2 PUSH2 0x4B3 JUMP JUMPDEST DUP3 ADD SWAP2 SWAP1 PUSH1 0x0 MSTORE PUSH1 0x20 PUSH1 0x0 KECCAK256 SWAP1 JUMPDEST DUP2 SLOAD DUP2 MSTORE SWAP1 PUSH1 0x1 ADD SWAP1 PUSH1 0x20 ADD DUP1 DUP4 GT PUSH2 0x496 JUMPI DUP3 SWAP1 SUB PUSH1 0x1F AND DUP3 ADD SWAP2 JUMPDEST POP POP POP POP POP SWAP1 POP SWAP1 JUMP JUMPDEST PUSH1 0x0 PUSH2 0x4C8 DUP3 PUSH2 0xACA JUMP JUMPDEST POP PUSH1 0x0 DUP3 DUP2 MSTORE PUSH1 0x4 PUSH1 0x20 MSTORE PUSH1 0x40 SWAP1 KECCAK256 SLOAD PUSH1 0x1 PUSH1 0x1 PUSH1 0xA0 SHL SUB AND PUSH2 0x425 JUMP JUMPDEST PUSH2 0x4F1 DUP3 DUP3 CALLER PUSH2 0xB03 JUMP JUMPDEST POP POP JUMP JUMPDEST PUSH1 0x1 PUSH1 0x1 PUSH1 0xA0 SHL SUB DUP3 AND PUSH2 0x524 JUMPI PUSH1 0x40 MLOAD PUSH4 0x32505749 PUSH1 0xE1 SHL DUP2 MSTORE PUSH1 0x0 PUSH1 0x4 DUP3 ADD MSTORE PUSH1 0x24 ADD JUMPDEST PUSH1 0x40 MLOAD DUP1 SWAP2 SUB SWAP1 REVERT JUMPDEST PUSH1 0x0 PUSH2 0x531 DUP4 DUP4 CALLER PUSH2 0xB10 JUMP JUMPDEST SWAP1 POP DUP4 PUSH1 0x1 PUSH1 0x1 PUSH1 0xA0 SHL SUB AND DUP2 PUSH1 0x1 PUSH1 0x1 PUSH1 0xA0 SHL SUB AND EQ PUSH2 0x57F JUMPI PUSH1 0x40 MLOAD PUSH4 0x64283D7B PUSH1 0xE0 SHL DUP2 MSTORE PUSH1 0x1 PUSH1 0x1 PUSH1 0xA0 SHL SUB DUP1 DUP7 AND PUSH1 0x4 DUP4 ADD MSTORE PUSH1 0x24 DUP3 ADD DUP5 SWAP1 MSTORE DUP3 AND PUSH1 0x44 DUP3 ADD MSTORE PUSH1 0x64 ADD PUSH2 0x51B JUMP JUMPDEST POP POP POP POP JUMP JUMPDEST PUSH1 0x0 PUSH2 0x590 DUP4 PUSH2 0x73F JUMP JUMPDEST DUP3 LT PUSH2 0x5C1 JUMPI PUSH1 0x40 MLOAD PUSH4 0x295F44F7 PUSH1 0xE2 SHL DUP2 MSTORE PUSH1 0x1 PUSH1 0x1 PUSH1 0xA0 SHL SUB DUP5 AND PUSH1 0x4 DUP3 ADD MSTORE PUSH1 0x24 DUP2 ADD DUP4 SWAP1 MSTORE PUSH1 0x44 ADD PUSH2 0x51B JUMP JUMPDEST POP PUSH1 0x1 PUSH1 0x1 PUSH1 0xA0 SHL SUB SWAP2 SWAP1 SWAP2 AND PUSH1 0x0 SWAP1 DUP2 MSTORE PUSH1 0x6 PUSH1 0x20 SWAP1 DUP2 MSTORE PUSH1 0x40 DUP1 DUP4 KECCAK256 SWAP4 DUP4 MSTORE SWAP3 SWAP1 MSTORE KECCAK256 SLOAD SWAP1 JUMP JUMPDEST PUSH2 0x5F2 PUSH2 0xBA3 JUMP JUMPDEST PUSH1 0xC DUP2 SWAP1 SSTORE PUSH1 0x40 MLOAD DUP2 DUP2 MSTORE PUSH32 0x18351338521E832910DC0E4285E62C03492BB32D8E625843C15F1E9356BF3250 SWAP1 PUSH1 0x20 ADD PUSH1 0x40 MLOAD DUP1 SWAP2 SUB SWAP1 LOG1 POP JUMP JUMPDEST PUSH2 0x648 DUP4 DUP4 DUP4 PUSH1 0x40 MLOAD DUP1 PUSH1 0x20 ADD PUSH1 0x40 MSTORE DUP1 PUSH1 0x0 DUP2 MSTORE POP PUSH2 0x7C5 JUMP JUMPDEST POP POP POP JUMP JUMPDEST PUSH1 0xE DUP1 SLOAD PUSH2 0x65A SWAP1 PUSH2 0x178E JUMP JUMPDEST DUP1 PUSH1 0x1F ADD PUSH1 0x20 DUP1 SWAP2 DIV MUL PUSH1 0x20 ADD PUSH1 0x40 MLOAD SWAP1 DUP2 ADD PUSH1 0x40 MSTORE DUP1 SWAP3 SWAP2 SWAP1 DUP2 DUP2 MSTORE PUSH1 0x20 ADD DUP3 DUP1 SLOAD PUSH2 0x686 SWAP1 PUSH2 0x178E JUMP JUMPDEST DUP1 ISZERO PUSH2 0x6D3 JUMPI DUP1 PUSH1 0x1F LT PUSH2 0x6A8 JUMPI PUSH2 0x100 DUP1 DUP4 SLOAD DIV MUL DUP4 MSTORE SWAP2 PUSH1 0x20 ADD SWAP2 PUSH2 0x6D3 JUMP JUMPDEST DUP3 ADD SWAP2 SWAP1 PUSH1 0x0 MSTORE PUSH1 0x20 PUSH1 0x0 KECCAK256 SWAP1 JUMPDEST DUP2 SLOAD DUP2 MSTORE SWAP1 PUSH1 0x1 ADD SWAP1 PUSH1 0x20 ADD DUP1 DUP4 GT PUSH2 0x6B6 JUMPI DUP3 SWAP1 SUB PUSH1 0x1F AND DUP3 ADD SWAP2 JUMPDEST POP POP POP POP POP DUP2 JUMP JUMPDEST PUSH1 0x0 PUSH2 0x6E6 PUSH1 0x8 SLOAD SWAP1 JUMP JUMPDEST DUP3 LT PUSH2 0x70F JUMPI PUSH1 0x40 MLOAD PUSH4 0x295F44F7 PUSH1 0xE2 SHL DUP2 MSTORE PUSH1 0x0 PUSH1 0x4 DUP3 ADD MSTORE PUSH1 0x24 DUP2 ADD DUP4 SWAP1 MSTORE PUSH1 0x44 ADD PUSH2 0x51B JUMP JUMPDEST PUSH1 0x8 DUP3 DUP2 SLOAD DUP2 LT PUSH2 0x722 JUMPI PUSH2 0x722 PUSH2 0x17C8 JUMP JUMPDEST SWAP1 PUSH1 0x0 MSTORE PUSH1 0x20 PUSH1 0x0 KECCAK256 ADD SLOAD SWAP1 POP SWAP2 SWAP1 POP JUMP JUMPDEST PUSH1 0x0 PUSH2 0x425 DUP3 PUSH2 0xACA JUMP JUMPDEST PUSH1 0x0 PUSH1 0x1 PUSH1 0x1 PUSH1 0xA0 SHL SUB DUP3 AND PUSH2 0x76B JUMPI PUSH1 0x40 MLOAD PUSH4 0x22718AD9 PUSH1 0xE2 SHL DUP2 MSTORE PUSH1 0x0 PUSH1 0x4 DUP3 ADD MSTORE PUSH1 0x24 ADD PUSH2 0x51B JUMP JUMPDEST POP PUSH1 0x1 PUSH1 0x1 PUSH1 0xA0 SHL SUB AND PUSH1 0x0 SWAP1 DUP2 MSTORE PUSH1 0x3 PUSH1 0x20 MSTORE PUSH1 0x40 SWAP1 KECCAK256 SLOAD SWAP1 JUMP JUMPDEST PUSH2 0x78F PUSH2 0xBA3 JUMP JUMPDEST PUSH2 0x799 PUSH1 0x0 PUSH2 0xBD0 JUMP JUMPDEST JUMP JUMPDEST PUSH1 0x60 PUSH1 0x1 DUP1 SLOAD PUSH2 0x43A SWAP1 PUSH2 0x178E JUMP JUMPDEST PUSH1 0x0 PUSH2 0x7B5 PUSH1 0xB SLOAD SWAP1 JUMP JUMPDEST SWAP1 POP SWAP1 JUMP JUMPDEST PUSH2 0x4F1 CALLER DUP4 DUP4 PUSH2 0xC22 JUMP JUMPDEST PUSH2 0x7D0 DUP5 DUP5 DUP5 PUSH2 0x4F5 JUMP JUMPDEST PUSH2 0x57F CALLER DUP6 DUP6 DUP6 DUP6 PUSH2 0xCC1 JUMP JUMPDEST PUSH1 0x60 PUSH2 0x7E8 DUP3 PUSH2 0xACA JUMP JUMPDEST POP PUSH1 0x0 PUSH2 0x800 PUSH1 0x40 DUP1 MLOAD PUSH1 0x20 DUP2 ADD SWAP1 SWAP2 MSTORE PUSH1 0x0 DUP2 MSTORE SWAP1 JUMP JUMPDEST SWAP1 POP PUSH1 0x0 DUP2 MLOAD GT PUSH2 0x820 JUMPI PUSH1 0x40 MLOAD DUP1 PUSH1 0x20 ADD PUSH1 0x40 MSTORE DUP1 PUSH1 0x0 DUP2 MSTORE POP PUSH2 0x84B JUMP JUMPDEST DUP1 PUSH2 0x82A DUP5 PUSH2 0xDEC JUMP JUMPDEST PUSH1 0x40 MLOAD PUSH1 0x20 ADD PUSH2 0x83B SWAP3 SWAP2 SWAP1 PUSH2 0x17DE JUMP JUMPDEST PUSH1 0x40 MLOAD PUSH1 0x20 DUP2 DUP4 SUB SUB DUP2 MSTORE SWAP1 PUSH1 0x40 MSTORE JUMPDEST SWAP4 SWAP3 POP POP POP JUMP JUMPDEST PUSH1 0x1 PUSH1 0x1 PUSH1 0xA0 SHL SUB SWAP2 DUP3 AND PUSH1 0x0 SWAP1 DUP2 MSTORE PUSH1 0x5 PUSH1 0x20 SWAP1 DUP2 MSTORE PUSH1 0x40 DUP1 DUP4 KECCAK256 SWAP4 SWAP1 SWAP5 AND DUP3 MSTORE SWAP2 SWAP1 SWAP2 MSTORE KECCAK256 SLOAD PUSH1 0xFF AND SWAP1 JUMP JUMPDEST PUSH2 0x888 PUSH2 0xBA3 JUMP JUMPDEST PUSH1 0x1 PUSH1 0x1 PUSH1 0xA0 SHL SUB DUP2 AND PUSH2 0x8B2 JUMPI PUSH1 0x40 MLOAD PUSH4 0x1E4FBDF7 PUSH1 0xE0 SHL DUP2 MSTORE PUSH1 0x0 PUSH1 0x4 DUP3 ADD MSTORE PUSH1 0x24 ADD PUSH2 0x51B JUMP JUMPDEST PUSH2 0x8BB DUP2 PUSH2 0xBD0 JUMP JUMPDEST POP JUMP JUMPDEST CALLER PUSH1 0x0 SWAP1 DUP2 MSTORE PUSH1 0xF PUSH1 0x20 MSTORE PUSH1 0x40 SWAP1 KECCAK256 SLOAD PUSH1 0xFF AND ISZERO PUSH2 0x911 JUMPI PUSH1 0x40 MLOAD PUSH3 0x461BCD PUSH1 0xE5 SHL DUP2 MSTORE PUSH1 0x20 PUSH1 0x4 DUP3 ADD MSTORE PUSH1 0x10 PUSH1 0x24 DUP3 ADD MSTORE PUSH16 0x20B63932B0B23C90309036B2B6B132B9 PUSH1 0x81 SHL PUSH1 0x44 DUP3 ADD MSTORE PUSH1 0x64 ADD PUSH2 0x51B JUMP JUMPDEST PUSH1 0xD SLOAD PUSH1 0x1 PUSH1 0x1 PUSH1 0xA0 SHL SUB AND DUP1 PUSH4 0x23B872DD CALLER PUSH2 0x936 PUSH1 0xA SLOAD PUSH1 0x1 PUSH1 0x1 PUSH1 0xA0 SHL SUB AND SWAP1 JUMP JUMPDEST PUSH1 0xC SLOAD PUSH1 0x40 MLOAD PUSH1 0x1 PUSH1 0x1 PUSH1 0xE0 SHL SUB NOT PUSH1 0xE0 DUP7 SWAP1 SHL AND DUP2 MSTORE PUSH1 0x1 PUSH1 0x1 PUSH1 0xA0 SHL SUB SWAP4 DUP5 AND PUSH1 0x4 DUP3 ADD MSTORE SWAP3 SWAP1 SWAP2 AND PUSH1 0x24 DUP4 ADD MSTORE PUSH1 0x44 DUP3 ADD MSTORE PUSH1 0x64 ADD PUSH1 0x20 PUSH1 0x40 MLOAD DUP1 DUP4 SUB DUP2 PUSH1 0x0 DUP8 GAS CALL ISZERO DUP1 ISZERO PUSH2 0x98D JUMPI RETURNDATASIZE PUSH1 0x0 DUP1 RETURNDATACOPY RETURNDATASIZE PUSH1 0x0 REVERT JUMPDEST POP POP POP POP PUSH1 0x40 MLOAD RETURNDATASIZE PUSH1 0x1F NOT PUSH1 0x1F DUP3 ADD AND DUP3 ADD DUP1 PUSH1 0x40 MSTORE POP DUP2 ADD SWAP1 PUSH2 0x9B1 SWAP2 SWAP1 PUSH2 0x180D JUMP JUMPDEST PUSH2 0x9F4 JUMPI PUSH1 0x40 MLOAD PUSH3 0x461BCD PUSH1 0xE5 SHL DUP2 MSTORE PUSH1 0x20 PUSH1 0x4 DUP3 ADD MSTORE PUSH1 0x14 PUSH1 0x24 DUP3 ADD MSTORE PUSH20 0x1554D110C81D1C985B9CD9995C8819985A5B1959 PUSH1 0x62 SHL PUSH1 0x44 DUP3 ADD MSTORE PUSH1 0x64 ADD PUSH2 0x51B JUMP JUMPDEST PUSH2 0xA02 PUSH1 0xB DUP1 SLOAD PUSH1 0x1 ADD SWAP1 SSTORE JUMP JUMPDEST PUSH1 0x0 PUSH2 0xA0D PUSH1 0xB SLOAD SWAP1 JUMP JUMPDEST SWAP1 POP PUSH2 0xA19 CALLER DUP3 PUSH2 0xE7F JUMP JUMPDEST CALLER PUSH1 0x0 DUP2 DUP2 MSTORE PUSH1 0xF PUSH1 0x20 SWAP1 DUP2 MSTORE PUSH1 0x40 DUP1 DUP4 KECCAK256 DUP1 SLOAD PUSH1 0xFF NOT AND PUSH1 0x1 OR SWAP1 SSTORE PUSH1 0x10 DUP3 MSTORE SWAP2 DUP3 SWAP1 KECCAK256 DUP5 SWAP1 SSTORE DUP2 MLOAD SWAP3 DUP4 MSTORE DUP3 ADD DUP4 SWAP1 MSTORE PUSH32 0xEDE8EED4383E9241982619B94DD83E488B274CCED0FD07B8C0092A393DEFD52F SWAP2 ADD PUSH1 0x40 MLOAD DUP1 SWAP2 SUB SWAP1 LOG1 POP POP JUMP JUMPDEST PUSH1 0x0 PUSH1 0x1 PUSH1 0x1 PUSH1 0xE0 SHL SUB NOT DUP3 AND PUSH4 0x80AC58CD PUSH1 0xE0 SHL EQ DUP1 PUSH2 0xAAB JUMPI POP PUSH1 0x1 PUSH1 0x1 PUSH1 0xE0 SHL SUB NOT DUP3 AND PUSH4 0x5B5E139F PUSH1 0xE0 SHL EQ JUMPDEST DUP1 PUSH2 0x425 JUMPI POP PUSH4 0x1FFC9A7 PUSH1 0xE0 SHL PUSH1 0x1 PUSH1 0x1 PUSH1 0xE0 SHL SUB NOT DUP4 AND EQ PUSH2 0x425 JUMP JUMPDEST PUSH1 0x0 DUP2 DUP2 MSTORE PUSH1 0x2 PUSH1 0x20 MSTORE PUSH1 0x40 DUP2 KECCAK256 SLOAD PUSH1 0x1 PUSH1 0x1 PUSH1 0xA0 SHL SUB AND DUP1 PUSH2 0x425 JUMPI PUSH1 0x40 MLOAD PUSH4 0x7E273289 PUSH1 0xE0 SHL DUP2 MSTORE PUSH1 0x4 DUP2 ADD DUP5 SWAP1 MSTORE PUSH1 0x24 ADD PUSH2 0x51B JUMP JUMPDEST PUSH2 0x648 DUP4 DUP4 DUP4 PUSH1 0x1 PUSH2 0xEE4 JUMP JUMPDEST PUSH1 0x0 DUP1 PUSH2 0xB1E DUP6 DUP6 DUP6 PUSH2 0xFEA JUMP JUMPDEST SWAP1 POP PUSH1 0x1 PUSH1 0x1 PUSH1 0xA0 SHL SUB DUP2 AND ISZERO PUSH2 0xB5B JUMPI PUSH1 0x1 PUSH1 0x1 PUSH1 0xA0 SHL SUB DUP2 AND PUSH1 0x0 SWAP1 DUP2 MSTORE PUSH1 0xF PUSH1 0x20 SWAP1 DUP2 MSTORE PUSH1 0x40 DUP1 DUP4 KECCAK256 DUP1 SLOAD PUSH1 0xFF NOT AND SWAP1 SSTORE PUSH1 0x10 SWAP1 SWAP2 MSTORE DUP2 KECCAK256 SSTORE JUMPDEST PUSH1 0x1 PUSH1 0x1 PUSH1 0xA0 SHL SUB DUP6 AND ISZERO PUSH2 0xB9B JUMPI PUSH1 0x1 PUSH1 0x1 PUSH1 0xA0 SHL SUB DUP6 AND PUSH1 0x0 SWAP1 DUP2 MSTORE PUSH1 0xF PUSH1 0x20 SWAP1 DUP2 MSTORE PUSH1 0x40 DUP1 DUP4 KECCAK256 DUP1 SLOAD PUSH1 0xFF NOT AND PUSH1 0x1 OR SWAP1 SSTORE PUSH1 0x10 SWAP1 SWAP2 MSTORE SWAP1 KECCAK256 DUP5 SWAP1 SSTORE JUMPDEST SWAP5 SWAP4 POP POP POP POP JUMP JUMPDEST PUSH1 0xA SLOAD PUSH1 0x1 PUSH1 0x1 PUSH1 0xA0 SHL SUB AND CALLER EQ PUSH2 0x799 JUMPI PUSH1 0x40 MLOAD PUSH4 0x118CDAA7 PUSH1 0xE0 SHL DUP2 MSTORE CALLER PUSH1 0x4 DUP3 ADD MSTORE PUSH1 0x24 ADD PUSH2 0x51B JUMP JUMPDEST PUSH1 0xA DUP1 SLOAD PUSH1 0x1 PUSH1 0x1 PUSH1 0xA0 SHL SUB DUP4 DUP2 AND PUSH1 0x1 PUSH1 0x1 PUSH1 0xA0 SHL SUB NOT DUP4 AND DUP2 OR SWAP1 SWAP4 SSTORE PUSH1 0x40 MLOAD SWAP2 AND SWAP2 SWAP1 DUP3 SWAP1 PUSH32 0x8BE0079C531659141344CD1FD0A4F28419497F9722A3DAAFE3B4186F6B6457E0 SWAP1 PUSH1 0x0 SWAP1 LOG3 POP POP JUMP JUMPDEST PUSH1 0x1 PUSH1 0x1 PUSH1 0xA0 SHL SUB DUP3 AND PUSH2 0xC54 JUMPI PUSH1 0x40 MLOAD PUSH4 0xB611743 PUSH1 0xE3 SHL DUP2 MSTORE PUSH1 0x1 PUSH1 0x1 PUSH1 0xA0 SHL SUB DUP4 AND PUSH1 0x4 DUP3 ADD MSTORE PUSH1 0x24 ADD PUSH2 0x51B JUMP JUMPDEST PUSH1 0x1 PUSH1 0x1 PUSH1 0xA0 SHL SUB DUP4 DUP2 AND PUSH1 0x0 DUP2 DUP2 MSTORE PUSH1 0x5 PUSH1 0x20 SWAP1 DUP2 MSTORE PUSH1 0x40 DUP1 DUP4 KECCAK256 SWAP5 DUP8 AND DUP1 DUP5 MSTORE SWAP5 DUP3 MSTORE SWAP2 DUP3 SWAP1 KECCAK256 DUP1 SLOAD PUSH1 0xFF NOT AND DUP7 ISZERO ISZERO SWAP1 DUP2 OR SWAP1 SWAP2 SSTORE SWAP2 MLOAD SWAP2 DUP3 MSTORE PUSH32 0x17307EAB39AB6107E8899845AD3D59BD9653F200F220920489CA2B5937696C31 SWAP2 ADD PUSH1 0x40 MLOAD DUP1 SWAP2 SUB SWAP1 LOG3 POP POP POP JUMP JUMPDEST PUSH1 0x1 PUSH1 0x1 PUSH1 0xA0 SHL SUB DUP4 AND EXTCODESIZE ISZERO PUSH2 0xDE5 JUMPI PUSH1 0x40 MLOAD PUSH4 0xA85BD01 PUSH1 0xE1 SHL DUP2 MSTORE PUSH1 0x1 PUSH1 0x1 PUSH1 0xA0 SHL SUB DUP5 AND SWAP1 PUSH4 0x150B7A02 SWAP1 PUSH2 0xD03 SWAP1 DUP9 SWAP1 DUP9 SWAP1 DUP8 SWAP1 DUP8 SWAP1 PUSH1 0x4 ADD PUSH2 0x182A JUMP JUMPDEST PUSH1 0x20 PUSH1 0x40 MLOAD DUP1 DUP4 SUB DUP2 PUSH1 0x0 DUP8 GAS CALL SWAP3 POP POP POP DUP1 ISZERO PUSH2 0xD3E JUMPI POP PUSH1 0x40 DUP1 MLOAD PUSH1 0x1F RETURNDATASIZE SWAP1 DUP2 ADD PUSH1 0x1F NOT AND DUP3 ADD SWAP1 SWAP3 MSTORE PUSH2 0xD3B SWAP2 DUP2 ADD SWAP1 PUSH2 0x1867 JUMP JUMPDEST PUSH1 0x1 JUMPDEST PUSH2 0xDA7 JUMPI RETURNDATASIZE DUP1 DUP1 ISZERO PUSH2 0xD6C JUMPI PUSH1 0x40 MLOAD SWAP2 POP PUSH1 0x1F NOT PUSH1 0x3F RETURNDATASIZE ADD AND DUP3 ADD PUSH1 0x40 MSTORE RETURNDATASIZE DUP3 MSTORE RETURNDATASIZE PUSH1 0x0 PUSH1 0x20 DUP5 ADD RETURNDATACOPY PUSH2 0xD71 JUMP JUMPDEST PUSH1 0x60 SWAP2 POP JUMPDEST POP DUP1 MLOAD PUSH1 0x0 SUB PUSH2 0xD9F JUMPI PUSH1 0x40 MLOAD PUSH4 0x32505749 PUSH1 0xE1 SHL DUP2 MSTORE PUSH1 0x1 PUSH1 0x1 PUSH1 0xA0 SHL SUB DUP6 AND PUSH1 0x4 DUP3 ADD MSTORE PUSH1 0x24 ADD PUSH2 0x51B JUMP JUMPDEST DUP1 MLOAD DUP2 PUSH1 0x20 ADD REVERT JUMPDEST PUSH1 0x1 PUSH1 0x1 PUSH1 0xE0 SHL SUB NOT DUP2 AND PUSH4 0xA85BD01 PUSH1 0xE1 SHL EQ PUSH2 0xDE3 JUMPI PUSH1 0x40 MLOAD PUSH4 0x32505749 PUSH1 0xE1 SHL DUP2 MSTORE PUSH1 0x1 PUSH1 0x1 PUSH1 0xA0 SHL SUB DUP6 AND PUSH1 0x4 DUP3 ADD MSTORE PUSH1 0x24 ADD PUSH2 0x51B JUMP JUMPDEST POP JUMPDEST POP POP POP POP POP JUMP JUMPDEST PUSH1 0x60 PUSH1 0x0 PUSH2 0xDF9 DUP4 PUSH2 0x10B7 JUMP JUMPDEST PUSH1 0x1 ADD SWAP1 POP PUSH1 0x0 DUP2 PUSH8 0xFFFFFFFFFFFFFFFF DUP2 GT ISZERO PUSH2 0xE19 JUMPI PUSH2 0xE19 PUSH2 0x1661 JUMP JUMPDEST PUSH1 0x40 MLOAD SWAP1 DUP1 DUP3 MSTORE DUP1 PUSH1 0x1F ADD PUSH1 0x1F NOT AND PUSH1 0x20 ADD DUP3 ADD PUSH1 0x40 MSTORE DUP1 ISZERO PUSH2 0xE43 JUMPI PUSH1 0x20 DUP3 ADD DUP2 DUP1 CALLDATASIZE DUP4 CALLDATACOPY ADD SWAP1 POP JUMPDEST POP SWAP1 POP DUP2 DUP2 ADD PUSH1 0x20 ADD JUMPDEST PUSH1 0x0 NOT ADD PUSH16 0x181899199A1A9B1B9C1CB0B131B232B3 PUSH1 0x81 SHL PUSH1 0xA DUP7 MOD BYTE DUP2 MSTORE8 PUSH1 0xA DUP6 DIV SWAP5 POP DUP5 PUSH2 0xE4D JUMPI POP SWAP4 SWAP3 POP POP POP JUMP JUMPDEST PUSH1 0x1 PUSH1 0x1 PUSH1 0xA0 SHL SUB DUP3 AND PUSH2 0xEA9 JUMPI PUSH1 0x40 MLOAD PUSH4 0x32505749 PUSH1 0xE1 SHL DUP2 MSTORE PUSH1 0x0 PUSH1 0x4 DUP3 ADD MSTORE PUSH1 0x24 ADD PUSH2 0x51B JUMP JUMPDEST PUSH1 0x0 PUSH2 0xEB7 DUP4 DUP4 PUSH1 0x0 PUSH2 0xB10 JUMP JUMPDEST SWAP1 POP PUSH1 0x1 PUSH1 0x1 PUSH1 0xA0 SHL SUB DUP2 AND ISZERO PUSH2 0x648 JUMPI PUSH1 0x40 MLOAD PUSH4 0x39E35637 PUSH1 0xE1 SHL DUP2 MSTORE PUSH1 0x0 PUSH1 0x4 DUP3 ADD MSTORE PUSH1 0x24 ADD PUSH2 0x51B JUMP JUMPDEST DUP1 DUP1 PUSH2 0xEF8 JUMPI POP PUSH1 0x1 PUSH1 0x1 PUSH1 0xA0 SHL SUB DUP3 AND ISZERO ISZERO JUMPDEST ISZERO PUSH2 0xFBA JUMPI PUSH1 0x0 PUSH2 0xF08 DUP5 PUSH2 0xACA JUMP JUMPDEST SWAP1 POP PUSH1 0x1 PUSH1 0x1 PUSH1 0xA0 SHL SUB DUP4 AND ISZERO DUP1 ISZERO SWAP1 PUSH2 0xF34 JUMPI POP DUP3 PUSH1 0x1 PUSH1 0x1 PUSH1 0xA0 SHL SUB AND DUP2 PUSH1 0x1 PUSH1 0x1 PUSH1 0xA0 SHL SUB AND EQ ISZERO JUMPDEST DUP1 ISZERO PUSH2 0xF47 JUMPI POP PUSH2 0xF45 DUP2 DUP5 PUSH2 0x852 JUMP JUMPDEST ISZERO JUMPDEST ISZERO PUSH2 0xF70 JUMPI PUSH1 0x40 MLOAD PUSH4 0xA9FBF51F PUSH1 0xE0 SHL DUP2 MSTORE PUSH1 0x1 PUSH1 0x1 PUSH1 0xA0 SHL SUB DUP5 AND PUSH1 0x4 DUP3 ADD MSTORE PUSH1 0x24 ADD PUSH2 0x51B JUMP JUMPDEST DUP2 ISZERO PUSH2 0xFB8 JUMPI DUP4 DUP6 PUSH1 0x1 PUSH1 0x1 PUSH1 0xA0 SHL SUB AND DUP3 PUSH1 0x1 PUSH1 0x1 PUSH1 0xA0 SHL SUB AND PUSH32 0x8C5BE1E5EBEC7D5BD14F71427D1E84F3DD0314C0F7B2291E5B200AC8C7C3B925 PUSH1 0x40 MLOAD PUSH1 0x40 MLOAD DUP1 SWAP2 SUB SWAP1 LOG4 JUMPDEST POP JUMPDEST POP POP PUSH1 0x0 SWAP1 DUP2 MSTORE PUSH1 0x4 PUSH1 0x20 MSTORE PUSH1 0x40 SWAP1 KECCAK256 DUP1 SLOAD PUSH1 0x1 PUSH1 0x1 PUSH1 0xA0 SHL SUB NOT AND PUSH1 0x1 PUSH1 0x1 PUSH1 0xA0 SHL SUB SWAP3 SWAP1 SWAP3 AND SWAP2 SWAP1 SWAP2 OR SWAP1 SSTORE JUMP JUMPDEST PUSH1 0x0 DUP1 PUSH2 0xFF8 DUP6 DUP6 DUP6 PUSH2 0x118F JUMP JUMPDEST SWAP1 POP PUSH1 0x1 PUSH1 0x1 PUSH1 0xA0 SHL SUB DUP2 AND PUSH2 0x1055 JUMPI PUSH2 0x1050 DUP5 PUSH1 0x8 DUP1 SLOAD PUSH1 0x0 DUP4 DUP2 MSTORE PUSH1 0x9 PUSH1 0x20 MSTORE PUSH1 0x40 DUP2 KECCAK256 DUP3 SWAP1 SSTORE PUSH1 0x1 DUP3 ADD DUP4 SSTORE SWAP2 SWAP1 SWAP2 MSTORE PUSH32 0xF3F7A9FE364FAAB93B216DA50A3214154F22A0A2B415B23A84C8169E8B636EE3 ADD SSTORE JUMP JUMPDEST PUSH2 0x1078 JUMP JUMPDEST DUP5 PUSH1 0x1 PUSH1 0x1 PUSH1 0xA0 SHL SUB AND DUP2 PUSH1 0x1 PUSH1 0x1 PUSH1 0xA0 SHL SUB AND EQ PUSH2 0x1078 JUMPI PUSH2 0x1078 DUP2 DUP6 PUSH2 0x1288 JUMP JUMPDEST PUSH1 0x1 PUSH1 0x1 PUSH1 0xA0 SHL SUB DUP6 AND PUSH2 0x1094 JUMPI PUSH2 0x108F DUP5 PUSH2 0x1309 JUMP JUMPDEST PUSH2 0xB9B JUMP JUMPDEST DUP5 PUSH1 0x1 PUSH1 0x1 PUSH1 0xA0 SHL SUB AND DUP2 PUSH1 0x1 PUSH1 0x1 PUSH1 0xA0 SHL SUB AND EQ PUSH2 0xB9B JUMPI PUSH2 0xB9B DUP6 DUP6 PUSH2 0x13B8 JUMP JUMPDEST PUSH1 0x0 DUP1 PUSH19 0x184F03E93FF9F4DAA797ED6E38ED64BF6A1F01 PUSH1 0x40 SHL DUP4 LT PUSH2 0x10F6 JUMPI PUSH19 0x184F03E93FF9F4DAA797ED6E38ED64BF6A1F01 PUSH1 0x40 SHL DUP4 DIV SWAP3 POP PUSH1 0x40 ADD JUMPDEST PUSH14 0x4EE2D6D415B85ACEF8100000000 DUP4 LT PUSH2 0x1122 JUMPI PUSH14 0x4EE2D6D415B85ACEF8100000000 DUP4 DIV SWAP3 POP PUSH1 0x20 ADD JUMPDEST PUSH7 0x2386F26FC10000 DUP4 LT PUSH2 0x1140 JUMPI PUSH7 0x2386F26FC10000 DUP4 DIV SWAP3 POP PUSH1 0x10 ADD JUMPDEST PUSH4 0x5F5E100 DUP4 LT PUSH2 0x1158 JUMPI PUSH4 0x5F5E100 DUP4 DIV SWAP3 POP PUSH1 0x8 ADD JUMPDEST PUSH2 0x2710 DUP4 LT PUSH2 0x116C JUMPI PUSH2 0x2710 DUP4 DIV SWAP3 POP PUSH1 0x4 ADD JUMPDEST PUSH1 0x64 DUP4 LT PUSH2 0x117E JUMPI PUSH1 0x64 DUP4 DIV SWAP3 POP PUSH1 0x2 ADD JUMPDEST PUSH1 0xA DUP4 LT PUSH2 0x425 JUMPI PUSH1 0x1 ADD SWAP3 SWAP2 POP POP JUMP JUMPDEST PUSH1 0x0 DUP3 DUP2 MSTORE PUSH1 0x2 PUSH1 0x20 MSTORE PUSH1 0x40 DUP2 KECCAK256 SLOAD PUSH1 0x1 PUSH1 0x1 PUSH1 0xA0 SHL SUB SWAP1 DUP2 AND SWAP1 DUP4 AND ISZERO PUSH2 0x11BC JUMPI PUSH2 0x11BC DUP2 DUP5 DUP7 PUSH2 0x1408 JUMP JUMPDEST PUSH1 0x1 PUSH1 0x1 PUSH1 0xA0 SHL SUB DUP2 AND ISZERO PUSH2 0x11FA JUMPI PUSH2 0x11D9 PUSH1 0x0 DUP6 PUSH1 0x0 DUP1 PUSH2 0xEE4 JUMP JUMPDEST PUSH1 0x1 PUSH1 0x1 PUSH1 0xA0 SHL SUB DUP2 AND PUSH1 0x0 SWAP1 DUP2 MSTORE PUSH1 0x3 PUSH1 0x20 MSTORE PUSH1 0x40 SWAP1 KECCAK256 DUP1 SLOAD PUSH1 0x0 NOT ADD SWAP1 SSTORE JUMPDEST PUSH1 0x1 PUSH1 0x1 PUSH1 0xA0 SHL SUB DUP6 AND ISZERO PUSH2 0x1229 JUMPI PUSH1 0x1 PUSH1 0x1 PUSH1 0xA0 SHL SUB DUP6 AND PUSH1 0x0 SWAP1 DUP2 MSTORE PUSH1 0x3 PUSH1 0x20 MSTORE PUSH1 0x40 SWAP1 KECCAK256 DUP1 SLOAD PUSH1 0x1 ADD SWAP1 SSTORE JUMPDEST PUSH1 0x0 DUP5 DUP2 MSTORE PUSH1 0x2 PUSH1 0x20 MSTORE PUSH1 0x40 DUP1 DUP3 KECCAK256 DUP1 SLOAD PUSH1 0x1 PUSH1 0x1 PUSH1 0xA0 SHL SUB NOT AND PUSH1 0x1 PUSH1 0x1 PUSH1 0xA0 SHL SUB DUP10 DUP2 AND SWAP2 DUP3 OR SWAP1 SWAP3 SSTORE SWAP2 MLOAD DUP8 SWAP4 SWAP2 DUP6 AND SWAP2 PUSH32 0xDDF252AD1BE2C89B69C2B068FC378DAA952BA7F163C4A11628F55A4DF523B3EF SWAP2 LOG4 SWAP5 SWAP4 POP POP POP POP JUMP JUMPDEST PUSH1 0x0 PUSH2 0x1293 DUP4 PUSH2 0x73F JUMP JUMPDEST PUSH1 0x0 DUP4 DUP2 MSTORE PUSH1 0x7 PUSH1 0x20 SWAP1 DUP2 MSTORE PUSH1 0x40 DUP1 DUP4 KECCAK256 SLOAD PUSH1 0x1 PUSH1 0x1 PUSH1 0xA0 SHL SUB DUP9 AND DUP5 MSTORE PUSH1 0x6 SWAP1 SWAP3 MSTORE SWAP1 SWAP2 KECCAK256 SWAP2 SWAP3 POP SWAP1 DUP2 DUP4 EQ PUSH2 0x12EA JUMPI PUSH1 0x0 DUP4 DUP2 MSTORE PUSH1 0x20 DUP3 DUP2 MSTORE PUSH1 0x40 DUP1 DUP4 KECCAK256 SLOAD DUP6 DUP5 MSTORE DUP2 DUP5 KECCAK256 DUP2 SWAP1 SSTORE DUP4 MSTORE PUSH1 0x7 SWAP1 SWAP2 MSTORE SWAP1 KECCAK256 DUP3 SWAP1 SSTORE JUMPDEST PUSH1 0x0 SWAP4 DUP5 MSTORE PUSH1 0x7 PUSH1 0x20 SWAP1 DUP2 MSTORE PUSH1 0x40 DUP1 DUP7 KECCAK256 DUP7 SWAP1 SSTORE SWAP4 DUP6 MSTORE MSTORE POP DUP2 KECCAK256 SSTORE POP JUMP JUMPDEST PUSH1 0x8 SLOAD PUSH1 0x0 SWAP1 PUSH2 0x131B SWAP1 PUSH1 0x1 SWAP1 PUSH2 0x1884 JUMP JUMPDEST PUSH1 0x0 DUP4 DUP2 MSTORE PUSH1 0x9 PUSH1 0x20 MSTORE PUSH1 0x40 DUP2 KECCAK256 SLOAD PUSH1 0x8 DUP1 SLOAD SWAP4 SWAP5 POP SWAP1 SWAP3 DUP5 SWAP1 DUP2 LT PUSH2 0x1343 JUMPI PUSH2 0x1343 PUSH2 0x17C8 JUMP JUMPDEST SWAP1 PUSH1 0x0 MSTORE PUSH1 0x20 PUSH1 0x0 KECCAK256 ADD SLOAD SWAP1 POP DUP1 PUSH1 0x8 DUP4 DUP2 SLOAD DUP2 LT PUSH2 0x1364 JUMPI PUSH2 0x1364 PUSH2 0x17C8 JUMP JUMPDEST PUSH1 0x0 SWAP2 DUP3 MSTORE PUSH1 0x20 DUP1 DUP4 KECCAK256 SWAP1 SWAP2 ADD SWAP3 SWAP1 SWAP3 SSTORE DUP3 DUP2 MSTORE PUSH1 0x9 SWAP1 SWAP2 MSTORE PUSH1 0x40 DUP1 DUP3 KECCAK256 DUP5 SWAP1 SSTORE DUP6 DUP3 MSTORE DUP2 KECCAK256 SSTORE PUSH1 0x8 DUP1 SLOAD DUP1 PUSH2 0x139C JUMPI PUSH2 0x139C PUSH2 0x18A5 JUMP JUMPDEST PUSH1 0x1 SWAP1 SUB DUP2 DUP2 SWAP1 PUSH1 0x0 MSTORE PUSH1 0x20 PUSH1 0x0 KECCAK256 ADD PUSH1 0x0 SWAP1 SSTORE SWAP1 SSTORE POP POP POP POP JUMP JUMPDEST PUSH1 0x0 PUSH1 0x1 PUSH2 0x13C5 DUP5 PUSH2 0x73F JUMP JUMPDEST PUSH2 0x13CF SWAP2 SWAP1 PUSH2 0x1884 JUMP JUMPDEST PUSH1 0x1 PUSH1 0x1 PUSH1 0xA0 SHL SUB SWAP1 SWAP4 AND PUSH1 0x0 SWAP1 DUP2 MSTORE PUSH1 0x6 PUSH1 0x20 SWAP1 DUP2 MSTORE PUSH1 0x40 DUP1 DUP4 KECCAK256 DUP7 DUP5 MSTORE DUP3 MSTORE DUP1 DUP4 KECCAK256 DUP6 SWAP1 SSTORE SWAP4 DUP3 MSTORE PUSH1 0x7 SWAP1 MSTORE SWAP2 SWAP1 SWAP2 KECCAK256 SWAP2 SWAP1 SWAP2 SSTORE POP JUMP JUMPDEST PUSH2 0x1413 DUP4 DUP4 DUP4 PUSH2 0x146C JUMP JUMPDEST PUSH2 0x648 JUMPI PUSH1 0x1 PUSH1 0x1 PUSH1 0xA0 SHL SUB DUP4 AND PUSH2 0x1441 JUMPI PUSH1 0x40 MLOAD PUSH4 0x7E273289 PUSH1 0xE0 SHL DUP2 MSTORE PUSH1 0x4 DUP2 ADD DUP3 SWAP1 MSTORE PUSH1 0x24 ADD PUSH2 0x51B JUMP JUMPDEST PUSH1 0x40 MLOAD PUSH4 0x177E802F PUSH1 0xE0 SHL DUP2 MSTORE PUSH1 0x1 PUSH1 0x1 PUSH1 0xA0 SHL SUB DUP4 AND PUSH1 0x4 DUP3 ADD MSTORE PUSH1 0x24 DUP2 ADD DUP3 SWAP1 MSTORE PUSH1 0x44 ADD PUSH2 0x51B JUMP JUMPDEST PUSH1 0x0 PUSH1 0x1 PUSH1 0x1 PUSH1 0xA0 SHL SUB DUP4 AND ISZERO DUP1 ISZERO SWAP1 PUSH2 0xB9B JUMPI POP DUP3 PUSH1 0x1 PUSH1 0x1 PUSH1 0xA0 SHL SUB AND DUP5 PUSH1 0x1 PUSH1 0x1 PUSH1 0xA0 SHL SUB AND EQ DUP1 PUSH2 0x14A6 JUMPI POP PUSH2 0x14A6 DUP5 DUP5 PUSH2 0x852 JUMP JUMPDEST DUP1 PUSH2 0xB9B JUMPI POP POP PUSH1 0x0 SWAP1 DUP2 MSTORE PUSH1 0x4 PUSH1 0x20 MSTORE PUSH1 0x40 SWAP1 KECCAK256 SLOAD PUSH1 0x1 PUSH1 0x1 PUSH1 0xA0 SHL SUB SWAP1 DUP2 AND SWAP2 AND EQ SWAP2 SWAP1 POP JUMP JUMPDEST PUSH1 0x1 PUSH1 0x1 PUSH1 0xE0 SHL SUB NOT DUP2 AND DUP2 EQ PUSH2 0x8BB JUMPI PUSH1 0x0 DUP1 REVERT JUMPDEST PUSH1 0x0 PUSH1 0x20 DUP3 DUP5 SUB SLT ISZERO PUSH2 0x14F7 JUMPI PUSH1 0x0 DUP1 REVERT JUMPDEST DUP2 CALLDATALOAD PUSH2 0x84B DUP2 PUSH2 0x14CF JUMP JUMPDEST PUSH1 0x0 JUMPDEST DUP4 DUP2 LT ISZERO PUSH2 0x151D JUMPI DUP2 DUP2 ADD MLOAD DUP4 DUP3 ADD MSTORE PUSH1 0x20 ADD PUSH2 0x1505 JUMP JUMPDEST POP POP PUSH1 0x0 SWAP2 ADD MSTORE JUMP JUMPDEST PUSH1 0x0 DUP2 MLOAD DUP1 DUP5 MSTORE PUSH2 0x153E DUP2 PUSH1 0x20 DUP7 ADD PUSH1 0x20 DUP7 ADD PUSH2 0x1502 JUMP JUMPDEST PUSH1 0x1F ADD PUSH1 0x1F NOT AND SWAP3 SWAP1 SWAP3 ADD PUSH1 0x20 ADD SWAP3 SWAP2 POP POP JUMP JUMPDEST PUSH1 0x20 DUP2 MSTORE PUSH1 0x0 PUSH2 0x84B PUSH1 0x20 DUP4 ADD DUP5 PUSH2 0x1526 JUMP JUMPDEST PUSH1 0x0 PUSH1 0x20 DUP3 DUP5 SUB SLT ISZERO PUSH2 0x1577 JUMPI PUSH1 0x0 DUP1 REVERT JUMPDEST POP CALLDATALOAD SWAP2 SWAP1 POP JUMP JUMPDEST DUP1 CALLDATALOAD PUSH1 0x1 PUSH1 0x1 PUSH1 0xA0 SHL SUB DUP2 AND DUP2 EQ PUSH2 0x1595 JUMPI PUSH1 0x0 DUP1 REVERT JUMPDEST SWAP2 SWAP1 POP JUMP JUMPDEST PUSH1 0x0 PUSH1 0x20 DUP3 DUP5 SUB SLT ISZERO PUSH2 0x15AC JUMPI PUSH1 0x0 DUP1 REVERT JUMPDEST PUSH2 0x84B DUP3 PUSH2 0x157E JUMP JUMPDEST PUSH1 0x0 DUP1 PUSH1 0x40 DUP4 DUP6 SUB SLT ISZERO PUSH2 0x15C8 JUMPI PUSH1 0x0 DUP1 REVERT JUMPDEST PUSH2 0x15D1 DUP4 PUSH2 0x157E JUMP JUMPDEST SWAP5 PUSH1 0x20 SWAP4 SWAP1 SWAP4 ADD CALLDATALOAD SWAP4 POP POP POP JUMP JUMPDEST PUSH1 0x0 DUP1 PUSH1 0x0 PUSH1 0x60 DUP5 DUP7 SUB SLT ISZERO PUSH2 0x15F4 JUMPI PUSH1 0x0 DUP1 REVERT JUMPDEST PUSH2 0x15FD DUP5 PUSH2 0x157E JUMP JUMPDEST SWAP3 POP PUSH2 0x160B PUSH1 0x20 DUP6 ADD PUSH2 0x157E JUMP JUMPDEST SWAP3 SWAP6 SWAP3 SWAP5 POP POP POP PUSH1 0x40 SWAP2 SWAP1 SWAP2 ADD CALLDATALOAD SWAP1 JUMP JUMPDEST DUP1 ISZERO ISZERO DUP2 EQ PUSH2 0x8BB JUMPI PUSH1 0x0 DUP1 REVERT JUMPDEST PUSH1 0x0 DUP1 PUSH1 0x40 DUP4 DUP6 SUB SLT ISZERO PUSH2 0x163D JUMPI PUSH1 0x0 DUP1 REVERT JUMPDEST PUSH2 0x1646 DUP4 PUSH2 0x157E JUMP JUMPDEST SWAP2 POP PUSH1 0x20 DUP4 ADD CALLDATALOAD PUSH2 0x1656 DUP2 PUSH2 0x161C JUMP JUMPDEST DUP1 SWAP2 POP POP SWAP3 POP SWAP3 SWAP1 POP JUMP JUMPDEST PUSH4 0x4E487B71 PUSH1 0xE0 SHL PUSH1 0x0 MSTORE PUSH1 0x41 PUSH1 0x4 MSTORE PUSH1 0x24 PUSH1 0x0 REVERT JUMPDEST PUSH1 0x0 DUP1 PUSH1 0x0 DUP1 PUSH1 0x80 DUP6 DUP8 SUB SLT ISZERO PUSH2 0x168D JUMPI PUSH1 0x0 DUP1 REVERT JUMPDEST PUSH2 0x1696 DUP6 PUSH2 0x157E JUMP JUMPDEST SWAP4 POP PUSH2 0x16A4 PUSH1 0x20 DUP7 ADD PUSH2 0x157E JUMP JUMPDEST SWAP3 POP PUSH1 0x40 DUP6 ADD CALLDATALOAD SWAP2 POP PUSH1 0x60 DUP6 ADD CALLDATALOAD PUSH8 0xFFFFFFFFFFFFFFFF DUP2 GT ISZERO PUSH2 0x16C7 JUMPI PUSH1 0x0 DUP1 REVERT JUMPDEST DUP6 ADD PUSH1 0x1F DUP2 ADD DUP8 SGT PUSH2 0x16D8 JUMPI PUSH1 0x0 DUP1 REVERT JUMPDEST DUP1 CALLDATALOAD PUSH8 0xFFFFFFFFFFFFFFFF DUP2 GT ISZERO PUSH2 0x16F2 JUMPI PUSH2 0x16F2 PUSH2 0x1661 JUMP JUMPDEST PUSH1 0x40 MLOAD PUSH1 0x1F DUP3 ADD PUSH1 0x1F NOT SWAP1 DUP2 AND PUSH1 0x3F ADD AND DUP2 ADD PUSH8 0xFFFFFFFFFFFFFFFF DUP2 GT DUP3 DUP3 LT OR ISZERO PUSH2 0x1721 JUMPI PUSH2 0x1721 PUSH2 0x1661 JUMP JUMPDEST PUSH1 0x40 MSTORE DUP2 DUP2 MSTORE DUP3 DUP3 ADD PUSH1 0x20 ADD DUP10 LT ISZERO PUSH2 0x1739 JUMPI PUSH1 0x0 DUP1 REVERT JUMPDEST DUP2 PUSH1 0x20 DUP5 ADD PUSH1 0x20 DUP4 ADD CALLDATACOPY PUSH1 0x0 PUSH1 0x20 DUP4 DUP4 ADD ADD MSTORE DUP1 SWAP4 POP POP POP POP SWAP3 SWAP6 SWAP2 SWAP5 POP SWAP3 POP JUMP JUMPDEST PUSH1 0x0 DUP1 PUSH1 0x40 DUP4 DUP6 SUB SLT ISZERO PUSH2 0x176E JUMPI PUSH1 0x0 DUP1 REVERT JUMPDEST PUSH2 0x1777 DUP4 PUSH2 0x157E JUMP JUMPDEST SWAP2 POP PUSH2 0x1785 PUSH1 0x20 DUP5 ADD PUSH2 0x157E JUMP JUMPDEST SWAP1 POP SWAP3 POP SWAP3 SWAP1 POP JUMP JUMPDEST PUSH1 0x1 DUP2 DUP2 SHR SWAP1 DUP3 AND DUP1 PUSH2 0x17A2 JUMPI PUSH1 0x7F DUP3 AND SWAP2 POP JUMPDEST PUSH1 0x20 DUP3 LT DUP2 SUB PUSH2 0x17C2 JUMPI PUSH4 0x4E487B71 PUSH1 0xE0 SHL PUSH1 0x0 MSTORE PUSH1 0x22 PUSH1 0x4 MSTORE PUSH1 0x24 PUSH1 0x0 REVERT JUMPDEST POP SWAP2 SWAP1 POP JUMP JUMPDEST PUSH4 0x4E487B71 PUSH1 0xE0 SHL PUSH1 0x0 MSTORE PUSH1 0x32 PUSH1 0x4 MSTORE PUSH1 0x24 PUSH1 0x0 REVERT JUMPDEST PUSH1 0x0 DUP4 MLOAD PUSH2 0x17F0 DUP2 DUP5 PUSH1 0x20 DUP9 ADD PUSH2 0x1502 JUMP JUMPDEST DUP4 MLOAD SWAP1 DUP4 ADD SWAP1 PUSH2 0x1804 DUP2 DUP4 PUSH1 0x20 DUP9 ADD PUSH2 0x1502 JUMP JUMPDEST ADD SWAP5 SWAP4 POP POP POP POP JUMP JUMPDEST PUSH1 0x0 PUSH1 0x20 DUP3 DUP5 SUB SLT ISZERO PUSH2 0x181F JUMPI PUSH1 0x0 DUP1 REVERT JUMPDEST DUP2 MLOAD PUSH2 0x84B DUP2 PUSH2 0x161C JUMP JUMPDEST PUSH1 0x1 PUSH1 0x1 PUSH1 0xA0 SHL SUB DUP6 DUP2 AND DUP3 MSTORE DUP5 AND PUSH1 0x20 DUP3 ADD MSTORE PUSH1 0x40 DUP2 ADD DUP4 SWAP1 MSTORE PUSH1 0x80 PUSH1 0x60 DUP3 ADD DUP2 SWAP1 MSTORE PUSH1 0x0 SWAP1 PUSH2 0x185D SWAP1 DUP4 ADD DUP5 PUSH2 0x1526 JUMP JUMPDEST SWAP7 SWAP6 POP POP POP POP POP POP JUMP JUMPDEST PUSH1 0x0 PUSH1 0x20 DUP3 DUP5 SUB SLT ISZERO PUSH2 0x1879 JUMPI PUSH1 0x0 DUP1 REVERT JUMPDEST DUP2 MLOAD PUSH2 0x84B DUP2 PUSH2 0x14CF JUMP JUMPDEST DUP2 DUP2 SUB DUP2 DUP2 GT ISZERO PUSH2 0x425 JUMPI PUSH4 0x4E487B71 PUSH1 0xE0 SHL PUSH1 0x0 MSTORE PUSH1 0x11 PUSH1 0x4 MSTORE PUSH1 0x24 PUSH1 0x0 REVERT JUMPDEST PUSH4 0x4E487B71 PUSH1 0xE0 SHL PUSH1 0x0 MSTORE PUSH1 0x31 PUSH1 0x4 MSTORE PUSH1 0x24 PUSH1 0x0 REVERT INVALID LOG2 PUSH5 0x6970667358 0x22 SLT KECCAK256 0xEB KECCAK256 TSTORE CREATE2 PUSH14 0x27B1DFB0A7C054C81B28C9FF7250 0xCE 0xEB PUSH19 0xF968AD49731BA7C8C57A64736F6C634300081A STOP CALLER PUSH1 0x80 PUSH1 0x40 MSTORE CALLVALUE DUP1 ISZERO PUSH2 0x10 JUMPI PUSH1 0x0 DUP1 REVERT JUMPDEST POP PUSH1 0x40 MLOAD PUSH2 0x11AB CODESIZE SUB DUP1 PUSH2 0x11AB DUP4 CODECOPY DUP2 ADD PUSH1 0x40 DUP2 SWAP1 MSTORE PUSH2 0x2F SWAP2 PUSH2 0x106 JUMP JUMPDEST DUP1 PUSH1 0x1 PUSH1 0x1 PUSH1 0xA0 SHL SUB DUP2 AND PUSH2 0x5E JUMPI PUSH1 0x40 MLOAD PUSH4 0x1E4FBDF7 PUSH1 0xE0 SHL DUP2 MSTORE PUSH1 0x0 PUSH1 0x4 DUP3 ADD MSTORE PUSH1 0x24 ADD PUSH1 0x40 MLOAD DUP1 SWAP2 SUB SWAP1 REVERT JUMPDEST PUSH2 0x67 DUP2 PUSH2 0x9A JUMP JUMPDEST POP POP PUSH1 0x1 DUP1 SLOAD PUSH1 0x1 PUSH1 0x1 PUSH1 0xA0 SHL SUB SWAP4 DUP5 AND PUSH1 0x1 PUSH1 0x1 PUSH1 0xA0 SHL SUB NOT SWAP2 DUP3 AND OR SWAP1 SWAP2 SSTORE PUSH1 0x2 DUP1 SLOAD SWAP3 SWAP1 SWAP4 AND SWAP2 AND OR SWAP1 SSTORE PUSH2 0x149 JUMP JUMPDEST PUSH1 0x0 DUP1 SLOAD PUSH1 0x1 PUSH1 0x1 PUSH1 0xA0 SHL SUB DUP4 DUP2 AND PUSH1 0x1 PUSH1 0x1 PUSH1 0xA0 SHL SUB NOT DUP4 AND DUP2 OR DUP5 SSTORE PUSH1 0x40 MLOAD SWAP2 SWAP1 SWAP3 AND SWAP3 DUP4 SWAP2 PUSH32 0x8BE0079C531659141344CD1FD0A4F28419497F9722A3DAAFE3B4186F6B6457E0 SWAP2 SWAP1 LOG3 POP POP JUMP JUMPDEST DUP1 MLOAD PUSH1 0x1 PUSH1 0x1 PUSH1 0xA0 SHL SUB DUP2 AND DUP2 EQ PUSH2 0x101 JUMPI PUSH1 0x0 DUP1 REVERT JUMPDEST SWAP2 SWAP1 POP JUMP JUMPDEST PUSH1 0x0 DUP1 PUSH1 0x0 PUSH1 0x60 DUP5 DUP7 SUB SLT ISZERO PUSH2 0x11B JUMPI PUSH1 0x0 DUP1 REVERT JUMPDEST PUSH2 0x124 DUP5 PUSH2 0xEA JUMP JUMPDEST SWAP3 POP PUSH2 0x132 PUSH1 0x20 DUP6 ADD PUSH2 0xEA JUMP JUMPDEST SWAP2 POP PUSH2 0x140 PUSH1 0x40 DUP6 ADD PUSH2 0xEA JUMP JUMPDEST SWAP1 POP SWAP3 POP SWAP3 POP SWAP3 JUMP JUMPDEST PUSH2 0x1053 DUP1 PUSH2 0x158 PUSH1 0x0 CODECOPY PUSH1 0x0 RETURN INVALID PUSH1 0x80 PUSH1 0x40 MSTORE CALLVALUE DUP1 ISZERO PUSH2 0x10 JUMPI PUSH1 0x0 DUP1 REVERT JUMPDEST POP PUSH1 0x4 CALLDATASIZE LT PUSH2 0xCF JUMPI PUSH1 0x0 CALLDATALOAD PUSH1 0xE0 SHR DUP1 PUSH4 0x51EC8D1E GT PUSH2 0x8C JUMPI DUP1 PUSH4 0x8DA5CB5B GT PUSH2 0x66 JUMPI DUP1 PUSH4 0x8DA5CB5B EQ PUSH2 0x1A6 JUMPI DUP1 PUSH4 0xB172B222 EQ PUSH2 0x1B7 JUMPI DUP1 PUSH4 0xF2FDE38B EQ PUSH2 0x1CA JUMPI DUP1 PUSH4 0xF8DEFA3C EQ PUSH2 0x1DD JUMPI PUSH1 0x0 DUP1 REVERT JUMPDEST DUP1 PUSH4 0x51EC8D1E EQ PUSH2 0x168 JUMPI DUP1 PUSH4 0x715018A6 EQ PUSH2 0x17B JUMPI DUP1 PUSH4 0x87D81789 EQ PUSH2 0x183 JUMPI PUSH1 0x0 DUP1 REVERT JUMPDEST DUP1 PUSH4 0x1129753F EQ PUSH2 0xD4 JUMPI DUP1 PUSH4 0x11EAC855 EQ PUSH2 0xE9 JUMPI DUP1 PUSH4 0x12065FE0 EQ PUSH2 0x119 JUMPI DUP1 PUSH4 0x162A0CF8 EQ PUSH2 0x12F JUMPI DUP1 PUSH4 0x17560F29 EQ PUSH2 0x142 JUMPI DUP1 PUSH4 0x3B76594D EQ PUSH2 0x155 JUMPI JUMPDEST PUSH1 0x0 DUP1 REVERT JUMPDEST PUSH2 0xE7 PUSH2 0xE2 CALLDATASIZE PUSH1 0x4 PUSH2 0xB98 JUMP JUMPDEST PUSH2 0x1F2 JUMP JUMPDEST STOP JUMPDEST PUSH1 0x1 SLOAD PUSH2 0xFC SWAP1 PUSH1 0x1 PUSH1 0x1 PUSH1 0xA0 SHL SUB AND DUP2 JUMP JUMPDEST PUSH1 0x40 MLOAD PUSH1 0x1 PUSH1 0x1 PUSH1 0xA0 SHL SUB SWAP1 SWAP2 AND DUP2 MSTORE PUSH1 0x20 ADD JUMPDEST PUSH1 0x40 MLOAD DUP1 SWAP2 SUB SWAP1 RETURN JUMPDEST PUSH2 0x121 PUSH2 0x24E JUMP JUMPDEST PUSH1 0x40 MLOAD SWAP1 DUP2 MSTORE PUSH1 0x20 ADD PUSH2 0x110 JUMP JUMPDEST PUSH2 0xE7 PUSH2 0x13D CALLDATASIZE PUSH1 0x4 PUSH2 0xBBA JUMP JUMPDEST PUSH2 0x2C0 JUMP JUMPDEST PUSH2 0x121 PUSH2 0x150 CALLDATASIZE PUSH1 0x4 PUSH2 0xBE9 JUMP JUMPDEST PUSH2 0x5C3 JUMP JUMPDEST PUSH2 0xE7 PUSH2 0x163 CALLDATASIZE PUSH1 0x4 PUSH2 0xBBA JUMP JUMPDEST PUSH2 0x710 JUMP JUMPDEST PUSH1 0x2 SLOAD PUSH2 0xFC SWAP1 PUSH1 0x1 PUSH1 0x1 PUSH1 0xA0 SHL SUB AND DUP2 JUMP JUMPDEST PUSH2 0xE7 PUSH2 0x8B8 JUMP JUMPDEST PUSH2 0x196 PUSH2 0x191 CALLDATASIZE PUSH1 0x4 PUSH2 0xBBA JUMP JUMPDEST PUSH2 0x8CC JUMP JUMPDEST PUSH1 0x40 MLOAD PUSH2 0x110 SWAP5 SWAP4 SWAP3 SWAP2 SWAP1 PUSH2 0xD02 JUMP JUMPDEST PUSH1 0x0 SLOAD PUSH1 0x1 PUSH1 0x1 PUSH1 0xA0 SHL SUB AND PUSH2 0xFC JUMP JUMPDEST PUSH1 0x3 SLOAD PUSH2 0xFC SWAP1 PUSH1 0x1 PUSH1 0x1 PUSH1 0xA0 SHL SUB AND DUP2 JUMP JUMPDEST PUSH2 0xE7 PUSH2 0x1D8 CALLDATASIZE PUSH1 0x4 PUSH2 0xB98 JUMP JUMPDEST PUSH2 0x99E JUMP JUMPDEST PUSH2 0x1E5 PUSH2 0x9DC JUMP JUMPDEST PUSH1 0x40 MLOAD PUSH2 0x110 SWAP2 SWAP1 PUSH2 0xD3C JUMP JUMPDEST PUSH2 0x1FA PUSH2 0xAFF JUMP JUMPDEST PUSH1 0x3 DUP1 SLOAD PUSH1 0x1 PUSH1 0x1 PUSH1 0xA0 SHL SUB NOT AND PUSH1 0x1 PUSH1 0x1 PUSH1 0xA0 SHL SUB DUP4 AND SWAP1 DUP2 OR SWAP1 SWAP2 SSTORE PUSH1 0x40 MLOAD SWAP1 DUP2 MSTORE PUSH32 0x2BF79E6C54FA8159BD63E520BD2627B8C9F7BBA4561D8844D1F0EEB9F5684F73 SWAP1 PUSH1 0x20 ADD PUSH1 0x40 MLOAD DUP1 SWAP2 SUB SWAP1 LOG1 POP JUMP JUMPDEST PUSH1 0x1 SLOAD PUSH1 0x40 MLOAD PUSH4 0x70A08231 PUSH1 0xE0 SHL DUP2 MSTORE ADDRESS PUSH1 0x4 DUP3 ADD MSTORE PUSH1 0x0 SWAP2 PUSH1 0x1 PUSH1 0x1 PUSH1 0xA0 SHL SUB AND SWAP1 PUSH4 0x70A08231 SWAP1 PUSH1 0x24 ADD PUSH1 0x20 PUSH1 0x40 MLOAD DUP1 DUP4 SUB DUP2 DUP7 GAS STATICCALL ISZERO DUP1 ISZERO PUSH2 0x297 JUMPI RETURNDATASIZE PUSH1 0x0 DUP1 RETURNDATACOPY RETURNDATASIZE PUSH1 0x0 REVERT JUMPDEST POP POP POP POP PUSH1 0x40 MLOAD RETURNDATASIZE PUSH1 0x1F NOT PUSH1 0x1F DUP3 ADD AND DUP3 ADD DUP1 PUSH1 0x40 MSTORE POP DUP2 ADD SWAP1 PUSH2 0x2BB SWAP2 SWAP1 PUSH2 0xDD7 JUMP JUMPDEST SWAP1 POP SWAP1 JUMP JUMPDEST PUSH1 0x3 SLOAD PUSH1 0x1 PUSH1 0x1 PUSH1 0xA0 SHL SUB AND CALLER EQ PUSH2 0x31A JUMPI PUSH1 0x40 MLOAD PUSH3 0x461BCD PUSH1 0xE5 SHL DUP2 MSTORE PUSH1 0x20 PUSH1 0x4 DUP3 ADD MSTORE PUSH1 0x18 PUSH1 0x24 DUP3 ADD MSTORE PUSH24 0x13DB9B1E4819DBDD995C9B985B98D94818D85B8818D85B1B PUSH1 0x42 SHL PUSH1 0x44 DUP3 ADD MSTORE PUSH1 0x64 ADD JUMPDEST PUSH1 0x40 MLOAD DUP1 SWAP2 SUB SWAP1 REVERT JUMPDEST PUSH1 0x4 SLOAD DUP2 LT PUSH2 0x360 JUMPI PUSH1 0x40 MLOAD PUSH3 0x461BCD PUSH1 0xE5 SHL DUP2 MSTORE PUSH1 0x20 PUSH1 0x4 DUP3 ADD MSTORE PUSH1 0x12 PUSH1 0x24 DUP3 ADD MSTORE PUSH18 0x125B9D985B1A59081C185E5B595B9D081251 PUSH1 0x72 SHL PUSH1 0x44 DUP3 ADD MSTORE PUSH1 0x64 ADD PUSH2 0x311 JUMP JUMPDEST PUSH1 0x0 PUSH1 0x4 DUP3 DUP2 SLOAD DUP2 LT PUSH2 0x375 JUMPI PUSH2 0x375 PUSH2 0xDF0 JUMP JUMPDEST PUSH1 0x0 SWAP2 DUP3 MSTORE PUSH1 0x20 SWAP1 SWAP2 KECCAK256 PUSH1 0x4 SWAP1 SWAP2 MUL ADD PUSH1 0x3 DUP2 ADD SLOAD SWAP1 SWAP2 POP PUSH1 0xFF AND ISZERO PUSH2 0x3DD JUMPI PUSH1 0x40 MLOAD PUSH3 0x461BCD PUSH1 0xE5 SHL DUP2 MSTORE PUSH1 0x20 PUSH1 0x4 DUP3 ADD MSTORE PUSH1 0x18 PUSH1 0x24 DUP3 ADD MSTORE PUSH32 0x5061796D656E7420616C72656164792065786563757465640000000000000000 PUSH1 0x44 DUP3 ADD MSTORE PUSH1 0x64 ADD PUSH2 0x311 JUMP JUMPDEST PUSH1 0x1 DUP1 SLOAD SWAP1 DUP3 ADD SLOAD PUSH1 0x40 MLOAD PUSH4 0x70A08231 PUSH1 0xE0 SHL DUP2 MSTORE ADDRESS PUSH1 0x4 DUP3 ADD MSTORE PUSH1 0x1 PUSH1 0x1 PUSH1 0xA0 SHL SUB SWAP1 SWAP3 AND SWAP2 DUP3 SWAP1 PUSH4 0x70A08231 SWAP1 PUSH1 0x24 ADD PUSH1 0x20 PUSH1 0x40 MLOAD DUP1 DUP4 SUB DUP2 DUP7 GAS STATICCALL ISZERO DUP1 ISZERO PUSH2 0x42C JUMPI RETURNDATASIZE PUSH1 0x0 DUP1 RETURNDATACOPY RETURNDATASIZE PUSH1 0x0 REVERT JUMPDEST POP POP POP POP PUSH1 0x40 MLOAD RETURNDATASIZE PUSH1 0x1F NOT PUSH1 0x1F DUP3 ADD AND DUP3 ADD DUP1 PUSH1 0x40 MSTORE POP DUP2 ADD SWAP1 PUSH2 0x450 SWAP2 SWAP1 PUSH2 0xDD7 JUMP JUMPDEST LT ISZERO PUSH2 0x49E JUMPI PUSH1 0x40 MLOAD PUSH3 0x461BCD PUSH1 0xE5 SHL DUP2 MSTORE PUSH1 0x20 PUSH1 0x4 DUP3 ADD MSTORE PUSH1 0x1B PUSH1 0x24 DUP3 ADD MSTORE PUSH32 0x496E73756666696369656E742074726561737572792066756E64730000000000 PUSH1 0x44 DUP3 ADD MSTORE PUSH1 0x64 ADD PUSH2 0x311 JUMP JUMPDEST PUSH1 0x3 DUP3 ADD DUP1 SLOAD PUSH1 0xFF NOT AND PUSH1 0x1 SWAP1 DUP2 OR SWAP1 SWAP2 SSTORE DUP3 SLOAD SWAP1 DUP4 ADD SLOAD PUSH1 0x40 MLOAD PUSH4 0xA9059CBB PUSH1 0xE0 SHL DUP2 MSTORE PUSH1 0x1 PUSH1 0x1 PUSH1 0xA0 SHL SUB SWAP3 DUP4 AND PUSH1 0x4 DUP3 ADD MSTORE PUSH1 0x24 DUP2 ADD SWAP2 SWAP1 SWAP2 MSTORE SWAP1 DUP3 AND SWAP1 PUSH4 0xA9059CBB SWAP1 PUSH1 0x44 ADD PUSH1 0x20 PUSH1 0x40 MLOAD DUP1 DUP4 SUB DUP2 PUSH1 0x0 DUP8 GAS CALL ISZERO DUP1 ISZERO PUSH2 0x507 JUMPI RETURNDATASIZE PUSH1 0x0 DUP1 RETURNDATACOPY RETURNDATASIZE PUSH1 0x0 REVERT JUMPDEST POP POP POP POP PUSH1 0x40 MLOAD RETURNDATASIZE PUSH1 0x1F NOT PUSH1 0x1F DUP3 ADD AND DUP3 ADD DUP1 PUSH1 0x40 MSTORE POP DUP2 ADD SWAP1 PUSH2 0x52B SWAP2 SWAP1 PUSH2 0xE06 JUMP JUMPDEST PUSH2 0x56E JUMPI PUSH1 0x40 MLOAD PUSH3 0x461BCD PUSH1 0xE5 SHL DUP2 MSTORE PUSH1 0x20 PUSH1 0x4 DUP3 ADD MSTORE PUSH1 0x14 PUSH1 0x24 DUP3 ADD MSTORE PUSH20 0x1554D110C81D1C985B9CD9995C8819985A5B1959 PUSH1 0x62 SHL PUSH1 0x44 DUP3 ADD MSTORE PUSH1 0x64 ADD PUSH2 0x311 JUMP JUMPDEST DUP2 SLOAD PUSH1 0x1 DUP4 ADD SLOAD PUSH1 0x40 MLOAD PUSH32 0x6953FABD5AB3B7899F327AA5434EC569ED61E749FA6815574AEE51D67B344202 SWAP3 PUSH2 0x5B6 SWAP3 DUP8 SWAP3 PUSH1 0x1 PUSH1 0x1 PUSH1 0xA0 SHL SUB SWAP1 SWAP3 AND SWAP2 PUSH1 0x2 DUP9 ADD SWAP1 PUSH2 0xE62 JUMP JUMPDEST PUSH1 0x40 MLOAD DUP1 SWAP2 SUB SWAP1 LOG1 POP POP POP JUMP JUMPDEST PUSH1 0x3 SLOAD PUSH1 0x0 SWAP1 PUSH1 0x1 PUSH1 0x1 PUSH1 0xA0 SHL SUB AND CALLER EQ PUSH2 0x61B JUMPI PUSH1 0x40 MLOAD PUSH3 0x461BCD PUSH1 0xE5 SHL DUP2 MSTORE PUSH1 0x20 PUSH1 0x4 DUP3 ADD MSTORE PUSH1 0x18 PUSH1 0x24 DUP3 ADD MSTORE PUSH24 0x13DB9B1E4819DBDD995C9B985B98D94818D85B8818D85B1B PUSH1 0x42 SHL PUSH1 0x44 DUP3 ADD MSTORE PUSH1 0x64 ADD PUSH2 0x311 JUMP JUMPDEST PUSH1 0x4 DUP1 SLOAD PUSH1 0x40 DUP1 MLOAD PUSH1 0x80 DUP2 ADD DUP3 MSTORE PUSH1 0x1 PUSH1 0x1 PUSH1 0xA0 SHL SUB DUP9 DUP2 AND DUP3 MSTORE PUSH1 0x20 DUP3 ADD DUP9 DUP2 MSTORE SWAP3 DUP3 ADD DUP8 DUP2 MSTORE PUSH1 0x0 PUSH1 0x60 DUP5 ADD DUP2 SWAP1 MSTORE PUSH1 0x1 DUP7 ADD DUP8 SSTORE DUP7 SWAP1 MSTORE DUP3 MLOAD PUSH32 0x8A35ACFBC15FF81A39AE7D344FD709F28E8600B4AA8C65C6B64BFE7FE36BD19B SWAP7 DUP7 MUL SWAP7 DUP8 ADD DUP1 SLOAD PUSH1 0x1 PUSH1 0x1 PUSH1 0xA0 SHL SUB NOT AND SWAP2 SWAP1 SWAP4 AND OR DUP3 SSTORE SWAP3 MLOAD PUSH32 0x8A35ACFBC15FF81A39AE7D344FD709F28E8600B4AA8C65C6B64BFE7FE36BD19C DUP7 ADD SSTORE SWAP2 MLOAD SWAP3 SWAP4 SWAP1 SWAP3 PUSH32 0x8A35ACFBC15FF81A39AE7D344FD709F28E8600B4AA8C65C6B64BFE7FE36BD19D SWAP1 SWAP2 ADD SWAP1 PUSH2 0x6EC SWAP1 DUP3 PUSH2 0xF5E JUMP JUMPDEST POP PUSH1 0x60 SWAP2 SWAP1 SWAP2 ADD MLOAD PUSH1 0x3 SWAP1 SWAP2 ADD DUP1 SLOAD PUSH1 0xFF NOT AND SWAP2 ISZERO ISZERO SWAP2 SWAP1 SWAP2 OR SWAP1 SSTORE SWAP5 SWAP4 POP POP POP POP JUMP JUMPDEST PUSH1 0x2 SLOAD PUSH1 0x40 MLOAD PUSH4 0x288C3149 PUSH1 0xE2 SHL DUP2 MSTORE CALLER PUSH1 0x4 DUP3 ADD MSTORE PUSH1 0x1 PUSH1 0x1 PUSH1 0xA0 SHL SUB SWAP1 SWAP2 AND SWAP1 PUSH4 0xA230C524 SWAP1 PUSH1 0x24 ADD PUSH1 0x20 PUSH1 0x40 MLOAD DUP1 DUP4 SUB DUP2 DUP7 GAS STATICCALL ISZERO DUP1 ISZERO PUSH2 0x758 JUMPI RETURNDATASIZE PUSH1 0x0 DUP1 RETURNDATACOPY RETURNDATASIZE PUSH1 0x0 REVERT JUMPDEST POP POP POP POP PUSH1 0x40 MLOAD RETURNDATASIZE PUSH1 0x1F NOT PUSH1 0x1F DUP3 ADD AND DUP3 ADD DUP1 PUSH1 0x40 MSTORE POP DUP2 ADD SWAP1 PUSH2 0x77C SWAP2 SWAP1 PUSH2 0xE06 JUMP JUMPDEST PUSH2 0x7BB JUMPI PUSH1 0x40 MLOAD PUSH3 0x461BCD PUSH1 0xE5 SHL DUP2 MSTORE PUSH1 0x20 PUSH1 0x4 DUP3 ADD MSTORE PUSH1 0x10 PUSH1 0x24 DUP3 ADD MSTORE PUSH16 0x2737BA1030902220A79036B2B6B132B9 PUSH1 0x81 SHL PUSH1 0x44 DUP3 ADD MSTORE PUSH1 0x64 ADD PUSH2 0x311 JUMP JUMPDEST PUSH1 0x1 SLOAD PUSH1 0x40 MLOAD PUSH4 0x23B872DD PUSH1 0xE0 SHL DUP2 MSTORE CALLER PUSH1 0x4 DUP3 ADD MSTORE ADDRESS PUSH1 0x24 DUP3 ADD MSTORE PUSH1 0x44 DUP2 ADD DUP4 SWAP1 MSTORE PUSH1 0x1 PUSH1 0x1 PUSH1 0xA0 SHL SUB SWAP1 SWAP2 AND SWAP1 DUP2 SWAP1 PUSH4 0x23B872DD SWAP1 PUSH1 0x64 ADD PUSH1 0x20 PUSH1 0x40 MLOAD DUP1 DUP4 SUB DUP2 PUSH1 0x0 DUP8 GAS CALL ISZERO DUP1 ISZERO PUSH2 0x814 JUMPI RETURNDATASIZE PUSH1 0x0 DUP1 RETURNDATACOPY RETURNDATASIZE PUSH1 0x0 REVERT JUMPDEST POP POP POP POP PUSH1 0x40 MLOAD RETURNDATASIZE PUSH1 0x1F NOT PUSH1 0x1F DUP3 ADD AND DUP3 ADD DUP1 PUSH1 0x40 MSTORE POP DUP2 ADD SWAP1 PUSH2 0x838 SWAP2 SWAP1 PUSH2 0xE06 JUMP JUMPDEST PUSH2 0x87B JUMPI PUSH1 0x40 MLOAD PUSH3 0x461BCD PUSH1 0xE5 SHL DUP2 MSTORE PUSH1 0x20 PUSH1 0x4 DUP3 ADD MSTORE PUSH1 0x14 PUSH1 0x24 DUP3 ADD MSTORE PUSH20 0x1554D110C81D1C985B9CD9995C8819985A5B1959 PUSH1 0x62 SHL PUSH1 0x44 DUP3 ADD MSTORE PUSH1 0x64 ADD PUSH2 0x311 JUMP JUMPDEST PUSH1 0x40 DUP1 MLOAD CALLER DUP2 MSTORE PUSH1 0x20 DUP2 ADD DUP5 SWAP1 MSTORE PUSH32 0x8E47B87B0EF542CDFA1659C551D88BAD38AA7F452D2BBB349AB7530DFEC8BE8F SWAP2 ADD PUSH1 0x40 MLOAD DUP1 SWAP2 SUB SWAP1 LOG1 POP POP JUMP JUMPDEST PUSH2 0x8C0 PUSH2 0xAFF JUMP JUMPDEST PUSH2 0x8CA PUSH1 0x0 PUSH2 0xB2C JUMP JUMPDEST JUMP JUMPDEST PUSH1 0x4 DUP2 DUP2 SLOAD DUP2 LT PUSH2 0x8DC JUMPI PUSH1 0x0 DUP1 REVERT JUMPDEST PUSH1 0x0 SWAP2 DUP3 MSTORE PUSH1 0x20 SWAP1 SWAP2 KECCAK256 PUSH1 0x4 SWAP1 SWAP2 MUL ADD DUP1 SLOAD PUSH1 0x1 DUP3 ADD SLOAD PUSH1 0x2 DUP4 ADD DUP1 SLOAD PUSH1 0x1 PUSH1 0x1 PUSH1 0xA0 SHL SUB SWAP1 SWAP4 AND SWAP5 POP SWAP1 SWAP3 SWAP2 PUSH2 0x912 SWAP1 PUSH2 0xE28 JUMP JUMPDEST DUP1 PUSH1 0x1F ADD PUSH1 0x20 DUP1 SWAP2 DIV MUL PUSH1 0x20 ADD PUSH1 0x40 MLOAD SWAP1 DUP2 ADD PUSH1 0x40 MSTORE DUP1 SWAP3 SWAP2 SWAP1 DUP2 DUP2 MSTORE PUSH1 0x20 ADD DUP3 DUP1 SLOAD PUSH2 0x93E SWAP1 PUSH2 0xE28 JUMP JUMPDEST DUP1 ISZERO PUSH2 0x98B JUMPI DUP1 PUSH1 0x1F LT PUSH2 0x960 JUMPI PUSH2 0x100 DUP1 DUP4 SLOAD DIV MUL DUP4 MSTORE SWAP2 PUSH1 0x20 ADD SWAP2 PUSH2 0x98B JUMP JUMPDEST DUP3 ADD SWAP2 SWAP1 PUSH1 0x0 MSTORE PUSH1 0x20 PUSH1 0x0 KECCAK256 SWAP1 JUMPDEST DUP2 SLOAD DUP2 MSTORE SWAP1 PUSH1 0x1 ADD SWAP1 PUSH1 0x20 ADD DUP1 DUP4 GT PUSH2 0x96E JUMPI DUP3 SWAP1 SUB PUSH1 0x1F AND DUP3 ADD SWAP2 JUMPDEST POP POP POP PUSH1 0x3 SWAP1 SWAP4 ADD SLOAD SWAP2 SWAP3 POP POP PUSH1 0xFF AND DUP5 JUMP JUMPDEST PUSH2 0x9A6 PUSH2 0xAFF JUMP JUMPDEST PUSH1 0x1 PUSH1 0x1 PUSH1 0xA0 SHL SUB DUP2 AND PUSH2 0x9D0 JUMPI PUSH1 0x40 MLOAD PUSH4 0x1E4FBDF7 PUSH1 0xE0 SHL DUP2 MSTORE PUSH1 0x0 PUSH1 0x4 DUP3 ADD MSTORE PUSH1 0x24 ADD PUSH2 0x311 JUMP JUMPDEST PUSH2 0x9D9 DUP2 PUSH2 0xB2C JUMP JUMPDEST POP JUMP JUMPDEST PUSH1 0x60 PUSH1 0x4 DUP1 SLOAD DUP1 PUSH1 0x20 MUL PUSH1 0x20 ADD PUSH1 0x40 MLOAD SWAP1 DUP2 ADD PUSH1 0x40 MSTORE DUP1 SWAP3 SWAP2 SWAP1 DUP2 DUP2 MSTORE PUSH1 0x20 ADD PUSH1 0x0 SWAP1 JUMPDEST DUP3 DUP3 LT ISZERO PUSH2 0xAF6 JUMPI PUSH1 0x0 DUP5 DUP2 MSTORE PUSH1 0x20 SWAP1 DUP2 SWAP1 KECCAK256 PUSH1 0x40 DUP1 MLOAD PUSH1 0x80 DUP2 ADD DUP3 MSTORE PUSH1 0x4 DUP7 MUL SWAP1 SWAP3 ADD DUP1 SLOAD PUSH1 0x1 PUSH1 0x1 PUSH1 0xA0 SHL SUB AND DUP4 MSTORE PUSH1 0x1 DUP2 ADD SLOAD SWAP4 DUP4 ADD SWAP4 SWAP1 SWAP4 MSTORE PUSH1 0x2 DUP4 ADD DUP1 SLOAD SWAP3 SWAP4 SWAP3 SWAP2 DUP5 ADD SWAP2 PUSH2 0xA53 SWAP1 PUSH2 0xE28 JUMP JUMPDEST DUP1 PUSH1 0x1F ADD PUSH1 0x20 DUP1 SWAP2 DIV MUL PUSH1 0x20 ADD PUSH1 0x40 MLOAD SWAP1 DUP2 ADD PUSH1 0x40 MSTORE DUP1 SWAP3 SWAP2 SWAP1 DUP2 DUP2 MSTORE PUSH1 0x20 ADD DUP3 DUP1 SLOAD PUSH2 0xA7F SWAP1 PUSH2 0xE28 JUMP JUMPDEST DUP1 ISZERO PUSH2 0xACC JUMPI DUP1 PUSH1 0x1F LT PUSH2 0xAA1 JUMPI PUSH2 0x100 DUP1 DUP4 SLOAD DIV MUL DUP4 MSTORE SWAP2 PUSH1 0x20 ADD SWAP2 PUSH2 0xACC JUMP JUMPDEST DUP3 ADD SWAP2 SWAP1 PUSH1 0x0 MSTORE PUSH1 0x20 PUSH1 0x0 KECCAK256 SWAP1 JUMPDEST DUP2 SLOAD DUP2 MSTORE SWAP1 PUSH1 0x1 ADD SWAP1 PUSH1 0x20 ADD DUP1 DUP4 GT PUSH2 0xAAF JUMPI DUP3 SWAP1 SUB PUSH1 0x1F AND DUP3 ADD SWAP2 JUMPDEST POP POP POP SWAP2 DUP4 MSTORE POP POP PUSH1 0x3 SWAP2 SWAP1 SWAP2 ADD SLOAD PUSH1 0xFF AND ISZERO ISZERO PUSH1 0x20 SWAP2 DUP3 ADD MSTORE SWAP1 DUP3 MSTORE PUSH1 0x1 SWAP3 SWAP1 SWAP3 ADD SWAP2 ADD PUSH2 0xA00 JUMP JUMPDEST POP POP POP POP SWAP1 POP SWAP1 JUMP JUMPDEST PUSH1 0x0 SLOAD PUSH1 0x1 PUSH1 0x1 PUSH1 0xA0 SHL SUB AND CALLER EQ PUSH2 0x8CA JUMPI PUSH1 0x40 MLOAD PUSH4 0x118CDAA7 PUSH1 0xE0 SHL DUP2 MSTORE CALLER PUSH1 0x4 DUP3 ADD MSTORE PUSH1 0x24 ADD PUSH2 0x311 JUMP JUMPDEST PUSH1 0x0 DUP1 SLOAD PUSH1 0x1 PUSH1 0x1 PUSH1 0xA0 SHL SUB DUP4 DUP2 AND PUSH1 0x1 PUSH1 0x1 PUSH1 0xA0 SHL SUB NOT DUP4 AND DUP2 OR DUP5 SSTORE PUSH1 0x40 MLOAD SWAP2 SWAP1 SWAP3 AND SWAP3 DUP4 SWAP2 PUSH32 0x8BE0079C531659141344CD1FD0A4F28419497F9722A3DAAFE3B4186F6B6457E0 SWAP2 SWAP1 LOG3 POP POP JUMP JUMPDEST DUP1 CALLDATALOAD PUSH1 0x1 PUSH1 0x1 PUSH1 0xA0 SHL SUB DUP2 AND DUP2 EQ PUSH2 0xB93 JUMPI PUSH1 0x0 DUP1 REVERT JUMPDEST SWAP2 SWAP1 POP JUMP JUMPDEST PUSH1 0x0 PUSH1 0x20 DUP3 DUP5 SUB SLT ISZERO PUSH2 0xBAA JUMPI PUSH1 0x0 DUP1 REVERT JUMPDEST PUSH2 0xBB3 DUP3 PUSH2 0xB7C JUMP JUMPDEST SWAP4 SWAP3 POP POP POP JUMP JUMPDEST PUSH1 0x0 PUSH1 0x20 DUP3 DUP5 SUB SLT ISZERO PUSH2 0xBCC JUMPI PUSH1 0x0 DUP1 REVERT JUMPDEST POP CALLDATALOAD SWAP2 SWAP1 POP JUMP JUMPDEST PUSH4 0x4E487B71 PUSH1 0xE0 SHL PUSH1 0x0 MSTORE PUSH1 0x41 PUSH1 0x4 MSTORE PUSH1 0x24 PUSH1 0x0 REVERT JUMPDEST PUSH1 0x0 DUP1 PUSH1 0x0 PUSH1 0x60 DUP5 DUP7 SUB SLT ISZERO PUSH2 0xBFE JUMPI PUSH1 0x0 DUP1 REVERT JUMPDEST PUSH2 0xC07 DUP5 PUSH2 0xB7C JUMP JUMPDEST SWAP3 POP PUSH1 0x20 DUP5 ADD CALLDATALOAD SWAP2 POP PUSH1 0x40 DUP5 ADD CALLDATALOAD PUSH8 0xFFFFFFFFFFFFFFFF DUP2 GT ISZERO PUSH2 0xC2A JUMPI PUSH1 0x0 DUP1 REVERT JUMPDEST DUP5 ADD PUSH1 0x1F DUP2 ADD DUP7 SGT PUSH2 0xC3B JUMPI PUSH1 0x0 DUP1 REVERT JUMPDEST DUP1 CALLDATALOAD PUSH8 0xFFFFFFFFFFFFFFFF DUP2 GT ISZERO PUSH2 0xC55 JUMPI PUSH2 0xC55 PUSH2 0xBD3 JUMP JUMPDEST PUSH1 0x40 MLOAD PUSH1 0x1F DUP3 ADD PUSH1 0x1F NOT SWAP1 DUP2 AND PUSH1 0x3F ADD AND DUP2 ADD PUSH8 0xFFFFFFFFFFFFFFFF DUP2 GT DUP3 DUP3 LT OR ISZERO PUSH2 0xC84 JUMPI PUSH2 0xC84 PUSH2 0xBD3 JUMP JUMPDEST PUSH1 0x40 MSTORE DUP2 DUP2 MSTORE DUP3 DUP3 ADD PUSH1 0x20 ADD DUP9 LT ISZERO PUSH2 0xC9C JUMPI PUSH1 0x0 DUP1 REVERT JUMPDEST DUP2 PUSH1 0x20 DUP5 ADD PUSH1 0x20 DUP4 ADD CALLDATACOPY PUSH1 0x0 PUSH1 0x20 DUP4 DUP4 ADD ADD MSTORE DUP1 SWAP4 POP POP POP POP SWAP3 POP SWAP3 POP SWAP3 JUMP JUMPDEST PUSH1 0x0 DUP2 MLOAD DUP1 DUP5 MSTORE PUSH1 0x0 JUMPDEST DUP2 DUP2 LT ISZERO PUSH2 0xCE2 JUMPI PUSH1 0x20 DUP2 DUP6 ADD DUP2 ADD MLOAD DUP7 DUP4 ADD DUP3 ADD MSTORE ADD PUSH2 0xCC6 JUMP JUMPDEST POP PUSH1 0x0 PUSH1 0x20 DUP3 DUP7 ADD ADD MSTORE PUSH1 0x20 PUSH1 0x1F NOT PUSH1 0x1F DUP4 ADD AND DUP6 ADD ADD SWAP2 POP POP SWAP3 SWAP2 POP POP JUMP JUMPDEST PUSH1 0x1 DUP1 PUSH1 0xA0 SHL SUB DUP6 AND DUP2 MSTORE DUP4 PUSH1 0x20 DUP3 ADD MSTORE PUSH1 0x80 PUSH1 0x40 DUP3 ADD MSTORE PUSH1 0x0 PUSH2 0xD29 PUSH1 0x80 DUP4 ADD DUP6 PUSH2 0xCBC JUMP JUMPDEST SWAP1 POP DUP3 ISZERO ISZERO PUSH1 0x60 DUP4 ADD MSTORE SWAP6 SWAP5 POP POP POP POP POP JUMP JUMPDEST PUSH1 0x0 PUSH1 0x20 DUP3 ADD PUSH1 0x20 DUP4 MSTORE DUP1 DUP5 MLOAD DUP1 DUP4 MSTORE PUSH1 0x40 DUP6 ADD SWAP2 POP PUSH1 0x40 DUP2 PUSH1 0x5 SHL DUP7 ADD ADD SWAP3 POP PUSH1 0x20 DUP7 ADD PUSH1 0x0 JUMPDEST DUP3 DUP2 LT ISZERO PUSH2 0xDCB JUMPI PUSH1 0x3F NOT DUP8 DUP7 SUB ADD DUP5 MSTORE DUP2 MLOAD PUSH1 0x1 DUP1 PUSH1 0xA0 SHL SUB DUP2 MLOAD AND DUP7 MSTORE PUSH1 0x20 DUP2 ADD MLOAD PUSH1 0x20 DUP8 ADD MSTORE PUSH1 0x40 DUP2 ADD MLOAD PUSH1 0x80 PUSH1 0x40 DUP9 ADD MSTORE PUSH2 0xDA6 PUSH1 0x80 DUP9 ADD DUP3 PUSH2 0xCBC JUMP JUMPDEST PUSH1 0x60 SWAP3 DUP4 ADD MLOAD ISZERO ISZERO SWAP8 SWAP1 SWAP3 ADD SWAP7 SWAP1 SWAP7 MSTORE SWAP5 POP PUSH1 0x20 SWAP4 DUP5 ADD SWAP4 SWAP2 SWAP1 SWAP2 ADD SWAP1 PUSH1 0x1 ADD PUSH2 0xD64 JUMP JUMPDEST POP SWAP3 SWAP7 SWAP6 POP POP POP POP POP POP JUMP JUMPDEST PUSH1 0x0 PUSH1 0x20 DUP3 DUP5 SUB SLT ISZERO PUSH2 0xDE9 JUMPI PUSH1 0x0 DUP1 REVERT JUMPDEST POP MLOAD SWAP2 SWAP1 POP JUMP JUMPDEST PUSH4 0x4E487B71 PUSH1 0xE0 SHL PUSH1 0x0 MSTORE PUSH1 0x32 PUSH1 0x4 MSTORE PUSH1 0x24 PUSH1 0x0 REVERT JUMPDEST PUSH1 0x0 PUSH1 0x20 DUP3 DUP5 SUB SLT ISZERO PUSH2 0xE18 JUMPI PUSH1 0x0 DUP1 REVERT JUMPDEST DUP2 MLOAD DUP1 ISZERO ISZERO DUP2 EQ PUSH2 0xBB3 JUMPI PUSH1 0x0 DUP1 REVERT JUMPDEST PUSH1 0x1 DUP2 DUP2 SHR SWAP1 DUP3 AND DUP1 PUSH2 0xE3C JUMPI PUSH1 0x7F DUP3 AND SWAP2 POP JUMPDEST PUSH1 0x20 DUP3 LT DUP2 SUB PUSH2 0xE5C JUMPI PUSH4 0x4E487B71 PUSH1 0xE0 SHL PUSH1 0x0 MSTORE PUSH1 0x22 PUSH1 0x4 MSTORE PUSH1 0x24 PUSH1 0x0 REVERT JUMPDEST POP SWAP2 SWAP1 POP JUMP JUMPDEST DUP5 DUP2 MSTORE PUSH1 0x1 PUSH1 0x1 PUSH1 0xA0 SHL SUB DUP5 AND PUSH1 0x20 DUP3 ADD MSTORE PUSH1 0x40 DUP2 ADD DUP4 SWAP1 MSTORE PUSH1 0x80 PUSH1 0x60 DUP3 ADD MSTORE DUP2 SLOAD PUSH1 0x0 SWAP1 DUP2 SWAP1 PUSH2 0xE92 DUP2 PUSH2 0xE28 JUMP JUMPDEST DUP1 PUSH1 0x80 DUP7 ADD MSTORE PUSH1 0x1 DUP3 AND PUSH1 0x0 DUP2 EQ PUSH2 0xEB1 JUMPI PUSH1 0x1 DUP2 EQ PUSH2 0xECD JUMPI PUSH2 0xF01 JUMP JUMPDEST PUSH1 0xFF NOT DUP4 AND PUSH1 0xA0 DUP8 ADD MSTORE PUSH1 0xA0 DUP3 ISZERO ISZERO PUSH1 0x5 SHL DUP8 ADD ADD SWAP4 POP PUSH2 0xF01 JUMP JUMPDEST DUP7 PUSH1 0x0 MSTORE PUSH1 0x20 PUSH1 0x0 KECCAK256 PUSH1 0x0 JUMPDEST DUP4 DUP2 LT ISZERO PUSH2 0xEF8 JUMPI DUP2 SLOAD DUP9 DUP3 ADD PUSH1 0xA0 ADD MSTORE PUSH1 0x1 SWAP1 SWAP2 ADD SWAP1 PUSH1 0x20 ADD PUSH2 0xED9 JUMP JUMPDEST DUP8 ADD PUSH1 0xA0 ADD SWAP5 POP POP JUMPDEST POP SWAP2 SWAP9 SWAP8 POP POP POP POP POP POP POP POP JUMP JUMPDEST PUSH1 0x1F DUP3 GT ISZERO PUSH2 0xF59 JUMPI DUP1 PUSH1 0x0 MSTORE PUSH1 0x20 PUSH1 0x0 KECCAK256 PUSH1 0x1F DUP5 ADD PUSH1 0x5 SHR DUP2 ADD PUSH1 0x20 DUP6 LT ISZERO PUSH2 0xF36 JUMPI POP DUP1 JUMPDEST PUSH1 0x1F DUP5 ADD PUSH1 0x5 SHR DUP3 ADD SWAP2 POP JUMPDEST DUP2 DUP2 LT ISZERO PUSH2 0xF56 JUMPI PUSH1 0x0 DUP2 SSTORE PUSH1 0x1 ADD PUSH2 0xF42 JUMP JUMPDEST POP POP JUMPDEST POP POP POP JUMP JUMPDEST DUP2 MLOAD PUSH8 0xFFFFFFFFFFFFFFFF DUP2 GT ISZERO PUSH2 0xF78 JUMPI PUSH2 0xF78 PUSH2 0xBD3 JUMP JUMPDEST PUSH2 0xF8C DUP2 PUSH2 0xF86 DUP5 SLOAD PUSH2 0xE28 JUMP JUMPDEST DUP5 PUSH2 0xF0F JUMP JUMPDEST PUSH1 0x20 PUSH1 0x1F DUP3 GT PUSH1 0x1 DUP2 EQ PUSH2 0xFC0 JUMPI PUSH1 0x0 DUP4 ISZERO PUSH2 0xFA8 JUMPI POP DUP5 DUP3 ADD MLOAD JUMPDEST PUSH1 0x0 NOT PUSH1 0x3 DUP6 SWAP1 SHL SHR NOT AND PUSH1 0x1 DUP5 SWAP1 SHL OR DUP5 SSTORE PUSH2 0xF56 JUMP JUMPDEST PUSH1 0x0 DUP5 DUP2 MSTORE PUSH1 0x20 DUP2 KECCAK256 PUSH1 0x1F NOT DUP6 AND SWAP2 JUMPDEST DUP3 DUP2 LT ISZERO PUSH2 0xFF0 JUMPI DUP8 DUP6 ADD MLOAD DUP3 SSTORE PUSH1 0x20 SWAP5 DUP6 ADD SWAP5 PUSH1 0x1 SWAP1 SWAP3 ADD SWAP2 ADD PUSH2 0xFD0 JUMP JUMPDEST POP DUP5 DUP3 LT ISZERO PUSH2 0x100E JUMPI DUP7 DUP5 ADD MLOAD PUSH1 0x0 NOT PUSH1 0x3 DUP8 SWAP1 SHL PUSH1 0xF8 AND SHR NOT AND DUP2 SSTORE JUMPDEST POP POP POP POP PUSH1 0x1 SWAP1 DUP2 SHL ADD SWAP1 SSTORE POP JUMP INVALID LOG2 PUSH5 0x6970667358 0x22 SLT KECCAK256 0xB1 PUSH13 0x57A3F9DE97220122F58F5BED7D ADDMOD PUSH30 0x1715684DF109A9A0A25F7B1446CF4F64736F6C634300081A003360806040 MSTORE CALLVALUE DUP1 ISZERO PUSH2 0x10 JUMPI PUSH1 0x0 DUP1 REVERT JUMPDEST POP PUSH1 0x40 MLOAD PUSH2 0x1617 CODESIZE SUB DUP1 PUSH2 0x1617 DUP4 CODECOPY DUP2 ADD PUSH1 0x40 DUP2 SWAP1 MSTORE PUSH2 0x2F SWAP2 PUSH2 0x11A JUMP JUMPDEST DUP1 PUSH1 0x1 PUSH1 0x1 PUSH1 0xA0 SHL SUB DUP2 AND PUSH2 0x5E JUMPI PUSH1 0x40 MLOAD PUSH4 0x1E4FBDF7 PUSH1 0xE0 SHL DUP2 MSTORE PUSH1 0x0 PUSH1 0x4 DUP3 ADD MSTORE PUSH1 0x24 ADD PUSH1 0x40 MLOAD DUP1 SWAP2 SUB SWAP1 REVERT JUMPDEST PUSH2 0x67 DUP2 PUSH2 0xAE JUMP JUMPDEST POP POP PUSH1 0x1 DUP1 SLOAD PUSH1 0x1 PUSH1 0x1 PUSH1 0xA0 SHL SUB NOT SWAP1 DUP2 AND PUSH1 0x1 PUSH1 0x1 PUSH1 0xA0 SHL SUB SWAP7 DUP8 AND OR SWAP1 SWAP2 SSTORE PUSH1 0x2 DUP1 SLOAD DUP3 AND SWAP5 DUP7 AND SWAP5 SWAP1 SWAP5 OR SWAP1 SWAP4 SSTORE PUSH1 0x3 DUP1 SLOAD SWAP1 SWAP4 AND SWAP2 SWAP1 SWAP4 AND OR SWAP1 SSTORE PUSH1 0x4 SSTORE PUSH2 0x178 JUMP JUMPDEST PUSH1 0x0 DUP1 SLOAD PUSH1 0x1 PUSH1 0x1 PUSH1 0xA0 SHL SUB DUP4 DUP2 AND PUSH1 0x1 PUSH1 0x1 PUSH1 0xA0 SHL SUB NOT DUP4 AND DUP2 OR DUP5 SSTORE PUSH1 0x40 MLOAD SWAP2 SWAP1 SWAP3 AND SWAP3 DUP4 SWAP2 PUSH32 0x8BE0079C531659141344CD1FD0A4F28419497F9722A3DAAFE3B4186F6B6457E0 SWAP2 SWAP1 LOG3 POP POP JUMP JUMPDEST DUP1 MLOAD PUSH1 0x1 PUSH1 0x1 PUSH1 0xA0 SHL SUB DUP2 AND DUP2 EQ PUSH2 0x115 JUMPI PUSH1 0x0 DUP1 REVERT JUMPDEST SWAP2 SWAP1 POP JUMP JUMPDEST PUSH1 0x0 DUP1 PUSH1 0x0 DUP1 PUSH1 0x0 PUSH1 0xA0 DUP7 DUP9 SUB SLT ISZERO PUSH2 0x132 JUMPI PUSH1 0x0 DUP1 REVERT JUMPDEST PUSH2 0x13B DUP7 PUSH2 0xFE JUMP JUMPDEST SWAP5 POP PUSH2 0x149 PUSH1 0x20 DUP8 ADD PUSH2 0xFE JUMP JUMPDEST SWAP4 POP PUSH2 0x157 PUSH1 0x40 DUP8 ADD PUSH2 0xFE JUMP JUMPDEST SWAP3 POP PUSH1 0x60 DUP7 ADD MLOAD SWAP2 POP PUSH2 0x16C PUSH1 0x80 DUP8 ADD PUSH2 0xFE JUMP JUMPDEST SWAP1 POP SWAP3 SWAP6 POP SWAP3 SWAP6 SWAP1 SWAP4 POP JUMP JUMPDEST PUSH2 0x1490 DUP1 PUSH2 0x187 PUSH1 0x0 CODECOPY PUSH1 0x0 RETURN INVALID PUSH1 0x80 PUSH1 0x40 MSTORE CALLVALUE DUP1 ISZERO PUSH2 0x10 JUMPI PUSH1 0x0 DUP1 REVERT JUMPDEST POP PUSH1 0x4 CALLDATASIZE LT PUSH2 0xF5 JUMPI PUSH1 0x0 CALLDATALOAD PUSH1 0xE0 SHR DUP1 PUSH4 0x57AD6279 GT PUSH2 0x97 JUMPI DUP1 PUSH4 0xC08CC02D GT PUSH2 0x66 JUMPI DUP1 PUSH4 0xC08CC02D EQ PUSH2 0x20C JUMPI DUP1 PUSH4 0xC7F758A8 EQ PUSH2 0x214 JUMPI DUP1 PUSH4 0xC9D27AFE EQ PUSH2 0x234 JUMPI DUP1 PUSH4 0xF2FDE38B EQ PUSH2 0x247 JUMPI PUSH1 0x0 DUP1 REVERT JUMPDEST DUP1 PUSH4 0x57AD6279 EQ PUSH2 0x1D7 JUMPI DUP1 PUSH4 0x715018A6 EQ PUSH2 0x1EA JUMPI DUP1 PUSH4 0x8DA5CB5B EQ PUSH2 0x1F2 JUMPI DUP1 PUSH4 0xB58131B0 EQ PUSH2 0x203 JUMPI PUSH1 0x0 DUP1 REVERT JUMPDEST DUP1 PUSH4 0x1EFF4322 GT PUSH2 0xD3 JUMPI DUP1 PUSH4 0x1EFF4322 EQ PUSH2 0x16B JUMPI DUP1 PUSH4 0x43859632 EQ PUSH2 0x18C JUMPI DUP1 PUSH4 0x51EC8D1E EQ PUSH2 0x1AF JUMPI DUP1 PUSH4 0x5652077C EQ PUSH2 0x1C2 JUMPI PUSH1 0x0 DUP1 REVERT JUMPDEST DUP1 PUSH4 0x13CF08B EQ PUSH2 0xFA JUMPI DUP1 PUSH4 0x11EAC855 EQ PUSH2 0x12D JUMPI DUP1 PUSH4 0x18DA0011 EQ PUSH2 0x158 JUMPI JUMPDEST PUSH1 0x0 DUP1 REVERT JUMPDEST PUSH2 0x10D PUSH2 0x108 CALLDATASIZE PUSH1 0x4 PUSH2 0xDBE JUMP JUMPDEST PUSH2 0x25A JUMP JUMPDEST PUSH1 0x40 MLOAD PUSH2 0x124 SWAP12 SWAP11 SWAP10 SWAP9 SWAP8 SWAP7 SWAP6 SWAP5 SWAP4 SWAP3 SWAP2 SWAP1 PUSH2 0xE55 JUMP JUMPDEST PUSH1 0x40 MLOAD DUP1 SWAP2 SUB SWAP1 RETURN JUMPDEST PUSH1 0x1 SLOAD PUSH2 0x140 SWAP1 PUSH1 0x1 PUSH1 0x1 PUSH1 0xA0 SHL SUB AND DUP2 JUMP JUMPDEST PUSH1 0x40 MLOAD PUSH1 0x1 PUSH1 0x1 PUSH1 0xA0 SHL SUB SWAP1 SWAP2 AND DUP2 MSTORE PUSH1 0x20 ADD PUSH2 0x124 JUMP JUMPDEST PUSH1 0x3 SLOAD PUSH2 0x140 SWAP1 PUSH1 0x1 PUSH1 0x1 PUSH1 0xA0 SHL SUB AND DUP2 JUMP JUMPDEST PUSH2 0x17E PUSH2 0x179 CALLDATASIZE PUSH1 0x4 PUSH2 0xF9F JUMP JUMPDEST PUSH2 0x3D8 JUMP JUMPDEST PUSH1 0x40 MLOAD SWAP1 DUP2 MSTORE PUSH1 0x20 ADD PUSH2 0x124 JUMP JUMPDEST PUSH2 0x19F PUSH2 0x19A CALLDATASIZE PUSH1 0x4 PUSH2 0x102A JUMP JUMPDEST PUSH2 0x575 JUMP JUMPDEST PUSH1 0x40 MLOAD SWAP1 ISZERO ISZERO DUP2 MSTORE PUSH1 0x20 ADD PUSH2 0x124 JUMP JUMPDEST PUSH1 0x2 SLOAD PUSH2 0x140 SWAP1 PUSH1 0x1 PUSH1 0x1 PUSH1 0xA0 SHL SUB AND DUP2 JUMP JUMPDEST PUSH2 0x1D5 PUSH2 0x1D0 CALLDATASIZE PUSH1 0x4 PUSH2 0xDBE JUMP JUMPDEST PUSH2 0x5A5 JUMP JUMPDEST STOP JUMPDEST PUSH2 0x1D5 PUSH2 0x1E5 CALLDATASIZE PUSH1 0x4 PUSH2 0xDBE JUMP JUMPDEST PUSH2 0x68F JUMP JUMPDEST PUSH2 0x1D5 PUSH2 0x6D2 JUMP JUMPDEST PUSH1 0x0 SLOAD PUSH1 0x1 PUSH1 0x1 PUSH1 0xA0 SHL SUB AND PUSH2 0x140 JUMP JUMPDEST PUSH2 0x17E PUSH1 0x4 SLOAD DUP2 JUMP JUMPDEST PUSH1 0x5 SLOAD PUSH2 0x17E JUMP JUMPDEST PUSH2 0x227 PUSH2 0x222 CALLDATASIZE PUSH1 0x4 PUSH2 0xDBE JUMP JUMPDEST PUSH2 0x6E6 JUMP JUMPDEST PUSH1 0x40 MLOAD PUSH2 0x124 SWAP2 SWAP1 PUSH2 0x1056 JUMP JUMPDEST PUSH2 0x1D5 PUSH2 0x242 CALLDATASIZE PUSH1 0x4 PUSH2 0x1138 JUMP JUMPDEST PUSH2 0x8D2 JUMP JUMPDEST PUSH2 0x1D5 PUSH2 0x255 CALLDATASIZE PUSH1 0x4 PUSH2 0x1168 JUMP JUMPDEST PUSH2 0xB64 JUMP JUMPDEST PUSH1 0x6 PUSH1 0x20 MSTORE PUSH1 0x0 SWAP1 DUP2 MSTORE PUSH1 0x40 SWAP1 KECCAK256 DUP1 SLOAD PUSH1 0x1 DUP3 ADD SLOAD PUSH1 0x2 DUP4 ADD DUP1 SLOAD SWAP3 SWAP4 PUSH1 0x1 PUSH1 0x1 PUSH1 0xA0 SHL SUB SWAP1 SWAP3 AND SWAP3 PUSH2 0x28C SWAP1 PUSH2 0x118A JUMP JUMPDEST DUP1 PUSH1 0x1F ADD PUSH1 0x20 DUP1 SWAP2 DIV MUL PUSH1 0x20 ADD PUSH1 0x40 MLOAD SWAP1 DUP2 ADD PUSH1 0x40 MSTORE DUP1 SWAP3 SWAP2 SWAP1 DUP2 DUP2 MSTORE PUSH1 0x20 ADD DUP3 DUP1 SLOAD PUSH2 0x2B8 SWAP1 PUSH2 0x118A JUMP JUMPDEST DUP1 ISZERO PUSH2 0x305 JUMPI DUP1 PUSH1 0x1F LT PUSH2 0x2DA JUMPI PUSH2 0x100 DUP1 DUP4 SLOAD DIV MUL DUP4 MSTORE SWAP2 PUSH1 0x20 ADD SWAP2 PUSH2 0x305 JUMP JUMPDEST DUP3 ADD SWAP2 SWAP1 PUSH1 0x0 MSTORE PUSH1 0x20 PUSH1 0x0 KECCAK256 SWAP1 JUMPDEST DUP2 SLOAD DUP2 MSTORE SWAP1 PUSH1 0x1 ADD SWAP1 PUSH1 0x20 ADD DUP1 DUP4 GT PUSH2 0x2E8 JUMPI DUP3 SWAP1 SUB PUSH1 0x1F AND DUP3 ADD SWAP2 JUMPDEST POP POP POP POP POP SWAP1 DUP1 PUSH1 0x3 ADD DUP1 SLOAD PUSH2 0x31A SWAP1 PUSH2 0x118A JUMP JUMPDEST DUP1 PUSH1 0x1F ADD PUSH1 0x20 DUP1 SWAP2 DIV MUL PUSH1 0x20 ADD PUSH1 0x40 MLOAD SWAP1 DUP2 ADD PUSH1 0x40 MSTORE DUP1 SWAP3 SWAP2 SWAP1 DUP2 DUP2 MSTORE PUSH1 0x20 ADD DUP3 DUP1 SLOAD PUSH2 0x346 SWAP1 PUSH2 0x118A JUMP JUMPDEST DUP1 ISZERO PUSH2 0x393 JUMPI DUP1 PUSH1 0x1F LT PUSH2 0x368 JUMPI PUSH2 0x100 DUP1 DUP4 SLOAD DIV MUL DUP4 MSTORE SWAP2 PUSH1 0x20 ADD SWAP2 PUSH2 0x393 JUMP JUMPDEST DUP3 ADD SWAP2 SWAP1 PUSH1 0x0 MSTORE PUSH1 0x20 PUSH1 0x0 KECCAK256 SWAP1 JUMPDEST DUP2 SLOAD DUP2 MSTORE SWAP1 PUSH1 0x1 ADD SWAP1 PUSH1 0x20 ADD DUP1 DUP4 GT PUSH2 0x376 JUMPI DUP3 SWAP1 SUB PUSH1 0x1F AND DUP3 ADD SWAP2 JUMPDEST POP POP POP PUSH1 0x4 DUP5 ADD SLOAD PUSH1 0x5 DUP6 ADD SLOAD PUSH1 0x6 DUP7 ADD SLOAD PUSH1 0x7 DUP8 ADD SLOAD PUSH1 0x8 DUP9 ADD SLOAD PUSH1 0x9 DUP10 ADD SLOAD PUSH1 0xA SWAP1 SWAP10 ADD SLOAD SWAP8 SWAP9 SWAP5 SWAP8 PUSH1 0x1 PUSH1 0x1 PUSH1 0xA0 SHL SUB SWAP1 SWAP5 AND SWAP7 POP SWAP2 SWAP5 POP SWAP3 PUSH1 0xFF SWAP1 SWAP2 AND SWAP2 DUP12 JUMP JUMPDEST PUSH1 0x2 SLOAD PUSH1 0x40 MLOAD PUSH4 0x288C3149 PUSH1 0xE2 SHL DUP2 MSTORE CALLER PUSH1 0x4 DUP3 ADD MSTORE PUSH1 0x0 SWAP2 PUSH1 0x1 PUSH1 0x1 PUSH1 0xA0 SHL SUB AND SWAP1 PUSH4 0xA230C524 SWAP1 PUSH1 0x24 ADD PUSH1 0x20 PUSH1 0x40 MLOAD DUP1 DUP4 SUB DUP2 DUP7 GAS STATICCALL ISZERO DUP1 ISZERO PUSH2 0x421 JUMPI RETURNDATASIZE PUSH1 0x0 DUP1 RETURNDATACOPY RETURNDATASIZE PUSH1 0x0 REVERT JUMPDEST POP POP POP POP PUSH1 0x40 MLOAD RETURNDATASIZE PUSH1 0x1F NOT PUSH1 0x1F DUP3 ADD AND DUP3 ADD DUP1 PUSH1 0x40 MSTORE POP DUP2 ADD SWAP1 PUSH2 0x445 SWAP2 SWAP1 PUSH2 0x11C4 JUMP JUMPDEST PUSH2 0x489 JUMPI PUSH1 0x40 MLOAD PUSH3 0x461BCD PUSH1 0xE5 SHL DUP2 MSTORE PUSH1 0x20 PUSH1 0x4 DUP3 ADD MSTORE PUSH1 0x10 PUSH1 0x24 DUP3 ADD MSTORE PUSH16 0x2737BA1030902220A79036B2B6B132B9 PUSH1 0x81 SHL PUSH1 0x44 DUP3 ADD MSTORE PUSH1 0x64 ADD JUMPDEST PUSH1 0x40 MLOAD DUP1 SWAP2 SUB SWAP1 REVERT JUMPDEST PUSH1 0x5 DUP1 SLOAD SWAP1 PUSH1 0x0 PUSH2 0x499 DUP4 PUSH2 0x11F7 JUMP JUMPDEST SWAP1 SWAP2 SSTORE POP POP PUSH1 0x5 SLOAD PUSH1 0x0 DUP2 DUP2 MSTORE PUSH1 0x6 PUSH1 0x20 MSTORE PUSH1 0x40 SWAP1 KECCAK256 DUP2 DUP2 SSTORE PUSH1 0x1 DUP2 ADD DUP1 SLOAD PUSH1 0x1 PUSH1 0x1 PUSH1 0xA0 SHL SUB NOT AND CALLER OR SWAP1 SSTORE PUSH1 0x2 DUP2 ADD PUSH2 0x4D4 DUP10 DUP3 PUSH2 0x125E JUMP JUMPDEST POP PUSH1 0x3 DUP2 ADD PUSH2 0x4E3 DUP9 DUP3 PUSH2 0x125E JUMP JUMPDEST POP PUSH1 0x4 DUP2 ADD DUP7 SWAP1 SSTORE PUSH1 0x5 DUP2 ADD DUP1 SLOAD PUSH1 0x1 PUSH1 0x1 PUSH1 0xA0 SHL SUB NOT AND PUSH1 0x1 PUSH1 0x1 PUSH1 0xA0 SHL SUB DUP8 AND OR SWAP1 SSTORE PUSH1 0x8 DUP2 ADD DUP1 SLOAD PUSH1 0xFF NOT AND SWAP1 SSTORE TIMESTAMP PUSH1 0x9 DUP3 ADD DUP2 SWAP1 SSTORE PUSH2 0x527 SWAP1 DUP6 SWAP1 PUSH2 0x131D JUMP JUMPDEST PUSH1 0xA DUP3 ADD SSTORE PUSH1 0x40 MLOAD PUSH32 0x98120A6AAA04295520AB4E01C6C1235DD316E822CC9FF31DB7B3F197366D18BD SWAP1 PUSH2 0x562 SWAP1 DUP5 SWAP1 CALLER SWAP1 DUP13 SWAP1 DUP12 SWAP1 PUSH2 0x1330 JUMP JUMPDEST PUSH1 0x40 MLOAD DUP1 SWAP2 SUB SWAP1 LOG1 POP SWAP7 SWAP6 POP POP POP POP POP POP JUMP JUMPDEST PUSH1 0x0 DUP3 DUP2 MSTORE PUSH1 0x6 PUSH1 0x20 SWAP1 DUP2 MSTORE PUSH1 0x40 DUP1 DUP4 KECCAK256 PUSH1 0x1 PUSH1 0x1 PUSH1 0xA0 SHL SUB DUP6 AND DUP5 MSTORE PUSH1 0xB ADD SWAP1 SWAP2 MSTORE SWAP1 KECCAK256 SLOAD PUSH1 0xFF AND JUMPDEST SWAP3 SWAP2 POP POP JUMP JUMPDEST PUSH1 0x0 DUP2 DUP2 MSTORE PUSH1 0x6 PUSH1 0x20 MSTORE PUSH1 0x40 SWAP1 KECCAK256 DUP1 SLOAD PUSH2 0x5D1 JUMPI PUSH1 0x40 MLOAD PUSH3 0x461BCD PUSH1 0xE5 SHL DUP2 MSTORE PUSH1 0x4 ADD PUSH2 0x480 SWAP1 PUSH2 0x136B JUMP JUMPDEST PUSH1 0x0 PUSH1 0x8 DUP3 ADD SLOAD PUSH1 0xFF AND PUSH1 0x3 DUP2 GT ISZERO PUSH2 0x5EC JUMPI PUSH2 0x5EC PUSH2 0xE1D JUMP JUMPDEST EQ PUSH2 0x62F JUMPI PUSH1 0x40 MLOAD PUSH3 0x461BCD PUSH1 0xE5 SHL DUP2 MSTORE PUSH1 0x20 PUSH1 0x4 DUP3 ADD MSTORE PUSH1 0x13 PUSH1 0x24 DUP3 ADD MSTORE PUSH19 0x50726F706F73616C206E6F7420616374697665 PUSH1 0x68 SHL PUSH1 0x44 DUP3 ADD MSTORE PUSH1 0x64 ADD PUSH2 0x480 JUMP JUMPDEST DUP1 PUSH1 0xA ADD SLOAD TIMESTAMP GT PUSH2 0x682 JUMPI PUSH1 0x40 MLOAD PUSH3 0x461BCD PUSH1 0xE5 SHL DUP2 MSTORE PUSH1 0x20 PUSH1 0x4 DUP3 ADD MSTORE PUSH1 0x17 PUSH1 0x24 DUP3 ADD MSTORE PUSH32 0x566F74696E6720706572696F64206E6F7420656E646564000000000000000000 PUSH1 0x44 DUP3 ADD MSTORE PUSH1 0x64 ADD PUSH2 0x480 JUMP JUMPDEST PUSH2 0x68B DUP3 PUSH2 0xBA2 JUMP JUMPDEST POP POP JUMP JUMPDEST PUSH2 0x697 PUSH2 0xCC4 JUMP JUMPDEST PUSH1 0x4 DUP2 SWAP1 SSTORE PUSH1 0x40 MLOAD DUP2 DUP2 MSTORE PUSH32 0x75176781F69C55E26FEE85D480452B0B9038B9428704BB7B232FC1C638BBF803 SWAP1 PUSH1 0x20 ADD PUSH1 0x40 MLOAD DUP1 SWAP2 SUB SWAP1 LOG1 POP JUMP JUMPDEST PUSH2 0x6DA PUSH2 0xCC4 JUMP JUMPDEST PUSH2 0x6E4 PUSH1 0x0 PUSH2 0xCF1 JUMP JUMPDEST JUMP JUMPDEST PUSH2 0x6EE PUSH2 0xD41 JUMP JUMPDEST PUSH1 0x0 DUP3 DUP2 MSTORE PUSH1 0x6 PUSH1 0x20 MSTORE PUSH1 0x40 SWAP1 KECCAK256 DUP1 SLOAD PUSH2 0x71A JUMPI PUSH1 0x40 MLOAD PUSH3 0x461BCD PUSH1 0xE5 SHL DUP2 MSTORE PUSH1 0x4 ADD PUSH2 0x480 SWAP1 PUSH2 0x136B JUMP JUMPDEST PUSH1 0x40 DUP1 MLOAD PUSH2 0x160 DUP2 ADD DUP3 MSTORE DUP3 SLOAD DUP2 MSTORE PUSH1 0x1 DUP4 ADD SLOAD PUSH1 0x1 PUSH1 0x1 PUSH1 0xA0 SHL SUB AND PUSH1 0x20 DUP3 ADD MSTORE PUSH1 0x2 DUP4 ADD DUP1 SLOAD SWAP2 SWAP3 DUP4 ADD SWAP2 PUSH2 0x750 SWAP1 PUSH2 0x118A JUMP JUMPDEST DUP1 PUSH1 0x1F ADD PUSH1 0x20 DUP1 SWAP2 DIV MUL PUSH1 0x20 ADD PUSH1 0x40 MLOAD SWAP1 DUP2 ADD PUSH1 0x40 MSTORE DUP1 SWAP3 SWAP2 SWAP1 DUP2 DUP2 MSTORE PUSH1 0x20 ADD DUP3 DUP1 SLOAD PUSH2 0x77C SWAP1 PUSH2 0x118A JUMP JUMPDEST DUP1 ISZERO PUSH2 0x7C9 JUMPI DUP1 PUSH1 0x1F LT PUSH2 0x79E JUMPI PUSH2 0x100 DUP1 DUP4 SLOAD DIV MUL DUP4 MSTORE SWAP2 PUSH1 0x20 ADD SWAP2 PUSH2 0x7C9 JUMP JUMPDEST DUP3 ADD SWAP2 SWAP1 PUSH1 0x0 MSTORE PUSH1 0x20 PUSH1 0x0 KECCAK256 SWAP1 JUMPDEST DUP2 SLOAD DUP2 MSTORE SWAP1 PUSH1 0x1 ADD SWAP1 PUSH1 0x20 ADD DUP1 DUP4 GT PUSH2 0x7AC JUMPI DUP3 SWAP1 SUB PUSH1 0x1F AND DUP3 ADD SWAP2 JUMPDEST POP POP POP POP POP DUP2 MSTORE PUSH1 0x20 ADD DUP3 PUSH1 0x3 ADD DUP1 SLOAD PUSH2 0x7E2 SWAP1 PUSH2 0x118A JUMP JUMPDEST DUP1 PUSH1 0x1F ADD PUSH1 0x20 DUP1 SWAP2 DIV MUL PUSH1 0x20 ADD PUSH1 0x40 MLOAD SWAP1 DUP2 ADD PUSH1 0x40 MSTORE DUP1 SWAP3 SWAP2 SWAP1 DUP2 DUP2 MSTORE PUSH1 0x20 ADD DUP3 DUP1 SLOAD PUSH2 0x80E SWAP1 PUSH2 0x118A JUMP JUMPDEST DUP1 ISZERO PUSH2 0x85B JUMPI DUP1 PUSH1 0x1F LT PUSH2 0x830 JUMPI PUSH2 0x100 DUP1 DUP4 SLOAD DIV MUL DUP4 MSTORE SWAP2 PUSH1 0x20 ADD SWAP2 PUSH2 0x85B JUMP JUMPDEST DUP3 ADD SWAP2 SWAP1 PUSH1 0x0 MSTORE PUSH1 0x20 PUSH1 0x0 KECCAK256 SWAP1 JUMPDEST DUP2 SLOAD DUP2 MSTORE SWAP1 PUSH1 0x1 ADD SWAP1 PUSH1 0x20 ADD DUP1 DUP4 GT PUSH2 0x83E JUMPI DUP3 SWAP1 SUB PUSH1 0x1F AND DUP3 ADD SWAP2 JUMPDEST POP POP POP SWAP2 DUP4 MSTORE POP POP PUSH1 0x4 DUP4 ADD SLOAD PUSH1 0x20 DUP3 ADD MSTORE PUSH1 0x5 DUP4 ADD SLOAD PUSH1 0x1 PUSH1 0x1 PUSH1 0xA0 SHL SUB AND PUSH1 0x40 DUP3 ADD MSTORE PUSH1 0x6 DUP4 ADD SLOAD PUSH1 0x60 DUP3 ADD MSTORE PUSH1 0x7 DUP4 ADD SLOAD PUSH1 0x80 DUP3 ADD MSTORE PUSH1 0x8 DUP4 ADD SLOAD PUSH1 0xA0 SWAP1 SWAP2 ADD SWAP1 PUSH1 0xFF AND PUSH1 0x3 DUP2 GT ISZERO PUSH2 0x8B3 JUMPI PUSH2 0x8B3 PUSH2 0xE1D JUMP JUMPDEST DUP2 MSTORE PUSH1 0x20 ADD DUP3 PUSH1 0x9 ADD SLOAD DUP2 MSTORE PUSH1 0x20 ADD DUP3 PUSH1 0xA ADD SLOAD DUP2 MSTORE POP SWAP2 POP POP SWAP2 SWAP1 POP JUMP JUMPDEST PUSH1 0x2 SLOAD PUSH1 0x40 MLOAD PUSH4 0x288C3149 PUSH1 0xE2 SHL DUP2 MSTORE CALLER PUSH1 0x4 DUP3 ADD MSTORE PUSH1 0x1 PUSH1 0x1 PUSH1 0xA0 SHL SUB SWAP1 SWAP2 AND SWAP1 PUSH4 0xA230C524 SWAP1 PUSH1 0x24 ADD PUSH1 0x20 PUSH1 0x40 MLOAD DUP1 DUP4 SUB DUP2 DUP7 GAS STATICCALL ISZERO DUP1 ISZERO PUSH2 0x91A JUMPI RETURNDATASIZE PUSH1 0x0 DUP1 RETURNDATACOPY RETURNDATASIZE PUSH1 0x0 REVERT JUMPDEST POP POP POP POP PUSH1 0x40 MLOAD RETURNDATASIZE PUSH1 0x1F NOT PUSH1 0x1F DUP3 ADD AND DUP3 ADD DUP1 PUSH1 0x40 MSTORE POP DUP2 ADD SWAP1 PUSH2 0x93E SWAP2 SWAP1 PUSH2 0x11C4 JUMP JUMPDEST PUSH2 0x97D JUMPI PUSH1 0x40 MLOAD PUSH3 0x461BCD PUSH1 0xE5 SHL DUP2 MSTORE PUSH1 0x20 PUSH1 0x4 DUP3 ADD MSTORE PUSH1 0x10 PUSH1 0x24 DUP3 ADD MSTORE PUSH16 0x2737BA1030902220A79036B2B6B132B9 PUSH1 0x81 SHL PUSH1 0x44 DUP3 ADD MSTORE PUSH1 0x64 ADD PUSH2 0x480 JUMP JUMPDEST PUSH1 0x0 DUP3 DUP2 MSTORE PUSH1 0x6 PUSH1 0x20 MSTORE PUSH1 0x40 SWAP1 KECCAK256 DUP1 SLOAD PUSH2 0x9A9 JUMPI PUSH1 0x40 MLOAD PUSH3 0x461BCD PUSH1 0xE5 SHL DUP2 MSTORE PUSH1 0x4 ADD PUSH2 0x480 SWAP1 PUSH2 0x136B JUMP JUMPDEST PUSH1 0x0 PUSH1 0x8 DUP3 ADD SLOAD PUSH1 0xFF AND PUSH1 0x3 DUP2 GT ISZERO PUSH2 0x9C4 JUMPI PUSH2 0x9C4 PUSH2 0xE1D JUMP JUMPDEST EQ PUSH2 0xA07 JUMPI PUSH1 0x40 MLOAD PUSH3 0x461BCD PUSH1 0xE5 SHL DUP2 MSTORE PUSH1 0x20 PUSH1 0x4 DUP3 ADD MSTORE PUSH1 0x13 PUSH1 0x24 DUP3 ADD MSTORE PUSH19 0x50726F706F73616C206E6F7420616374697665 PUSH1 0x68 SHL PUSH1 0x44 DUP3 ADD MSTORE PUSH1 0x64 ADD PUSH2 0x480 JUMP JUMPDEST DUP1 PUSH1 0xA ADD SLOAD TIMESTAMP GT ISZERO PUSH2 0xA51 JUMPI PUSH1 0x40 MLOAD PUSH3 0x461BCD PUSH1 0xE5 SHL DUP2 MSTORE PUSH1 0x20 PUSH1 0x4 DUP3 ADD MSTORE PUSH1 0x13 PUSH1 0x24 DUP3 ADD MSTORE PUSH19 0x159BDD1A5B99C81C195C9A5BD908195B991959 PUSH1 0x6A SHL PUSH1 0x44 DUP3 ADD MSTORE PUSH1 0x64 ADD PUSH2 0x480 JUMP JUMPDEST CALLER PUSH1 0x0 SWAP1 DUP2 MSTORE PUSH1 0xB DUP3 ADD PUSH1 0x20 MSTORE PUSH1 0x40 SWAP1 KECCAK256 SLOAD PUSH1 0xFF AND ISZERO PUSH2 0xAA3 JUMPI PUSH1 0x40 MLOAD PUSH3 0x461BCD PUSH1 0xE5 SHL DUP2 MSTORE PUSH1 0x20 PUSH1 0x4 DUP3 ADD MSTORE PUSH1 0xD PUSH1 0x24 DUP3 ADD MSTORE PUSH13 0x105B1C9958591E481D9BDD1959 PUSH1 0x9A SHL PUSH1 0x44 DUP3 ADD MSTORE PUSH1 0x64 ADD PUSH2 0x480 JUMP JUMPDEST CALLER PUSH1 0x0 SWAP1 DUP2 MSTORE PUSH1 0xB DUP3 ADD PUSH1 0x20 MSTORE PUSH1 0x40 SWAP1 KECCAK256 DUP1 SLOAD PUSH1 0xFF NOT AND PUSH1 0x1 OR SWAP1 SSTORE DUP2 ISZERO PUSH2 0xAE1 JUMPI PUSH1 0x6 DUP2 ADD DUP1 SLOAD SWAP1 PUSH1 0x0 PUSH2 0xAD7 DUP4 PUSH2 0x11F7 JUMP JUMPDEST SWAP2 SWAP1 POP SSTORE POP PUSH2 0xAF9 JUMP JUMPDEST PUSH1 0x7 DUP2 ADD DUP1 SLOAD SWAP1 PUSH1 0x0 PUSH2 0xAF3 DUP4 PUSH2 0x11F7 JUMP JUMPDEST SWAP2 SWAP1 POP SSTORE POP JUMPDEST PUSH1 0x40 DUP1 MLOAD DUP5 DUP2 MSTORE CALLER PUSH1 0x20 DUP3 ADD MSTORE DUP4 ISZERO ISZERO DUP2 DUP4 ADD MSTORE SWAP1 MLOAD PUSH32 0xF2913DBE661EE2ACC4A046D8FBCDC792373BDA34C41C6086484B5345E5785E5F SWAP2 DUP2 SWAP1 SUB PUSH1 0x60 ADD SWAP1 LOG1 DUP1 PUSH1 0xA ADD SLOAD TIMESTAMP GT DUP1 PUSH2 0xB51 JUMPI POP PUSH1 0x4 SLOAD DUP2 PUSH1 0x6 ADD SLOAD LT ISZERO JUMPDEST ISZERO PUSH2 0xB5F JUMPI PUSH2 0xB5F DUP4 PUSH2 0xBA2 JUMP JUMPDEST POP POP POP JUMP JUMPDEST PUSH2 0xB6C PUSH2 0xCC4 JUMP JUMPDEST PUSH1 0x1 PUSH1 0x1 PUSH1 0xA0 SHL SUB DUP2 AND PUSH2 0xB96 JUMPI PUSH1 0x40 MLOAD PUSH4 0x1E4FBDF7 PUSH1 0xE0 SHL DUP2 MSTORE PUSH1 0x0 PUSH1 0x4 DUP3 ADD MSTORE PUSH1 0x24 ADD PUSH2 0x480 JUMP JUMPDEST PUSH2 0xB9F DUP2 PUSH2 0xCF1 JUMP JUMPDEST POP JUMP JUMPDEST PUSH1 0x0 DUP2 DUP2 MSTORE PUSH1 0x6 PUSH1 0x20 DUP2 SWAP1 MSTORE PUSH1 0x40 SWAP1 SWAP2 KECCAK256 PUSH1 0x7 DUP2 ADD SLOAD SWAP2 DUP2 ADD SLOAD SWAP1 SWAP2 LT DUP1 ISZERO PUSH2 0xBD1 JUMPI POP PUSH1 0x4 SLOAD DUP2 PUSH1 0x6 ADD SLOAD LT ISZERO JUMPDEST ISZERO PUSH2 0xCB3 JUMPI PUSH1 0x8 DUP2 ADD DUP1 SLOAD PUSH1 0xFF NOT AND PUSH1 0x1 OR SWAP1 SSTORE PUSH1 0x3 SLOAD PUSH1 0x5 DUP3 ADD SLOAD PUSH1 0x4 DUP1 DUP5 ADD SLOAD PUSH1 0x40 MLOAD PUSH4 0x17560F29 PUSH1 0xE0 SHL DUP2 MSTORE PUSH1 0x1 PUSH1 0x1 PUSH1 0xA0 SHL SUB SWAP5 DUP6 AND SWAP5 DUP6 SWAP5 PUSH4 0x17560F29 SWAP5 PUSH2 0xC28 SWAP5 SWAP3 SWAP1 SWAP2 AND SWAP3 PUSH1 0x2 DUP10 ADD SWAP2 ADD PUSH2 0x139B JUMP JUMPDEST PUSH1 0x20 PUSH1 0x40 MLOAD DUP1 DUP4 SUB DUP2 PUSH1 0x0 DUP8 GAS CALL ISZERO DUP1 ISZERO PUSH2 0xC47 JUMPI RETURNDATASIZE PUSH1 0x0 DUP1 RETURNDATACOPY RETURNDATASIZE PUSH1 0x0 REVERT JUMPDEST POP POP POP POP PUSH1 0x40 MLOAD RETURNDATASIZE PUSH1 0x1F NOT PUSH1 0x1F DUP3 ADD AND DUP3 ADD DUP1 PUSH1 0x40 MSTORE POP DUP2 ADD SWAP1 PUSH2 0xC6B SWAP2 SWAP1 PUSH2 0x1441 JUMP JUMPDEST POP PUSH1 0x8 DUP3 ADD DUP1 SLOAD PUSH1 0xFF NOT AND PUSH1 0x3 OR SWAP1 SSTORE PUSH1 0x40 MLOAD DUP4 DUP2 MSTORE PUSH32 0x712AE1383F79AC853F8D882153778E0260EF8F03B504E2866E0593E04D2B291F SWAP1 PUSH1 0x20 ADD PUSH1 0x40 MLOAD DUP1 SWAP2 SUB SWAP1 LOG1 POP POP POP JUMP JUMPDEST PUSH1 0x8 ADD DUP1 SLOAD PUSH1 0xFF NOT AND PUSH1 0x2 OR SWAP1 SSTORE POP JUMP JUMPDEST PUSH1 0x0 SLOAD PUSH1 0x1 PUSH1 0x1 PUSH1 0xA0 SHL SUB AND CALLER EQ PUSH2 0x6E4 JUMPI PUSH1 0x40 MLOAD PUSH4 0x118CDAA7 PUSH1 0xE0 SHL DUP2 MSTORE CALLER PUSH1 0x4 DUP3 ADD MSTORE PUSH1 0x24 ADD PUSH2 0x480 JUMP JUMPDEST PUSH1 0x0 DUP1 SLOAD PUSH1 0x1 PUSH1 0x1 PUSH1 0xA0 SHL SUB DUP4 DUP2 AND PUSH1 0x1 PUSH1 0x1 PUSH1 0xA0 SHL SUB NOT DUP4 AND DUP2 OR DUP5 SSTORE PUSH1 0x40 MLOAD SWAP2 SWAP1 SWAP3 AND SWAP3 DUP4 SWAP2 PUSH32 0x8BE0079C531659141344CD1FD0A4F28419497F9722A3DAAFE3B4186F6B6457E0 SWAP2 SWAP1 LOG3 POP POP JUMP JUMPDEST PUSH1 0x40 MLOAD DUP1 PUSH2 0x160 ADD PUSH1 0x40 MSTORE DUP1 PUSH1 0x0 DUP2 MSTORE PUSH1 0x20 ADD PUSH1 0x0 PUSH1 0x1 PUSH1 0x1 PUSH1 0xA0 SHL SUB AND DUP2 MSTORE PUSH1 0x20 ADD PUSH1 0x60 DUP2 MSTORE PUSH1 0x20 ADD PUSH1 0x60 DUP2 MSTORE PUSH1 0x20 ADD PUSH1 0x0 DUP2 MSTORE PUSH1 0x20 ADD PUSH1 0x0 PUSH1 0x1 PUSH1 0x1 PUSH1 0xA0 SHL SUB AND DUP2 MSTORE PUSH1 0x20 ADD PUSH1 0x0 DUP2 MSTORE PUSH1 0x20 ADD PUSH1 0x0 DUP2 MSTORE PUSH1 0x20 ADD PUSH1 0x0 PUSH1 0x3 DUP2 GT ISZERO PUSH2 0xDAA JUMPI PUSH2 0xDAA PUSH2 0xE1D JUMP JUMPDEST DUP2 MSTORE PUSH1 0x20 ADD PUSH1 0x0 DUP2 MSTORE PUSH1 0x20 ADD PUSH1 0x0 DUP2 MSTORE POP SWAP1 JUMP JUMPDEST PUSH1 0x0 PUSH1 0x20 DUP3 DUP5 SUB SLT ISZERO PUSH2 0xDD0 JUMPI PUSH1 0x0 DUP1 REVERT JUMPDEST POP CALLDATALOAD SWAP2 SWAP1 POP JUMP JUMPDEST PUSH1 0x0 DUP2 MLOAD DUP1 DUP5 MSTORE PUSH1 0x0 JUMPDEST DUP2 DUP2 LT ISZERO PUSH2 0xDFD JUMPI PUSH1 0x20 DUP2 DUP6 ADD DUP2 ADD MLOAD DUP7 DUP4 ADD DUP3 ADD MSTORE ADD PUSH2 0xDE1 JUMP JUMPDEST POP PUSH1 0x0 PUSH1 0x20 DUP3 DUP7 ADD ADD MSTORE PUSH1 0x20 PUSH1 0x1F NOT PUSH1 0x1F DUP4 ADD AND DUP6 ADD ADD SWAP2 POP POP SWAP3 SWAP2 POP POP JUMP JUMPDEST PUSH4 0x4E487B71 PUSH1 0xE0 SHL PUSH1 0x0 MSTORE PUSH1 0x21 PUSH1 0x4 MSTORE PUSH1 0x24 PUSH1 0x0 REVERT JUMPDEST PUSH1 0x4 DUP2 LT PUSH2 0xE51 JUMPI PUSH4 0x4E487B71 PUSH1 0xE0 SHL PUSH1 0x0 MSTORE PUSH1 0x21 PUSH1 0x4 MSTORE PUSH1 0x24 PUSH1 0x0 REVERT JUMPDEST SWAP1 MSTORE JUMP JUMPDEST DUP12 DUP2 MSTORE PUSH1 0x1 PUSH1 0x1 PUSH1 0xA0 SHL SUB DUP12 AND PUSH1 0x20 DUP3 ADD MSTORE PUSH2 0x160 PUSH1 0x40 DUP3 ADD DUP2 SWAP1 MSTORE PUSH1 0x0 SWAP1 PUSH2 0xE80 SWAP1 DUP4 ADD DUP13 PUSH2 0xDD7 JUMP JUMPDEST DUP3 DUP2 SUB PUSH1 0x60 DUP5 ADD MSTORE PUSH2 0xE92 DUP2 DUP13 PUSH2 0xDD7 JUMP JUMPDEST SWAP2 POP POP DUP9 PUSH1 0x80 DUP4 ADD MSTORE PUSH1 0x1 DUP1 PUSH1 0xA0 SHL SUB DUP9 AND PUSH1 0xA0 DUP4 ADD MSTORE DUP7 PUSH1 0xC0 DUP4 ADD MSTORE DUP6 PUSH1 0xE0 DUP4 ADD MSTORE PUSH2 0xEC3 PUSH2 0x100 DUP4 ADD DUP7 PUSH2 0xE33 JUMP JUMPDEST PUSH2 0x120 DUP3 ADD SWAP4 SWAP1 SWAP4 MSTORE PUSH2 0x140 ADD MSTORE SWAP10 SWAP9 POP POP POP POP POP POP POP POP POP JUMP JUMPDEST PUSH4 0x4E487B71 PUSH1 0xE0 SHL PUSH1 0x0 MSTORE PUSH1 0x41 PUSH1 0x4 MSTORE PUSH1 0x24 PUSH1 0x0 REVERT JUMPDEST PUSH1 0x0 DUP3 PUSH1 0x1F DUP4 ADD SLT PUSH2 0xF05 JUMPI PUSH1 0x0 DUP1 REVERT JUMPDEST DUP2 CALLDATALOAD PUSH8 0xFFFFFFFFFFFFFFFF DUP2 GT ISZERO PUSH2 0xF1F JUMPI PUSH2 0xF1F PUSH2 0xEDE JUMP JUMPDEST PUSH1 0x40 MLOAD PUSH1 0x1F DUP3 ADD PUSH1 0x1F NOT SWAP1 DUP2 AND PUSH1 0x3F ADD AND DUP2 ADD PUSH8 0xFFFFFFFFFFFFFFFF DUP2 GT DUP3 DUP3 LT OR ISZERO PUSH2 0xF4E JUMPI PUSH2 0xF4E PUSH2 0xEDE JUMP JUMPDEST PUSH1 0x40 MSTORE DUP2 DUP2 MSTORE DUP4 DUP3 ADD PUSH1 0x20 ADD DUP6 LT ISZERO PUSH2 0xF66 JUMPI PUSH1 0x0 DUP1 REVERT JUMPDEST DUP2 PUSH1 0x20 DUP6 ADD PUSH1 0x20 DUP4 ADD CALLDATACOPY PUSH1 0x0 SWAP2 DUP2 ADD PUSH1 0x20 ADD SWAP2 SWAP1 SWAP2 MSTORE SWAP4 SWAP3 POP POP POP JUMP JUMPDEST DUP1 CALLDATALOAD PUSH1 0x1 PUSH1 0x1 PUSH1 0xA0 SHL SUB DUP2 AND DUP2 EQ PUSH2 0xF9A JUMPI PUSH1 0x0 DUP1 REVERT JUMPDEST SWAP2 SWAP1 POP JUMP JUMPDEST PUSH1 0x0 DUP1 PUSH1 0x0 DUP1 PUSH1 0x0 PUSH1 0xA0 DUP7 DUP9 SUB SLT ISZERO PUSH2 0xFB7 JUMPI PUSH1 0x0 DUP1 REVERT JUMPDEST DUP6 CALLDATALOAD PUSH8 0xFFFFFFFFFFFFFFFF DUP2 GT ISZERO PUSH2 0xFCE JUMPI PUSH1 0x0 DUP1 REVERT JUMPDEST PUSH2 0xFDA DUP9 DUP3 DUP10 ADD PUSH2 0xEF4 JUMP JUMPDEST SWAP6 POP POP PUSH1 0x20 DUP7 ADD CALLDATALOAD PUSH8 0xFFFFFFFFFFFFFFFF DUP2 GT ISZERO PUSH2 0xFF7 JUMPI PUSH1 0x0 DUP1 REVERT JUMPDEST PUSH2 0x1003 DUP9 DUP3 DUP10 ADD PUSH2 0xEF4 JUMP JUMPDEST SWAP5 POP POP PUSH1 0x40 DUP7 ADD CALLDATALOAD SWAP3 POP PUSH2 0x1019 PUSH1 0x60 DUP8 ADD PUSH2 0xF83 JUMP JUMPDEST SWAP5 SWAP8 SWAP4 SWAP7 POP SWAP2 SWAP5 PUSH1 0x80 ADD CALLDATALOAD SWAP3 SWAP2 POP POP JUMP JUMPDEST PUSH1 0x0 DUP1 PUSH1 0x40 DUP4 DUP6 SUB SLT ISZERO PUSH2 0x103D JUMPI PUSH1 0x0 DUP1 REVERT JUMPDEST DUP3 CALLDATALOAD SWAP2 POP PUSH2 0x104D PUSH1 0x20 DUP5 ADD PUSH2 0xF83 JUMP JUMPDEST SWAP1 POP SWAP3 POP SWAP3 SWAP1 POP JUMP JUMPDEST PUSH1 0x20 DUP2 MSTORE DUP2 MLOAD PUSH1 0x20 DUP3 ADD MSTORE PUSH1 0x0 PUSH1 0x20 DUP4 ADD MLOAD PUSH2 0x107D PUSH1 0x40 DUP5 ADD DUP3 PUSH1 0x1 PUSH1 0x1 PUSH1 0xA0 SHL SUB AND SWAP1 MSTORE JUMP JUMPDEST POP PUSH1 0x40 DUP4 ADD MLOAD PUSH2 0x160 PUSH1 0x60 DUP5 ADD MSTORE PUSH2 0x1099 PUSH2 0x180 DUP5 ADD DUP3 PUSH2 0xDD7 JUMP JUMPDEST SWAP1 POP PUSH1 0x60 DUP5 ADD MLOAD PUSH1 0x1F NOT DUP5 DUP4 SUB ADD PUSH1 0x80 DUP6 ADD MSTORE PUSH2 0x10B6 DUP3 DUP3 PUSH2 0xDD7 JUMP JUMPDEST SWAP2 POP POP PUSH1 0x80 DUP5 ADD MLOAD PUSH1 0xA0 DUP5 ADD MSTORE PUSH1 0xA0 DUP5 ADD MLOAD PUSH2 0x10DD PUSH1 0xC0 DUP6 ADD DUP3 PUSH1 0x1 PUSH1 0x1 PUSH1 0xA0 SHL SUB AND SWAP1 MSTORE JUMP JUMPDEST POP PUSH1 0xC0 DUP5 ADD MLOAD PUSH1 0xE0 DUP5 ADD MSTORE PUSH1 0xE0 DUP5 ADD MLOAD PUSH2 0x100 DUP5 ADD MSTORE PUSH2 0x100 DUP5 ADD MLOAD PUSH2 0x1107 PUSH2 0x120 DUP6 ADD DUP3 PUSH2 0xE33 JUMP JUMPDEST POP PUSH2 0x120 DUP5 ADD MLOAD PUSH2 0x140 DUP5 ADD MSTORE PUSH2 0x140 DUP5 ADD MLOAD PUSH2 0x160 DUP5 ADD MSTORE DUP1 SWAP2 POP POP SWAP3 SWAP2 POP POP JUMP JUMPDEST DUP1 ISZERO ISZERO DUP2 EQ PUSH2 0xB9F JUMPI PUSH1 0x0 DUP1 REVERT JUMPDEST PUSH1 0x0 DUP1 PUSH1 0x40 DUP4 DUP6 SUB SLT ISZERO PUSH2 0x114B JUMPI PUSH1 0x0 DUP1 REVERT JUMPDEST DUP3 CALLDATALOAD SWAP2 POP PUSH1 0x20 DUP4 ADD CALLDATALOAD PUSH2 0x115D DUP2 PUSH2 0x112A JUMP JUMPDEST DUP1 SWAP2 POP POP SWAP3 POP SWAP3 SWAP1 POP JUMP JUMPDEST PUSH1 0x0 PUSH1 0x20 DUP3 DUP5 SUB SLT ISZERO PUSH2 0x117A JUMPI PUSH1 0x0 DUP1 REVERT JUMPDEST PUSH2 0x1183 DUP3 PUSH2 0xF83 JUMP JUMPDEST SWAP4 SWAP3 POP POP POP JUMP JUMPDEST PUSH1 0x1 DUP2 DUP2 SHR SWAP1 DUP3 AND DUP1 PUSH2 0x119E JUMPI PUSH1 0x7F DUP3 AND SWAP2 POP JUMPDEST PUSH1 0x20 DUP3 LT DUP2 SUB PUSH2 0x11BE JUMPI PUSH4 0x4E487B71 PUSH1 0xE0 SHL PUSH1 0x0 MSTORE PUSH1 0x22 PUSH1 0x4 MSTORE PUSH1 0x24 PUSH1 0x0 REVERT JUMPDEST POP SWAP2 SWAP1 POP JUMP JUMPDEST PUSH1 0x0 PUSH1 0x20 DUP3 DUP5 SUB SLT ISZERO PUSH2 0x11D6 JUMPI PUSH1 0x0 DUP1 REVERT JUMPDEST DUP2 MLOAD PUSH2 0x1183 DUP2 PUSH2 0x112A JUMP JUMPDEST PUSH4 0x4E487B71 PUSH1 0xE0 SHL PUSH1 0x0 MSTORE PUSH1 0x11 PUSH1 0x4 MSTORE PUSH1 0x24 PUSH1 0x0 REVERT JUMPDEST PUSH1 0x0 PUSH1 0x1 DUP3 ADD PUSH2 0x1209 JUMPI PUSH2 0x1209 PUSH2 0x11E1 JUMP JUMPDEST POP PUSH1 0x1 ADD SWAP1 JUMP JUMPDEST PUSH1 0x1F DUP3 GT ISZERO PUSH2 0xB5F JUMPI DUP1 PUSH1 0x0 MSTORE PUSH1 0x20 PUSH1 0x0 KECCAK256 PUSH1 0x1F DUP5 ADD PUSH1 0x5 SHR DUP2 ADD PUSH1 0x20 DUP6 LT ISZERO PUSH2 0x1237 JUMPI POP DUP1 JUMPDEST PUSH1 0x1F DUP5 ADD PUSH1 0x5 SHR DUP3 ADD SWAP2 POP JUMPDEST DUP2 DUP2 LT ISZERO PUSH2 0x1257 JUMPI PUSH1 0x0 DUP2 SSTORE PUSH1 0x1 ADD PUSH2 0x1243 JUMP JUMPDEST POP POP POP POP POP JUMP JUMPDEST DUP2 MLOAD PUSH8 0xFFFFFFFFFFFFFFFF DUP2 GT ISZERO PUSH2 0x1278 JUMPI PUSH2 0x1278 PUSH2 0xEDE JUMP JUMPDEST PUSH2 0x128C DUP2 PUSH2 0x1286 DUP5 SLOAD PUSH2 0x118A JUMP JUMPDEST DUP5 PUSH2 0x1210 JUMP JUMPDEST PUSH1 0x20 PUSH1 0x1F DUP3 GT PUSH1 0x1 DUP2 EQ PUSH2 0x12C0 JUMPI PUSH1 0x0 DUP4 ISZERO PUSH2 0x12A8 JUMPI POP DUP5 DUP3 ADD MLOAD JUMPDEST PUSH1 0x0 NOT PUSH1 0x3 DUP6 SWAP1 SHL SHR NOT AND PUSH1 0x1 DUP5 SWAP1 SHL OR DUP5 SSTORE PUSH2 0x1257 JUMP JUMPDEST PUSH1 0x0 DUP5 DUP2 MSTORE PUSH1 0x20 DUP2 KECCAK256 PUSH1 0x1F NOT DUP6 AND SWAP2 JUMPDEST DUP3 DUP2 LT ISZERO PUSH2 0x12F0 JUMPI DUP8 DUP6 ADD MLOAD DUP3 SSTORE PUSH1 0x20 SWAP5 DUP6 ADD SWAP5 PUSH1 0x1 SWAP1 SWAP3 ADD SWAP2 ADD PUSH2 0x12D0 JUMP JUMPDEST POP DUP5 DUP3 LT ISZERO PUSH2 0x130E JUMPI DUP7 DUP5 ADD MLOAD PUSH1 0x0 NOT PUSH1 0x3 DUP8 SWAP1 SHL PUSH1 0xF8 AND SHR NOT AND DUP2 SSTORE JUMPDEST POP POP POP POP PUSH1 0x1 SWAP1 DUP2 SHL ADD SWAP1 SSTORE POP JUMP JUMPDEST DUP1 DUP3 ADD DUP1 DUP3 GT ISZERO PUSH2 0x59F JUMPI PUSH2 0x59F PUSH2 0x11E1 JUMP JUMPDEST DUP5 DUP2 MSTORE PUSH1 0x1 PUSH1 0x1 PUSH1 0xA0 SHL SUB DUP5 AND PUSH1 0x20 DUP3 ADD MSTORE PUSH1 0x80 PUSH1 0x40 DUP3 ADD DUP2 SWAP1 MSTORE PUSH1 0x0 SWAP1 PUSH2 0x135A SWAP1 DUP4 ADD DUP6 PUSH2 0xDD7 JUMP JUMPDEST SWAP1 POP DUP3 PUSH1 0x60 DUP4 ADD MSTORE SWAP6 SWAP5 POP POP POP POP POP JUMP JUMPDEST PUSH1 0x20 DUP1 DUP3 MSTORE PUSH1 0x16 SWAP1 DUP3 ADD MSTORE PUSH22 0x141C9BDC1BDCD85B08191BD95CDB89DD08195E1A5CDD PUSH1 0x52 SHL PUSH1 0x40 DUP3 ADD MSTORE PUSH1 0x60 ADD SWAP1 JUMP JUMPDEST PUSH1 0x1 PUSH1 0x1 PUSH1 0xA0 SHL SUB DUP5 AND DUP2 MSTORE PUSH1 0x20 DUP2 ADD DUP4 SWAP1 MSTORE PUSH1 0x60 PUSH1 0x40 DUP3 ADD MSTORE DUP2 SLOAD PUSH1 0x0 SWAP1 DUP2 SWAP1 PUSH2 0x13C5 DUP2 PUSH2 0x118A JUMP JUMPDEST DUP1 PUSH1 0x60 DUP7 ADD MSTORE PUSH1 0x1 DUP3 AND PUSH1 0x0 DUP2 EQ PUSH2 0x13E4 JUMPI PUSH1 0x1 DUP2 EQ PUSH2 0x1400 JUMPI PUSH2 0x1434 JUMP JUMPDEST PUSH1 0xFF NOT DUP4 AND PUSH1 0x80 DUP8 ADD MSTORE PUSH1 0x80 DUP3 ISZERO ISZERO PUSH1 0x5 SHL DUP8 ADD ADD SWAP4 POP PUSH2 0x1434 JUMP JUMPDEST DUP7 PUSH1 0x0 MSTORE PUSH1 0x20 PUSH1 0x0 KECCAK256 PUSH1 0x0 JUMPDEST DUP4 DUP2 LT ISZERO PUSH2 0x142B JUMPI DUP2 SLOAD DUP9 DUP3 ADD PUSH1 0x80 ADD MSTORE PUSH1 0x1 SWAP1 SWAP2 ADD SWAP1 PUSH1 0x20 ADD PUSH2 0x140C JUMP JUMPDEST DUP8 ADD PUSH1 0x80 ADD SWAP5 POP POP JUMPDEST POP SWAP2 SWAP8 SWAP7 POP POP POP POP POP POP POP JUMP JUMPDEST PUSH1 0x0 PUSH1 0x20 DUP3 DUP5 SUB SLT ISZERO PUSH2 0x1453 JUMPI PUSH1 0x0 DUP1 REVERT JUMPDEST POP MLOAD SWAP2 SWAP1 POP JUMP INVALID LOG2 PUSH5 0x6970667358 0x22 SLT KECCAK256 0xD3 PUSH25 0xDEA57A94FC75C8D612CDD20F9493697AD63DB87DBB92B98F62 0xC2 0xF 0xC 0xDC 0xCC PUSH5 0x736F6C6343 STOP ADDMOD BYTE STOP CALLER LOG2 PUSH5 0x6970667358 0x22 SLT KECCAK256 POP TLOAD SWAP15 0xD 0x2E INVALID 0xDA DUP14 BLOBBASEFEE 0xF9 SSTORE CALL 0x2E PUSH13 0xEAFFC8BB89056E0F99B06314BC RETURNDATACOPY 0xC1 NOT JUMP PUSH26 0x64736F6C634300081A0033000000000000000000000000000000 "
		},
		"gasEstimates": {
			"creation": {
				"codeDepositCost": "4114600",
				"executionCost": "infinite",
				"totalCost": "infinite"
			},
			"external": {
				"createDAO(string,uint256,uint256)": "infinite",
				"daos(uint256)": "infinite",
				"deactivateDAO(uint256)": "30021",
				"getDAO(uint256)": "infinite",
				"getOrganizationDAOs(address)": "infinite",
				"organizationDAOs(address,uint256)": "4788",
				"usdcToken()": "2327"
			}
		},
		"methodIdentifiers": {
			"createDAO(string,uint256,uint256)": "e6dac3df",
			"daos(uint256)": "ccbbd260",
			"deactivateDAO(uint256)": "b8418f33",
			"getDAO(uint256)": "5a29426c",
			"getOrganizationDAOs(address)": "5d91c109",
			"organizationDAOs(address,uint256)": "e0b124ce",
			"usdcToken()": "11eac855"
		}
	},
	"abi": [
		{
			"inputs": [
				{
					"internalType": "address",
					"name": "_usdcToken",
					"type": "address"
				}
			],
			"stateMutability": "nonpayable",
			"type": "constructor"
		},
		{
			"anonymous": false,
			"inputs": [
				{
					"indexed": false,
					"internalType": "uint256",
					"name": "daoId",
					"type": "uint256"
				},
				{
					"indexed": false,
					"internalType": "string",
					"name": "name",
					"type": "string"
				},
				{
					"indexed": false,
					"internalType": "address",
					"name": "owner",
					"type": "address"
				},
				{
					"indexed": false,
					"internalType": "address",
					"name": "membershipContract",
					"type": "address"
				},
				{
					"indexed": false,
					"internalType": "address",
					"name": "treasuryContract",
					"type": "address"
				},
				{
					"indexed": false,
					"internalType": "address",
					"name": "governanceContract",
					"type": "address"
				}
			],
			"name": "DAOCreated",
			"type": "event"
		},
		{
			"anonymous": false,
			"inputs": [
				{
					"indexed": false,
					"internalType": "uint256",
					"name": "daoId",
					"type": "uint256"
				}
			],
			"name": "DAODeactivated",
			"type": "event"
		},
		{
			"inputs": [
				{
					"internalType": "string",
					"name": "_name",
					"type": "string"
				},
				{
					"internalType": "uint256",
					"name": "_membershipFee",
					"type": "uint256"
				},
				{
					"internalType": "uint256",
					"name": "_proposalThreshold",
					"type": "uint256"
				}
			],
			"name": "createDAO",
			"outputs": [
				{
					"internalType": "uint256",
					"name": "",
					"type": "uint256"
				}
			],
			"stateMutability": "nonpayable",
			"type": "function"
		},
		{
			"inputs": [
				{
					"internalType": "uint256",
					"name": "",
					"type": "uint256"
				}
			],
			"name": "daos",
			"outputs": [
				{
					"internalType": "uint256",
					"name": "id",
					"type": "uint256"
				},
				{
					"internalType": "string",
					"name": "name",
					"type": "string"
				},
				{
					"internalType": "address",
					"name": "owner",
					"type": "address"
				},
				{
					"internalType": "address",
					"name": "membershipContract",
					"type": "address"
				},
				{
					"internalType": "address",
					"name": "treasuryContract",
					"type": "address"
				},
				{
					"internalType": "address",
					"name": "governanceContract",
					"type": "address"
				},
				{
					"internalType": "bool",
					"name": "active",
					"type": "bool"
				}
			],
			"stateMutability": "view",
			"type": "function"
		},
		{
			"inputs": [
				{
					"internalType": "uint256",
					"name": "_daoId",
					"type": "uint256"
				}
			],
			"name": "deactivateDAO",
			"outputs": [],
			"stateMutability": "nonpayable",
			"type": "function"
		},
		{
			"inputs": [
				{
					"internalType": "uint256",
					"name": "_daoId",
					"type": "uint256"
				}
			],
			"name": "getDAO",
			"outputs": [
				{
					"components": [
						{
							"internalType": "uint256",
							"name": "id",
							"type": "uint256"
						},
						{
							"internalType": "string",
							"name": "name",
							"type": "string"
						},
						{
							"internalType": "address",
							"name": "owner",
							"type": "address"
						},
						{
							"internalType": "address",
							"name": "membershipContract",
							"type": "address"
						},
						{
							"internalType": "address",
							"name": "treasuryContract",
							"type": "address"
						},
						{
							"internalType": "address",
							"name": "governanceContract",
							"type": "address"
						},
						{
							"internalType": "bool",
							"name": "active",
							"type": "bool"
						}
					],
					"internalType": "struct DAOFactory.DAO",
					"name": "",
					"type": "tuple"
				}
			],
			"stateMutability": "view",
			"type": "function"
		},
		{
			"inputs": [
				{
					"internalType": "address",
					"name": "_organization",
					"type": "address"
				}
			],
			"name": "getOrganizationDAOs",
			"outputs": [
				{
					"internalType": "uint256[]",
					"name": "",
					"type": "uint256[]"
				}
			],
			"stateMutability": "view",
			"type": "function"
		},
		{
			"inputs": [
				{
					"internalType": "address",
					"name": "",
					"type": "address"
				},
				{
					"internalType": "uint256",
					"name": "",
					"type": "uint256"
				}
			],
			"name": "organizationDAOs",
			"outputs": [
				{
					"internalType": "uint256",
					"name": "",
					"type": "uint256"
				}
			],
			"stateMutability": "view",
			"type": "function"
		},
		{
			"inputs": [],
			"name": "usdcToken",
			"outputs": [
				{
					"internalType": "address",
					"name": "",
					"type": "address"
				}
			],
			"stateMutability": "view",
			"type": "function"
		}
	]
}