{
  "_format": "hh-sol-artifact-1",
  "contractName": "DAOFactory",
  "sourceName": "contracts/DAOFactory.sol",
  "abi": [
    {
      "inputs": [
        {
          "internalType": "address",
          "name": "_usdcToken",
          "type": "address"
        }
      ],
      "stateMutability": "nonpayable",
      "type": "constructor"
    },
    {
      "anonymous": false,
      "inputs": [
        {
          "indexed": false,
          "internalType": "uint256",
          "name": "daoId",
          "type": "uint256"
        },
        {
          "indexed": false,
          "internalType": "string",
          "name": "name",
          "type": "string"
        },
        {
          "indexed": false,
          "internalType": "address",
          "name": "owner",
          "type": "address"
        },
        {
          "indexed": false,
          "internalType": "address",
          "name": "membershipContract",
          "type": "address"
        },
        {
          "indexed": false,
          "internalType": "address",
          "name": "treasuryContract",
          "type": "address"
        },
        {
          "indexed": false,
          "internalType": "address",
          "name": "governanceContract",
          "type": "address"
        }
      ],
      "name": "DAOCreated",
      "type": "event"
    },
    {
      "anonymous": false,
      "inputs": [
        {
          "indexed": false,
          "internalType": "uint256",
          "name": "daoId",
          "type": "uint256"
        }
      ],
      "name": "DAODeactivated",
      "type": "event"
    },
    {
      "inputs": [
        {
          "internalType": "string",
          "name": "_name",
          "type": "string"
        },
        {
          "internalType": "uint256",
          "name": "_membershipFee",
          "type": "uint256"
        },
        {
          "internalType": "uint256",
          "name": "_proposalThreshold",
          "type": "uint256"
        }
      ],
      "name": "createDAO",
      "outputs": [
        {
          "internalType": "uint256",
          "name": "",
          "type": "uint256"
        }
      ],
      "stateMutability": "nonpayable",
      "type": "function"
    },
    {
      "inputs": [
        {
          "internalType": "uint256",
          "name": "",
          "type": "uint256"
        }
      ],
      "name": "daos",
      "outputs": [
        {
          "internalType": "uint256",
          "name": "id",
          "type": "uint256"
        },
        {
          "internalType": "string",
          "name": "name",
          "type": "string"
        },
        {
          "internalType": "address",
          "name": "owner",
          "type": "address"
        },
        {
          "internalType": "address",
          "name": "membershipContract",
          "type": "address"
        },
        {
          "internalType": "address",
          "name": "treasuryContract",
          "type": "address"
        },
        {
          "internalType": "address",
          "name": "governanceContract",
          "type": "address"
        },
        {
          "internalType": "bool",
          "name": "active",
          "type": "bool"
        }
      ],
      "stateMutability": "view",
      "type": "function"
    },
    {
      "inputs": [
        {
          "internalType": "uint256",
          "name": "_daoId",
          "type": "uint256"
        }
      ],
      "name": "deactivateDAO",
      "outputs": [],
      "stateMutability": "nonpayable",
      "type": "function"
    },
    {
      "inputs": [
        {
          "internalType": "uint256",
          "name": "_daoId",
          "type": "uint256"
        }
      ],
      "name": "getDAO",
      "outputs": [
        {
          "components": [
            {
              "internalType": "uint256",
              "name": "id",
              "type": "uint256"
            },
            {
              "internalType": "string",
              "name": "name",
              "type": "string"
            },
            {
              "internalType": "address",
              "name": "owner",
              "type": "address"
            },
            {
              "internalType": "address",
              "name": "membershipContract",
              "type": "address"
            },
            {
              "internalType": "address",
              "name": "treasuryContract",
              "type": "address"
            },
            {
              "internalType": "address",
              "name": "governanceContract",
              "type": "address"
            },
            {
              "internalType": "bool",
              "name": "active",
              "type": "bool"
            }
          ],
          "internalType": "struct DAOFactory.DAO",
          "name": "",
          "type": "tuple"
        }
      ],
      "stateMutability": "view",
      "type": "function"
    },
    {
      "inputs": [
        {
          "internalType": "address",
          "name": "_organization",
          "type": "address"
        }
      ],
      "name": "getOrganizationDAOs",
      "outputs": [
        {
          "internalType": "uint256[]",
          "name": "",
          "type": "uint256[]"
        }
      ],
      "stateMutability": "view",
      "type": "function"
    },
    {
      "inputs": [
        {
          "internalType": "address",
          "name": "",
          "type": "address"
        },
        {
          "internalType": "uint256",
          "name": "",
          "type": "uint256"
        }
      ],
      "name": "organizationDAOs",
      "outputs": [
        {
          "internalType": "uint256",
          "name": "",
          "type": "uint256"
        }
      ],
      "stateMutability": "view",
      "type": "function"
    },
    {
      "inputs": [],
      "name": "usdcToken",
      "outputs": [
        {
          "internalType": "address",
          "name": "",
          "type": "address"
        }
      ],
      "stateMutability": "view",
      "type": "function"
    }
  ],
  "bytecode": "0x60806040523480156200001157600080fd5b5060405162009f3e38038062009f3e833981810160405281019062000037919062000162565b600073ffffffffffffffffffffffffffffffffffffffff168173ffffffffffffffffffffffffffffffffffffffff1603620000a9576040517f08c379a0000000000000000000000000000000000000000000000000000000008152600401620000a090620001f5565b60405180910390fd5b80600360006101000a81548173ffffffffffffffffffffffffffffffffffffffff021916908373ffffffffffffffffffffffffffffffffffffffff160217905550600080819055505062000217565b600080fd5b600073ffffffffffffffffffffffffffffffffffffffff82169050919050565b60006200012a82620000fd565b9050919050565b6200013c816200011d565b81146200014857600080fd5b50565b6000815190506200015c8162000131565b92915050565b6000602082840312156200017b576200017a620000f8565b5b60006200018b848285016200014b565b91505092915050565b600082825260208201905092915050565b7f496e76616c696420555344432061646472657373000000000000000000000000600082015250565b6000620001dd60148362000194565b9150620001ea82620001a5565b602082019050919050565b600060208201905081810360008301526200021081620001ce565b9050919050565b619d1780620002276000396000f3fe60806040523480156200001157600080fd5b5060043610620000885760003560e01c8063b8418f331162000063578063b8418f33146200011b578063ccbbd260146200013b578063e0b124ce1462000177578063e6dac3df14620001ad5762000088565b806311eac855146200008d5780635a29426c14620000af5780635d91c10914620000e5575b600080fd5b62000097620001e3565b604051620000a6919062000e01565b60405180910390f35b620000cd6004803603810190620000c7919062000e6d565b62000209565b604051620000dc919062001022565b60405180910390f35b620001036004803603810190620000fd919062001077565b6200044f565b60405162000112919062001166565b60405180910390f35b62000139600480360381019062000133919062000e6d565b620004e8565b005b62000159600480360381019062000153919062000e6d565b62000660565b6040516200016e9796959493929190620011fe565b60405180910390f35b6200019560048036038101906200018f919062001282565b620007bf565b604051620001a49190620012c9565b60405180910390f35b620001cb6004803603810190620001c5919062001437565b620007f1565b604051620001da9190620012c9565b60405180910390f35b600360009054906101000a900473ffffffffffffffffffffffffffffffffffffffff1681565b6200021362000cfb565b600160008381526020019081526020016000206040518060e0016040529081600082015481526020016001820180546200024d90620014e1565b80601f01602080910402602001604051908101604052809291908181526020018280546200027b90620014e1565b8015620002cc5780601f10620002a057610100808354040283529160200191620002cc565b820191906000526020600020905b815481529060010190602001808311620002ae57829003601f168201915b505050505081526020016002820160009054906101000a900473ffffffffffffffffffffffffffffffffffffffff1673ffffffffffffffffffffffffffffffffffffffff1673ffffffffffffffffffffffffffffffffffffffff1681526020016003820160009054906101000a900473ffffffffffffffffffffffffffffffffffffffff1673ffffffffffffffffffffffffffffffffffffffff1673ffffffffffffffffffffffffffffffffffffffff1681526020016004820160009054906101000a900473ffffffffffffffffffffffffffffffffffffffff1673ffffffffffffffffffffffffffffffffffffffff1673ffffffffffffffffffffffffffffffffffffffff1681526020016005820160009054906101000a900473ffffffffffffffffffffffffffffffffffffffff1673ffffffffffffffffffffffffffffffffffffffff1673ffffffffffffffffffffffffffffffffffffffff1681526020016005820160149054906101000a900460ff1615151515815250509050919050565b6060600260008373ffffffffffffffffffffffffffffffffffffffff1673ffffffffffffffffffffffffffffffffffffffff168152602001908152602001600020805480602002602001604051908101604052809291908181526020018280548015620004dc57602002820191906000526020600020905b815481526020019060010190808311620004c7575b50505050509050919050565b3373ffffffffffffffffffffffffffffffffffffffff166001600083815260200190815260200160002060020160009054906101000a900473ffffffffffffffffffffffffffffffffffffffff1673ffffffffffffffffffffffffffffffffffffffff16146200058f576040517f08c379a0000000000000000000000000000000000000000000000000000000008152600401620005869062001566565b60405180910390fd5b6001600082815260200190815260200160002060050160149054906101000a900460ff16620005f5576040517f08c379a0000000000000000000000000000000000000000000000000000000008152600401620005ec90620015d8565b60405180910390fd5b60006001600083815260200190815260200160002060050160146101000a81548160ff0219169083151502179055507f408c5b54d83131cd34c1aad59cbfd85961ab6639d4411757e874fb1705f78ef581604051620006559190620012c9565b60405180910390a150565b60016020528060005260406000206000915090508060000154908060010180546200068b90620014e1565b80601f0160208091040260200160405190810160405280929190818152602001828054620006b990620014e1565b80156200070a5780601f10620006de576101008083540402835291602001916200070a565b820191906000526020600020905b815481529060010190602001808311620006ec57829003601f168201915b5050505050908060020160009054906101000a900473ffffffffffffffffffffffffffffffffffffffff16908060030160009054906101000a900473ffffffffffffffffffffffffffffffffffffffff16908060040160009054906101000a900473ffffffffffffffffffffffffffffffffffffffff16908060050160009054906101000a900473ffffffffffffffffffffffffffffffffffffffff16908060050160149054906101000a900460ff16905087565b60026020528160005260406000208181548110620007dc57600080fd5b90600052602060002001600091509150505481565b6000806000815480929190620008079062001629565b91905055506000805490506000858660405160200162000828919062001708565b60405160208183030381529060405286600360009054906101000a900473ffffffffffffffffffffffffffffffffffffffff16336040516200086a9062000d92565b6200087a9594939291906200172e565b604051809103906000f08015801562000897573d6000803e3d6000fd5b5090506000600360009054906101000a900473ffffffffffffffffffffffffffffffffffffffff168230604051620008cf9062000da0565b620008dd9392919062001799565b604051809103906000f080158015620008fa573d6000803e3d6000fd5b5090506000600360009054906101000a900473ffffffffffffffffffffffffffffffffffffffff1683838833604051620009349062000dae565b62000944959493929190620017d6565b604051809103906000f08015801562000961573d6000803e3d6000fd5b5090508173ffffffffffffffffffffffffffffffffffffffff16631129753f826040518263ffffffff1660e01b81526004016200099f919062000e01565b600060405180830381600087803b158015620009ba57600080fd5b505af1158015620009cf573d6000803e3d6000fd5b505050508173ffffffffffffffffffffffffffffffffffffffff1663f2fde38b336040518263ffffffff1660e01b815260040162000a0e919062000e01565b600060405180830381600087803b15801562000a2957600080fd5b505af115801562000a3e573d6000803e3d6000fd5b505050506040518060e001604052808581526020018981526020013373ffffffffffffffffffffffffffffffffffffffff1681526020018473ffffffffffffffffffffffffffffffffffffffff1681526020018373ffffffffffffffffffffffffffffffffffffffff1681526020018273ffffffffffffffffffffffffffffffffffffffff168152602001600115158152506001600086815260200190815260200160002060008201518160000155602082015181600101908162000b04919062001a05565b5060408201518160020160006101000a81548173ffffffffffffffffffffffffffffffffffffffff021916908373ffffffffffffffffffffffffffffffffffffffff16021790555060608201518160030160006101000a81548173ffffffffffffffffffffffffffffffffffffffff021916908373ffffffffffffffffffffffffffffffffffffffff16021790555060808201518160040160006101000a81548173ffffffffffffffffffffffffffffffffffffffff021916908373ffffffffffffffffffffffffffffffffffffffff16021790555060a08201518160050160006101000a81548173ffffffffffffffffffffffffffffffffffffffff021916908373ffffffffffffffffffffffffffffffffffffffff16021790555060c08201518160050160146101000a81548160ff021916908315150217905550905050600260003373ffffffffffffffffffffffffffffffffffffffff1673ffffffffffffffffffffffffffffffffffffffff1681526020019081526020016000208490806001815401808255809150506001900390600052602060002001600090919091909150557feb2bc12827d15509675400364db7043363e7092b09e9a82b0b7735b089f5e5f784893386868660405162000ce59695949392919062001aec565b60405180910390a1839450505050509392505050565b6040518060e001604052806000815260200160608152602001600073ffffffffffffffffffffffffffffffffffffffff168152602001600073ffffffffffffffffffffffffffffffffffffffff168152602001600073ffffffffffffffffffffffffffffffffffffffff168152602001600073ffffffffffffffffffffffffffffffffffffffff1681526020016000151581525090565b6139438062001b6183390190565b61210480620054a483390190565b61273a80620075a883390190565b600073ffffffffffffffffffffffffffffffffffffffff82169050919050565b600062000de98262000dbc565b9050919050565b62000dfb8162000ddc565b82525050565b600060208201905062000e18600083018462000df0565b92915050565b6000604051905090565b600080fd5b600080fd5b6000819050919050565b62000e478162000e32565b811462000e5357600080fd5b50565b60008135905062000e678162000e3c565b92915050565b60006020828403121562000e865762000e8562000e28565b5b600062000e968482850162000e56565b91505092915050565b62000eaa8162000e32565b82525050565b600081519050919050565b600082825260208201905092915050565b60005b8381101562000eec57808201518184015260208101905062000ecf565b60008484015250505050565b6000601f19601f8301169050919050565b600062000f168262000eb0565b62000f22818562000ebb565b935062000f3481856020860162000ecc565b62000f3f8162000ef8565b840191505092915050565b62000f558162000ddc565b82525050565b60008115159050919050565b62000f728162000f5b565b82525050565b600060e08301600083015162000f92600086018262000e9f565b506020830151848203602086015262000fac828262000f09565b915050604083015162000fc3604086018262000f4a565b50606083015162000fd8606086018262000f4a565b50608083015162000fed608086018262000f4a565b5060a08301516200100260a086018262000f4a565b5060c08301516200101760c086018262000f67565b508091505092915050565b600060208201905081810360008301526200103e818462000f78565b905092915050565b620010518162000ddc565b81146200105d57600080fd5b50565b600081359050620010718162001046565b92915050565b60006020828403121562001090576200108f62000e28565b5b6000620010a08482850162001060565b91505092915050565b600081519050919050565b600082825260208201905092915050565b6000819050602082019050919050565b6000620010e3838362000e9f565b60208301905092915050565b6000602082019050919050565b60006200110982620010a9565b620011158185620010b4565b93506200112283620010c5565b8060005b83811015620011595781516200113d8882620010d5565b97506200114a83620010ef565b92505060018101905062001126565b5085935050505092915050565b60006020820190508181036000830152620011828184620010fc565b905092915050565b620011958162000e32565b82525050565b600082825260208201905092915050565b6000620011b98262000eb0565b620011c581856200119b565b9350620011d781856020860162000ecc565b620011e28162000ef8565b840191505092915050565b620011f88162000f5b565b82525050565b600060e08201905062001215600083018a6200118a565b8181036020830152620012298189620011ac565b90506200123a604083018862000df0565b62001249606083018762000df0565b62001258608083018662000df0565b6200126760a083018562000df0565b6200127660c0830184620011ed565b98975050505050505050565b600080604083850312156200129c576200129b62000e28565b5b6000620012ac8582860162001060565b9250506020620012bf8582860162000e56565b9150509250929050565b6000602082019050620012e060008301846200118a565b92915050565b600080fd5b600080fd5b7f4e487b7100000000000000000000000000000000000000000000000000000000600052604160045260246000fd5b6200132a8262000ef8565b810181811067ffffffffffffffff821117156200134c576200134b620012f0565b5b80604052505050565b60006200136162000e1e565b90506200136f82826200131f565b919050565b600067ffffffffffffffff821115620013925762001391620012f0565b5b6200139d8262000ef8565b9050602081019050919050565b82818337600083830152505050565b6000620013d0620013ca8462001374565b62001355565b905082815260208101848484011115620013ef57620013ee620012eb565b5b620013fc848285620013aa565b509392505050565b600082601f8301126200141c576200141b620012e6565b5b81356200142e848260208601620013b9565b91505092915050565b60008060006060848603121562001453576200145262000e28565b5b600084013567ffffffffffffffff81111562001474576200147362000e2d565b5b620014828682870162001404565b9350506020620014958682870162000e56565b9250506040620014a88682870162000e56565b9150509250925092565b7f4e487b7100000000000000000000000000000000000000000000000000000000600052602260045260246000fd5b60006002820490506001821680620014fa57607f821691505b60208210810362001510576200150f620014b2565b5b50919050565b7f4e6f74207468652044414f206f776e6572000000000000000000000000000000600082015250565b60006200154e6011836200119b565b91506200155b8262001516565b602082019050919050565b6000602082019050818103600083015262001581816200153f565b9050919050565b7f44414f20616c7265616479206465616374697661746564000000000000000000600082015250565b6000620015c06017836200119b565b9150620015cd8262001588565b602082019050919050565b60006020820190508181036000830152620015f381620015b1565b9050919050565b7f4e487b7100000000000000000000000000000000000000000000000000000000600052601160045260246000fd5b6000620016368262000e32565b91507fffffffffffffffffffffffffffffffffffffffffffffffffffffffffffffffff82036200166b576200166a620015fa565b5b600182019050919050565b600081905092915050565b60006200168e8262000eb0565b6200169a818562001676565b9350620016ac81856020860162000ecc565b80840191505092915050565b7f204d656d62657273686970000000000000000000000000000000000000000000600082015250565b6000620016f0600b8362001676565b9150620016fd82620016b8565b600b82019050919050565b600062001716828462001681565b91506200172382620016e1565b915081905092915050565b600060a08201905081810360008301526200174a8188620011ac565b90508181036020830152620017608187620011ac565b90506200177160408301866200118a565b62001780606083018562000df0565b6200178f608083018462000df0565b9695505050505050565b6000606082019050620017b0600083018662000df0565b620017bf602083018562000df0565b620017ce604083018462000df0565b949350505050565b600060a082019050620017ed600083018862000df0565b620017fc602083018762000df0565b6200180b604083018662000df0565b6200181a60608301856200118a565b62001829608083018462000df0565b9695505050505050565b60008190508160005260206000209050919050565b60006020601f8301049050919050565b600082821b905092915050565b600060088302620018977fffffffffffffffffffffffffffffffffffffffffffffffffffffffffffffffff8262001858565b620018a3868362001858565b95508019841693508086168417925050509392505050565b6000819050919050565b6000620018e6620018e0620018da8462000e32565b620018bb565b62000e32565b9050919050565b6000819050919050565b6200190283620018c5565b6200191a6200191182620018ed565b84845462001865565b825550505050565b600090565b6200193162001922565b6200193e818484620018f7565b505050565b5b8181101562001966576200195a60008262001927565b60018101905062001944565b5050565b601f821115620019b5576200197f8162001833565b6200198a8462001848565b810160208510156200199a578190505b620019b2620019a98562001848565b83018262001943565b50505b505050565b600082821c905092915050565b6000620019da60001984600802620019ba565b1980831691505092915050565b6000620019f58383620019c7565b9150826002028217905092915050565b62001a108262000eb0565b67ffffffffffffffff81111562001a2c5762001a2b620012f0565b5b62001a388254620014e1565b62001a458282856200196a565b600060209050601f83116001811462001a7d576000841562001a68578287015190505b62001a748582620019e7565b86555062001ae4565b601f19841662001a8d8662001833565b60005b8281101562001ab75784890151825560018201915060208501945060208101905062001a90565b8683101562001ad7578489015162001ad3601f891682620019c7565b8355505b6001600288020188555050505b505050505050565b600060c08201905062001b0360008301896200118a565b818103602083015262001b178188620011ac565b905062001b28604083018762000df0565b62001b37606083018662000df0565b62001b46608083018562000df0565b62001b5560a083018462000df0565b97965050505050505056fe60806040523480156200001157600080fd5b50604051620039433803806200394383398181016040528101906200003791906200046e565b8084856040516020016200004c9190620005d1565b60405160208183030381529060405281600090816200006c91906200082d565b5080600190816200007e91906200082d565b505050600073ffffffffffffffffffffffffffffffffffffffff168173ffffffffffffffffffffffffffffffffffffffff1603620000f65760006040517f1e4fbdf7000000000000000000000000000000000000000000000000000000008152600401620000ed919062000925565b60405180910390fd5b62000107816200017560201b60201c565b5084600e90816200011991906200082d565b5082600c8190555081600d60006101000a81548173ffffffffffffffffffffffffffffffffffffffff021916908373ffffffffffffffffffffffffffffffffffffffff1602179055506000600b81905550505050505062000942565b6000600a60009054906101000a900473ffffffffffffffffffffffffffffffffffffffff16905081600a60006101000a81548173ffffffffffffffffffffffffffffffffffffffff021916908373ffffffffffffffffffffffffffffffffffffffff1602179055508173ffffffffffffffffffffffffffffffffffffffff168173ffffffffffffffffffffffffffffffffffffffff167f8be0079c531659141344cd1fd0a4f28419497f9722a3daafe3b4186f6b6457e060405160405180910390a35050565b6000604051905090565b600080fd5b600080fd5b600080fd5b600080fd5b6000601f19601f8301169050919050565b7f4e487b7100000000000000000000000000000000000000000000000000000000600052604160045260246000fd5b620002a48262000259565b810181811067ffffffffffffffff82111715620002c657620002c56200026a565b5b80604052505050565b6000620002db6200023b565b9050620002e9828262000299565b919050565b600067ffffffffffffffff8211156200030c576200030b6200026a565b5b620003178262000259565b9050602081019050919050565b60005b838110156200034457808201518184015260208101905062000327565b60008484015250505050565b6000620003676200036184620002ee565b620002cf565b90508281526020810184848401111562000386576200038562000254565b5b6200039384828562000324565b509392505050565b600082601f830112620003b357620003b26200024f565b5b8151620003c584826020860162000350565b91505092915050565b6000819050919050565b620003e381620003ce565b8114620003ef57600080fd5b50565b6000815190506200040381620003d8565b92915050565b600073ffffffffffffffffffffffffffffffffffffffff82169050919050565b6000620004368262000409565b9050919050565b620004488162000429565b81146200045457600080fd5b50565b60008151905062000468816200043d565b92915050565b600080600080600060a086880312156200048d576200048c62000245565b5b600086015167ffffffffffffffff811115620004ae57620004ad6200024a565b5b620004bc888289016200039b565b955050602086015167ffffffffffffffff811115620004e057620004df6200024a565b5b620004ee888289016200039b565b94505060406200050188828901620003f2565b9350506060620005148882890162000457565b9250506080620005278882890162000457565b9150509295509295909350565b600081519050919050565b600081905092915050565b6000620005578262000534565b6200056381856200053f565b93506200057581856020860162000324565b80840191505092915050565b7f4e46540000000000000000000000000000000000000000000000000000000000600082015250565b6000620005b96003836200053f565b9150620005c68262000581565b600382019050919050565b6000620005df82846200054a565b9150620005ec82620005aa565b915081905092915050565b7f4e487b7100000000000000000000000000000000000000000000000000000000600052602260045260246000fd5b600060028204905060018216806200063f57607f821691505b602082108103620006555762000654620005f7565b5b50919050565b60008190508160005260206000209050919050565b60006020601f8301049050919050565b600082821b905092915050565b600060088302620006bf7fffffffffffffffffffffffffffffffffffffffffffffffffffffffffffffffff8262000680565b620006cb868362000680565b95508019841693508086168417925050509392505050565b6000819050919050565b60006200070e620007086200070284620003ce565b620006e3565b620003ce565b9050919050565b6000819050919050565b6200072a83620006ed565b62000742620007398262000715565b8484546200068d565b825550505050565b600090565b620007596200074a565b620007668184846200071f565b505050565b5b818110156200078e57620007826000826200074f565b6001810190506200076c565b5050565b601f821115620007dd57620007a7816200065b565b620007b28462000670565b81016020851015620007c2578190505b620007da620007d18562000670565b8301826200076b565b50505b505050565b600082821c905092915050565b60006200080260001984600802620007e2565b1980831691505092915050565b60006200081d8383620007ef565b9150826002028217905092915050565b620008388262000534565b67ffffffffffffffff8111156200085457620008536200026a565b5b62000860825462000626565b6200086d82828562000792565b600060209050601f831160018114620008a5576000841562000890578287015190505b6200089c85826200080f565b8655506200090c565b601f198416620008b5866200065b565b60005b82811015620008df57848901518255600182019150602085019450602081019050620008b8565b86831015620008ff5784890151620008fb601f891682620007ef565b8355505b6001600288020188555050505b505050505050565b6200091f8162000429565b82525050565b60006020820190506200093c600083018462000914565b92915050565b612ff180620009526000396000f3fe608060405234801561001057600080fd5b50600436106101c45760003560e01c806370a08231116100f9578063a5c7900e11610097578063c87b56dd11610071578063c87b56dd1461051b578063e985e9c51461054b578063f2fde38b1461057b578063f63d13d714610597576101c4565b8063a5c7900e146104b1578063b88d4fde146104e1578063c713a289146104fd576101c4565b806395d89b41116100d357806395d89b4114610429578063997072f714610447578063a22cb46514610465578063a230c52414610481576101c4565b806370a08231146103d1578063715018a6146104015780638da5cb5b1461040b576101c4565b806323b872dd1161016657806342842e0e1161014057806342842e0e1461033757806348976936146103535780634f6ccce7146103715780636352211e146103a1576101c4565b806323b872dd146102cf5780632f745c59146102eb578063409b64f91461031b576101c4565b806308ae4b0c116101a257806308ae4b0c14610247578063095ea7b31461027757806311eac8551461029357806318160ddd146102b1576101c4565b806301ffc9a7146101c957806306fdde03146101f9578063081812fc14610217575b600080fd5b6101e360048036038101906101de91906125e1565b6105a1565b6040516101f09190612629565b60405180910390f35b61020161061b565b60405161020e91906126d4565b60405180910390f35b610231600480360381019061022c919061272c565b6106ad565b60405161023e919061279a565b60405180910390f35b610261600480360381019061025c91906127e1565b6106c9565b60405161026e9190612629565b60405180910390f35b610291600480360381019061028c919061280e565b6106e9565b005b61029b6106ff565b6040516102a8919061279a565b60405180910390f35b6102b9610725565b6040516102c6919061285d565b60405180910390f35b6102e960048036038101906102e49190612878565b610732565b005b6103056004803603810190610300919061280e565b610834565b604051610312919061285d565b60405180910390f35b6103356004803603810190610330919061272c565b6108dd565b005b610351600480360381019061034c9190612878565b610926565b005b61035b610946565b60405161036891906126d4565b60405180910390f35b61038b6004803603810190610386919061272c565b6109d4565b604051610398919061285d565b60405180910390f35b6103bb60048036038101906103b6919061272c565b610a4a565b6040516103c8919061279a565b60405180910390f35b6103eb60048036038101906103e691906127e1565b610a5c565b6040516103f8919061285d565b60405180910390f35b610409610b16565b005b610413610b2a565b604051610420919061279a565b60405180910390f35b610431610b54565b60405161043e91906126d4565b60405180910390f35b61044f610be6565b60405161045c919061285d565b60405180910390f35b61047f600480360381019061047a91906128f7565b610bf0565b005b61049b600480360381019061049691906127e1565b610c06565b6040516104a89190612629565b60405180910390f35b6104cb60048036038101906104c691906127e1565b610c5c565b6040516104d8919061285d565b60405180910390f35b6104fb60048036038101906104f69190612a6c565b610c74565b005b610505610c99565b604051610512919061285d565b60405180910390f35b6105356004803603810190610530919061272c565b610c9f565b60405161054291906126d4565b60405180910390f35b61056560048036038101906105609190612aef565b610d08565b6040516105729190612629565b60405180910390f35b610595600480360381019061059091906127e1565b610d9c565b005b61059f610e22565b005b60007f780e9d63000000000000000000000000000000000000000000000000000000007bffffffffffffffffffffffffffffffffffffffffffffffffffffffff1916827bffffffffffffffffffffffffffffffffffffffffffffffffffffffff191614806106145750610613826110a0565b5b9050919050565b60606000805461062a90612b5e565b80601f016020809104026020016040519081016040528092919081815260200182805461065690612b5e565b80156106a35780601f10610678576101008083540402835291602001916106a3565b820191906000526020600020905b81548152906001019060200180831161068657829003601f168201915b5050505050905090565b60006106b882611182565b506106c28261120a565b9050919050565b600f6020528060005260406000206000915054906101000a900460ff1681565b6106fb82826106f6611247565b61124f565b5050565b600d60009054906101000a900473ffffffffffffffffffffffffffffffffffffffff1681565b6000600880549050905090565b600073ffffffffffffffffffffffffffffffffffffffff168273ffffffffffffffffffffffffffffffffffffffff16036107a45760006040517f64a0ae9200000000000000000000000000000000000000000000000000000000815260040161079b919061279a565b60405180910390fd5b60006107b883836107b3611247565b611261565b90508373ffffffffffffffffffffffffffffffffffffffff168173ffffffffffffffffffffffffffffffffffffffff161461082e578382826040517f64283d7b00000000000000000000000000000000000000000000000000000000815260040161082593929190612b8f565b60405180910390fd5b50505050565b600061083f83610a5c565b82106108845782826040517fa57d13dc00000000000000000000000000000000000000000000000000000000815260040161087b929190612bc6565b60405180910390fd5b600660008473ffffffffffffffffffffffffffffffffffffffff1673ffffffffffffffffffffffffffffffffffffffff168152602001908152602001600020600083815260200190815260200160002054905092915050565b6108e561141f565b80600c819055507f18351338521e832910dc0e4285e62c03492bb32d8e625843c15f1e9356bf32508160405161091b919061285d565b60405180910390a150565b61094183838360405180602001604052806000815250610c74565b505050565b600e805461095390612b5e565b80601f016020809104026020016040519081016040528092919081815260200182805461097f90612b5e565b80156109cc5780601f106109a1576101008083540402835291602001916109cc565b820191906000526020600020905b8154815290600101906020018083116109af57829003601f168201915b505050505081565b60006109de610725565b8210610a24576000826040517fa57d13dc000000000000000000000000000000000000000000000000000000008152600401610a1b929190612bc6565b60405180910390fd5b60088281548110610a3857610a37612bef565b5b90600052602060002001549050919050565b6000610a5582611182565b9050919050565b60008073ffffffffffffffffffffffffffffffffffffffff168273ffffffffffffffffffffffffffffffffffffffff1603610acf5760006040517f89c62b64000000000000000000000000000000000000000000000000000000008152600401610ac6919061279a565b60405180910390fd5b600360008373ffffffffffffffffffffffffffffffffffffffff1673ffffffffffffffffffffffffffffffffffffffff168152602001908152602001600020549050919050565b610b1e61141f565b610b2860006114a6565b565b6000600a60009054906101000a900473ffffffffffffffffffffffffffffffffffffffff16905090565b606060018054610b6390612b5e565b80601f0160208091040260200160405190810160405280929190818152602001828054610b8f90612b5e565b8015610bdc5780601f10610bb157610100808354040283529160200191610bdc565b820191906000526020600020905b815481529060010190602001808311610bbf57829003601f168201915b5050505050905090565b6000600b54905090565b610c02610bfb611247565b838361156c565b5050565b6000600f60008373ffffffffffffffffffffffffffffffffffffffff1673ffffffffffffffffffffffffffffffffffffffff16815260200190815260200160002060009054906101000a900460ff169050919050565b60106020528060005260406000206000915090505481565b610c7f848484610732565b610c93610c8a611247565b858585856116db565b50505050565b600c5481565b6060610caa82611182565b506000610cb561188c565b90506000815111610cd55760405180602001604052806000815250610d00565b80610cdf846118a3565b604051602001610cf0929190612c5a565b6040516020818303038152906040525b915050919050565b6000600560008473ffffffffffffffffffffffffffffffffffffffff1673ffffffffffffffffffffffffffffffffffffffff16815260200190815260200160002060008373ffffffffffffffffffffffffffffffffffffffff1673ffffffffffffffffffffffffffffffffffffffff16815260200190815260200160002060009054906101000a900460ff16905092915050565b610da461141f565b600073ffffffffffffffffffffffffffffffffffffffff168173ffffffffffffffffffffffffffffffffffffffff1603610e165760006040517f1e4fbdf7000000000000000000000000000000000000000000000000000000008152600401610e0d919061279a565b60405180910390fd5b610e1f816114a6565b50565b600f60003373ffffffffffffffffffffffffffffffffffffffff1673ffffffffffffffffffffffffffffffffffffffff16815260200190815260200160002060009054906101000a900460ff1615610eaf576040517f08c379a0000000000000000000000000000000000000000000000000000000008152600401610ea690612cca565b60405180910390fd5b6000600d60009054906101000a900473ffffffffffffffffffffffffffffffffffffffff1690508073ffffffffffffffffffffffffffffffffffffffff166323b872dd33610efb610b2a565b600c546040518463ffffffff1660e01b8152600401610f1c93929190612cea565b6020604051808303816000875af1158015610f3b573d6000803e3d6000fd5b505050506040513d601f19601f82011682018060405250810190610f5f9190612d36565b610f9e576040517f08c379a0000000000000000000000000000000000000000000000000000000008152600401610f9590612daf565b60405180910390fd5b600b6000815480929190610fb190612dfe565b91905055506000600b549050610fc73382611971565b6001600f60003373ffffffffffffffffffffffffffffffffffffffff1673ffffffffffffffffffffffffffffffffffffffff16815260200190815260200160002060006101000a81548160ff02191690831515021790555080601060003373ffffffffffffffffffffffffffffffffffffffff1673ffffffffffffffffffffffffffffffffffffffff168152602001908152602001600020819055507fede8eed4383e9241982619b94dd83e488b274cced0fd07b8c0092a393defd52f3382604051611094929190612bc6565b60405180910390a15050565b60007f80ac58cd000000000000000000000000000000000000000000000000000000007bffffffffffffffffffffffffffffffffffffffffffffffffffffffff1916827bffffffffffffffffffffffffffffffffffffffffffffffffffffffff1916148061116b57507f5b5e139f000000000000000000000000000000000000000000000000000000007bffffffffffffffffffffffffffffffffffffffffffffffffffffffff1916827bffffffffffffffffffffffffffffffffffffffffffffffffffffffff1916145b8061117b575061117a82611a6a565b5b9050919050565b60008061118e83611ad4565b9050600073ffffffffffffffffffffffffffffffffffffffff168173ffffffffffffffffffffffffffffffffffffffff160361120157826040517f7e2732890000000000000000000000000000000000000000000000000000000081526004016111f8919061285d565b60405180910390fd5b80915050919050565b60006004600083815260200190815260200160002060009054906101000a900473ffffffffffffffffffffffffffffffffffffffff169050919050565b600033905090565b61125c8383836001611b11565b505050565b60008061126f858585611cd6565b9050600073ffffffffffffffffffffffffffffffffffffffff168173ffffffffffffffffffffffffffffffffffffffff1614611343576000600f60008373ffffffffffffffffffffffffffffffffffffffff1673ffffffffffffffffffffffffffffffffffffffff16815260200190815260200160002060006101000a81548160ff0219169083151502179055506000601060008373ffffffffffffffffffffffffffffffffffffffff1673ffffffffffffffffffffffffffffffffffffffff168152602001908152602001600020819055505b600073ffffffffffffffffffffffffffffffffffffffff168573ffffffffffffffffffffffffffffffffffffffff1614611414576001600f60008773ffffffffffffffffffffffffffffffffffffffff1673ffffffffffffffffffffffffffffffffffffffff16815260200190815260200160002060006101000a81548160ff02191690831515021790555083601060008773ffffffffffffffffffffffffffffffffffffffff1673ffffffffffffffffffffffffffffffffffffffff168152602001908152602001600020819055505b809150509392505050565b611427611247565b73ffffffffffffffffffffffffffffffffffffffff16611445610b2a565b73ffffffffffffffffffffffffffffffffffffffff16146114a457611468611247565b6040517f118cdaa700000000000000000000000000000000000000000000000000000000815260040161149b919061279a565b60405180910390fd5b565b6000600a60009054906101000a900473ffffffffffffffffffffffffffffffffffffffff16905081600a60006101000a81548173ffffffffffffffffffffffffffffffffffffffff021916908373ffffffffffffffffffffffffffffffffffffffff1602179055508173ffffffffffffffffffffffffffffffffffffffff168173ffffffffffffffffffffffffffffffffffffffff167f8be0079c531659141344cd1fd0a4f28419497f9722a3daafe3b4186f6b6457e060405160405180910390a35050565b600073ffffffffffffffffffffffffffffffffffffffff168273ffffffffffffffffffffffffffffffffffffffff16036115dd57816040517f5b08ba180000000000000000000000000000000000000000000000000000000081526004016115d4919061279a565b60405180910390fd5b80600560008573ffffffffffffffffffffffffffffffffffffffff1673ffffffffffffffffffffffffffffffffffffffff16815260200190815260200160002060008473ffffffffffffffffffffffffffffffffffffffff1673ffffffffffffffffffffffffffffffffffffffff16815260200190815260200160002060006101000a81548160ff0219169083151502179055508173ffffffffffffffffffffffffffffffffffffffff168373ffffffffffffffffffffffffffffffffffffffff167f17307eab39ab6107e8899845ad3d59bd9653f200f220920489ca2b5937696c31836040516116ce9190612629565b60405180910390a3505050565b60008373ffffffffffffffffffffffffffffffffffffffff163b1115611885578273ffffffffffffffffffffffffffffffffffffffff1663150b7a02868685856040518563ffffffff1660e01b815260040161173a9493929190612e9b565b6020604051808303816000875af192505050801561177657506040513d601f19601f820116820180604052508101906117739190612efc565b60015b6117fa573d80600081146117a6576040519150601f19603f3d011682016040523d82523d6000602084013e6117ab565b606091505b5060008151036117f257836040517f64a0ae920000000000000000000000000000000000000000000000000000000081526004016117e9919061279a565b60405180910390fd5b805181602001fd5b63150b7a0260e01b7bffffffffffffffffffffffffffffffffffffffffffffffffffffffff1916817bffffffffffffffffffffffffffffffffffffffffffffffffffffffff19161461188357836040517f64a0ae9200000000000000000000000000000000000000000000000000000000815260040161187a919061279a565b60405180910390fd5b505b5050505050565b606060405180602001604052806000815250905090565b6060600060016118b284611df3565b01905060008167ffffffffffffffff8111156118d1576118d0612941565b5b6040519080825280601f01601f1916602001820160405280156119035781602001600182028036833780820191505090505b509050600082602001820190505b600115611966578080600190039150507f3031323334353637383961626364656600000000000000000000000000000000600a86061a8153600a858161195a57611959612f29565b5b04945060008503611911575b819350505050919050565b600073ffffffffffffffffffffffffffffffffffffffff168273ffffffffffffffffffffffffffffffffffffffff16036119e35760006040517f64a0ae920000000000000000000000000000000000000000000000000000000081526004016119da919061279a565b60405180910390fd5b60006119f183836000611261565b9050600073ffffffffffffffffffffffffffffffffffffffff168173ffffffffffffffffffffffffffffffffffffffff1614611a655760006040517f73c6ac6e000000000000000000000000000000000000000000000000000000008152600401611a5c919061279a565b60405180910390fd5b505050565b60007f01ffc9a7000000000000000000000000000000000000000000000000000000007bffffffffffffffffffffffffffffffffffffffffffffffffffffffff1916827bffffffffffffffffffffffffffffffffffffffffffffffffffffffff1916149050919050565b60006002600083815260200190815260200160002060009054906101000a900473ffffffffffffffffffffffffffffffffffffffff169050919050565b8080611b4a5750600073ffffffffffffffffffffffffffffffffffffffff168273ffffffffffffffffffffffffffffffffffffffff1614155b15611c7e576000611b5a84611182565b9050600073ffffffffffffffffffffffffffffffffffffffff168373ffffffffffffffffffffffffffffffffffffffff1614158015611bc557508273ffffffffffffffffffffffffffffffffffffffff168173ffffffffffffffffffffffffffffffffffffffff1614155b8015611bd85750611bd68184610d08565b155b15611c1a57826040517fa9fbf51f000000000000000000000000000000000000000000000000000000008152600401611c11919061279a565b60405180910390fd5b8115611c7c57838573ffffffffffffffffffffffffffffffffffffffff168273ffffffffffffffffffffffffffffffffffffffff167f8c5be1e5ebec7d5bd14f71427d1e84f3dd0314c0f7b2291e5b200ac8c7c3b92560405160405180910390a45b505b836004600085815260200190815260200160002060006101000a81548173ffffffffffffffffffffffffffffffffffffffff021916908373ffffffffffffffffffffffffffffffffffffffff16021790555050505050565b600080611ce4858585611f46565b9050600073ffffffffffffffffffffffffffffffffffffffff168173ffffffffffffffffffffffffffffffffffffffff1603611d2857611d2384612160565b611d67565b8473ffffffffffffffffffffffffffffffffffffffff168173ffffffffffffffffffffffffffffffffffffffff1614611d6657611d6581856121a9565b5b5b600073ffffffffffffffffffffffffffffffffffffffff168573ffffffffffffffffffffffffffffffffffffffff1603611da957611da484612294565b611de8565b8473ffffffffffffffffffffffffffffffffffffffff168173ffffffffffffffffffffffffffffffffffffffff1614611de757611de68585612365565b5b5b809150509392505050565b600080600090507a184f03e93ff9f4daa797ed6e38ed64bf6a1f0100000000000000008310611e51577a184f03e93ff9f4daa797ed6e38ed64bf6a1f0100000000000000008381611e4757611e46612f29565b5b0492506040810190505b6d04ee2d6d415b85acef81000000008310611e8e576d04ee2d6d415b85acef81000000008381611e8457611e83612f29565b5b0492506020810190505b662386f26fc100008310611ebd57662386f26fc100008381611eb357611eb2612f29565b5b0492506010810190505b6305f5e1008310611ee6576305f5e1008381611edc57611edb612f29565b5b0492506008810190505b6127108310611f0b576127108381611f0157611f00612f29565b5b0492506004810190505b60648310611f2e5760648381611f2457611f23612f29565b5b0492506002810190505b600a8310611f3d576001810190505b80915050919050565b600080611f5284611ad4565b9050600073ffffffffffffffffffffffffffffffffffffffff168373ffffffffffffffffffffffffffffffffffffffff1614611f9457611f938184866123f0565b5b600073ffffffffffffffffffffffffffffffffffffffff168173ffffffffffffffffffffffffffffffffffffffff161461202557611fd6600085600080611b11565b6001600360008373ffffffffffffffffffffffffffffffffffffffff1673ffffffffffffffffffffffffffffffffffffffff168152602001908152602001600020600082825403925050819055505b600073ffffffffffffffffffffffffffffffffffffffff168573ffffffffffffffffffffffffffffffffffffffff16146120a8576001600360008773ffffffffffffffffffffffffffffffffffffffff1673ffffffffffffffffffffffffffffffffffffffff168152602001908152602001600020600082825401925050819055505b846002600086815260200190815260200160002060006101000a81548173ffffffffffffffffffffffffffffffffffffffff021916908373ffffffffffffffffffffffffffffffffffffffff160217905550838573ffffffffffffffffffffffffffffffffffffffff168273ffffffffffffffffffffffffffffffffffffffff167fddf252ad1be2c89b69c2b068fc378daa952ba7f163c4a11628f55a4df523b3ef60405160405180910390a4809150509392505050565b6008805490506009600083815260200190815260200160002081905550600881908060018154018082558091505060019003906000526020600020016000909190919091505550565b60006121b483610a5c565b90506000600760008481526020019081526020016000205490506000600660008673ffffffffffffffffffffffffffffffffffffffff1673ffffffffffffffffffffffffffffffffffffffff16815260200190815260200160002090508282146122605760008160008581526020019081526020016000205490508082600085815260200190815260200160002081905550826007600083815260200190815260200160002081905550505b6007600085815260200190815260200160002060009055806000848152602001908152602001600020600090555050505050565b600060016008805490506122a89190612f58565b90506000600960008481526020019081526020016000205490506000600883815481106122d8576122d7612bef565b5b9060005260206000200154905080600883815481106122fa576122f9612bef565b5b90600052602060002001819055508160096000838152602001908152602001600020819055506009600085815260200190815260200160002060009055600880548061234957612348612f8c565b5b6001900381819060005260206000200160009055905550505050565b6000600161237284610a5c565b61237c9190612f58565b905081600660008573ffffffffffffffffffffffffffffffffffffffff1673ffffffffffffffffffffffffffffffffffffffff168152602001908152602001600020600083815260200190815260200160002081905550806007600084815260200190815260200160002081905550505050565b6123fb8383836124b4565b6124af57600073ffffffffffffffffffffffffffffffffffffffff168373ffffffffffffffffffffffffffffffffffffffff160361247057806040517f7e273289000000000000000000000000000000000000000000000000000000008152600401612467919061285d565b60405180910390fd5b81816040517f177e802f0000000000000000000000000000000000000000000000000000000081526004016124a6929190612bc6565b60405180910390fd5b505050565b60008073ffffffffffffffffffffffffffffffffffffffff168373ffffffffffffffffffffffffffffffffffffffff161415801561256c57508273ffffffffffffffffffffffffffffffffffffffff168473ffffffffffffffffffffffffffffffffffffffff16148061252d575061252c8484610d08565b5b8061256b57508273ffffffffffffffffffffffffffffffffffffffff166125538361120a565b73ffffffffffffffffffffffffffffffffffffffff16145b5b90509392505050565b6000604051905090565b600080fd5b600080fd5b60007fffffffff0000000000000000000000000000000000000000000000000000000082169050919050565b6125be81612589565b81146125c957600080fd5b50565b6000813590506125db816125b5565b92915050565b6000602082840312156125f7576125f661257f565b5b6000612605848285016125cc565b91505092915050565b60008115159050919050565b6126238161260e565b82525050565b600060208201905061263e600083018461261a565b92915050565b600081519050919050565b600082825260208201905092915050565b60005b8381101561267e578082015181840152602081019050612663565b60008484015250505050565b6000601f19601f8301169050919050565b60006126a682612644565b6126b0818561264f565b93506126c0818560208601612660565b6126c98161268a565b840191505092915050565b600060208201905081810360008301526126ee818461269b565b905092915050565b6000819050919050565b612709816126f6565b811461271457600080fd5b50565b60008135905061272681612700565b92915050565b6000602082840312156127425761274161257f565b5b600061275084828501612717565b91505092915050565b600073ffffffffffffffffffffffffffffffffffffffff82169050919050565b600061278482612759565b9050919050565b61279481612779565b82525050565b60006020820190506127af600083018461278b565b92915050565b6127be81612779565b81146127c957600080fd5b50565b6000813590506127db816127b5565b92915050565b6000602082840312156127f7576127f661257f565b5b6000612805848285016127cc565b91505092915050565b600080604083850312156128255761282461257f565b5b6000612833858286016127cc565b925050602061284485828601612717565b9150509250929050565b612857816126f6565b82525050565b6000602082019050612872600083018461284e565b92915050565b6000806000606084860312156128915761289061257f565b5b600061289f868287016127cc565b93505060206128b0868287016127cc565b92505060406128c186828701612717565b9150509250925092565b6128d48161260e565b81146128df57600080fd5b50565b6000813590506128f1816128cb565b92915050565b6000806040838503121561290e5761290d61257f565b5b600061291c858286016127cc565b925050602061292d858286016128e2565b9150509250929050565b600080fd5b600080fd5b7f4e487b7100000000000000000000000000000000000000000000000000000000600052604160045260246000fd5b6129798261268a565b810181811067ffffffffffffffff8211171561299857612997612941565b5b80604052505050565b60006129ab612575565b90506129b78282612970565b919050565b600067ffffffffffffffff8211156129d7576129d6612941565b5b6129e08261268a565b9050602081019050919050565b82818337600083830152505050565b6000612a0f612a0a846129bc565b6129a1565b905082815260208101848484011115612a2b57612a2a61293c565b5b612a368482856129ed565b509392505050565b600082601f830112612a5357612a52612937565b5b8135612a638482602086016129fc565b91505092915050565b60008060008060808587031215612a8657612a8561257f565b5b6000612a94878288016127cc565b9450506020612aa5878288016127cc565b9350506040612ab687828801612717565b925050606085013567ffffffffffffffff811115612ad757612ad6612584565b5b612ae387828801612a3e565b91505092959194509250565b60008060408385031215612b0657612b0561257f565b5b6000612b14858286016127cc565b9250506020612b25858286016127cc565b9150509250929050565b7f4e487b7100000000000000000000000000000000000000000000000000000000600052602260045260246000fd5b60006002820490506001821680612b7657607f821691505b602082108103612b8957612b88612b2f565b5b50919050565b6000606082019050612ba4600083018661278b565b612bb1602083018561284e565b612bbe604083018461278b565b949350505050565b6000604082019050612bdb600083018561278b565b612be8602083018461284e565b9392505050565b7f4e487b7100000000000000000000000000000000000000000000000000000000600052603260045260246000fd5b600081905092915050565b6000612c3482612644565b612c3e8185612c1e565b9350612c4e818560208601612660565b80840191505092915050565b6000612c668285612c29565b9150612c728284612c29565b91508190509392505050565b7f416c72656164792061206d656d62657200000000000000000000000000000000600082015250565b6000612cb460108361264f565b9150612cbf82612c7e565b602082019050919050565b60006020820190508181036000830152612ce381612ca7565b9050919050565b6000606082019050612cff600083018661278b565b612d0c602083018561278b565b612d19604083018461284e565b949350505050565b600081519050612d30816128cb565b92915050565b600060208284031215612d4c57612d4b61257f565b5b6000612d5a84828501612d21565b91505092915050565b7f55534443207472616e73666572206661696c6564000000000000000000000000600082015250565b6000612d9960148361264f565b9150612da482612d63565b602082019050919050565b60006020820190508181036000830152612dc881612d8c565b9050919050565b7f4e487b7100000000000000000000000000000000000000000000000000000000600052601160045260246000fd5b6000612e09826126f6565b91507fffffffffffffffffffffffffffffffffffffffffffffffffffffffffffffffff8203612e3b57612e3a612dcf565b5b600182019050919050565b600081519050919050565b600082825260208201905092915050565b6000612e6d82612e46565b612e778185612e51565b9350612e87818560208601612660565b612e908161268a565b840191505092915050565b6000608082019050612eb0600083018761278b565b612ebd602083018661278b565b612eca604083018561284e565b8181036060830152612edc8184612e62565b905095945050505050565b600081519050612ef6816125b5565b92915050565b600060208284031215612f1257612f1161257f565b5b6000612f2084828501612ee7565b91505092915050565b7f4e487b7100000000000000000000000000000000000000000000000000000000600052601260045260246000fd5b6000612f63826126f6565b9150612f6e836126f6565b9250828203905081811115612f8657612f85612dcf565b5b92915050565b7f4e487b7100000000000000000000000000000000000000000000000000000000600052603160045260246000fdfea2646970667358221220c6f0ab79e0322083e78912713a5e50a0e9a435d2a8403ecbe801d0fc3450fca564736f6c6343000814003360806040523480156200001157600080fd5b506040516200210438038062002104833981810160405281019062000037919062000278565b80600073ffffffffffffffffffffffffffffffffffffffff168173ffffffffffffffffffffffffffffffffffffffff1603620000ad5760006040517f1e4fbdf7000000000000000000000000000000000000000000000000000000008152600401620000a49190620002e5565b60405180910390fd5b620000be816200014a60201b60201c565b5082600160006101000a81548173ffffffffffffffffffffffffffffffffffffffff021916908373ffffffffffffffffffffffffffffffffffffffff16021790555081600260006101000a81548173ffffffffffffffffffffffffffffffffffffffff021916908373ffffffffffffffffffffffffffffffffffffffff16021790555050505062000302565b60008060009054906101000a900473ffffffffffffffffffffffffffffffffffffffff169050816000806101000a81548173ffffffffffffffffffffffffffffffffffffffff021916908373ffffffffffffffffffffffffffffffffffffffff1602179055508173ffffffffffffffffffffffffffffffffffffffff168173ffffffffffffffffffffffffffffffffffffffff167f8be0079c531659141344cd1fd0a4f28419497f9722a3daafe3b4186f6b6457e060405160405180910390a35050565b600080fd5b600073ffffffffffffffffffffffffffffffffffffffff82169050919050565b6000620002408262000213565b9050919050565b620002528162000233565b81146200025e57600080fd5b50565b600081519050620002728162000247565b92915050565b6000806000606084860312156200029457620002936200020e565b5b6000620002a48682870162000261565b9350506020620002b78682870162000261565b9250506040620002ca8682870162000261565b9150509250925092565b620002df8162000233565b82525050565b6000602082019050620002fc6000830184620002d4565b92915050565b611df280620003126000396000f3fe608060405234801561001057600080fd5b50600436106100cf5760003560e01c806351ec8d1e1161008c5780638da5cb5b116100665780638da5cb5b146101ef578063b172b2221461020d578063f2fde38b1461022b578063f8defa3c14610247576100cf565b806351ec8d1e14610194578063715018a6146101b257806387d81789146101bc576100cf565b80631129753f146100d457806311eac855146100f057806312065fe01461010e578063162a0cf81461012c57806317560f29146101485780633b76594d14610178575b600080fd5b6100ee60048036038101906100e9919061108d565b610265565b005b6100f8610357565b60405161010591906110c9565b60405180910390f35b61011661037d565b60405161012391906110fd565b60405180910390f35b61014660048036038101906101419190611144565b610420565b005b610162600480360381019061015d91906112b7565b6107c5565b60405161016f91906110fd565b60405180910390f35b610192600480360381019061018d9190611144565b61095a565b005b61019c610b58565b6040516101a991906110c9565b60405180910390f35b6101ba610b7e565b005b6101d660048036038101906101d19190611144565b610b92565b6040516101e694939291906113c0565b60405180910390f35b6101f7610c87565b60405161020491906110c9565b60405180910390f35b610215610cb0565b60405161022291906110c9565b60405180910390f35b6102456004803603810190610240919061108d565b610cd6565b005b61024f610d5c565b60405161025c91906115a8565b60405180910390f35b61026d610ec8565b600073ffffffffffffffffffffffffffffffffffffffff168173ffffffffffffffffffffffffffffffffffffffff16036102dc576040517f08c379a00000000000000000000000000000000000000000000000000000000081526004016102d39061163c565b60405180910390fd5b80600360006101000a81548173ffffffffffffffffffffffffffffffffffffffff021916908373ffffffffffffffffffffffffffffffffffffffff1602179055507f2bf79e6c54fa8159bd63e520bd2627b8c9f7bba4561d8844d1f0eeb9f5684f738160405161034c91906110c9565b60405180910390a150565b600160009054906101000a900473ffffffffffffffffffffffffffffffffffffffff1681565b6000600160009054906101000a900473ffffffffffffffffffffffffffffffffffffffff1673ffffffffffffffffffffffffffffffffffffffff166370a08231306040518263ffffffff1660e01b81526004016103da91906110c9565b602060405180830381865afa1580156103f7573d6000803e3d6000fd5b505050506040513d601f19601f8201168201806040525081019061041b9190611671565b905090565b600360009054906101000a900473ffffffffffffffffffffffffffffffffffffffff1673ffffffffffffffffffffffffffffffffffffffff163373ffffffffffffffffffffffffffffffffffffffff16146104b0576040517f08c379a00000000000000000000000000000000000000000000000000000000081526004016104a7906116ea565b60405180910390fd5b60048054905081106104f7576040517f08c379a00000000000000000000000000000000000000000000000000000000081526004016104ee90611756565b60405180910390fd5b60006004828154811061050d5761050c611776565b5b906000526020600020906004020190508060030160009054906101000a900460ff161561056f576040517f08c379a0000000000000000000000000000000000000000000000000000000008152600401610566906117f1565b60405180910390fd5b6000600160009054906101000a900473ffffffffffffffffffffffffffffffffffffffff16905081600101548173ffffffffffffffffffffffffffffffffffffffff166370a08231306040518263ffffffff1660e01b81526004016105d491906110c9565b602060405180830381865afa1580156105f1573d6000803e3d6000fd5b505050506040513d601f19601f820116820180604052508101906106159190611671565b1015610656576040517f08c379a000000000000000000000000000000000000000000000000000000000815260040161064d9061185d565b60405180910390fd5b60018260030160006101000a81548160ff0219169083151502179055508073ffffffffffffffffffffffffffffffffffffffff1663a9059cbb8360000160009054906101000a900473ffffffffffffffffffffffffffffffffffffffff1684600101546040518363ffffffff1660e01b81526004016106d692919061187d565b6020604051808303816000875af11580156106f5573d6000803e3d6000fd5b505050506040513d601f19601f8201168201806040525081019061071991906118d2565b610758576040517f08c379a000000000000000000000000000000000000000000000000000000000815260040161074f9061194b565b60405180910390fd5b7f6953fabd5ab3b7899f327aa5434ec569ed61e749fa6815574aee51d67b344202838360000160009054906101000a900473ffffffffffffffffffffffffffffffffffffffff168460010154856002016040516107b89493929190611a64565b60405180910390a1505050565b6000600360009054906101000a900473ffffffffffffffffffffffffffffffffffffffff1673ffffffffffffffffffffffffffffffffffffffff163373ffffffffffffffffffffffffffffffffffffffff1614610857576040517f08c379a000000000000000000000000000000000000000000000000000000000815260040161084e906116ea565b60405180910390fd5b60006004805490509050600460405180608001604052808773ffffffffffffffffffffffffffffffffffffffff16815260200186815260200185815260200160001515815250908060018154018082558091505060019003906000526020600020906004020160009091909190915060008201518160000160006101000a81548173ffffffffffffffffffffffffffffffffffffffff021916908373ffffffffffffffffffffffffffffffffffffffff16021790555060208201518160010155604082015181600201908161092c9190611c47565b5060608201518160030160006101000a81548160ff0219169083151502179055505050809150509392505050565b600260009054906101000a900473ffffffffffffffffffffffffffffffffffffffff1673ffffffffffffffffffffffffffffffffffffffff1663a230c524336040518263ffffffff1660e01b81526004016109b591906110c9565b602060405180830381865afa1580156109d2573d6000803e3d6000fd5b505050506040513d601f19601f820116820180604052508101906109f691906118d2565b610a35576040517f08c379a0000000000000000000000000000000000000000000000000000000008152600401610a2c90611d65565b60405180910390fd5b6000600160009054906101000a900473ffffffffffffffffffffffffffffffffffffffff1690508073ffffffffffffffffffffffffffffffffffffffff166323b872dd3330856040518463ffffffff1660e01b8152600401610a9993929190611d85565b6020604051808303816000875af1158015610ab8573d6000803e3d6000fd5b505050506040513d601f19601f82011682018060405250810190610adc91906118d2565b610b1b576040517f08c379a0000000000000000000000000000000000000000000000000000000008152600401610b129061194b565b60405180910390fd5b7f8e47b87b0ef542cdfa1659c551d88bad38aa7f452d2bbb349ab7530dfec8be8f3383604051610b4c92919061187d565b60405180910390a15050565b600260009054906101000a900473ffffffffffffffffffffffffffffffffffffffff1681565b610b86610ec8565b610b906000610f4f565b565b60048181548110610ba257600080fd5b90600052602060002090600402016000915090508060000160009054906101000a900473ffffffffffffffffffffffffffffffffffffffff1690806001015490806002018054610bf19061199a565b80601f0160208091040260200160405190810160405280929190818152602001828054610c1d9061199a565b8015610c6a5780601f10610c3f57610100808354040283529160200191610c6a565b820191906000526020600020905b815481529060010190602001808311610c4d57829003601f168201915b5050505050908060030160009054906101000a900460ff16905084565b60008060009054906101000a900473ffffffffffffffffffffffffffffffffffffffff16905090565b600360009054906101000a900473ffffffffffffffffffffffffffffffffffffffff1681565b610cde610ec8565b600073ffffffffffffffffffffffffffffffffffffffff168173ffffffffffffffffffffffffffffffffffffffff1603610d505760006040517f1e4fbdf7000000000000000000000000000000000000000000000000000000008152600401610d4791906110c9565b60405180910390fd5b610d5981610f4f565b50565b60606004805480602002602001604051908101604052809291908181526020016000905b82821015610ebf57838290600052602060002090600402016040518060800160405290816000820160009054906101000a900473ffffffffffffffffffffffffffffffffffffffff1673ffffffffffffffffffffffffffffffffffffffff1673ffffffffffffffffffffffffffffffffffffffff16815260200160018201548152602001600282018054610e139061199a565b80601f0160208091040260200160405190810160405280929190818152602001828054610e3f9061199a565b8015610e8c5780601f10610e6157610100808354040283529160200191610e8c565b820191906000526020600020905b815481529060010190602001808311610e6f57829003601f168201915b505050505081526020016003820160009054906101000a900460ff16151515158152505081526020019060010190610d80565b50505050905090565b610ed0611013565b73ffffffffffffffffffffffffffffffffffffffff16610eee610c87565b73ffffffffffffffffffffffffffffffffffffffff1614610f4d57610f11611013565b6040517f118cdaa7000000000000000000000000000000000000000000000000000000008152600401610f4491906110c9565b60405180910390fd5b565b60008060009054906101000a900473ffffffffffffffffffffffffffffffffffffffff169050816000806101000a81548173ffffffffffffffffffffffffffffffffffffffff021916908373ffffffffffffffffffffffffffffffffffffffff1602179055508173ffffffffffffffffffffffffffffffffffffffff168173ffffffffffffffffffffffffffffffffffffffff167f8be0079c531659141344cd1fd0a4f28419497f9722a3daafe3b4186f6b6457e060405160405180910390a35050565b600033905090565b6000604051905090565b600080fd5b600080fd5b600073ffffffffffffffffffffffffffffffffffffffff82169050919050565b600061105a8261102f565b9050919050565b61106a8161104f565b811461107557600080fd5b50565b60008135905061108781611061565b92915050565b6000602082840312156110a3576110a2611025565b5b60006110b184828501611078565b91505092915050565b6110c38161104f565b82525050565b60006020820190506110de60008301846110ba565b92915050565b6000819050919050565b6110f7816110e4565b82525050565b600060208201905061111260008301846110ee565b92915050565b611121816110e4565b811461112c57600080fd5b50565b60008135905061113e81611118565b92915050565b60006020828403121561115a57611159611025565b5b60006111688482850161112f565b91505092915050565b600080fd5b600080fd5b6000601f19601f8301169050919050565b7f4e487b7100000000000000000000000000000000000000000000000000000000600052604160045260246000fd5b6111c48261117b565b810181811067ffffffffffffffff821117156111e3576111e261118c565b5b80604052505050565b60006111f661101b565b905061120282826111bb565b919050565b600067ffffffffffffffff8211156112225761122161118c565b5b61122b8261117b565b9050602081019050919050565b82818337600083830152505050565b600061125a61125584611207565b6111ec565b90508281526020810184848401111561127657611275611176565b5b611281848285611238565b509392505050565b600082601f83011261129e5761129d611171565b5b81356112ae848260208601611247565b91505092915050565b6000806000606084860312156112d0576112cf611025565b5b60006112de86828701611078565b93505060206112ef8682870161112f565b925050604084013567ffffffffffffffff8111156113105761130f61102a565b5b61131c86828701611289565b9150509250925092565b600081519050919050565b600082825260208201905092915050565b60005b83811015611360578082015181840152602081019050611345565b60008484015250505050565b600061137782611326565b6113818185611331565b9350611391818560208601611342565b61139a8161117b565b840191505092915050565b60008115159050919050565b6113ba816113a5565b82525050565b60006080820190506113d560008301876110ba565b6113e260208301866110ee565b81810360408301526113f4818561136c565b905061140360608301846113b1565b95945050505050565b600081519050919050565b600082825260208201905092915050565b6000819050602082019050919050565b6114418161104f565b82525050565b611450816110e4565b82525050565b600082825260208201905092915050565b600061147282611326565b61147c8185611456565b935061148c818560208601611342565b6114958161117b565b840191505092915050565b6114a9816113a5565b82525050565b60006080830160008301516114c76000860182611438565b5060208301516114da6020860182611447565b50604083015184820360408601526114f28282611467565b915050606083015161150760608601826114a0565b508091505092915050565b600061151e83836114af565b905092915050565b6000602082019050919050565b600061153e8261140c565b6115488185611417565b93508360208202850161155a85611428565b8060005b8581101561159657848403895281516115778582611512565b945061158283611526565b925060208a0199505060018101905061155e565b50829750879550505050505092915050565b600060208201905081810360008301526115c28184611533565b905092915050565b7f496e76616c696420676f7665726e616e636520636f6e7472616374206164647260008201527f6573730000000000000000000000000000000000000000000000000000000000602082015250565b6000611626602383611331565b9150611631826115ca565b604082019050919050565b6000602082019050818103600083015261165581611619565b9050919050565b60008151905061166b81611118565b92915050565b60006020828403121561168757611686611025565b5b60006116958482850161165c565b91505092915050565b7f4f6e6c7920676f7665726e616e63652063616e2063616c6c0000000000000000600082015250565b60006116d4601883611331565b91506116df8261169e565b602082019050919050565b60006020820190508181036000830152611703816116c7565b9050919050565b7f496e76616c6964207061796d656e742049440000000000000000000000000000600082015250565b6000611740601283611331565b915061174b8261170a565b602082019050919050565b6000602082019050818103600083015261176f81611733565b9050919050565b7f4e487b7100000000000000000000000000000000000000000000000000000000600052603260045260246000fd5b7f5061796d656e7420616c72656164792065786563757465640000000000000000600082015250565b60006117db601883611331565b91506117e6826117a5565b602082019050919050565b6000602082019050818103600083015261180a816117ce565b9050919050565b7f496e73756666696369656e742074726561737572792066756e64730000000000600082015250565b6000611847601b83611331565b915061185282611811565b602082019050919050565b600060208201905081810360008301526118768161183a565b9050919050565b600060408201905061189260008301856110ba565b61189f60208301846110ee565b9392505050565b6118af816113a5565b81146118ba57600080fd5b50565b6000815190506118cc816118a6565b92915050565b6000602082840312156118e8576118e7611025565b5b60006118f6848285016118bd565b91505092915050565b7f55534443207472616e73666572206661696c6564000000000000000000000000600082015250565b6000611935601483611331565b9150611940826118ff565b602082019050919050565b6000602082019050818103600083015261196481611928565b9050919050565b7f4e487b7100000000000000000000000000000000000000000000000000000000600052602260045260246000fd5b600060028204905060018216806119b257607f821691505b6020821081036119c5576119c461196b565b5b50919050565b60008190508160005260206000209050919050565b600081546119ed8161199a565b6119f78186611331565b94506001821660008114611a125760018114611a2857611a5b565b60ff198316865281151560200286019350611a5b565b611a31856119cb565b60005b83811015611a5357815481890152600182019150602081019050611a34565b808801955050505b50505092915050565b6000608082019050611a7960008301876110ee565b611a8660208301866110ba565b611a9360408301856110ee565b8181036060830152611aa581846119e0565b905095945050505050565b60006020601f8301049050919050565b600082821b905092915050565b600060088302611afd7fffffffffffffffffffffffffffffffffffffffffffffffffffffffffffffffff82611ac0565b611b078683611ac0565b95508019841693508086168417925050509392505050565b6000819050919050565b6000611b44611b3f611b3a846110e4565b611b1f565b6110e4565b9050919050565b6000819050919050565b611b5e83611b29565b611b72611b6a82611b4b565b848454611acd565b825550505050565b600090565b611b87611b7a565b611b92818484611b55565b505050565b5b81811015611bb657611bab600082611b7f565b600181019050611b98565b5050565b601f821115611bfb57611bcc816119cb565b611bd584611ab0565b81016020851015611be4578190505b611bf8611bf085611ab0565b830182611b97565b50505b505050565b600082821c905092915050565b6000611c1e60001984600802611c00565b1980831691505092915050565b6000611c378383611c0d565b9150826002028217905092915050565b611c5082611326565b67ffffffffffffffff811115611c6957611c6861118c565b5b611c73825461199a565b611c7e828285611bba565b600060209050601f831160018114611cb15760008415611c9f578287015190505b611ca98582611c2b565b865550611d11565b601f198416611cbf866119cb565b60005b82811015611ce757848901518255600182019150602085019450602081019050611cc2565b86831015611d045784890151611d00601f891682611c0d565b8355505b6001600288020188555050505b505050505050565b7f4e6f7420612044414f206d656d62657200000000000000000000000000000000600082015250565b6000611d4f601083611331565b9150611d5a82611d19565b602082019050919050565b60006020820190508181036000830152611d7e81611d42565b9050919050565b6000606082019050611d9a60008301866110ba565b611da760208301856110ba565b611db460408301846110ee565b94935050505056fea2646970667358221220b2392255f27ef480046d8165c1f2750198371d0e9506c97c5e3a602553d86d5464736f6c6343000814003360806040523480156200001157600080fd5b506040516200273a3803806200273a8339818101604052810190620000379190620002fd565b80600073ffffffffffffffffffffffffffffffffffffffff168173ffffffffffffffffffffffffffffffffffffffff1603620000ad5760006040517f1e4fbdf7000000000000000000000000000000000000000000000000000000008152600401620000a4919062000396565b60405180910390fd5b620000be816200019460201b60201c565b5084600160006101000a81548173ffffffffffffffffffffffffffffffffffffffff021916908373ffffffffffffffffffffffffffffffffffffffff16021790555083600260006101000a81548173ffffffffffffffffffffffffffffffffffffffff021916908373ffffffffffffffffffffffffffffffffffffffff16021790555082600360006101000a81548173ffffffffffffffffffffffffffffffffffffffff021916908373ffffffffffffffffffffffffffffffffffffffff160217905550816004819055505050505050620003b3565b60008060009054906101000a900473ffffffffffffffffffffffffffffffffffffffff169050816000806101000a81548173ffffffffffffffffffffffffffffffffffffffff021916908373ffffffffffffffffffffffffffffffffffffffff1602179055508173ffffffffffffffffffffffffffffffffffffffff168173ffffffffffffffffffffffffffffffffffffffff167f8be0079c531659141344cd1fd0a4f28419497f9722a3daafe3b4186f6b6457e060405160405180910390a35050565b600080fd5b600073ffffffffffffffffffffffffffffffffffffffff82169050919050565b60006200028a826200025d565b9050919050565b6200029c816200027d565b8114620002a857600080fd5b50565b600081519050620002bc8162000291565b92915050565b6000819050919050565b620002d781620002c2565b8114620002e357600080fd5b50565b600081519050620002f781620002cc565b92915050565b600080600080600060a086880312156200031c576200031b62000258565b5b60006200032c88828901620002ab565b95505060206200033f88828901620002ab565b94505060406200035288828901620002ab565b93505060606200036588828901620002e6565b92505060806200037888828901620002ab565b9150509295509295909350565b62000390816200027d565b82525050565b6000602082019050620003ad600083018462000385565b92915050565b61237780620003c36000396000f3fe608060405234801561001057600080fd5b50600436106100f55760003560e01c806357ad627911610097578063c08cc02d11610066578063c08cc02d1461026c578063c7f758a81461028a578063c9d27afe146102ba578063f2fde38b146102d6576100f5565b806357ad62791461020a578063715018a6146102265780638da5cb5b14610230578063b58131b01461024e576100f5565b80631eff4322116100d35780631eff43221461017057806343859632146101a057806351ec8d1e146101d05780635652077c146101ee576100f5565b8063013cf08b146100fa57806311eac8551461013457806318da001114610152575b600080fd5b610114600480360381019061010f9190611442565b6102f2565b60405161012b9b9a999897969594939291906115c6565b60405180910390f35b61013c6104a9565b604051610149919061167f565b60405180910390f35b61015a6104cf565b604051610167919061167f565b60405180910390f35b61018a600480360381019061018591906117fb565b6104f5565b60405161019791906118ae565b60405180910390f35b6101ba60048036038101906101b591906118c9565b610759565b6040516101c79190611924565b60405180910390f35b6101d86107c4565b6040516101e5919061167f565b60405180910390f35b61020860048036038101906102039190611442565b6107ea565b005b610224600480360381019061021f9190611442565b610913565b005b61022e61095c565b005b610238610970565b604051610245919061167f565b60405180910390f35b610256610999565b60405161026391906118ae565b60405180910390f35b61027461099f565b60405161028191906118ae565b60405180910390f35b6102a4600480360381019061029f9190611442565b6109a9565b6040516102b19190611aac565b60405180910390f35b6102d460048036038101906102cf9190611afa565b610c2a565b005b6102f060048036038101906102eb9190611b3a565b610fb2565b005b60066020528060005260406000206000915090508060000154908060010160009054906101000a900473ffffffffffffffffffffffffffffffffffffffff169080600201805461034190611b96565b80601f016020809104026020016040519081016040528092919081815260200182805461036d90611b96565b80156103ba5780601f1061038f576101008083540402835291602001916103ba565b820191906000526020600020905b81548152906001019060200180831161039d57829003601f168201915b5050505050908060030180546103cf90611b96565b80601f01602080910402602001604051908101604052809291908181526020018280546103fb90611b96565b80156104485780601f1061041d57610100808354040283529160200191610448565b820191906000526020600020905b81548152906001019060200180831161042b57829003601f168201915b5050505050908060040154908060050160009054906101000a900473ffffffffffffffffffffffffffffffffffffffff16908060060154908060070154908060080160009054906101000a900460ff169080600901549080600a015490508b565b600160009054906101000a900473ffffffffffffffffffffffffffffffffffffffff1681565b600360009054906101000a900473ffffffffffffffffffffffffffffffffffffffff1681565b6000600260009054906101000a900473ffffffffffffffffffffffffffffffffffffffff1673ffffffffffffffffffffffffffffffffffffffff1663a230c524336040518263ffffffff1660e01b8152600401610552919061167f565b602060405180830381865afa15801561056f573d6000803e3d6000fd5b505050506040513d601f19601f820116820180604052508101906105939190611bdc565b6105d2576040517f08c379a00000000000000000000000000000000000000000000000000000000081526004016105c990611c55565b60405180910390fd5b600560008154809291906105e590611ca4565b9190505550600060055490506000600660008381526020019081526020016000209050818160000181905550338160010160006101000a81548173ffffffffffffffffffffffffffffffffffffffff021916908373ffffffffffffffffffffffffffffffffffffffff160217905550878160020190816106659190611e98565b50868160030190816106779190611e98565b50858160040181905550848160050160006101000a81548173ffffffffffffffffffffffffffffffffffffffff021916908373ffffffffffffffffffffffffffffffffffffffff16021790555060008160080160006101000a81548160ff021916908360038111156106ec576106eb61154f565b5b021790555042816009018190555083426107069190611f6a565b81600a01819055507f98120a6aaa04295520ab4e01c6c1235dd316e822cc9ff31db7b3f197366d18bd82338a896040516107439493929190611f9e565b60405180910390a1819250505095945050505050565b600060066000848152602001908152602001600020600b0160008373ffffffffffffffffffffffffffffffffffffffff1673ffffffffffffffffffffffffffffffffffffffff16815260200190815260200160002060009054906101000a900460ff16905092915050565b600260009054906101000a900473ffffffffffffffffffffffffffffffffffffffff1681565b60006006600083815260200190815260200160002090506000816000015411610848576040517f08c379a000000000000000000000000000000000000000000000000000000000815260040161083f90612036565b60405180910390fd5b6000600381111561085c5761085b61154f565b5b8160080160009054906101000a900460ff1660038111156108805761087f61154f565b5b146108c0576040517f08c379a00000000000000000000000000000000000000000000000000000000081526004016108b7906120a2565b60405180910390fd5b80600a01544211610906576040517f08c379a00000000000000000000000000000000000000000000000000000000081526004016108fd9061210e565b60405180910390fd5b61090f82611038565b5050565b61091b61120d565b806004819055507f75176781f69c55e26fee85d480452b0b9038b9428704bb7b232fc1c638bbf8038160405161095191906118ae565b60405180910390a150565b61096461120d565b61096e6000611294565b565b60008060009054906101000a900473ffffffffffffffffffffffffffffffffffffffff16905090565b60045481565b6000600554905090565b6109b1611360565b60006006600084815260200190815260200160002090506000816000015411610a0f576040517f08c379a0000000000000000000000000000000000000000000000000000000008152600401610a0690612036565b60405180910390fd5b604051806101600160405280826000015481526020018260010160009054906101000a900473ffffffffffffffffffffffffffffffffffffffff1673ffffffffffffffffffffffffffffffffffffffff168152602001826002018054610a7490611b96565b80601f0160208091040260200160405190810160405280929190818152602001828054610aa090611b96565b8015610aed5780601f10610ac257610100808354040283529160200191610aed565b820191906000526020600020905b815481529060010190602001808311610ad057829003601f168201915b50505050508152602001826003018054610b0690611b96565b80601f0160208091040260200160405190810160405280929190818152602001828054610b3290611b96565b8015610b7f5780601f10610b5457610100808354040283529160200191610b7f565b820191906000526020600020905b815481529060010190602001808311610b6257829003601f168201915b50505050508152602001826004015481526020018260050160009054906101000a900473ffffffffffffffffffffffffffffffffffffffff1673ffffffffffffffffffffffffffffffffffffffff16815260200182600601548152602001826007015481526020018260080160009054906101000a900460ff166003811115610c0b57610c0a61154f565b5b81526020018260090154815260200182600a0154815250915050919050565b600260009054906101000a900473ffffffffffffffffffffffffffffffffffffffff1673ffffffffffffffffffffffffffffffffffffffff1663a230c524336040518263ffffffff1660e01b8152600401610c85919061167f565b602060405180830381865afa158015610ca2573d6000803e3d6000fd5b505050506040513d601f19601f82011682018060405250810190610cc69190611bdc565b610d05576040517f08c379a0000000000000000000000000000000000000000000000000000000008152600401610cfc90611c55565b60405180910390fd5b60006006600084815260200190815260200160002090506000816000015411610d63576040517f08c379a0000000000000000000000000000000000000000000000000000000008152600401610d5a90612036565b60405180910390fd5b60006003811115610d7757610d7661154f565b5b8160080160009054906101000a900460ff166003811115610d9b57610d9a61154f565b5b14610ddb576040517f08c379a0000000000000000000000000000000000000000000000000000000008152600401610dd2906120a2565b60405180910390fd5b80600a0154421115610e22576040517f08c379a0000000000000000000000000000000000000000000000000000000008152600401610e199061217a565b60405180910390fd5b80600b0160003373ffffffffffffffffffffffffffffffffffffffff1673ffffffffffffffffffffffffffffffffffffffff16815260200190815260200160002060009054906101000a900460ff1615610eb1576040517f08c379a0000000000000000000000000000000000000000000000000000000008152600401610ea8906121e6565b60405180910390fd5b600181600b0160003373ffffffffffffffffffffffffffffffffffffffff1673ffffffffffffffffffffffffffffffffffffffff16815260200190815260200160002060006101000a81548160ff0219169083151502179055508115610f3057806006016000815480929190610f2690611ca4565b9190505550610f4b565b806007016000815480929190610f4590611ca4565b91905055505b7ff2913dbe661ee2acc4a046d8fbcdc792373bda34c41c6086484b5345e5785e5f833384604051610f7e93929190612206565b60405180910390a180600a0154421180610f9e5750600454816006015410155b15610fad57610fac83611038565b5b505050565b610fba61120d565b600073ffffffffffffffffffffffffffffffffffffffff168173ffffffffffffffffffffffffffffffffffffffff160361102c5760006040517f1e4fbdf7000000000000000000000000000000000000000000000000000000008152600401611023919061167f565b60405180910390fd5b61103581611294565b50565b60006006600083815260200190815260200160002090508060070154816006015411801561106c5750600454816006015410155b156111db5760018160080160006101000a81548160ff021916908360038111156110995761109861154f565b5b02179055506000600360009054906101000a900473ffffffffffffffffffffffffffffffffffffffff1690508073ffffffffffffffffffffffffffffffffffffffff166317560f298360050160009054906101000a900473ffffffffffffffffffffffffffffffffffffffff168460040154856002016040518463ffffffff1660e01b815260040161112d939291906122c1565b6020604051808303816000875af115801561114c573d6000803e3d6000fd5b505050506040513d601f19601f820116820180604052508101906111709190612314565b5060038260080160006101000a81548160ff021916908360038111156111995761119861154f565b5b02179055507f712ae1383f79ac853f8d882153778e0260ef8f03b504e2866e0593e04d2b291f836040516111cd91906118ae565b60405180910390a150611209565b60028160080160006101000a81548160ff021916908360038111156112035761120261154f565b5b02179055505b5050565b611215611358565b73ffffffffffffffffffffffffffffffffffffffff16611233610970565b73ffffffffffffffffffffffffffffffffffffffff161461129257611256611358565b6040517f118cdaa7000000000000000000000000000000000000000000000000000000008152600401611289919061167f565b60405180910390fd5b565b60008060009054906101000a900473ffffffffffffffffffffffffffffffffffffffff169050816000806101000a81548173ffffffffffffffffffffffffffffffffffffffff021916908373ffffffffffffffffffffffffffffffffffffffff1602179055508173ffffffffffffffffffffffffffffffffffffffff168173ffffffffffffffffffffffffffffffffffffffff167f8be0079c531659141344cd1fd0a4f28419497f9722a3daafe3b4186f6b6457e060405160405180910390a35050565b600033905090565b60405180610160016040528060008152602001600073ffffffffffffffffffffffffffffffffffffffff168152602001606081526020016060815260200160008152602001600073ffffffffffffffffffffffffffffffffffffffff1681526020016000815260200160008152602001600060038111156113e4576113e361154f565b5b815260200160008152602001600081525090565b6000604051905090565b600080fd5b600080fd5b6000819050919050565b61141f8161140c565b811461142a57600080fd5b50565b60008135905061143c81611416565b92915050565b60006020828403121561145857611457611402565b5b60006114668482850161142d565b91505092915050565b6114788161140c565b82525050565b600073ffffffffffffffffffffffffffffffffffffffff82169050919050565b60006114a98261147e565b9050919050565b6114b98161149e565b82525050565b600081519050919050565b600082825260208201905092915050565b60005b838110156114f95780820151818401526020810190506114de565b60008484015250505050565b6000601f19601f8301169050919050565b6000611521826114bf565b61152b81856114ca565b935061153b8185602086016114db565b61154481611505565b840191505092915050565b7f4e487b7100000000000000000000000000000000000000000000000000000000600052602160045260246000fd5b6004811061158f5761158e61154f565b5b50565b60008190506115a08261157e565b919050565b60006115b082611592565b9050919050565b6115c0816115a5565b82525050565b6000610160820190506115dc600083018e61146f565b6115e9602083018d6114b0565b81810360408301526115fb818c611516565b9050818103606083015261160f818b611516565b905061161e608083018a61146f565b61162b60a08301896114b0565b61163860c083018861146f565b61164560e083018761146f565b6116536101008301866115b7565b61166161012083018561146f565b61166f61014083018461146f565b9c9b505050505050505050505050565b600060208201905061169460008301846114b0565b92915050565b600080fd5b600080fd5b7f4e487b7100000000000000000000000000000000000000000000000000000000600052604160045260246000fd5b6116dc82611505565b810181811067ffffffffffffffff821117156116fb576116fa6116a4565b5b80604052505050565b600061170e6113f8565b905061171a82826116d3565b919050565b600067ffffffffffffffff82111561173a576117396116a4565b5b61174382611505565b9050602081019050919050565b82818337600083830152505050565b600061177261176d8461171f565b611704565b90508281526020810184848401111561178e5761178d61169f565b5b611799848285611750565b509392505050565b600082601f8301126117b6576117b561169a565b5b81356117c684826020860161175f565b91505092915050565b6117d88161149e565b81146117e357600080fd5b50565b6000813590506117f5816117cf565b92915050565b600080600080600060a0868803121561181757611816611402565b5b600086013567ffffffffffffffff81111561183557611834611407565b5b611841888289016117a1565b955050602086013567ffffffffffffffff81111561186257611861611407565b5b61186e888289016117a1565b945050604061187f8882890161142d565b9350506060611890888289016117e6565b92505060806118a18882890161142d565b9150509295509295909350565b60006020820190506118c3600083018461146f565b92915050565b600080604083850312156118e0576118df611402565b5b60006118ee8582860161142d565b92505060206118ff858286016117e6565b9150509250929050565b60008115159050919050565b61191e81611909565b82525050565b60006020820190506119396000830184611915565b92915050565b6119488161140c565b82525050565b6119578161149e565b82525050565b600082825260208201905092915050565b6000611979826114bf565b611983818561195d565b93506119938185602086016114db565b61199c81611505565b840191505092915050565b6119b0816115a5565b82525050565b6000610160830160008301516119cf600086018261193f565b5060208301516119e2602086018261194e565b50604083015184820360408601526119fa828261196e565b91505060608301518482036060860152611a14828261196e565b9150506080830151611a29608086018261193f565b5060a0830151611a3c60a086018261194e565b5060c0830151611a4f60c086018261193f565b5060e0830151611a6260e086018261193f565b50610100830151611a776101008601826119a7565b50610120830151611a8c61012086018261193f565b50610140830151611aa161014086018261193f565b508091505092915050565b60006020820190508181036000830152611ac681846119b6565b905092915050565b611ad781611909565b8114611ae257600080fd5b50565b600081359050611af481611ace565b92915050565b60008060408385031215611b1157611b10611402565b5b6000611b1f8582860161142d565b9250506020611b3085828601611ae5565b9150509250929050565b600060208284031215611b5057611b4f611402565b5b6000611b5e848285016117e6565b91505092915050565b7f4e487b7100000000000000000000000000000000000000000000000000000000600052602260045260246000fd5b60006002820490506001821680611bae57607f821691505b602082108103611bc157611bc0611b67565b5b50919050565b600081519050611bd681611ace565b92915050565b600060208284031215611bf257611bf1611402565b5b6000611c0084828501611bc7565b91505092915050565b7f4e6f7420612044414f206d656d62657200000000000000000000000000000000600082015250565b6000611c3f6010836114ca565b9150611c4a82611c09565b602082019050919050565b60006020820190508181036000830152611c6e81611c32565b9050919050565b7f4e487b7100000000000000000000000000000000000000000000000000000000600052601160045260246000fd5b6000611caf8261140c565b91507fffffffffffffffffffffffffffffffffffffffffffffffffffffffffffffffff8203611ce157611ce0611c75565b5b600182019050919050565b60008190508160005260206000209050919050565b60006020601f8301049050919050565b600082821b905092915050565b600060088302611d4e7fffffffffffffffffffffffffffffffffffffffffffffffffffffffffffffffff82611d11565b611d588683611d11565b95508019841693508086168417925050509392505050565b6000819050919050565b6000611d95611d90611d8b8461140c565b611d70565b61140c565b9050919050565b6000819050919050565b611daf83611d7a565b611dc3611dbb82611d9c565b848454611d1e565b825550505050565b600090565b611dd8611dcb565b611de3818484611da6565b505050565b5b81811015611e0757611dfc600082611dd0565b600181019050611de9565b5050565b601f821115611e4c57611e1d81611cec565b611e2684611d01565b81016020851015611e35578190505b611e49611e4185611d01565b830182611de8565b50505b505050565b600082821c905092915050565b6000611e6f60001984600802611e51565b1980831691505092915050565b6000611e888383611e5e565b9150826002028217905092915050565b611ea1826114bf565b67ffffffffffffffff811115611eba57611eb96116a4565b5b611ec48254611b96565b611ecf828285611e0b565b600060209050601f831160018114611f025760008415611ef0578287015190505b611efa8582611e7c565b865550611f62565b601f198416611f1086611cec565b60005b82811015611f3857848901518255600182019150602085019450602081019050611f13565b86831015611f555784890151611f51601f891682611e5e565b8355505b6001600288020188555050505b505050505050565b6000611f758261140c565b9150611f808361140c565b9250828201905080821115611f9857611f97611c75565b5b92915050565b6000608082019050611fb3600083018761146f565b611fc060208301866114b0565b8181036040830152611fd28185611516565b9050611fe1606083018461146f565b95945050505050565b7f50726f706f73616c20646f65736e277420657869737400000000000000000000600082015250565b60006120206016836114ca565b915061202b82611fea565b602082019050919050565b6000602082019050818103600083015261204f81612013565b9050919050565b7f50726f706f73616c206e6f742061637469766500000000000000000000000000600082015250565b600061208c6013836114ca565b915061209782612056565b602082019050919050565b600060208201905081810360008301526120bb8161207f565b9050919050565b7f566f74696e6720706572696f64206e6f7420656e646564000000000000000000600082015250565b60006120f86017836114ca565b9150612103826120c2565b602082019050919050565b60006020820190508181036000830152612127816120eb565b9050919050565b7f566f74696e6720706572696f6420656e64656400000000000000000000000000600082015250565b60006121646013836114ca565b915061216f8261212e565b602082019050919050565b6000602082019050818103600083015261219381612157565b9050919050565b7f416c726561647920766f74656400000000000000000000000000000000000000600082015250565b60006121d0600d836114ca565b91506121db8261219a565b602082019050919050565b600060208201905081810360008301526121ff816121c3565b9050919050565b600060608201905061221b600083018661146f565b61222860208301856114b0565b6122356040830184611915565b949350505050565b6000815461224a81611b96565b61225481866114ca565b9450600182166000811461226f5760018114612285576122b8565b60ff1983168652811515602002860193506122b8565b61228e85611cec565b60005b838110156122b057815481890152600182019150602081019050612291565b808801955050505b50505092915050565b60006060820190506122d660008301866114b0565b6122e3602083018561146f565b81810360408301526122f5818461223d565b9050949350505050565b60008151905061230e81611416565b92915050565b60006020828403121561232a57612329611402565b5b6000612338848285016122ff565b9150509291505056fea2646970667358221220ba5e9dd8f16773108042aa8c81b9f7d4b8a5c8444cccd83c3dcec06d7cb06e5f64736f6c63430008140033a264697066735822122077c318829a8aa4c570f5b405fe1d55eceb6c5ff6a4d4a98d7721089900f2c2c764736f6c63430008140033",
  "linkReferences": {},
  "deployedLinkReferences": {}
}